{
  "_format": "hh-sol-artifact-1",
  "contractName": "Yieldy",
  "sourceName": "src/contracts/Yieldy.sol",
  "abi": [
    {
      "anonymous": false,
      "inputs": [
        {
          "indexed": true,
          "internalType": "address",
          "name": "owner",
          "type": "address"
        },
        {
          "indexed": true,
          "internalType": "address",
          "name": "spender",
          "type": "address"
        },
        {
          "indexed": false,
          "internalType": "uint256",
          "name": "value",
          "type": "uint256"
        }
      ],
      "name": "Approval",
      "type": "event"
    },
    {
      "anonymous": false,
      "inputs": [
        {
          "indexed": true,
          "internalType": "uint256",
          "name": "epoch",
          "type": "uint256"
        },
        {
          "indexed": false,
          "internalType": "uint256",
          "name": "rebase",
          "type": "uint256"
        },
        {
          "indexed": false,
          "internalType": "uint256",
          "name": "index",
          "type": "uint256"
        }
      ],
      "name": "LogRebase",
      "type": "event"
    },
    {
      "anonymous": false,
      "inputs": [
        {
          "indexed": true,
          "internalType": "uint256",
          "name": "epoch",
          "type": "uint256"
        },
        {
          "indexed": false,
          "internalType": "uint256",
          "name": "timestamp",
          "type": "uint256"
        },
        {
          "indexed": false,
          "internalType": "uint256",
          "name": "totalSupply",
          "type": "uint256"
        }
      ],
      "name": "LogSupply",
      "type": "event"
    },
    {
      "anonymous": false,
      "inputs": [
        {
          "indexed": true,
          "internalType": "bytes32",
          "name": "role",
          "type": "bytes32"
        },
        {
          "indexed": true,
          "internalType": "bytes32",
          "name": "previousAdminRole",
          "type": "bytes32"
        },
        {
          "indexed": true,
          "internalType": "bytes32",
          "name": "newAdminRole",
          "type": "bytes32"
        }
      ],
      "name": "RoleAdminChanged",
      "type": "event"
    },
    {
      "anonymous": false,
      "inputs": [
        {
          "indexed": true,
          "internalType": "bytes32",
          "name": "role",
          "type": "bytes32"
        },
        {
          "indexed": true,
          "internalType": "address",
          "name": "account",
          "type": "address"
        },
        {
          "indexed": true,
          "internalType": "address",
          "name": "sender",
          "type": "address"
        }
      ],
      "name": "RoleGranted",
      "type": "event"
    },
    {
      "anonymous": false,
      "inputs": [
        {
          "indexed": true,
          "internalType": "bytes32",
          "name": "role",
          "type": "bytes32"
        },
        {
          "indexed": true,
          "internalType": "address",
          "name": "account",
          "type": "address"
        },
        {
          "indexed": true,
          "internalType": "address",
          "name": "sender",
          "type": "address"
        }
      ],
      "name": "RoleRevoked",
      "type": "event"
    },
    {
      "anonymous": false,
      "inputs": [
        {
          "indexed": true,
          "internalType": "address",
          "name": "from",
          "type": "address"
        },
        {
          "indexed": true,
          "internalType": "address",
          "name": "to",
          "type": "address"
        },
        {
          "indexed": false,
          "internalType": "uint256",
          "name": "value",
          "type": "uint256"
        }
      ],
      "name": "Transfer",
      "type": "event"
    },
    {
      "inputs": [],
      "name": "ADMIN_ROLE",
      "outputs": [
        {
          "internalType": "bytes32",
          "name": "",
          "type": "bytes32"
        }
      ],
      "stateMutability": "view",
      "type": "function"
    },
    {
      "inputs": [],
      "name": "DEFAULT_ADMIN_ROLE",
      "outputs": [
        {
          "internalType": "bytes32",
          "name": "",
          "type": "bytes32"
        }
      ],
      "stateMutability": "view",
      "type": "function"
    },
    {
      "inputs": [],
      "name": "DOMAIN_SEPARATOR",
      "outputs": [
        {
          "internalType": "bytes32",
          "name": "",
          "type": "bytes32"
        }
      ],
      "stateMutability": "view",
      "type": "function"
    },
    {
      "inputs": [],
      "name": "MINTER_BURNER_ROLE",
      "outputs": [
        {
          "internalType": "bytes32",
          "name": "",
          "type": "bytes32"
        }
      ],
      "stateMutability": "view",
      "type": "function"
    },
    {
      "inputs": [],
      "name": "REBASE_ROLE",
      "outputs": [
        {
          "internalType": "bytes32",
          "name": "",
          "type": "bytes32"
        }
      ],
      "stateMutability": "view",
      "type": "function"
    },
    {
      "inputs": [
        {
          "internalType": "address",
          "name": "owner",
          "type": "address"
        },
        {
          "internalType": "address",
          "name": "spender",
          "type": "address"
        }
      ],
      "name": "allowance",
      "outputs": [
        {
          "internalType": "uint256",
          "name": "",
          "type": "uint256"
        }
      ],
      "stateMutability": "view",
      "type": "function"
    },
    {
      "inputs": [
        {
          "internalType": "address",
          "name": "spender",
          "type": "address"
        },
        {
          "internalType": "uint256",
          "name": "amount",
          "type": "uint256"
        }
      ],
      "name": "approve",
      "outputs": [
        {
          "internalType": "bool",
          "name": "",
          "type": "bool"
        }
      ],
      "stateMutability": "nonpayable",
      "type": "function"
    },
    {
      "inputs": [
        {
          "internalType": "address",
          "name": "_wallet",
          "type": "address"
        }
      ],
      "name": "balanceOf",
      "outputs": [
        {
          "internalType": "uint256",
          "name": "",
          "type": "uint256"
        }
      ],
      "stateMutability": "view",
      "type": "function"
    },
    {
      "inputs": [
        {
          "internalType": "address",
          "name": "_address",
          "type": "address"
        },
        {
          "internalType": "uint256",
          "name": "_amount",
          "type": "uint256"
        }
      ],
      "name": "burn",
      "outputs": [],
      "stateMutability": "nonpayable",
      "type": "function"
    },
    {
      "inputs": [
        {
          "internalType": "address",
          "name": "",
          "type": "address"
        }
      ],
      "name": "creditBalances",
      "outputs": [
        {
          "internalType": "uint256",
          "name": "",
          "type": "uint256"
        }
      ],
      "stateMutability": "view",
      "type": "function"
    },
    {
      "inputs": [
        {
          "internalType": "uint256",
          "name": "_amount",
          "type": "uint256"
        }
      ],
      "name": "creditsForTokenBalance",
      "outputs": [
        {
          "internalType": "uint256",
          "name": "",
          "type": "uint256"
        }
      ],
      "stateMutability": "view",
      "type": "function"
    },
    {
      "inputs": [],
      "name": "decimals",
      "outputs": [
        {
          "internalType": "uint8",
          "name": "",
          "type": "uint8"
        }
      ],
      "stateMutability": "view",
      "type": "function"
    },
    {
      "inputs": [
        {
          "internalType": "address",
          "name": "spender",
          "type": "address"
        },
        {
          "internalType": "uint256",
          "name": "subtractedValue",
          "type": "uint256"
        }
      ],
      "name": "decreaseAllowance",
      "outputs": [
        {
          "internalType": "bool",
          "name": "",
          "type": "bool"
        }
      ],
      "stateMutability": "nonpayable",
      "type": "function"
    },
    {
      "inputs": [],
      "name": "getIndex",
      "outputs": [
        {
          "internalType": "uint256",
          "name": "",
          "type": "uint256"
        }
      ],
      "stateMutability": "view",
      "type": "function"
    },
    {
      "inputs": [
        {
          "internalType": "bytes32",
          "name": "role",
          "type": "bytes32"
        }
      ],
      "name": "getRoleAdmin",
      "outputs": [
        {
          "internalType": "bytes32",
          "name": "",
          "type": "bytes32"
        }
      ],
      "stateMutability": "view",
      "type": "function"
    },
    {
      "inputs": [
        {
          "internalType": "bytes32",
          "name": "role",
          "type": "bytes32"
        },
        {
          "internalType": "address",
          "name": "account",
          "type": "address"
        }
      ],
      "name": "grantRole",
      "outputs": [],
      "stateMutability": "nonpayable",
      "type": "function"
    },
    {
      "inputs": [
        {
          "internalType": "bytes32",
          "name": "role",
          "type": "bytes32"
        },
        {
          "internalType": "address",
          "name": "account",
          "type": "address"
        }
      ],
      "name": "hasRole",
      "outputs": [
        {
          "internalType": "bool",
          "name": "",
          "type": "bool"
        }
      ],
      "stateMutability": "view",
      "type": "function"
    },
    {
      "inputs": [
        {
          "internalType": "address",
          "name": "spender",
          "type": "address"
        },
        {
          "internalType": "uint256",
          "name": "addedValue",
          "type": "uint256"
        }
      ],
      "name": "increaseAllowance",
      "outputs": [
        {
          "internalType": "bool",
          "name": "",
          "type": "bool"
        }
      ],
      "stateMutability": "nonpayable",
      "type": "function"
    },
    {
      "inputs": [],
      "name": "index",
      "outputs": [
        {
          "internalType": "uint256",
          "name": "",
          "type": "uint256"
        }
      ],
      "stateMutability": "view",
      "type": "function"
    },
    {
      "inputs": [
        {
          "internalType": "string",
          "name": "_tokenName",
          "type": "string"
        },
        {
          "internalType": "string",
          "name": "_tokenSymbol",
          "type": "string"
        },
        {
          "internalType": "uint8",
          "name": "_decimal",
          "type": "uint8"
        }
      ],
      "name": "initialize",
      "outputs": [],
      "stateMutability": "nonpayable",
      "type": "function"
    },
    {
      "inputs": [
        {
          "internalType": "address",
          "name": "_stakingContract",
          "type": "address"
        }
      ],
      "name": "initializeStakingContract",
      "outputs": [],
      "stateMutability": "nonpayable",
      "type": "function"
    },
    {
      "inputs": [
        {
          "internalType": "address",
          "name": "_address",
          "type": "address"
        },
        {
          "internalType": "uint256",
          "name": "_amount",
          "type": "uint256"
        }
      ],
      "name": "mint",
      "outputs": [],
      "stateMutability": "nonpayable",
      "type": "function"
    },
    {
      "inputs": [],
      "name": "name",
      "outputs": [
        {
          "internalType": "string",
          "name": "",
          "type": "string"
        }
      ],
      "stateMutability": "view",
      "type": "function"
    },
    {
      "inputs": [
        {
          "internalType": "address",
          "name": "owner",
          "type": "address"
        }
      ],
      "name": "nonces",
      "outputs": [
        {
          "internalType": "uint256",
          "name": "",
          "type": "uint256"
        }
      ],
      "stateMutability": "view",
      "type": "function"
    },
    {
      "inputs": [
        {
          "internalType": "address",
          "name": "owner",
          "type": "address"
        },
        {
          "internalType": "address",
          "name": "spender",
          "type": "address"
        },
        {
          "internalType": "uint256",
          "name": "value",
          "type": "uint256"
        },
        {
          "internalType": "uint256",
          "name": "deadline",
          "type": "uint256"
        },
        {
          "internalType": "uint8",
          "name": "v",
          "type": "uint8"
        },
        {
          "internalType": "bytes32",
          "name": "r",
          "type": "bytes32"
        },
        {
          "internalType": "bytes32",
          "name": "s",
          "type": "bytes32"
        }
      ],
      "name": "permit",
      "outputs": [],
      "stateMutability": "nonpayable",
      "type": "function"
    },
    {
      "inputs": [
        {
          "internalType": "uint256",
          "name": "_profit",
          "type": "uint256"
        },
        {
          "internalType": "uint256",
          "name": "_epoch",
          "type": "uint256"
        }
      ],
      "name": "rebase",
      "outputs": [],
      "stateMutability": "nonpayable",
      "type": "function"
    },
    {
      "inputs": [
        {
          "internalType": "uint256",
          "name": "",
          "type": "uint256"
        }
      ],
      "name": "rebases",
      "outputs": [
        {
          "internalType": "uint256",
          "name": "epoch",
          "type": "uint256"
        },
        {
          "internalType": "uint256",
          "name": "rebase",
          "type": "uint256"
        },
        {
          "internalType": "uint256",
          "name": "totalStakedBefore",
          "type": "uint256"
        },
        {
          "internalType": "uint256",
          "name": "totalStakedAfter",
          "type": "uint256"
        },
        {
          "internalType": "uint256",
          "name": "amountRebased",
          "type": "uint256"
        },
        {
          "internalType": "uint256",
          "name": "index",
          "type": "uint256"
        },
        {
          "internalType": "uint256",
          "name": "blockNumberOccurred",
          "type": "uint256"
        }
      ],
      "stateMutability": "view",
      "type": "function"
    },
    {
      "inputs": [],
      "name": "rebasingCredits",
      "outputs": [
        {
          "internalType": "uint256",
          "name": "",
          "type": "uint256"
        }
      ],
      "stateMutability": "view",
      "type": "function"
    },
    {
      "inputs": [],
      "name": "rebasingCreditsPerToken",
      "outputs": [
        {
          "internalType": "uint256",
          "name": "",
          "type": "uint256"
        }
      ],
      "stateMutability": "view",
      "type": "function"
    },
    {
      "inputs": [
        {
          "internalType": "bytes32",
          "name": "role",
          "type": "bytes32"
        },
        {
          "internalType": "address",
          "name": "account",
          "type": "address"
        }
      ],
      "name": "renounceRole",
      "outputs": [],
      "stateMutability": "nonpayable",
      "type": "function"
    },
    {
      "inputs": [
        {
          "internalType": "bytes32",
          "name": "role",
          "type": "bytes32"
        },
        {
          "internalType": "address",
          "name": "account",
          "type": "address"
        }
      ],
      "name": "revokeRole",
      "outputs": [],
      "stateMutability": "nonpayable",
      "type": "function"
    },
    {
      "inputs": [],
      "name": "stakingContract",
      "outputs": [
        {
          "internalType": "address",
          "name": "",
          "type": "address"
        }
      ],
      "stateMutability": "view",
      "type": "function"
    },
    {
      "inputs": [
        {
          "internalType": "bytes4",
          "name": "interfaceId",
          "type": "bytes4"
        }
      ],
      "name": "supportsInterface",
      "outputs": [
        {
          "internalType": "bool",
          "name": "",
          "type": "bool"
        }
      ],
      "stateMutability": "view",
      "type": "function"
    },
    {
      "inputs": [],
      "name": "symbol",
      "outputs": [
        {
          "internalType": "string",
          "name": "",
          "type": "string"
        }
      ],
      "stateMutability": "view",
      "type": "function"
    },
    {
      "inputs": [
        {
          "internalType": "uint256",
          "name": "_credits",
          "type": "uint256"
        }
      ],
      "name": "tokenBalanceForCredits",
      "outputs": [
        {
          "internalType": "uint256",
          "name": "",
          "type": "uint256"
        }
      ],
      "stateMutability": "view",
      "type": "function"
    },
    {
      "inputs": [],
      "name": "totalSupply",
      "outputs": [
        {
          "internalType": "uint256",
          "name": "",
          "type": "uint256"
        }
      ],
      "stateMutability": "view",
      "type": "function"
    },
    {
      "inputs": [
        {
          "internalType": "address",
          "name": "_to",
          "type": "address"
        },
        {
          "internalType": "uint256",
          "name": "_value",
          "type": "uint256"
        }
      ],
      "name": "transfer",
      "outputs": [
        {
          "internalType": "bool",
          "name": "",
          "type": "bool"
        }
      ],
      "stateMutability": "nonpayable",
      "type": "function"
    },
    {
      "inputs": [
        {
          "internalType": "address",
          "name": "_from",
          "type": "address"
        },
        {
          "internalType": "address",
          "name": "_to",
          "type": "address"
        },
        {
          "internalType": "uint256",
          "name": "_value",
          "type": "uint256"
        }
      ],
      "name": "transferFrom",
      "outputs": [
        {
          "internalType": "bool",
          "name": "",
          "type": "bool"
        }
      ],
      "stateMutability": "nonpayable",
      "type": "function"
    }
  ],
  "bytecode": "0x608060405234801561001057600080fd5b5061330f806100206000396000f3fe608060405234801561001057600080fd5b50600436106102925760003560e01c806370a08231116101605780639dc29fac116100d8578063d505accf1161008c578063dd62ed3e11610071578063dd62ed3e146105b1578063edaefc31146105f7578063ee99205c1461061e57600080fd5b8063d505accf1461058b578063d547741f1461059e57600080fd5b8063a457c2d7116100bd578063a457c2d714610552578063a9059cbb14610565578063bcc5ceca1461057857600080fd5b80639dc29fac14610537578063a217fddf1461054a57600080fd5b80637ecebe001161012f57806391d148541161011457806391d14854146104d657806392386fb51461051c57806395d89b411461052f57600080fd5b80637ecebe00146104bb57806381045ead146104ce57600080fd5b806370a082311461041257806372c328601461042557806373c69eb71461044c57806375b238fc1461049457600080fd5b8063248a9ca31161020e57806336568abe116101c257806340c10f19116101a757806340c10f19146103d65780636009a2d8146103e95780636691cb3d1461040957600080fd5b806336568abe146103b057806339509351146103c357600080fd5b80632f2ff15d116101f35780632f2ff15d14610380578063313ce567146103935780633644e515146103a857600080fd5b8063248a9ca3146103545780632986c0e51461037757600080fd5b8063095ea7b31161026557806318160ddd1161024a57806318160ddd1461032657806320eed4291461032e57806323b872dd1461034157600080fd5b8063095ea7b3146103005780631624f6c61461031357600080fd5b806301ffc9a714610297578063058ecdb4146102bf57806306fdde03146102d4578063077f22b7146102e9575b600080fd5b6102aa6102a5366004612baf565b610663565b60405190151581526020015b60405180910390f35b6102d26102cd366004612bf1565b6106fc565b005b6102dc6108e9565b6040516102b69190612c3f565b6102f260055481565b6040519081526020016102b6565b6102aa61030e366004612cb9565b61097b565b6102d2610321366004612dce565b610991565b603c546102f2565b6102f261033c366004612e42565b610c08565b6102aa61034f366004612e5b565b610c18565b6102f2610362366004612e42565b600090815260d8602052604090206001015490565b6102f260025481565b6102d261038e366004612e97565b610e49565b60075460405160ff90911681526020016102b6565b6102f2610e74565b6102d26103be366004612e97565b610e83565b6102aa6103d1366004612cb9565b610f36565b6102d26103e4366004612cb9565b610f7f565b6102f26103f7366004612ec3565b60066020526000908152604090205481565b6102f260045481565b6102f2610420366004612ec3565b611181565b6102f27fcfd53186d792f1ec9d0679afc2dc3ffc86fc31fe1e0f342b838eb6c3eade62b381565b61045f61045a366004612e42565b6111b5565b604080519788526020880196909652948601939093526060850191909152608084015260a083015260c082015260e0016102b6565b6102f27fdf8b4c520ffe197c5343c6f5aec59570151ef9a492f2c624fd45ddde6135ec4281565b6102f26104c9366004612ec3565b611207565b6102f2611232565b6102aa6104e4366004612e97565b600091825260d86020908152604080842073ffffffffffffffffffffffffffffffffffffffff93909316845291905290205460ff1690565b6102f261052a366004612e42565b61123b565b6102dc61124b565b6102d2610545366004612cb9565b61125a565b6102f2600081565b6102aa610560366004612cb9565b61147d565b6102aa610573366004612cb9565b611555565b6102d2610586366004612ec3565b611725565b6102d2610599366004612ede565b6118e1565b6102d26105ac366004612e97565b611aa0565b6102f26105bf366004612f48565b73ffffffffffffffffffffffffffffffffffffffff9182166000908152603b6020908152604080832093909416825291909152205490565b6102f27f2cb8fee3430f011f8ea5df36a120dd5a293aa25c9ca88cc51159a94f41f768bb81565b60005461063e9073ffffffffffffffffffffffffffffffffffffffff1681565b60405173ffffffffffffffffffffffffffffffffffffffff90911681526020016102b6565b60007fffffffff0000000000000000000000000000000000000000000000000000000082167f7965db0b0000000000000000000000000000000000000000000000000000000014806106f657507f01ffc9a7000000000000000000000000000000000000000000000000000000007fffffffff000000000000000000000000000000000000000000000000000000008316145b92915050565b7f2cb8fee3430f011f8ea5df36a120dd5a293aa25c9ca88cc51159a94f41f768bb6107278133611ac6565b603c5480610796576040517f08c379a000000000000000000000000000000000000000000000000000000000815260206004820152601f60248201527f43616e277420726562617365206966206e6f742063697263756c6174696e670060448201526064015b60405180910390fd5b8361081f57604080514281526020810183905284917f917acfbe39be6509ccf7fecb66a7e42ce2be1083c2d7dd3b9b7491dabddb8da4910160405180910390a2827f6012dbce857565c4a40974aa5de8373a761fc429077ef0c8c8611d1e20d63fb26000610802611232565b6040805192835260208301919091520160405180910390a26108e3565b600061082b8583612fa1565b90506fffffffffffffffffffffffffffffffff81111561085857506fffffffffffffffffffffffffffffffff5b806005546108669190612fb9565b60048190556108d1576040517f08c379a000000000000000000000000000000000000000000000000000000000815260206004820152601860248201527f496e76616c6964206368616e676520696e20737570706c790000000000000000604482015260640161078d565b603c8190556108e1818686611b98565b505b50505050565b6060603d80546108f890612ff4565b80601f016020809104026020016040519081016040528092919081815260200182805461092490612ff4565b80156109715780601f1061094657610100808354040283529160200191610971565b820191906000526020600020905b81548152906001019060200180831161095457829003601f168201915b5050505050905090565b6000610988338484611cd5565b50600192915050565b60075462010000900460ff166109b257600754610100900460ff16156109b6565b303b155b610a42576040517f08c379a000000000000000000000000000000000000000000000000000000000815260206004820152602e60248201527f496e697469616c697a61626c653a20636f6e747261637420697320616c72656160448201527f647920696e697469616c697a6564000000000000000000000000000000000000606482015260840161078d565b60075462010000900460ff16158015610a8357600780547fffffffffffffffffffffffffffffffffffffffffffffffffffffffffff0000ff16620101001790555b610a8d8484611e88565b610a9684611f2a565b610a9e612004565b610ac87fdf8b4c520ffe197c5343c6f5aec59570151ef9a492f2c624fd45ddde6135ec423361209e565b610af27fdf8b4c520ffe197c5343c6f5aec59570151ef9a492f2c624fd45ddde6135ec42806120a8565b610b3c7fcfd53186d792f1ec9d0679afc2dc3ffc86fc31fe1e0f342b838eb6c3eade62b37fdf8b4c520ffe197c5343c6f5aec59570151ef9a492f2c624fd45ddde6135ec426120a8565b610b867f2cb8fee3430f011f8ea5df36a120dd5a293aa25c9ca88cc51159a94f41f768bb7fdf8b4c520ffe197c5343c6f5aec59570151ef9a492f2c624fd45ddde6135ec426120a8565b600780547fffffffffffffffffffffffffffffffffffffffffffffffffffffffffffffff001660ff8416908117909155610bc190600a613162565b60038190556004819055610bd4906120f3565b80156108e357600780547fffffffffffffffffffffffffffffffffffffffffffffffffffffffffff00ffff16905550505050565b6000600454826106f69190613171565b73ffffffffffffffffffffffffffffffffffffffff83166000908152603b60209081526040808320338452909152812054821115610cb2576040517f08c379a000000000000000000000000000000000000000000000000000000000815260206004820152601160248201527f416c6c6f77616e636520746f6f206c6f77000000000000000000000000000000604482015260640161078d565b73ffffffffffffffffffffffffffffffffffffffff84166000908152603b60209081526040808320338452909152812054610cee9084906131ae565b73ffffffffffffffffffffffffffffffffffffffff86166000818152603b6020908152604080832033808552908352928190208590555184815293945090927f8c5be1e5ebec7d5bd14f71427d1e84f3dd0314c0f7b2291e5b200ac8c7c3b925910160405180910390a36000610d6384610c08565b73ffffffffffffffffffffffffffffffffffffffff8716600090815260066020526040902054909150610d979082906131ae565b73ffffffffffffffffffffffffffffffffffffffff8088166000908152600660205260408082209390935590871681522054610dd4908290612fa1565b73ffffffffffffffffffffffffffffffffffffffff80871660008181526006602052604090819020939093559151908816907fddf252ad1be2c89b69c2b068fc378daa952ba7f163c4a11628f55a4df523b3ef90610e359088815260200190565b60405180910390a350600195945050505050565b600082815260d86020526040902060010154610e658133611ac6565b610e6f8383612102565b505050565b6000610e7e6121f6565b905090565b73ffffffffffffffffffffffffffffffffffffffff81163314610f28576040517f08c379a000000000000000000000000000000000000000000000000000000000815260206004820152602f60248201527f416363657373436f6e74726f6c3a2063616e206f6e6c792072656e6f756e636560448201527f20726f6c657320666f722073656c660000000000000000000000000000000000606482015260840161078d565b610f328282612269565b5050565b336000818152603b6020908152604080832073ffffffffffffffffffffffffffffffffffffffff871684529091528120549091610988918590610f7a908690612fa1565b611cd5565b7fcfd53186d792f1ec9d0679afc2dc3ffc86fc31fe1e0f342b838eb6c3eade62b3610faa8133611ac6565b73ffffffffffffffffffffffffffffffffffffffff8316611027576040517f08c379a000000000000000000000000000000000000000000000000000000000815260206004820152601860248201527f4d696e7420746f20746865207a65726f20616464726573730000000000000000604482015260640161078d565b6000600454836110379190613171565b73ffffffffffffffffffffffffffffffffffffffff851660009081526006602052604090205490915061106b908290612fa1565b73ffffffffffffffffffffffffffffffffffffffff851660009081526006602052604090205560055461109f908290612fa1565b600555603c546110b0908490612fa1565b603c8190556fffffffffffffffffffffffffffffffff1161112d576040517f08c379a000000000000000000000000000000000000000000000000000000000815260206004820152600a60248201527f4d617820737570706c7900000000000000000000000000000000000000000000604482015260640161078d565b60405183815273ffffffffffffffffffffffffffffffffffffffff8516906000907fddf252ad1be2c89b69c2b068fc378daa952ba7f163c4a11628f55a4df523b3ef9060200160405180910390a350505050565b60045473ffffffffffffffffffffffffffffffffffffffff821660009081526006602052604081205490916106f691612fb9565b600181815481106111c557600080fd5b90600052602060002090600702016000915090508060000154908060010154908060020154908060030154908060040154908060050154908060060154905087565b73ffffffffffffffffffffffffffffffffffffffff81166000908152607360205260408120546106f6565b6000610e7e6002545b6000600454826106f69190612fb9565b6060603e80546108f890612ff4565b7fcfd53186d792f1ec9d0679afc2dc3ffc86fc31fe1e0f342b838eb6c3eade62b36112858133611ac6565b73ffffffffffffffffffffffffffffffffffffffff8316611302576040517f08c379a000000000000000000000000000000000000000000000000000000000815260206004820152601a60248201527f4275726e2066726f6d20746865207a65726f2061646472657373000000000000604482015260640161078d565b8161130c57505050565b60006004548361131c9190613171565b73ffffffffffffffffffffffffffffffffffffffff8516600090815260066020526040902054909150818110156113af576040517f08c379a000000000000000000000000000000000000000000000000000000000815260206004820152601260248201527f4e6f7420656e6f7567682062616c616e63650000000000000000000000000000604482015260640161078d565b73ffffffffffffffffffffffffffffffffffffffff85166000908152600660205260409020546113e09083906131ae565b73ffffffffffffffffffffffffffffffffffffffff86166000908152600660205260409020556005546114149083906131ae565b600555603c546114259085906131ae565b603c5560405184815260009073ffffffffffffffffffffffffffffffffffffffff8716907fddf252ad1be2c89b69c2b068fc378daa952ba7f163c4a11628f55a4df523b3ef9060200160405180910390a35050505050565b336000908152603b6020908152604080832073ffffffffffffffffffffffffffffffffffffffff861684529091528120548281101561153e576040517f08c379a000000000000000000000000000000000000000000000000000000000815260206004820152602560248201527f45524332303a2064656372656173656420616c6c6f77616e63652062656c6f7760448201527f207a65726f000000000000000000000000000000000000000000000000000000606482015260840161078d565b61154b3385858403611cd5565b5060019392505050565b600073ffffffffffffffffffffffffffffffffffffffff83166115d4576040517f08c379a000000000000000000000000000000000000000000000000000000000815260206004820152600f60248201527f496e76616c696420616464726573730000000000000000000000000000000000604482015260640161078d565b6000600454836115e49190613171565b33600090815260066020526040902054909150811115611660576040517f08c379a000000000000000000000000000000000000000000000000000000000815260206004820152601060248201527f4e6f7420656e6f7567682066756e647300000000000000000000000000000000604482015260640161078d565b3360009081526006602052604090205461167b9082906131ae565b336000908152600660205260408082209290925573ffffffffffffffffffffffffffffffffffffffff8616815220546116b5908290612fa1565b73ffffffffffffffffffffffffffffffffffffffff85166000818152600660205260409081902092909255905133907fddf252ad1be2c89b69c2b068fc378daa952ba7f163c4a11628f55a4df523b3ef906117139087815260200190565b60405180910390a35060019392505050565b7fdf8b4c520ffe197c5343c6f5aec59570151ef9a492f2c624fd45ddde6135ec426117508133611ac6565b60005473ffffffffffffffffffffffffffffffffffffffff16156117d0576040517f08c379a000000000000000000000000000000000000000000000000000000000815260206004820152601360248201527f416c726561647920496e697469616c697a656400000000000000000000000000604482015260640161078d565b73ffffffffffffffffffffffffffffffffffffffff821661184d576040517f08c379a000000000000000000000000000000000000000000000000000000000815260206004820152600f60248201527f496e76616c696420616464726573730000000000000000000000000000000000604482015260640161078d565b600080547fffffffffffffffffffffffff00000000000000000000000000000000000000001673ffffffffffffffffffffffffffffffffffffffff84161790556118b77fcfd53186d792f1ec9d0679afc2dc3ffc86fc31fe1e0f342b838eb6c3eade62b38361209e565b610f327f2cb8fee3430f011f8ea5df36a120dd5a293aa25c9ca88cc51159a94f41f768bb8361209e565b8342111561194b576040517f08c379a000000000000000000000000000000000000000000000000000000000815260206004820152601d60248201527f45524332305065726d69743a206578706972656420646561646c696e65000000604482015260640161078d565b60007f6e71edae12b1b97f4d1f60370fef10105fa2faae0126114a169c64845d6126c988888861197a8c612324565b60408051602081019690965273ffffffffffffffffffffffffffffffffffffffff94851690860152929091166060840152608083015260a082015260c0810186905260e00160405160208183030381529060405280519060200120905060006119e282612359565b905060006119f2828787876123c2565b90508973ffffffffffffffffffffffffffffffffffffffff168173ffffffffffffffffffffffffffffffffffffffff1614611a89576040517f08c379a000000000000000000000000000000000000000000000000000000000815260206004820152601e60248201527f45524332305065726d69743a20696e76616c6964207369676e61747572650000604482015260640161078d565b611a948a8a8a611cd5565b50505050505050505050565b600082815260d86020526040902060010154611abc8133611ac6565b610e6f8383612269565b600082815260d86020908152604080832073ffffffffffffffffffffffffffffffffffffffff8516845290915290205460ff16610f3257611b1e8173ffffffffffffffffffffffffffffffffffffffff1660146123ea565b611b298360206123ea565b604051602001611b3a9291906131c5565b604080517fffffffffffffffffffffffffffffffffffffffffffffffffffffffffffffffe0818403018152908290527f08c379a000000000000000000000000000000000000000000000000000000000825261078d91600401612c3f565b60008360035484611ba99190613171565b611bb39190612fb9565b905060016040518060e00160405280848152602001838152602001868152602001603c548152602001858152602001611bea611232565b815243602091820152825460018082018555600094855293829020835160079092020190815582820151938101939093556040808301516002850155606083015160038501556080830151600485015560a0830151600585015560c090920151600690930192909255603c5481514281529283015283917f917acfbe39be6509ccf7fecb66a7e42ce2be1083c2d7dd3b9b7491dabddb8da4910160405180910390a2817f6012dbce857565c4a40974aa5de8373a761fc429077ef0c8c8611d1e20d63fb282611cb7611232565b6040805192835260208301919091520160405180910390a250505050565b73ffffffffffffffffffffffffffffffffffffffff8316611d77576040517f08c379a0000000000000000000000000000000000000000000000000000000008152602060048201526024808201527f45524332303a20617070726f76652066726f6d20746865207a65726f2061646460448201527f7265737300000000000000000000000000000000000000000000000000000000606482015260840161078d565b73ffffffffffffffffffffffffffffffffffffffff8216611e1a576040517f08c379a000000000000000000000000000000000000000000000000000000000815260206004820152602260248201527f45524332303a20617070726f766520746f20746865207a65726f20616464726560448201527f7373000000000000000000000000000000000000000000000000000000000000606482015260840161078d565b73ffffffffffffffffffffffffffffffffffffffff8381166000818152603b602090815260408083209487168084529482529182902085905590518481527f8c5be1e5ebec7d5bd14f71427d1e84f3dd0314c0f7b2291e5b200ac8c7c3b925910160405180910390a3505050565b60075462010000900460ff16611f20576040517f08c379a000000000000000000000000000000000000000000000000000000000815260206004820152602b60248201527f496e697469616c697a61626c653a20636f6e7472616374206973206e6f74206960448201527f6e697469616c697a696e67000000000000000000000000000000000000000000606482015260840161078d565b610f328282612634565b60075462010000900460ff16611fc2576040517f08c379a000000000000000000000000000000000000000000000000000000000815260206004820152602b60248201527f496e697469616c697a61626c653a20636f6e7472616374206973206e6f74206960448201527f6e697469616c697a696e67000000000000000000000000000000000000000000606482015260840161078d565b612001816040518060400160405280600181526020017f31000000000000000000000000000000000000000000000000000000000000008152506126f3565b50565b60075462010000900460ff1661209c576040517f08c379a000000000000000000000000000000000000000000000000000000000815260206004820152602b60248201527f496e697469616c697a61626c653a20636f6e7472616374206973206e6f74206960448201527f6e697469616c697a696e67000000000000000000000000000000000000000000606482015260840161078d565b565b610f328282612102565b600082815260d86020526040808220600101805490849055905190918391839186917fbd79b86ffe0ab8e8776151514217cd7cacd52c909f66475c3af44e129f0b00ff9190a4505050565b6120fc81610c08565b60025550565b600082815260d86020908152604080832073ffffffffffffffffffffffffffffffffffffffff8516845290915290205460ff16610f3257600082815260d86020908152604080832073ffffffffffffffffffffffffffffffffffffffff85168452909152902080547fffffffffffffffffffffffffffffffffffffffffffffffffffffffffffffff001660011790556121983390565b73ffffffffffffffffffffffffffffffffffffffff168173ffffffffffffffffffffffffffffffffffffffff16837f2f8788117e7eff1d82e926ec794901d17c78024a50270940304540a733656f0d60405160405180910390a45050565b6000610e7e7f8b73c3c69bb8fe3d512ecc4cf759cc79239f7b179b0ffacaa9a75d522b39400f612225603f5490565b6040805481516020808201959095528083019390935260608301524660808301523060a0808401919091528151808403909101815260c09092019052805191012090565b600082815260d86020908152604080832073ffffffffffffffffffffffffffffffffffffffff8516845290915290205460ff1615610f3257600082815260d86020908152604080832073ffffffffffffffffffffffffffffffffffffffff8516808552925280832080547fffffffffffffffffffffffffffffffffffffffffffffffffffffffffffffff0016905551339285917ff6391f5c32d9c69d2a47ea670b442974b53935d1edc7fd64eb21e047a839171b9190a45050565b73ffffffffffffffffffffffffffffffffffffffff811660009081526073602052604090208054600181018255905b50919050565b60006106f66123666121f6565b836040517f19010000000000000000000000000000000000000000000000000000000000006020820152602281018390526042810182905260009060620160405160208183030381529060405280519060200120905092915050565b60008060006123d3878787876127a5565b915091506123e0816128bd565b5095945050505050565b606060006123f9836002613171565b612404906002612fa1565b67ffffffffffffffff81111561241c5761241c612ce3565b6040519080825280601f01601f191660200182016040528015612446576020820181803683370190505b5090507f30000000000000000000000000000000000000000000000000000000000000008160008151811061247d5761247d613246565b60200101907effffffffffffffffffffffffffffffffffffffffffffffffffffffffffffff1916908160001a9053507f7800000000000000000000000000000000000000000000000000000000000000816001815181106124e0576124e0613246565b60200101907effffffffffffffffffffffffffffffffffffffffffffffffffffffffffffff1916908160001a905350600061251c846002613171565b612527906001612fa1565b90505b60018111156125c4577f303132333435363738396162636465660000000000000000000000000000000085600f166010811061256857612568613246565b1a60f81b82828151811061257e5761257e613246565b60200101907effffffffffffffffffffffffffffffffffffffffffffffffffffffffffffff1916908160001a90535060049490941c936125bd81613275565b905061252a565b50831561262d576040517f08c379a000000000000000000000000000000000000000000000000000000000815260206004820181905260248201527f537472696e67733a20686578206c656e67746820696e73756666696369656e74604482015260640161078d565b9392505050565b60075462010000900460ff166126cc576040517f08c379a000000000000000000000000000000000000000000000000000000000815260206004820152602b60248201527f496e697469616c697a61626c653a20636f6e7472616374206973206e6f74206960448201527f6e697469616c697a696e67000000000000000000000000000000000000000000606482015260840161078d565b81516126df90603d906020850190612b16565b508051610e6f90603e906020840190612b16565b60075462010000900460ff1661278b576040517f08c379a000000000000000000000000000000000000000000000000000000000815260206004820152602b60248201527f496e697469616c697a61626c653a20636f6e7472616374206973206e6f74206960448201527f6e697469616c697a696e67000000000000000000000000000000000000000000606482015260840161078d565b815160209283012081519190920120603f91909155604055565b6000807f7fffffffffffffffffffffffffffffff5d576e7357a4501ddfe92f46681b20a08311156127dc57506000905060036128b4565b8460ff16601b141580156127f457508460ff16601c14155b1561280557506000905060046128b4565b6040805160008082526020820180845289905260ff881692820192909252606081018690526080810185905260019060a0016020604051602081039080840390855afa158015612859573d6000803e3d6000fd5b50506040517fffffffffffffffffffffffffffffffffffffffffffffffffffffffffffffffe0015191505073ffffffffffffffffffffffffffffffffffffffff81166128ad576000600192509250506128b4565b9150600090505b94509492505050565b60008160048111156128d1576128d16132aa565b14156128da5750565b60018160048111156128ee576128ee6132aa565b1415612956576040517f08c379a000000000000000000000000000000000000000000000000000000000815260206004820152601860248201527f45434453413a20696e76616c6964207369676e61747572650000000000000000604482015260640161078d565b600281600481111561296a5761296a6132aa565b14156129d2576040517f08c379a000000000000000000000000000000000000000000000000000000000815260206004820152601f60248201527f45434453413a20696e76616c6964207369676e6174757265206c656e67746800604482015260640161078d565b60038160048111156129e6576129e66132aa565b1415612a74576040517f08c379a000000000000000000000000000000000000000000000000000000000815260206004820152602260248201527f45434453413a20696e76616c6964207369676e6174757265202773272076616c60448201527f7565000000000000000000000000000000000000000000000000000000000000606482015260840161078d565b6004816004811115612a8857612a886132aa565b1415612001576040517f08c379a000000000000000000000000000000000000000000000000000000000815260206004820152602260248201527f45434453413a20696e76616c6964207369676e6174757265202776272076616c60448201527f7565000000000000000000000000000000000000000000000000000000000000606482015260840161078d565b828054612b2290612ff4565b90600052602060002090601f016020900481019282612b445760008555612b8a565b82601f10612b5d57805160ff1916838001178555612b8a565b82800160010185558215612b8a579182015b82811115612b8a578251825591602001919060010190612b6f565b50612b96929150612b9a565b5090565b5b80821115612b965760008155600101612b9b565b600060208284031215612bc157600080fd5b81357fffffffff000000000000000000000000000000000000000000000000000000008116811461262d57600080fd5b60008060408385031215612c0457600080fd5b50508035926020909101359150565b60005b83811015612c2e578181015183820152602001612c16565b838111156108e35750506000910152565b6020815260008251806020840152612c5e816040850160208701612c13565b601f017fffffffffffffffffffffffffffffffffffffffffffffffffffffffffffffffe0169190910160400192915050565b803573ffffffffffffffffffffffffffffffffffffffff81168114612cb457600080fd5b919050565b60008060408385031215612ccc57600080fd5b612cd583612c90565b946020939093013593505050565b7f4e487b7100000000000000000000000000000000000000000000000000000000600052604160045260246000fd5b600082601f830112612d2357600080fd5b813567ffffffffffffffff80821115612d3e57612d3e612ce3565b604051601f83017fffffffffffffffffffffffffffffffffffffffffffffffffffffffffffffffe0908116603f01168101908282118183101715612d8457612d84612ce3565b81604052838152866020858801011115612d9d57600080fd5b836020870160208301376000602085830101528094505050505092915050565b803560ff81168114612cb457600080fd5b600080600060608486031215612de357600080fd5b833567ffffffffffffffff80821115612dfb57600080fd5b612e0787838801612d12565b94506020860135915080821115612e1d57600080fd5b50612e2a86828701612d12565b925050612e3960408501612dbd565b90509250925092565b600060208284031215612e5457600080fd5b5035919050565b600080600060608486031215612e7057600080fd5b612e7984612c90565b9250612e8760208501612c90565b9150604084013590509250925092565b60008060408385031215612eaa57600080fd5b82359150612eba60208401612c90565b90509250929050565b600060208284031215612ed557600080fd5b61262d82612c90565b600080600080600080600060e0888a031215612ef957600080fd5b612f0288612c90565b9650612f1060208901612c90565b95506040880135945060608801359350612f2c60808901612dbd565b925060a0880135915060c0880135905092959891949750929550565b60008060408385031215612f5b57600080fd5b612f6483612c90565b9150612eba60208401612c90565b7f4e487b7100000000000000000000000000000000000000000000000000000000600052601160045260246000fd5b60008219821115612fb457612fb4612f72565b500190565b600082612fef577f4e487b7100000000000000000000000000000000000000000000000000000000600052601260045260246000fd5b500490565b600181811c9082168061300857607f821691505b60208210811415612353577f4e487b7100000000000000000000000000000000000000000000000000000000600052602260045260246000fd5b600181815b8085111561309b57817fffffffffffffffffffffffffffffffffffffffffffffffffffffffffffffffff0482111561308157613081612f72565b8085161561308e57918102915b93841c9390800290613047565b509250929050565b6000826130b2575060016106f6565b816130bf575060006106f6565b81600181146130d557600281146130df576130fb565b60019150506106f6565b60ff8411156130f0576130f0612f72565b50506001821b6106f6565b5060208310610133831016604e8410600b841016171561311e575081810a6106f6565b6131288383613042565b807fffffffffffffffffffffffffffffffffffffffffffffffffffffffffffffffff0482111561315a5761315a612f72565b029392505050565b600061262d60ff8416836130a3565b6000817fffffffffffffffffffffffffffffffffffffffffffffffffffffffffffffffff04831182151516156131a9576131a9612f72565b500290565b6000828210156131c0576131c0612f72565b500390565b7f416363657373436f6e74726f6c3a206163636f756e74200000000000000000008152600083516131fd816017850160208801612c13565b7f206973206d697373696e6720726f6c6520000000000000000000000000000000601791840191820152835161323a816028840160208801612c13565b01602801949350505050565b7f4e487b7100000000000000000000000000000000000000000000000000000000600052603260045260246000fd5b60008161328457613284612f72565b507fffffffffffffffffffffffffffffffffffffffffffffffffffffffffffffffff0190565b7f4e487b7100000000000000000000000000000000000000000000000000000000600052602160045260246000fdfea2646970667358221220bc481b98bd7e9a0cf92ea5ece85b51d3607053902c88f6b53f8fc20c4e10c7a364736f6c63430008090033",
  "linkReferences": {},
  "deployedLinkReferences": {}
}