{
  "_format": "hh-sol-artifact-1",
  "contractName": "Yieldy",
  "sourceName": "src/contracts/Yieldy.sol",
  "abi": [
    {
      "anonymous": false,
      "inputs": [
        {
          "indexed": true,
          "internalType": "address",
          "name": "owner",
          "type": "address"
        },
        {
          "indexed": true,
          "internalType": "address",
          "name": "spender",
          "type": "address"
        },
        {
          "indexed": false,
          "internalType": "uint256",
          "name": "value",
          "type": "uint256"
        }
      ],
      "name": "Approval",
      "type": "event"
    },
    {
      "anonymous": false,
      "inputs": [
        {
          "indexed": true,
          "internalType": "uint256",
          "name": "epoch",
          "type": "uint256"
        },
        {
          "indexed": false,
          "internalType": "uint256",
          "name": "rebase",
          "type": "uint256"
        },
        {
          "indexed": false,
          "internalType": "uint256",
          "name": "index",
          "type": "uint256"
        }
      ],
      "name": "LogRebase",
      "type": "event"
    },
    {
      "anonymous": false,
      "inputs": [
        {
          "indexed": true,
          "internalType": "uint256",
          "name": "epoch",
          "type": "uint256"
        },
        {
          "indexed": false,
          "internalType": "uint256",
          "name": "timestamp",
          "type": "uint256"
        },
        {
          "indexed": false,
          "internalType": "uint256",
          "name": "totalSupply",
          "type": "uint256"
        }
      ],
      "name": "LogSupply",
      "type": "event"
    },
    {
      "anonymous": false,
      "inputs": [
        {
          "indexed": true,
          "internalType": "bytes32",
          "name": "role",
          "type": "bytes32"
        },
        {
          "indexed": true,
          "internalType": "bytes32",
          "name": "previousAdminRole",
          "type": "bytes32"
        },
        {
          "indexed": true,
          "internalType": "bytes32",
          "name": "newAdminRole",
          "type": "bytes32"
        }
      ],
      "name": "RoleAdminChanged",
      "type": "event"
    },
    {
      "anonymous": false,
      "inputs": [
        {
          "indexed": true,
          "internalType": "bytes32",
          "name": "role",
          "type": "bytes32"
        },
        {
          "indexed": true,
          "internalType": "address",
          "name": "account",
          "type": "address"
        },
        {
          "indexed": true,
          "internalType": "address",
          "name": "sender",
          "type": "address"
        }
      ],
      "name": "RoleGranted",
      "type": "event"
    },
    {
      "anonymous": false,
      "inputs": [
        {
          "indexed": true,
          "internalType": "bytes32",
          "name": "role",
          "type": "bytes32"
        },
        {
          "indexed": true,
          "internalType": "address",
          "name": "account",
          "type": "address"
        },
        {
          "indexed": true,
          "internalType": "address",
          "name": "sender",
          "type": "address"
        }
      ],
      "name": "RoleRevoked",
      "type": "event"
    },
    {
      "anonymous": false,
      "inputs": [
        {
          "indexed": true,
          "internalType": "address",
          "name": "from",
          "type": "address"
        },
        {
          "indexed": true,
          "internalType": "address",
          "name": "to",
          "type": "address"
        },
        {
          "indexed": false,
          "internalType": "uint256",
          "name": "value",
          "type": "uint256"
        }
      ],
      "name": "Transfer",
      "type": "event"
    },
    {
      "inputs": [],
      "name": "ADMIN_ROLE",
      "outputs": [
        {
          "internalType": "bytes32",
          "name": "",
          "type": "bytes32"
        }
      ],
      "stateMutability": "view",
      "type": "function"
    },
    {
      "inputs": [],
      "name": "DEFAULT_ADMIN_ROLE",
      "outputs": [
        {
          "internalType": "bytes32",
          "name": "",
          "type": "bytes32"
        }
      ],
      "stateMutability": "view",
      "type": "function"
    },
    {
      "inputs": [],
      "name": "DOMAIN_SEPARATOR",
      "outputs": [
        {
          "internalType": "bytes32",
          "name": "",
          "type": "bytes32"
        }
      ],
      "stateMutability": "view",
      "type": "function"
    },
    {
      "inputs": [
        {
          "internalType": "address",
          "name": "_owner",
          "type": "address"
        },
        {
          "internalType": "address",
          "name": "_spender",
          "type": "address"
        }
      ],
      "name": "allowance",
      "outputs": [
        {
          "internalType": "uint256",
          "name": "",
          "type": "uint256"
        }
      ],
      "stateMutability": "view",
      "type": "function"
    },
    {
      "inputs": [
        {
          "internalType": "address",
          "name": "_spender",
          "type": "address"
        },
        {
          "internalType": "uint256",
          "name": "_value",
          "type": "uint256"
        }
      ],
      "name": "approve",
      "outputs": [
        {
          "internalType": "bool",
          "name": "",
          "type": "bool"
        }
      ],
      "stateMutability": "nonpayable",
      "type": "function"
    },
    {
      "inputs": [
        {
          "internalType": "uint256",
          "name": "_gons",
          "type": "uint256"
        }
      ],
      "name": "balanceForGons",
      "outputs": [
        {
          "internalType": "uint256",
          "name": "",
          "type": "uint256"
        }
      ],
      "stateMutability": "view",
      "type": "function"
    },
    {
      "inputs": [
        {
          "internalType": "address",
          "name": "_wallet",
          "type": "address"
        }
      ],
      "name": "balanceOf",
      "outputs": [
        {
          "internalType": "uint256",
          "name": "",
          "type": "uint256"
        }
      ],
      "stateMutability": "view",
      "type": "function"
    },
    {
      "inputs": [],
      "name": "circulatingSupply",
      "outputs": [
        {
          "internalType": "uint256",
          "name": "",
          "type": "uint256"
        }
      ],
      "stateMutability": "view",
      "type": "function"
    },
    {
      "inputs": [],
      "name": "decimals",
      "outputs": [
        {
          "internalType": "uint8",
          "name": "",
          "type": "uint8"
        }
      ],
      "stateMutability": "view",
      "type": "function"
    },
    {
      "inputs": [
        {
          "internalType": "address",
          "name": "_spender",
          "type": "address"
        },
        {
          "internalType": "uint256",
          "name": "_subtractedValue",
          "type": "uint256"
        }
      ],
      "name": "decreaseAllowance",
      "outputs": [
        {
          "internalType": "bool",
          "name": "",
          "type": "bool"
        }
      ],
      "stateMutability": "nonpayable",
      "type": "function"
    },
    {
      "inputs": [],
      "name": "getIndex",
      "outputs": [
        {
          "internalType": "uint256",
          "name": "",
          "type": "uint256"
        }
      ],
      "stateMutability": "view",
      "type": "function"
    },
    {
      "inputs": [
        {
          "internalType": "bytes32",
          "name": "role",
          "type": "bytes32"
        }
      ],
      "name": "getRoleAdmin",
      "outputs": [
        {
          "internalType": "bytes32",
          "name": "",
          "type": "bytes32"
        }
      ],
      "stateMutability": "view",
      "type": "function"
    },
    {
      "inputs": [
        {
          "internalType": "uint256",
          "name": "_amount",
          "type": "uint256"
        }
      ],
      "name": "gonsForBalance",
      "outputs": [
        {
          "internalType": "uint256",
          "name": "",
          "type": "uint256"
        }
      ],
      "stateMutability": "view",
      "type": "function"
    },
    {
      "inputs": [
        {
          "internalType": "bytes32",
          "name": "role",
          "type": "bytes32"
        },
        {
          "internalType": "address",
          "name": "account",
          "type": "address"
        }
      ],
      "name": "grantRole",
      "outputs": [],
      "stateMutability": "nonpayable",
      "type": "function"
    },
    {
      "inputs": [
        {
          "internalType": "bytes32",
          "name": "role",
          "type": "bytes32"
        },
        {
          "internalType": "address",
          "name": "account",
          "type": "address"
        }
      ],
      "name": "hasRole",
      "outputs": [
        {
          "internalType": "bool",
          "name": "",
          "type": "bool"
        }
      ],
      "stateMutability": "view",
      "type": "function"
    },
    {
      "inputs": [
        {
          "internalType": "address",
          "name": "_spender",
          "type": "address"
        },
        {
          "internalType": "uint256",
          "name": "_addedValue",
          "type": "uint256"
        }
      ],
      "name": "increaseAllowance",
      "outputs": [
        {
          "internalType": "bool",
          "name": "",
          "type": "bool"
        }
      ],
      "stateMutability": "nonpayable",
      "type": "function"
    },
    {
      "inputs": [],
      "name": "index",
      "outputs": [
        {
          "internalType": "uint256",
          "name": "",
          "type": "uint256"
        }
      ],
      "stateMutability": "view",
      "type": "function"
    },
    {
      "inputs": [
        {
          "internalType": "string",
          "name": "_tokenName",
          "type": "string"
        },
        {
          "internalType": "string",
          "name": "_tokenSymbol",
          "type": "string"
        }
      ],
      "name": "initialize",
      "outputs": [],
      "stateMutability": "nonpayable",
      "type": "function"
    },
    {
      "inputs": [
        {
          "internalType": "address",
          "name": "_stakingContract",
          "type": "address"
        }
      ],
      "name": "initializeStakingContract",
      "outputs": [],
      "stateMutability": "nonpayable",
      "type": "function"
    },
    {
      "inputs": [],
      "name": "name",
      "outputs": [
        {
          "internalType": "string",
          "name": "",
          "type": "string"
        }
      ],
      "stateMutability": "view",
      "type": "function"
    },
    {
      "inputs": [
        {
          "internalType": "address",
          "name": "owner",
          "type": "address"
        }
      ],
      "name": "nonces",
      "outputs": [
        {
          "internalType": "uint256",
          "name": "",
          "type": "uint256"
        }
      ],
      "stateMutability": "view",
      "type": "function"
    },
    {
      "inputs": [
        {
          "internalType": "address",
          "name": "owner",
          "type": "address"
        },
        {
          "internalType": "address",
          "name": "spender",
          "type": "address"
        },
        {
          "internalType": "uint256",
          "name": "value",
          "type": "uint256"
        },
        {
          "internalType": "uint256",
          "name": "deadline",
          "type": "uint256"
        },
        {
          "internalType": "uint8",
          "name": "v",
          "type": "uint8"
        },
        {
          "internalType": "bytes32",
          "name": "r",
          "type": "bytes32"
        },
        {
          "internalType": "bytes32",
          "name": "s",
          "type": "bytes32"
        }
      ],
      "name": "permit",
      "outputs": [],
      "stateMutability": "nonpayable",
      "type": "function"
    },
    {
      "inputs": [
        {
          "internalType": "uint256",
          "name": "_profit",
          "type": "uint256"
        },
        {
          "internalType": "uint256",
          "name": "_epoch",
          "type": "uint256"
        }
      ],
      "name": "rebase",
      "outputs": [
        {
          "internalType": "uint256",
          "name": "",
          "type": "uint256"
        }
      ],
      "stateMutability": "nonpayable",
      "type": "function"
    },
    {
      "inputs": [
        {
          "internalType": "uint256",
          "name": "",
          "type": "uint256"
        }
      ],
      "name": "rebases",
      "outputs": [
        {
          "internalType": "uint256",
          "name": "epoch",
          "type": "uint256"
        },
        {
          "internalType": "uint256",
          "name": "rebase",
          "type": "uint256"
        },
        {
          "internalType": "uint256",
          "name": "totalStakedBefore",
          "type": "uint256"
        },
        {
          "internalType": "uint256",
          "name": "totalStakedAfter",
          "type": "uint256"
        },
        {
          "internalType": "uint256",
          "name": "amountRebased",
          "type": "uint256"
        },
        {
          "internalType": "uint256",
          "name": "index",
          "type": "uint256"
        },
        {
          "internalType": "uint256",
          "name": "blockNumberOccurred",
          "type": "uint256"
        }
      ],
      "stateMutability": "view",
      "type": "function"
    },
    {
      "inputs": [
        {
          "internalType": "bytes32",
          "name": "role",
          "type": "bytes32"
        },
        {
          "internalType": "address",
          "name": "account",
          "type": "address"
        }
      ],
      "name": "renounceRole",
      "outputs": [],
      "stateMutability": "nonpayable",
      "type": "function"
    },
    {
      "inputs": [
        {
          "internalType": "bytes32",
          "name": "role",
          "type": "bytes32"
        },
        {
          "internalType": "address",
          "name": "account",
          "type": "address"
        }
      ],
      "name": "revokeRole",
      "outputs": [],
      "stateMutability": "nonpayable",
      "type": "function"
    },
    {
      "inputs": [],
      "name": "stakingContract",
      "outputs": [
        {
          "internalType": "address",
          "name": "",
          "type": "address"
        }
      ],
      "stateMutability": "view",
      "type": "function"
    },
    {
      "inputs": [
        {
          "internalType": "bytes4",
          "name": "interfaceId",
          "type": "bytes4"
        }
      ],
      "name": "supportsInterface",
      "outputs": [
        {
          "internalType": "bool",
          "name": "",
          "type": "bool"
        }
      ],
      "stateMutability": "view",
      "type": "function"
    },
    {
      "inputs": [],
      "name": "symbol",
      "outputs": [
        {
          "internalType": "string",
          "name": "",
          "type": "string"
        }
      ],
      "stateMutability": "view",
      "type": "function"
    },
    {
      "inputs": [],
      "name": "totalSupply",
      "outputs": [
        {
          "internalType": "uint256",
          "name": "",
          "type": "uint256"
        }
      ],
      "stateMutability": "view",
      "type": "function"
    },
    {
      "inputs": [
        {
          "internalType": "address",
          "name": "_to",
          "type": "address"
        },
        {
          "internalType": "uint256",
          "name": "_value",
          "type": "uint256"
        }
      ],
      "name": "transfer",
      "outputs": [
        {
          "internalType": "bool",
          "name": "",
          "type": "bool"
        }
      ],
      "stateMutability": "nonpayable",
      "type": "function"
    },
    {
      "inputs": [
        {
          "internalType": "address",
          "name": "_from",
          "type": "address"
        },
        {
          "internalType": "address",
          "name": "_to",
          "type": "address"
        },
        {
          "internalType": "uint256",
          "name": "_value",
          "type": "uint256"
        }
      ],
      "name": "transferFrom",
      "outputs": [
        {
          "internalType": "bool",
          "name": "",
          "type": "bool"
        }
      ],
      "stateMutability": "nonpayable",
      "type": "function"
    }
  ],
  "bytecode": "0x608060405234801561001057600080fd5b50612ec7806100206000396000f3fe608060405234801561001057600080fd5b50600436106101f05760003560e01c806373c69eb71161010f578063a217fddf116100a2578063d505accf11610071578063d505accf1461046c578063d547741f1461047f578063dd62ed3e14610492578063ee99205c146104d857600080fd5b8063a217fddf1461042b578063a457c2d714610433578063a9059cbb14610446578063bcc5ceca1461045957600080fd5b806381045ead116100de57806381045ead146103cd57806391d14854146103d55780639358928b1461041b57806395d89b411461042357600080fd5b806373c69eb71461033857806375b238fc146103805780637965d56d146103a75780637ecebe00146103ba57600080fd5b80632986c0e51161018757806336568abe1161015657806336568abe146102ec57806339509351146102ff5780634cd88b761461031257806370a082311461032557600080fd5b80632986c0e5146102b75780632f2ff15d146102c0578063313ce567146102d55780633644e515146102e457600080fd5b806318160ddd116101c357806318160ddd146102665780631bd396741461026e57806323b872dd14610281578063248a9ca31461029457600080fd5b806301ffc9a7146101f5578063058ecdb41461021d57806306fdde031461023e578063095ea7b314610253575b600080fd5b61020861020336600461288e565b61051d565b60405190151581526020015b60405180910390f35b61023061022b3660046128d0565b6105b6565b604051908152602001610214565b610246610839565b6040516102149190612922565b61020861026136600461299c565b6108cb565b603b54610230565b61023061027c3660046129c6565b610944565b61020861028f3660046129df565b610954565b6102306102a23660046129c6565b600090815260d7602052604090206001015490565b61023060025481565b6102d36102ce366004612a1b565b610b85565b005b60405160128152602001610214565b610230610bb0565b6102d36102fa366004612a1b565b610bbf565b61020861030d36600461299c565b610c72565b6102d3610320366004612b21565b610d25565b610230610333366004612b85565b610f55565b61034b6103463660046129c6565b610f89565b604080519788526020880196909652948601939093526060850191909152608084015260a083015260c082015260e001610214565b6102307fdf8b4c520ffe197c5343c6f5aec59570151ef9a492f2c624fd45ddde6135ec4281565b6102306103b53660046129c6565b610fdb565b6102306103c8366004612b85565b610feb565b610230611016565b6102086103e3366004612a1b565b600091825260d76020908152604080842073ffffffffffffffffffffffffffffffffffffffff93909316845291905290205460ff1690565b610230611023565b610246611053565b610230600081565b61020861044136600461299c565b611062565b61020861045436600461299c565b6111ad565b6102d3610467366004612b85565b61136b565b6102d361047a366004612ba0565b6115ad565b6102d361048d366004612a1b565b61176c565b6102306104a0366004612c13565b73ffffffffffffffffffffffffffffffffffffffff918216600090815260056020908152604080832093909416825291909152205490565b6000546104f89073ffffffffffffffffffffffffffffffffffffffff1681565b60405173ffffffffffffffffffffffffffffffffffffffff9091168152602001610214565b60007fffffffff0000000000000000000000000000000000000000000000000000000082167f7965db0b0000000000000000000000000000000000000000000000000000000014806105b057507f01ffc9a7000000000000000000000000000000000000000000000000000000007fffffffff000000000000000000000000000000000000000000000000000000008316145b92915050565b6000805473ffffffffffffffffffffffffffffffffffffffff16331461063d576040517f08c379a000000000000000000000000000000000000000000000000000000000815260206004820152601460248201527f4e6f74207374616b696e6720636f6e747261637400000000000000000000000060448201526064015b60405180910390fd5b600080610648611023565b9050600081116106b4576040517f08c379a000000000000000000000000000000000000000000000000000000000815260206004820152601f60248201527f43616e277420726562617365206966206e6f742063697263756c6174696e67006044820152606401610634565b8461074e57837f917acfbe39be6509ccf7fecb66a7e42ce2be1083c2d7dd3b9b7491dabddb8da442603b546040516106f6929190918252602082015260400190565b60405180910390a2837f6012dbce857565c4a40974aa5de8373a761fc429077ef0c8c8611d1e20d63fb2600061072a611016565b6040805192835260208301919091520160405180910390a2603b54925050506105b0565b80603b548661075d9190612c6c565b6107679190612cd8565b915081603b546107779190612cec565b603b8190556fffffffffffffffffffffffffffffffff10156107a8576fffffffffffffffffffffffffffffffff603b555b603b546107c1670de0b6b3a7640000631dcd6500612c6c565b6107eb907fffffffffffffffffffffffffffffffffffffffffffffffffffffffffffffffff612d04565b610815907fffffffffffffffffffffffffffffffffffffffffffffffffffffffffffffffff612d18565b61081f9190612cd8565b60035561082d818686611792565b5050603b549392505050565b6060603c805461084890612d2f565b80601f016020809104026020016040519081016040528092919081815260200182805461087490612d2f565b80156108c15780601f10610896576101008083540402835291602001916108c1565b820191906000526020600020905b8154815290600101906020018083116108a457829003601f168201915b5050505050905090565b33600081815260056020908152604080832073ffffffffffffffffffffffffffffffffffffffff8716808552925280832085905551919290917f8c5be1e5ebec7d5bd14f71427d1e84f3dd0314c0f7b2291e5b200ac8c7c3b925906109339086815260200190565b60405180910390a350600192915050565b6000600354826105b09190612c6c565b73ffffffffffffffffffffffffffffffffffffffff831660009081526005602090815260408083203384529091528120548211156109ee576040517f08c379a000000000000000000000000000000000000000000000000000000000815260206004820152601160248201527f416c6c6f77616e636520746f6f206c6f770000000000000000000000000000006044820152606401610634565b73ffffffffffffffffffffffffffffffffffffffff84166000908152600560209081526040808320338452909152812054610a2a908490612d18565b73ffffffffffffffffffffffffffffffffffffffff8616600081815260056020908152604080832033808552908352928190208590555184815293945090927f8c5be1e5ebec7d5bd14f71427d1e84f3dd0314c0f7b2291e5b200ac8c7c3b925910160405180910390a36000610a9f84610944565b73ffffffffffffffffffffffffffffffffffffffff8716600090815260046020526040902054909150610ad3908290612d18565b73ffffffffffffffffffffffffffffffffffffffff8088166000908152600460205260408082209390935590871681522054610b10908290612cec565b73ffffffffffffffffffffffffffffffffffffffff80871660008181526004602052604090819020939093559151908816907fddf252ad1be2c89b69c2b068fc378daa952ba7f163c4a11628f55a4df523b3ef90610b719088815260200190565b60405180910390a350600195945050505050565b600082815260d76020526040902060010154610ba181336118d8565b610bab83836119aa565b505050565b6000610bba611a9e565b905090565b73ffffffffffffffffffffffffffffffffffffffff81163314610c64576040517f08c379a000000000000000000000000000000000000000000000000000000000815260206004820152602f60248201527f416363657373436f6e74726f6c3a2063616e206f6e6c792072656e6f756e636560448201527f20726f6c657320666f722073656c6600000000000000000000000000000000006064820152608401610634565b610c6e8282611b19565b5050565b33600090815260056020908152604080832073ffffffffffffffffffffffffffffffffffffffff861684529091528120548190610cb0908490612cec565b33600081815260056020908152604080832073ffffffffffffffffffffffffffffffffffffffff8a16808552908352928190208590555184815293945090927f8c5be1e5ebec7d5bd14f71427d1e84f3dd0314c0f7b2291e5b200ac8c7c3b92591015b60405180910390a35060019392505050565b600654610100900460ff16610d405760065460ff1615610d44565b303b155b610dd0576040517f08c379a000000000000000000000000000000000000000000000000000000000815260206004820152602e60248201527f496e697469616c697a61626c653a20636f6e747261637420697320616c72656160448201527f647920696e697469616c697a65640000000000000000000000000000000000006064820152608401610634565b600654610100900460ff16158015610e0f57600680547fffffffffffffffffffffffffffffffffffffffffffffffffffffffffffff0000166101011790555b610e198383611bd4565b610e2283611c75565b610e2a611d4e565b610e547fdf8b4c520ffe197c5343c6f5aec59570151ef9a492f2c624fd45ddde6135ec4233611de7565b610e7e7fdf8b4c520ffe197c5343c6f5aec59570151ef9a492f2c624fd45ddde6135ec4280611df1565b610e94670de0b6b3a7640000631dcd6500612c6c565b603b819055610eaf670de0b6b3a7640000631dcd6500612c6c565b610ed9907fffffffffffffffffffffffffffffffffffffffffffffffffffffffffffffffff612d04565b610f03907fffffffffffffffffffffffffffffffffffffffffffffffffffffffffffffffff612d18565b610f0d9190612cd8565b600355610f21670de0b6b3a7640000611e3c565b508015610bab57600680547fffffffffffffffffffffffffffffffffffffffffffffffffffffffffffff00ff169055505050565b60035473ffffffffffffffffffffffffffffffffffffffff821660009081526004602052604081205490916105b091612cd8565b60018181548110610f9957600080fd5b90600052602060002090600702016000915090508060000154908060010154908060020154908060030154908060040154908060050154908060060154905087565b6000600354826105b09190612cd8565b73ffffffffffffffffffffffffffffffffffffffff81166000908152607260205260408120546105b0565b6000610bba600254610fdb565b600080546110469073ffffffffffffffffffffffffffffffffffffffff16610f55565b603b54610bba9190612d18565b6060603d805461084890612d2f565b33600090815260056020908152604080832073ffffffffffffffffffffffffffffffffffffffff861684529091528120548211156110fc576040517f08c379a000000000000000000000000000000000000000000000000000000000815260206004820152601460248201527f4e6f7420656e6f75676820616c6c6f77616e63650000000000000000000000006044820152606401610634565b33600090815260056020908152604080832073ffffffffffffffffffffffffffffffffffffffff87168452909152812054906111388483612d18565b33600081815260056020908152604080832073ffffffffffffffffffffffffffffffffffffffff8b16808552908352928190208590555184815293945090927f8c5be1e5ebec7d5bd14f71427d1e84f3dd0314c0f7b2291e5b200ac8c7c3b925910160405180910390a3506001949350505050565b600073ffffffffffffffffffffffffffffffffffffffff831661122c576040517f08c379a000000000000000000000000000000000000000000000000000000000815260206004820152600f60248201527f496e76616c6964206164647265737300000000000000000000000000000000006044820152606401610634565b60006003548361123c9190612c6c565b336000908152600460205260409020549091508111156112b8576040517f08c379a000000000000000000000000000000000000000000000000000000000815260206004820152601060248201527f4e6f7420656e6f7567682066756e6473000000000000000000000000000000006044820152606401610634565b336000908152600460205260409020546112d3908290612d18565b336000908152600460205260408082209290925573ffffffffffffffffffffffffffffffffffffffff86168152205461130d908290612cec565b73ffffffffffffffffffffffffffffffffffffffff85166000818152600460205260409081902092909255905133907fddf252ad1be2c89b69c2b068fc378daa952ba7f163c4a11628f55a4df523b3ef90610d139087815260200190565b7fdf8b4c520ffe197c5343c6f5aec59570151ef9a492f2c624fd45ddde6135ec4261139681336118d8565b60005473ffffffffffffffffffffffffffffffffffffffff1615611416576040517f08c379a000000000000000000000000000000000000000000000000000000000815260206004820152601360248201527f416c726561647920496e697469616c697a6564000000000000000000000000006044820152606401610634565b73ffffffffffffffffffffffffffffffffffffffff8216611493576040517f08c379a000000000000000000000000000000000000000000000000000000000815260206004820152600f60248201527f496e76616c6964206164647265737300000000000000000000000000000000006044820152606401610634565b600080547fffffffffffffffffffffffff00000000000000000000000000000000000000001673ffffffffffffffffffffffffffffffffffffffff84161790556114e9670de0b6b3a7640000631dcd6500612c6c565b611513907fffffffffffffffffffffffffffffffffffffffffffffffffffffffffffffffff612d04565b61153d907fffffffffffffffffffffffffffffffffffffffffffffffffffffffffffffffff612d18565b6000805473ffffffffffffffffffffffffffffffffffffffff908116825260046020526040808320939093558154603b5493519116927fddf252ad1be2c89b69c2b068fc378daa952ba7f163c4a11628f55a4df523b3ef916115a191815260200190565b60405180910390a35050565b83421115611617576040517f08c379a000000000000000000000000000000000000000000000000000000000815260206004820152601d60248201527f45524332305065726d69743a206578706972656420646561646c696e650000006044820152606401610634565b60007f6e71edae12b1b97f4d1f60370fef10105fa2faae0126114a169c64845d6126c98888886116468c611e52565b60408051602081019690965273ffffffffffffffffffffffffffffffffffffffff94851690860152929091166060840152608083015260a082015260c0810186905260e00160405160208183030381529060405280519060200120905060006116ae82611e87565b905060006116be82878787611ef0565b90508973ffffffffffffffffffffffffffffffffffffffff168173ffffffffffffffffffffffffffffffffffffffff1614611755576040517f08c379a000000000000000000000000000000000000000000000000000000000815260206004820152601e60248201527f45524332305065726d69743a20696e76616c6964207369676e617475726500006044820152606401610634565b6117608a8a8a611f18565b50505050505050505050565b600082815260d7602052604090206001015461178881336118d8565b610bab8383611b19565b6000836117a7670de0b6b3a764000085612c6c565b6117b19190612cd8565b905060016040518060e001604052808481526020018381526020018681526020016117da611023565b81526020018581526020016117ed611016565b815243602091820152825460018082018555600094855293829020835160079092020190815582820151938101939093556040808301516002850155606083015160038501556080830151600485015560a0830151600585015560c090920151600690930192909255603b5481514281529283015283917f917acfbe39be6509ccf7fecb66a7e42ce2be1083c2d7dd3b9b7491dabddb8da4910160405180910390a2817f6012dbce857565c4a40974aa5de8373a761fc429077ef0c8c8611d1e20d63fb2826118ba611016565b6040805192835260208301919091520160405180910390a250505050565b600082815260d76020908152604080832073ffffffffffffffffffffffffffffffffffffffff8516845290915290205460ff16610c6e576119308173ffffffffffffffffffffffffffffffffffffffff1660146120cb565b61193b8360206120cb565b60405160200161194c929190612d7d565b604080517fffffffffffffffffffffffffffffffffffffffffffffffffffffffffffffffe0818403018152908290527f08c379a000000000000000000000000000000000000000000000000000000000825261063491600401612922565b600082815260d76020908152604080832073ffffffffffffffffffffffffffffffffffffffff8516845290915290205460ff16610c6e57600082815260d76020908152604080832073ffffffffffffffffffffffffffffffffffffffff85168452909152902080547fffffffffffffffffffffffffffffffffffffffffffffffffffffffffffffff00166001179055611a403390565b73ffffffffffffffffffffffffffffffffffffffff168173ffffffffffffffffffffffffffffffffffffffff16837f2f8788117e7eff1d82e926ec794901d17c78024a50270940304540a733656f0d60405160405180910390a45050565b6000610bba7f8b73c3c69bb8fe3d512ecc4cf759cc79239f7b179b0ffacaa9a75d522b39400f611acd603e5490565b603f546040805160208101859052908101839052606081018290524660808201523060a082015260009060c0016040516020818303038152906040528051906020012090509392505050565b600082815260d76020908152604080832073ffffffffffffffffffffffffffffffffffffffff8516845290915290205460ff1615610c6e57600082815260d76020908152604080832073ffffffffffffffffffffffffffffffffffffffff8516808552925280832080547fffffffffffffffffffffffffffffffffffffffffffffffffffffffffffffff0016905551339285917ff6391f5c32d9c69d2a47ea670b442974b53935d1edc7fd64eb21e047a839171b9190a45050565b600654610100900460ff16611c6b576040517f08c379a000000000000000000000000000000000000000000000000000000000815260206004820152602b60248201527f496e697469616c697a61626c653a20636f6e7472616374206973206e6f74206960448201527f6e697469616c697a696e670000000000000000000000000000000000000000006064820152608401610634565b610c6e8282612315565b600654610100900460ff16611d0c576040517f08c379a000000000000000000000000000000000000000000000000000000000815260206004820152602b60248201527f496e697469616c697a61626c653a20636f6e7472616374206973206e6f74206960448201527f6e697469616c697a696e670000000000000000000000000000000000000000006064820152608401610634565b611d4b816040518060400160405280600181526020017f31000000000000000000000000000000000000000000000000000000000000008152506123d3565b50565b600654610100900460ff16611de5576040517f08c379a000000000000000000000000000000000000000000000000000000000815260206004820152602b60248201527f496e697469616c697a61626c653a20636f6e7472616374206973206e6f74206960448201527f6e697469616c697a696e670000000000000000000000000000000000000000006064820152608401610634565b565b610c6e82826119aa565b600082815260d76020526040808220600101805490849055905190918391839186917fbd79b86ffe0ab8e8776151514217cd7cacd52c909f66475c3af44e129f0b00ff9190a4505050565b6000611e4782610944565b600255506001919050565b73ffffffffffffffffffffffffffffffffffffffff811660009081526072602052604090208054600181018255905b50919050565b60006105b0611e94611a9e565b836040517f19010000000000000000000000000000000000000000000000000000000000006020820152602281018390526042810182905260009060620160405160208183030381529060405280519060200120905092915050565b6000806000611f0187878787612484565b91509150611f0e8161259c565b5095945050505050565b73ffffffffffffffffffffffffffffffffffffffff8316611fba576040517f08c379a0000000000000000000000000000000000000000000000000000000008152602060048201526024808201527f45524332303a20617070726f76652066726f6d20746865207a65726f2061646460448201527f72657373000000000000000000000000000000000000000000000000000000006064820152608401610634565b73ffffffffffffffffffffffffffffffffffffffff821661205d576040517f08c379a000000000000000000000000000000000000000000000000000000000815260206004820152602260248201527f45524332303a20617070726f766520746f20746865207a65726f20616464726560448201527f73730000000000000000000000000000000000000000000000000000000000006064820152608401610634565b73ffffffffffffffffffffffffffffffffffffffff8381166000818152603a602090815260408083209487168084529482529182902085905590518481527f8c5be1e5ebec7d5bd14f71427d1e84f3dd0314c0f7b2291e5b200ac8c7c3b925910160405180910390a3505050565b606060006120da836002612c6c565b6120e5906002612cec565b67ffffffffffffffff8111156120fd576120fd612a47565b6040519080825280601f01601f191660200182016040528015612127576020820181803683370190505b5090507f30000000000000000000000000000000000000000000000000000000000000008160008151811061215e5761215e612dfe565b60200101907effffffffffffffffffffffffffffffffffffffffffffffffffffffffffffff1916908160001a9053507f7800000000000000000000000000000000000000000000000000000000000000816001815181106121c1576121c1612dfe565b60200101907effffffffffffffffffffffffffffffffffffffffffffffffffffffffffffff1916908160001a90535060006121fd846002612c6c565b612208906001612cec565b90505b60018111156122a5577f303132333435363738396162636465660000000000000000000000000000000085600f166010811061224957612249612dfe565b1a60f81b82828151811061225f5761225f612dfe565b60200101907effffffffffffffffffffffffffffffffffffffffffffffffffffffffffffff1916908160001a90535060049490941c9361229e81612e2d565b905061220b565b50831561230e576040517f08c379a000000000000000000000000000000000000000000000000000000000815260206004820181905260248201527f537472696e67733a20686578206c656e67746820696e73756666696369656e746044820152606401610634565b9392505050565b600654610100900460ff166123ac576040517f08c379a000000000000000000000000000000000000000000000000000000000815260206004820152602b60248201527f496e697469616c697a61626c653a20636f6e7472616374206973206e6f74206960448201527f6e697469616c697a696e670000000000000000000000000000000000000000006064820152608401610634565b81516123bf90603c9060208501906127f5565b508051610bab90603d9060208401906127f5565b600654610100900460ff1661246a576040517f08c379a000000000000000000000000000000000000000000000000000000000815260206004820152602b60248201527f496e697469616c697a61626c653a20636f6e7472616374206973206e6f74206960448201527f6e697469616c697a696e670000000000000000000000000000000000000000006064820152608401610634565b815160209283012081519190920120603e91909155603f55565b6000807f7fffffffffffffffffffffffffffffff5d576e7357a4501ddfe92f46681b20a08311156124bb5750600090506003612593565b8460ff16601b141580156124d357508460ff16601c14155b156124e45750600090506004612593565b6040805160008082526020820180845289905260ff881692820192909252606081018690526080810185905260019060a0016020604051602081039080840390855afa158015612538573d6000803e3d6000fd5b50506040517fffffffffffffffffffffffffffffffffffffffffffffffffffffffffffffffe0015191505073ffffffffffffffffffffffffffffffffffffffff811661258c57600060019250925050612593565b9150600090505b94509492505050565b60008160048111156125b0576125b0612e62565b14156125b95750565b60018160048111156125cd576125cd612e62565b1415612635576040517f08c379a000000000000000000000000000000000000000000000000000000000815260206004820152601860248201527f45434453413a20696e76616c6964207369676e617475726500000000000000006044820152606401610634565b600281600481111561264957612649612e62565b14156126b1576040517f08c379a000000000000000000000000000000000000000000000000000000000815260206004820152601f60248201527f45434453413a20696e76616c6964207369676e6174757265206c656e677468006044820152606401610634565b60038160048111156126c5576126c5612e62565b1415612753576040517f08c379a000000000000000000000000000000000000000000000000000000000815260206004820152602260248201527f45434453413a20696e76616c6964207369676e6174757265202773272076616c60448201527f75650000000000000000000000000000000000000000000000000000000000006064820152608401610634565b600481600481111561276757612767612e62565b1415611d4b576040517f08c379a000000000000000000000000000000000000000000000000000000000815260206004820152602260248201527f45434453413a20696e76616c6964207369676e6174757265202776272076616c60448201527f75650000000000000000000000000000000000000000000000000000000000006064820152608401610634565b82805461280190612d2f565b90600052602060002090601f0160209004810192826128235760008555612869565b82601f1061283c57805160ff1916838001178555612869565b82800160010185558215612869579182015b8281111561286957825182559160200191906001019061284e565b50612875929150612879565b5090565b5b80821115612875576000815560010161287a565b6000602082840312156128a057600080fd5b81357fffffffff000000000000000000000000000000000000000000000000000000008116811461230e57600080fd5b600080604083850312156128e357600080fd5b50508035926020909101359150565b60005b8381101561290d5781810151838201526020016128f5565b8381111561291c576000848401525b50505050565b60208152600082518060208401526129418160408501602087016128f2565b601f017fffffffffffffffffffffffffffffffffffffffffffffffffffffffffffffffe0169190910160400192915050565b803573ffffffffffffffffffffffffffffffffffffffff8116811461299757600080fd5b919050565b600080604083850312156129af57600080fd5b6129b883612973565b946020939093013593505050565b6000602082840312156129d857600080fd5b5035919050565b6000806000606084860312156129f457600080fd5b6129fd84612973565b9250612a0b60208501612973565b9150604084013590509250925092565b60008060408385031215612a2e57600080fd5b82359150612a3e60208401612973565b90509250929050565b7f4e487b7100000000000000000000000000000000000000000000000000000000600052604160045260246000fd5b600082601f830112612a8757600080fd5b813567ffffffffffffffff80821115612aa257612aa2612a47565b604051601f83017fffffffffffffffffffffffffffffffffffffffffffffffffffffffffffffffe0908116603f01168101908282118183101715612ae857612ae8612a47565b81604052838152866020858801011115612b0157600080fd5b836020870160208301376000602085830101528094505050505092915050565b60008060408385031215612b3457600080fd5b823567ffffffffffffffff80821115612b4c57600080fd5b612b5886838701612a76565b93506020850135915080821115612b6e57600080fd5b50612b7b85828601612a76565b9150509250929050565b600060208284031215612b9757600080fd5b61230e82612973565b600080600080600080600060e0888a031215612bbb57600080fd5b612bc488612973565b9650612bd260208901612973565b95506040880135945060608801359350608088013560ff81168114612bf657600080fd5b9699959850939692959460a0840135945060c09093013592915050565b60008060408385031215612c2657600080fd5b612c2f83612973565b9150612a3e60208401612973565b7f4e487b7100000000000000000000000000000000000000000000000000000000600052601160045260246000fd5b6000817fffffffffffffffffffffffffffffffffffffffffffffffffffffffffffffffff0483118215151615612ca457612ca4612c3d565b500290565b7f4e487b7100000000000000000000000000000000000000000000000000000000600052601260045260246000fd5b600082612ce757612ce7612ca9565b500490565b60008219821115612cff57612cff612c3d565b500190565b600082612d1357612d13612ca9565b500690565b600082821015612d2a57612d2a612c3d565b500390565b600181811c90821680612d4357607f821691505b60208210811415611e81577f4e487b7100000000000000000000000000000000000000000000000000000000600052602260045260246000fd5b7f416363657373436f6e74726f6c3a206163636f756e7420000000000000000000815260008351612db58160178501602088016128f2565b7f206973206d697373696e6720726f6c65200000000000000000000000000000006017918401918201528351612df28160288401602088016128f2565b01602801949350505050565b7f4e487b7100000000000000000000000000000000000000000000000000000000600052603260045260246000fd5b600081612e3c57612e3c612c3d565b507fffffffffffffffffffffffffffffffffffffffffffffffffffffffffffffffff0190565b7f4e487b7100000000000000000000000000000000000000000000000000000000600052602160045260246000fdfea2646970667358221220c35018afaf8c812004ef69e205faf90de240d83e867b31897d2d777343770d9564736f6c63430008090033",
  "linkReferences": {},
  "deployedLinkReferences": {}
}