{
  "_format": "hh-sol-artifact-1",
  "contractName": "Yieldy",
  "sourceName": "src/contracts/Yieldy.sol",
  "abi": [
    {
      "anonymous": false,
      "inputs": [
        {
          "indexed": true,
          "internalType": "address",
          "name": "owner",
          "type": "address"
        },
        {
          "indexed": true,
          "internalType": "address",
          "name": "spender",
          "type": "address"
        },
        {
          "indexed": false,
          "internalType": "uint256",
          "name": "value",
          "type": "uint256"
        }
      ],
      "name": "Approval",
      "type": "event"
    },
    {
      "anonymous": false,
      "inputs": [
        {
          "indexed": true,
          "internalType": "uint256",
          "name": "epoch",
          "type": "uint256"
        },
        {
          "indexed": false,
          "internalType": "uint256",
          "name": "rebase",
          "type": "uint256"
        },
        {
          "indexed": false,
          "internalType": "uint256",
          "name": "index",
          "type": "uint256"
        }
      ],
      "name": "LogRebase",
      "type": "event"
    },
    {
      "anonymous": false,
      "inputs": [
        {
          "indexed": true,
          "internalType": "uint256",
          "name": "epoch",
          "type": "uint256"
        },
        {
          "indexed": false,
          "internalType": "uint256",
          "name": "timestamp",
          "type": "uint256"
        },
        {
          "indexed": false,
          "internalType": "uint256",
          "name": "totalSupply",
          "type": "uint256"
        }
      ],
      "name": "LogSupply",
      "type": "event"
    },
    {
      "anonymous": false,
      "inputs": [
        {
          "indexed": true,
          "internalType": "bytes32",
          "name": "role",
          "type": "bytes32"
        },
        {
          "indexed": true,
          "internalType": "bytes32",
          "name": "previousAdminRole",
          "type": "bytes32"
        },
        {
          "indexed": true,
          "internalType": "bytes32",
          "name": "newAdminRole",
          "type": "bytes32"
        }
      ],
      "name": "RoleAdminChanged",
      "type": "event"
    },
    {
      "anonymous": false,
      "inputs": [
        {
          "indexed": true,
          "internalType": "bytes32",
          "name": "role",
          "type": "bytes32"
        },
        {
          "indexed": true,
          "internalType": "address",
          "name": "account",
          "type": "address"
        },
        {
          "indexed": true,
          "internalType": "address",
          "name": "sender",
          "type": "address"
        }
      ],
      "name": "RoleGranted",
      "type": "event"
    },
    {
      "anonymous": false,
      "inputs": [
        {
          "indexed": true,
          "internalType": "bytes32",
          "name": "role",
          "type": "bytes32"
        },
        {
          "indexed": true,
          "internalType": "address",
          "name": "account",
          "type": "address"
        },
        {
          "indexed": true,
          "internalType": "address",
          "name": "sender",
          "type": "address"
        }
      ],
      "name": "RoleRevoked",
      "type": "event"
    },
    {
      "anonymous": false,
      "inputs": [
        {
          "indexed": true,
          "internalType": "address",
          "name": "from",
          "type": "address"
        },
        {
          "indexed": true,
          "internalType": "address",
          "name": "to",
          "type": "address"
        },
        {
          "indexed": false,
          "internalType": "uint256",
          "name": "value",
          "type": "uint256"
        }
      ],
      "name": "Transfer",
      "type": "event"
    },
    {
      "inputs": [],
      "name": "ADMIN_ROLE",
      "outputs": [
        {
          "internalType": "bytes32",
          "name": "",
          "type": "bytes32"
        }
      ],
      "stateMutability": "view",
      "type": "function"
    },
    {
      "inputs": [],
      "name": "DEFAULT_ADMIN_ROLE",
      "outputs": [
        {
          "internalType": "bytes32",
          "name": "",
          "type": "bytes32"
        }
      ],
      "stateMutability": "view",
      "type": "function"
    },
    {
      "inputs": [
        {
          "internalType": "address",
          "name": "_owner",
          "type": "address"
        },
        {
          "internalType": "address",
          "name": "_spender",
          "type": "address"
        }
      ],
      "name": "allowance",
      "outputs": [
        {
          "internalType": "uint256",
          "name": "",
          "type": "uint256"
        }
      ],
      "stateMutability": "view",
      "type": "function"
    },
    {
      "inputs": [
        {
          "internalType": "address",
          "name": "_spender",
          "type": "address"
        },
        {
          "internalType": "uint256",
          "name": "_value",
          "type": "uint256"
        }
      ],
      "name": "approve",
      "outputs": [
        {
          "internalType": "bool",
          "name": "",
          "type": "bool"
        }
      ],
      "stateMutability": "nonpayable",
      "type": "function"
    },
    {
      "inputs": [
        {
          "internalType": "uint256",
          "name": "_gons",
          "type": "uint256"
        }
      ],
      "name": "balanceForGons",
      "outputs": [
        {
          "internalType": "uint256",
          "name": "",
          "type": "uint256"
        }
      ],
      "stateMutability": "view",
      "type": "function"
    },
    {
      "inputs": [
        {
          "internalType": "address",
          "name": "_wallet",
          "type": "address"
        }
      ],
      "name": "balanceOf",
      "outputs": [
        {
          "internalType": "uint256",
          "name": "",
          "type": "uint256"
        }
      ],
      "stateMutability": "view",
      "type": "function"
    },
    {
      "inputs": [],
      "name": "circulatingSupply",
      "outputs": [
        {
          "internalType": "uint256",
          "name": "",
          "type": "uint256"
        }
      ],
      "stateMutability": "view",
      "type": "function"
    },
    {
      "inputs": [],
      "name": "decimals",
      "outputs": [
        {
          "internalType": "uint8",
          "name": "",
          "type": "uint8"
        }
      ],
      "stateMutability": "view",
      "type": "function"
    },
    {
      "inputs": [
        {
          "internalType": "address",
          "name": "_spender",
          "type": "address"
        },
        {
          "internalType": "uint256",
          "name": "_subtractedValue",
          "type": "uint256"
        }
      ],
      "name": "decreaseAllowance",
      "outputs": [
        {
          "internalType": "bool",
          "name": "",
          "type": "bool"
        }
      ],
      "stateMutability": "nonpayable",
      "type": "function"
    },
    {
      "inputs": [],
      "name": "getIndex",
      "outputs": [
        {
          "internalType": "uint256",
          "name": "",
          "type": "uint256"
        }
      ],
      "stateMutability": "view",
      "type": "function"
    },
    {
      "inputs": [
        {
          "internalType": "bytes32",
          "name": "role",
          "type": "bytes32"
        }
      ],
      "name": "getRoleAdmin",
      "outputs": [
        {
          "internalType": "bytes32",
          "name": "",
          "type": "bytes32"
        }
      ],
      "stateMutability": "view",
      "type": "function"
    },
    {
      "inputs": [
        {
          "internalType": "uint256",
          "name": "_amount",
          "type": "uint256"
        }
      ],
      "name": "gonsForBalance",
      "outputs": [
        {
          "internalType": "uint256",
          "name": "",
          "type": "uint256"
        }
      ],
      "stateMutability": "view",
      "type": "function"
    },
    {
      "inputs": [
        {
          "internalType": "bytes32",
          "name": "role",
          "type": "bytes32"
        },
        {
          "internalType": "address",
          "name": "account",
          "type": "address"
        }
      ],
      "name": "grantRole",
      "outputs": [],
      "stateMutability": "nonpayable",
      "type": "function"
    },
    {
      "inputs": [
        {
          "internalType": "bytes32",
          "name": "role",
          "type": "bytes32"
        },
        {
          "internalType": "address",
          "name": "account",
          "type": "address"
        }
      ],
      "name": "hasRole",
      "outputs": [
        {
          "internalType": "bool",
          "name": "",
          "type": "bool"
        }
      ],
      "stateMutability": "view",
      "type": "function"
    },
    {
      "inputs": [
        {
          "internalType": "address",
          "name": "_spender",
          "type": "address"
        },
        {
          "internalType": "uint256",
          "name": "_addedValue",
          "type": "uint256"
        }
      ],
      "name": "increaseAllowance",
      "outputs": [
        {
          "internalType": "bool",
          "name": "",
          "type": "bool"
        }
      ],
      "stateMutability": "nonpayable",
      "type": "function"
    },
    {
      "inputs": [],
      "name": "index",
      "outputs": [
        {
          "internalType": "uint256",
          "name": "",
          "type": "uint256"
        }
      ],
      "stateMutability": "view",
      "type": "function"
    },
    {
      "inputs": [
        {
          "internalType": "string",
          "name": "_tokenName",
          "type": "string"
        },
        {
          "internalType": "string",
          "name": "_tokenSymbol",
          "type": "string"
        }
      ],
      "name": "initialize",
      "outputs": [],
      "stateMutability": "nonpayable",
      "type": "function"
    },
    {
      "inputs": [
        {
          "internalType": "address",
          "name": "_stakingContract",
          "type": "address"
        }
      ],
      "name": "initializeStakingContract",
      "outputs": [],
      "stateMutability": "nonpayable",
      "type": "function"
    },
    {
      "inputs": [],
      "name": "name",
      "outputs": [
        {
          "internalType": "string",
          "name": "",
          "type": "string"
        }
      ],
      "stateMutability": "view",
      "type": "function"
    },
    {
      "inputs": [
        {
          "internalType": "uint256",
          "name": "_profit",
          "type": "uint256"
        },
        {
          "internalType": "uint256",
          "name": "_epoch",
          "type": "uint256"
        }
      ],
      "name": "rebase",
      "outputs": [
        {
          "internalType": "uint256",
          "name": "",
          "type": "uint256"
        }
      ],
      "stateMutability": "nonpayable",
      "type": "function"
    },
    {
      "inputs": [
        {
          "internalType": "uint256",
          "name": "",
          "type": "uint256"
        }
      ],
      "name": "rebases",
      "outputs": [
        {
          "internalType": "uint256",
          "name": "epoch",
          "type": "uint256"
        },
        {
          "internalType": "uint256",
          "name": "rebase",
          "type": "uint256"
        },
        {
          "internalType": "uint256",
          "name": "totalStakedBefore",
          "type": "uint256"
        },
        {
          "internalType": "uint256",
          "name": "totalStakedAfter",
          "type": "uint256"
        },
        {
          "internalType": "uint256",
          "name": "amountRebased",
          "type": "uint256"
        },
        {
          "internalType": "uint256",
          "name": "index",
          "type": "uint256"
        },
        {
          "internalType": "uint256",
          "name": "blockNumberOccurred",
          "type": "uint256"
        }
      ],
      "stateMutability": "view",
      "type": "function"
    },
    {
      "inputs": [
        {
          "internalType": "bytes32",
          "name": "role",
          "type": "bytes32"
        },
        {
          "internalType": "address",
          "name": "account",
          "type": "address"
        }
      ],
      "name": "renounceRole",
      "outputs": [],
      "stateMutability": "nonpayable",
      "type": "function"
    },
    {
      "inputs": [
        {
          "internalType": "bytes32",
          "name": "role",
          "type": "bytes32"
        },
        {
          "internalType": "address",
          "name": "account",
          "type": "address"
        }
      ],
      "name": "revokeRole",
      "outputs": [],
      "stateMutability": "nonpayable",
      "type": "function"
    },
    {
      "inputs": [],
      "name": "stakingContract",
      "outputs": [
        {
          "internalType": "address",
          "name": "",
          "type": "address"
        }
      ],
      "stateMutability": "view",
      "type": "function"
    },
    {
      "inputs": [
        {
          "internalType": "bytes4",
          "name": "interfaceId",
          "type": "bytes4"
        }
      ],
      "name": "supportsInterface",
      "outputs": [
        {
          "internalType": "bool",
          "name": "",
          "type": "bool"
        }
      ],
      "stateMutability": "view",
      "type": "function"
    },
    {
      "inputs": [],
      "name": "symbol",
      "outputs": [
        {
          "internalType": "string",
          "name": "",
          "type": "string"
        }
      ],
      "stateMutability": "view",
      "type": "function"
    },
    {
      "inputs": [],
      "name": "totalSupply",
      "outputs": [
        {
          "internalType": "uint256",
          "name": "",
          "type": "uint256"
        }
      ],
      "stateMutability": "view",
      "type": "function"
    },
    {
      "inputs": [
        {
          "internalType": "address",
          "name": "_to",
          "type": "address"
        },
        {
          "internalType": "uint256",
          "name": "_value",
          "type": "uint256"
        }
      ],
      "name": "transfer",
      "outputs": [
        {
          "internalType": "bool",
          "name": "",
          "type": "bool"
        }
      ],
      "stateMutability": "nonpayable",
      "type": "function"
    },
    {
      "inputs": [
        {
          "internalType": "address",
          "name": "_from",
          "type": "address"
        },
        {
          "internalType": "address",
          "name": "_to",
          "type": "address"
        },
        {
          "internalType": "uint256",
          "name": "_value",
          "type": "uint256"
        }
      ],
      "name": "transferFrom",
      "outputs": [
        {
          "internalType": "bool",
          "name": "",
          "type": "bool"
        }
      ],
      "stateMutability": "nonpayable",
      "type": "function"
    }
  ],
  "bytecode": "0x608060405234801561001057600080fd5b506123ec806100206000396000f3fe608060405234801561001057600080fd5b50600436106101cf5760003560e01c806370a082311161010457806395d89b41116100a2578063bcc5ceca11610071578063bcc5ceca1461041d578063d547741f14610430578063dd62ed3e14610443578063ee99205c1461048957600080fd5b806395d89b41146103e7578063a217fddf146103ef578063a457c2d7146103f7578063a9059cbb1461040a57600080fd5b80637965d56d116100de5780637965d56d1461037e57806381045ead1461039157806391d14854146103995780639358928b146103df57600080fd5b806370a08231146102fc57806373c69eb71461030f57806375b238fc1461035757600080fd5b8063248a9ca311610171578063313ce5671161014b578063313ce567146102b457806336568abe146102c357806339509351146102d65780634cd88b76146102e957600080fd5b8063248a9ca3146102735780632986c0e5146102965780632f2ff15d1461029f57600080fd5b8063095ea7b3116101ad578063095ea7b31461023257806318160ddd146102455780631bd396741461024d57806323b872dd1461026057600080fd5b806301ffc9a7146101d4578063058ecdb4146101fc57806306fdde031461021d575b600080fd5b6101e76101e2366004611e4f565b6104ce565b60405190151581526020015b60405180910390f35b61020f61020a366004611e91565b610567565b6040519081526020016101f3565b6102256107ea565b6040516101f39190611ee3565b6101e7610240366004611f5d565b61087c565b603b5461020f565b61020f61025b366004611f87565b6108f5565b6101e761026e366004611fa0565b610905565b61020f610281366004611f87565b60009081526070602052604090206001015490565b61020f60025481565b6102b26102ad366004611fdc565b610b36565b005b604051601281526020016101f3565b6102b26102d1366004611fdc565b610b61565b6101e76102e4366004611f5d565b610c14565b6102b26102f73660046120e2565b610cc7565b61020f61030a366004612146565b610eee565b61032261031d366004611f87565b610f22565b604080519788526020880196909652948601939093526060850191909152608084015260a083015260c082015260e0016101f3565b61020f7fdf8b4c520ffe197c5343c6f5aec59570151ef9a492f2c624fd45ddde6135ec4281565b61020f61038c366004611f87565b610f74565b61020f610f84565b6101e76103a7366004611fdc565b600091825260706020908152604080842073ffffffffffffffffffffffffffffffffffffffff93909316845291905290205460ff1690565b61020f610f96565b610225610fc6565b61020f600081565b6101e7610405366004611f5d565b610fd5565b6101e7610418366004611f5d565b611120565b6102b261042b366004612146565b6112de565b6102b261043e366004611fdc565b611520565b61020f610451366004612161565b73ffffffffffffffffffffffffffffffffffffffff918216600090815260056020908152604080832093909416825291909152205490565b6000546104a99073ffffffffffffffffffffffffffffffffffffffff1681565b60405173ffffffffffffffffffffffffffffffffffffffff90911681526020016101f3565b60007fffffffff0000000000000000000000000000000000000000000000000000000082167f7965db0b00000000000000000000000000000000000000000000000000000000148061056157507f01ffc9a7000000000000000000000000000000000000000000000000000000007fffffffff000000000000000000000000000000000000000000000000000000008316145b92915050565b6000805473ffffffffffffffffffffffffffffffffffffffff1633146105ee576040517f08c379a000000000000000000000000000000000000000000000000000000000815260206004820152601460248201527f4e6f74207374616b696e6720636f6e747261637400000000000000000000000060448201526064015b60405180910390fd5b6000806105f9610f96565b905060008111610665576040517f08c379a000000000000000000000000000000000000000000000000000000000815260206004820152601f60248201527f43616e277420726562617365206966206e6f742063697263756c6174696e670060448201526064016105e5565b846106ff57837f917acfbe39be6509ccf7fecb66a7e42ce2be1083c2d7dd3b9b7491dabddb8da442603b546040516106a7929190918252602082015260400190565b60405180910390a2837f6012dbce857565c4a40974aa5de8373a761fc429077ef0c8c8611d1e20d63fb260006106db610f84565b6040805192835260208301919091520160405180910390a2603b5492505050610561565b80603b548661070e91906121ba565b6107189190612226565b915081603b54610728919061223a565b603b8190556fffffffffffffffffffffffffffffffff1015610759576fffffffffffffffffffffffffffffffff603b555b603b54610772670de0b6b3a7640000631dcd65006121ba565b61079c907fffffffffffffffffffffffffffffffffffffffffffffffffffffffffffffffff612252565b6107c6907fffffffffffffffffffffffffffffffffffffffffffffffffffffffffffffffff612266565b6107d09190612226565b6003556107de818686611546565b5050603b549392505050565b6060603c80546107f99061227d565b80601f01602080910402602001604051908101604052809291908181526020018280546108259061227d565b80156108725780601f1061084757610100808354040283529160200191610872565b820191906000526020600020905b81548152906001019060200180831161085557829003601f168201915b5050505050905090565b33600081815260056020908152604080832073ffffffffffffffffffffffffffffffffffffffff8716808552925280832085905551919290917f8c5be1e5ebec7d5bd14f71427d1e84f3dd0314c0f7b2291e5b200ac8c7c3b925906108e49086815260200190565b60405180910390a350600192915050565b60006003548261056191906121ba565b73ffffffffffffffffffffffffffffffffffffffff8316600090815260056020908152604080832033845290915281205482111561099f576040517f08c379a000000000000000000000000000000000000000000000000000000000815260206004820152601160248201527f416c6c6f77616e636520746f6f206c6f7700000000000000000000000000000060448201526064016105e5565b73ffffffffffffffffffffffffffffffffffffffff841660009081526005602090815260408083203384529091528120546109db908490612266565b73ffffffffffffffffffffffffffffffffffffffff8616600081815260056020908152604080832033808552908352928190208590555184815293945090927f8c5be1e5ebec7d5bd14f71427d1e84f3dd0314c0f7b2291e5b200ac8c7c3b925910160405180910390a36000610a50846108f5565b73ffffffffffffffffffffffffffffffffffffffff8716600090815260046020526040902054909150610a84908290612266565b73ffffffffffffffffffffffffffffffffffffffff8088166000908152600460205260408082209390935590871681522054610ac190829061223a565b73ffffffffffffffffffffffffffffffffffffffff80871660008181526004602052604090819020939093559151908816907fddf252ad1be2c89b69c2b068fc378daa952ba7f163c4a11628f55a4df523b3ef90610b229088815260200190565b60405180910390a350600195945050505050565b600082815260706020526040902060010154610b52813361168c565b610b5c838361175e565b505050565b73ffffffffffffffffffffffffffffffffffffffff81163314610c06576040517f08c379a000000000000000000000000000000000000000000000000000000000815260206004820152602f60248201527f416363657373436f6e74726f6c3a2063616e206f6e6c792072656e6f756e636560448201527f20726f6c657320666f722073656c66000000000000000000000000000000000060648201526084016105e5565b610c108282611852565b5050565b33600090815260056020908152604080832073ffffffffffffffffffffffffffffffffffffffff861684529091528120548190610c5290849061223a565b33600081815260056020908152604080832073ffffffffffffffffffffffffffffffffffffffff8a16808552908352928190208590555184815293945090927f8c5be1e5ebec7d5bd14f71427d1e84f3dd0314c0f7b2291e5b200ac8c7c3b92591015b60405180910390a35060019392505050565b600654610100900460ff16610ce25760065460ff1615610ce6565b303b155b610d72576040517f08c379a000000000000000000000000000000000000000000000000000000000815260206004820152602e60248201527f496e697469616c697a61626c653a20636f6e747261637420697320616c72656160448201527f647920696e697469616c697a656400000000000000000000000000000000000060648201526084016105e5565b600654610100900460ff16158015610db157600680547fffffffffffffffffffffffffffffffffffffffffffffffffffffffffffff0000166101011790555b610dbb838361190d565b610dc36119ae565b610ded7fdf8b4c520ffe197c5343c6f5aec59570151ef9a492f2c624fd45ddde6135ec4233611a47565b610e177fdf8b4c520ffe197c5343c6f5aec59570151ef9a492f2c624fd45ddde6135ec4280611a51565b610e2d670de0b6b3a7640000631dcd65006121ba565b603b819055610e48670de0b6b3a7640000631dcd65006121ba565b610e72907fffffffffffffffffffffffffffffffffffffffffffffffffffffffffffffffff612252565b610e9c907fffffffffffffffffffffffffffffffffffffffffffffffffffffffffffffffff612266565b610ea69190612226565b600355610eba670de0b6b3a7640000611a9c565b508015610b5c57600680547fffffffffffffffffffffffffffffffffffffffffffffffffffffffffffff00ff169055505050565b60035473ffffffffffffffffffffffffffffffffffffffff8216600090815260046020526040812054909161056191612226565b60018181548110610f3257600080fd5b90600052602060002090600702016000915090508060000154908060010154908060020154908060030154908060040154908060050154908060060154905087565b6000600354826105619190612226565b6000610f91600254610f74565b905090565b60008054610fb99073ffffffffffffffffffffffffffffffffffffffff16610eee565b603b54610f919190612266565b6060603d80546107f99061227d565b33600090815260056020908152604080832073ffffffffffffffffffffffffffffffffffffffff8616845290915281205482111561106f576040517f08c379a000000000000000000000000000000000000000000000000000000000815260206004820152601460248201527f4e6f7420656e6f75676820616c6c6f77616e636500000000000000000000000060448201526064016105e5565b33600090815260056020908152604080832073ffffffffffffffffffffffffffffffffffffffff87168452909152812054906110ab8483612266565b33600081815260056020908152604080832073ffffffffffffffffffffffffffffffffffffffff8b16808552908352928190208590555184815293945090927f8c5be1e5ebec7d5bd14f71427d1e84f3dd0314c0f7b2291e5b200ac8c7c3b925910160405180910390a3506001949350505050565b600073ffffffffffffffffffffffffffffffffffffffff831661119f576040517f08c379a000000000000000000000000000000000000000000000000000000000815260206004820152600f60248201527f496e76616c69642061646472657373000000000000000000000000000000000060448201526064016105e5565b6000600354836111af91906121ba565b3360009081526004602052604090205490915081111561122b576040517f08c379a000000000000000000000000000000000000000000000000000000000815260206004820152601060248201527f4e6f7420656e6f7567682066756e64730000000000000000000000000000000060448201526064016105e5565b33600090815260046020526040902054611246908290612266565b336000908152600460205260408082209290925573ffffffffffffffffffffffffffffffffffffffff86168152205461128090829061223a565b73ffffffffffffffffffffffffffffffffffffffff85166000818152600460205260409081902092909255905133907fddf252ad1be2c89b69c2b068fc378daa952ba7f163c4a11628f55a4df523b3ef90610cb59087815260200190565b7fdf8b4c520ffe197c5343c6f5aec59570151ef9a492f2c624fd45ddde6135ec42611309813361168c565b60005473ffffffffffffffffffffffffffffffffffffffff1615611389576040517f08c379a000000000000000000000000000000000000000000000000000000000815260206004820152601360248201527f416c726561647920496e697469616c697a65640000000000000000000000000060448201526064016105e5565b73ffffffffffffffffffffffffffffffffffffffff8216611406576040517f08c379a000000000000000000000000000000000000000000000000000000000815260206004820152600f60248201527f496e76616c69642061646472657373000000000000000000000000000000000060448201526064016105e5565b600080547fffffffffffffffffffffffff00000000000000000000000000000000000000001673ffffffffffffffffffffffffffffffffffffffff841617905561145c670de0b6b3a7640000631dcd65006121ba565b611486907fffffffffffffffffffffffffffffffffffffffffffffffffffffffffffffffff612252565b6114b0907fffffffffffffffffffffffffffffffffffffffffffffffffffffffffffffffff612266565b6000805473ffffffffffffffffffffffffffffffffffffffff908116825260046020526040808320939093558154603b5493519116927fddf252ad1be2c89b69c2b068fc378daa952ba7f163c4a11628f55a4df523b3ef9161151491815260200190565b60405180910390a35050565b60008281526070602052604090206001015461153c813361168c565b610b5c8383611852565b60008361155b670de0b6b3a7640000856121ba565b6115659190612226565b905060016040518060e0016040528084815260200183815260200186815260200161158e610f96565b81526020018581526020016115a1610f84565b815243602091820152825460018082018555600094855293829020835160079092020190815582820151938101939093556040808301516002850155606083015160038501556080830151600485015560a0830151600585015560c090920151600690930192909255603b5481514281529283015283917f917acfbe39be6509ccf7fecb66a7e42ce2be1083c2d7dd3b9b7491dabddb8da4910160405180910390a2817f6012dbce857565c4a40974aa5de8373a761fc429077ef0c8c8611d1e20d63fb28261166e610f84565b6040805192835260208301919091520160405180910390a250505050565b600082815260706020908152604080832073ffffffffffffffffffffffffffffffffffffffff8516845290915290205460ff16610c10576116e48173ffffffffffffffffffffffffffffffffffffffff166014611ab2565b6116ef836020611ab2565b6040516020016117009291906122d1565b604080517fffffffffffffffffffffffffffffffffffffffffffffffffffffffffffffffe0818403018152908290527f08c379a00000000000000000000000000000000000000000000000000000000082526105e591600401611ee3565b600082815260706020908152604080832073ffffffffffffffffffffffffffffffffffffffff8516845290915290205460ff16610c1057600082815260706020908152604080832073ffffffffffffffffffffffffffffffffffffffff85168452909152902080547fffffffffffffffffffffffffffffffffffffffffffffffffffffffffffffff001660011790556117f43390565b73ffffffffffffffffffffffffffffffffffffffff168173ffffffffffffffffffffffffffffffffffffffff16837f2f8788117e7eff1d82e926ec794901d17c78024a50270940304540a733656f0d60405160405180910390a45050565b600082815260706020908152604080832073ffffffffffffffffffffffffffffffffffffffff8516845290915290205460ff1615610c1057600082815260706020908152604080832073ffffffffffffffffffffffffffffffffffffffff8516808552925280832080547fffffffffffffffffffffffffffffffffffffffffffffffffffffffffffffff0016905551339285917ff6391f5c32d9c69d2a47ea670b442974b53935d1edc7fd64eb21e047a839171b9190a45050565b600654610100900460ff166119a4576040517f08c379a000000000000000000000000000000000000000000000000000000000815260206004820152602b60248201527f496e697469616c697a61626c653a20636f6e7472616374206973206e6f74206960448201527f6e697469616c697a696e6700000000000000000000000000000000000000000060648201526084016105e5565b610c108282611cfc565b600654610100900460ff16611a45576040517f08c379a000000000000000000000000000000000000000000000000000000000815260206004820152602b60248201527f496e697469616c697a61626c653a20636f6e7472616374206973206e6f74206960448201527f6e697469616c697a696e6700000000000000000000000000000000000000000060648201526084016105e5565b565b610c10828261175e565b600082815260706020526040808220600101805490849055905190918391839186917fbd79b86ffe0ab8e8776151514217cd7cacd52c909f66475c3af44e129f0b00ff9190a4505050565b6000611aa7826108f5565b600255506001919050565b60606000611ac18360026121ba565b611acc90600261223a565b67ffffffffffffffff811115611ae457611ae4612008565b6040519080825280601f01601f191660200182016040528015611b0e576020820181803683370190505b5090507f300000000000000000000000000000000000000000000000000000000000000081600081518110611b4557611b45612352565b60200101907effffffffffffffffffffffffffffffffffffffffffffffffffffffffffffff1916908160001a9053507f780000000000000000000000000000000000000000000000000000000000000081600181518110611ba857611ba8612352565b60200101907effffffffffffffffffffffffffffffffffffffffffffffffffffffffffffff1916908160001a9053506000611be48460026121ba565b611bef90600161223a565b90505b6001811115611c8c577f303132333435363738396162636465660000000000000000000000000000000085600f1660108110611c3057611c30612352565b1a60f81b828281518110611c4657611c46612352565b60200101907effffffffffffffffffffffffffffffffffffffffffffffffffffffffffffff1916908160001a90535060049490941c93611c8581612381565b9050611bf2565b508315611cf5576040517f08c379a000000000000000000000000000000000000000000000000000000000815260206004820181905260248201527f537472696e67733a20686578206c656e67746820696e73756666696369656e7460448201526064016105e5565b9392505050565b600654610100900460ff16611d93576040517f08c379a000000000000000000000000000000000000000000000000000000000815260206004820152602b60248201527f496e697469616c697a61626c653a20636f6e7472616374206973206e6f74206960448201527f6e697469616c697a696e6700000000000000000000000000000000000000000060648201526084016105e5565b8151611da690603c906020850190611db6565b508051610b5c90603d9060208401905b828054611dc29061227d565b90600052602060002090601f016020900481019282611de45760008555611e2a565b82601f10611dfd57805160ff1916838001178555611e2a565b82800160010185558215611e2a579182015b82811115611e2a578251825591602001919060010190611e0f565b50611e36929150611e3a565b5090565b5b80821115611e365760008155600101611e3b565b600060208284031215611e6157600080fd5b81357fffffffff0000000000000000000000000000000000000000000000000000000081168114611cf557600080fd5b60008060408385031215611ea457600080fd5b50508035926020909101359150565b60005b83811015611ece578181015183820152602001611eb6565b83811115611edd576000848401525b50505050565b6020815260008251806020840152611f02816040850160208701611eb3565b601f017fffffffffffffffffffffffffffffffffffffffffffffffffffffffffffffffe0169190910160400192915050565b803573ffffffffffffffffffffffffffffffffffffffff81168114611f5857600080fd5b919050565b60008060408385031215611f7057600080fd5b611f7983611f34565b946020939093013593505050565b600060208284031215611f9957600080fd5b5035919050565b600080600060608486031215611fb557600080fd5b611fbe84611f34565b9250611fcc60208501611f34565b9150604084013590509250925092565b60008060408385031215611fef57600080fd5b82359150611fff60208401611f34565b90509250929050565b7f4e487b7100000000000000000000000000000000000000000000000000000000600052604160045260246000fd5b600082601f83011261204857600080fd5b813567ffffffffffffffff8082111561206357612063612008565b604051601f83017fffffffffffffffffffffffffffffffffffffffffffffffffffffffffffffffe0908116603f011681019082821181831017156120a9576120a9612008565b816040528381528660208588010111156120c257600080fd5b836020870160208301376000602085830101528094505050505092915050565b600080604083850312156120f557600080fd5b823567ffffffffffffffff8082111561210d57600080fd5b61211986838701612037565b9350602085013591508082111561212f57600080fd5b5061213c85828601612037565b9150509250929050565b60006020828403121561215857600080fd5b611cf582611f34565b6000806040838503121561217457600080fd5b61217d83611f34565b9150611fff60208401611f34565b7f4e487b7100000000000000000000000000000000000000000000000000000000600052601160045260246000fd5b6000817fffffffffffffffffffffffffffffffffffffffffffffffffffffffffffffffff04831182151516156121f2576121f261218b565b500290565b7f4e487b7100000000000000000000000000000000000000000000000000000000600052601260045260246000fd5b600082612235576122356121f7565b500490565b6000821982111561224d5761224d61218b565b500190565b600082612261576122616121f7565b500690565b6000828210156122785761227861218b565b500390565b600181811c9082168061229157607f821691505b602082108114156122cb577f4e487b7100000000000000000000000000000000000000000000000000000000600052602260045260246000fd5b50919050565b7f416363657373436f6e74726f6c3a206163636f756e7420000000000000000000815260008351612309816017850160208801611eb3565b7f206973206d697373696e6720726f6c65200000000000000000000000000000006017918401918201528351612346816028840160208801611eb3565b01602801949350505050565b7f4e487b7100000000000000000000000000000000000000000000000000000000600052603260045260246000fd5b6000816123905761239061218b565b507fffffffffffffffffffffffffffffffffffffffffffffffffffffffffffffffff019056fea2646970667358221220723948d3d11c78fd5fe492a89b5004f04f5485fb9eab90ce5e1b352daef7220064736f6c63430008090033",
  "linkReferences": {},
  "deployedLinkReferences": {}
}