{
  "_format": "hh-sol-artifact-1",
  "contractName": "YieldyV2Test",
  "sourceName": "src/contracts/test/YieldyUpgradeTest.sol",
  "abi": [
    {
      "anonymous": false,
      "inputs": [
        {
          "indexed": true,
          "internalType": "address",
          "name": "owner",
          "type": "address"
        },
        {
          "indexed": true,
          "internalType": "address",
          "name": "spender",
          "type": "address"
        },
        {
          "indexed": false,
          "internalType": "uint256",
          "name": "value",
          "type": "uint256"
        }
      ],
      "name": "Approval",
      "type": "event"
    },
    {
      "anonymous": false,
      "inputs": [
        {
          "indexed": true,
          "internalType": "uint256",
          "name": "epoch",
          "type": "uint256"
        },
        {
          "indexed": false,
          "internalType": "uint256",
          "name": "rebase",
          "type": "uint256"
        },
        {
          "indexed": false,
          "internalType": "uint256",
          "name": "index",
          "type": "uint256"
        }
      ],
      "name": "LogRebase",
      "type": "event"
    },
    {
      "anonymous": false,
      "inputs": [
        {
          "indexed": true,
          "internalType": "uint256",
          "name": "epoch",
          "type": "uint256"
        },
        {
          "indexed": false,
          "internalType": "uint256",
          "name": "timestamp",
          "type": "uint256"
        },
        {
          "indexed": false,
          "internalType": "uint256",
          "name": "totalSupply",
          "type": "uint256"
        }
      ],
      "name": "LogSupply",
      "type": "event"
    },
    {
      "anonymous": false,
      "inputs": [
        {
          "indexed": true,
          "internalType": "bytes32",
          "name": "role",
          "type": "bytes32"
        },
        {
          "indexed": true,
          "internalType": "bytes32",
          "name": "previousAdminRole",
          "type": "bytes32"
        },
        {
          "indexed": true,
          "internalType": "bytes32",
          "name": "newAdminRole",
          "type": "bytes32"
        }
      ],
      "name": "RoleAdminChanged",
      "type": "event"
    },
    {
      "anonymous": false,
      "inputs": [
        {
          "indexed": true,
          "internalType": "bytes32",
          "name": "role",
          "type": "bytes32"
        },
        {
          "indexed": true,
          "internalType": "address",
          "name": "account",
          "type": "address"
        },
        {
          "indexed": true,
          "internalType": "address",
          "name": "sender",
          "type": "address"
        }
      ],
      "name": "RoleGranted",
      "type": "event"
    },
    {
      "anonymous": false,
      "inputs": [
        {
          "indexed": true,
          "internalType": "bytes32",
          "name": "role",
          "type": "bytes32"
        },
        {
          "indexed": true,
          "internalType": "address",
          "name": "account",
          "type": "address"
        },
        {
          "indexed": true,
          "internalType": "address",
          "name": "sender",
          "type": "address"
        }
      ],
      "name": "RoleRevoked",
      "type": "event"
    },
    {
      "anonymous": false,
      "inputs": [
        {
          "indexed": true,
          "internalType": "address",
          "name": "from",
          "type": "address"
        },
        {
          "indexed": true,
          "internalType": "address",
          "name": "to",
          "type": "address"
        },
        {
          "indexed": false,
          "internalType": "uint256",
          "name": "value",
          "type": "uint256"
        }
      ],
      "name": "Transfer",
      "type": "event"
    },
    {
      "inputs": [],
      "name": "ADMIN_ROLE",
      "outputs": [
        {
          "internalType": "bytes32",
          "name": "",
          "type": "bytes32"
        }
      ],
      "stateMutability": "view",
      "type": "function"
    },
    {
      "inputs": [],
      "name": "DEFAULT_ADMIN_ROLE",
      "outputs": [
        {
          "internalType": "bytes32",
          "name": "",
          "type": "bytes32"
        }
      ],
      "stateMutability": "view",
      "type": "function"
    },
    {
      "inputs": [
        {
          "internalType": "address",
          "name": "_owner",
          "type": "address"
        },
        {
          "internalType": "address",
          "name": "_spender",
          "type": "address"
        }
      ],
      "name": "allowance",
      "outputs": [
        {
          "internalType": "uint256",
          "name": "",
          "type": "uint256"
        }
      ],
      "stateMutability": "view",
      "type": "function"
    },
    {
      "inputs": [
        {
          "internalType": "address",
          "name": "_spender",
          "type": "address"
        },
        {
          "internalType": "uint256",
          "name": "_value",
          "type": "uint256"
        }
      ],
      "name": "approve",
      "outputs": [
        {
          "internalType": "bool",
          "name": "",
          "type": "bool"
        }
      ],
      "stateMutability": "nonpayable",
      "type": "function"
    },
    {
      "inputs": [
        {
          "internalType": "uint256",
          "name": "_gons",
          "type": "uint256"
        }
      ],
      "name": "balanceForGons",
      "outputs": [
        {
          "internalType": "uint256",
          "name": "",
          "type": "uint256"
        }
      ],
      "stateMutability": "view",
      "type": "function"
    },
    {
      "inputs": [
        {
          "internalType": "address",
          "name": "_wallet",
          "type": "address"
        }
      ],
      "name": "balanceOf",
      "outputs": [
        {
          "internalType": "uint256",
          "name": "",
          "type": "uint256"
        }
      ],
      "stateMutability": "view",
      "type": "function"
    },
    {
      "inputs": [],
      "name": "circulatingSupply",
      "outputs": [
        {
          "internalType": "uint256",
          "name": "",
          "type": "uint256"
        }
      ],
      "stateMutability": "pure",
      "type": "function"
    },
    {
      "inputs": [],
      "name": "decimals",
      "outputs": [
        {
          "internalType": "uint8",
          "name": "",
          "type": "uint8"
        }
      ],
      "stateMutability": "view",
      "type": "function"
    },
    {
      "inputs": [
        {
          "internalType": "address",
          "name": "_spender",
          "type": "address"
        },
        {
          "internalType": "uint256",
          "name": "_subtractedValue",
          "type": "uint256"
        }
      ],
      "name": "decreaseAllowance",
      "outputs": [
        {
          "internalType": "bool",
          "name": "",
          "type": "bool"
        }
      ],
      "stateMutability": "nonpayable",
      "type": "function"
    },
    {
      "inputs": [],
      "name": "getIndex",
      "outputs": [
        {
          "internalType": "uint256",
          "name": "",
          "type": "uint256"
        }
      ],
      "stateMutability": "pure",
      "type": "function"
    },
    {
      "inputs": [
        {
          "internalType": "bytes32",
          "name": "role",
          "type": "bytes32"
        }
      ],
      "name": "getRoleAdmin",
      "outputs": [
        {
          "internalType": "bytes32",
          "name": "",
          "type": "bytes32"
        }
      ],
      "stateMutability": "view",
      "type": "function"
    },
    {
      "inputs": [
        {
          "internalType": "uint256",
          "name": "_amount",
          "type": "uint256"
        }
      ],
      "name": "gonsForBalance",
      "outputs": [
        {
          "internalType": "uint256",
          "name": "",
          "type": "uint256"
        }
      ],
      "stateMutability": "view",
      "type": "function"
    },
    {
      "inputs": [
        {
          "internalType": "bytes32",
          "name": "role",
          "type": "bytes32"
        },
        {
          "internalType": "address",
          "name": "account",
          "type": "address"
        }
      ],
      "name": "grantRole",
      "outputs": [],
      "stateMutability": "nonpayable",
      "type": "function"
    },
    {
      "inputs": [
        {
          "internalType": "bytes32",
          "name": "role",
          "type": "bytes32"
        },
        {
          "internalType": "address",
          "name": "account",
          "type": "address"
        }
      ],
      "name": "hasRole",
      "outputs": [
        {
          "internalType": "bool",
          "name": "",
          "type": "bool"
        }
      ],
      "stateMutability": "view",
      "type": "function"
    },
    {
      "inputs": [
        {
          "internalType": "address",
          "name": "_spender",
          "type": "address"
        },
        {
          "internalType": "uint256",
          "name": "_addedValue",
          "type": "uint256"
        }
      ],
      "name": "increaseAllowance",
      "outputs": [
        {
          "internalType": "bool",
          "name": "",
          "type": "bool"
        }
      ],
      "stateMutability": "nonpayable",
      "type": "function"
    },
    {
      "inputs": [],
      "name": "index",
      "outputs": [
        {
          "internalType": "uint256",
          "name": "",
          "type": "uint256"
        }
      ],
      "stateMutability": "view",
      "type": "function"
    },
    {
      "inputs": [
        {
          "internalType": "string",
          "name": "_tokenName",
          "type": "string"
        },
        {
          "internalType": "string",
          "name": "_tokenSymbol",
          "type": "string"
        }
      ],
      "name": "initialize",
      "outputs": [],
      "stateMutability": "nonpayable",
      "type": "function"
    },
    {
      "inputs": [
        {
          "internalType": "address",
          "name": "_stakingContract",
          "type": "address"
        }
      ],
      "name": "initializeStakingContract",
      "outputs": [],
      "stateMutability": "nonpayable",
      "type": "function"
    },
    {
      "inputs": [],
      "name": "name",
      "outputs": [
        {
          "internalType": "string",
          "name": "",
          "type": "string"
        }
      ],
      "stateMutability": "view",
      "type": "function"
    },
    {
      "inputs": [
        {
          "internalType": "uint256",
          "name": "_profit",
          "type": "uint256"
        },
        {
          "internalType": "uint256",
          "name": "_epoch",
          "type": "uint256"
        }
      ],
      "name": "rebase",
      "outputs": [
        {
          "internalType": "uint256",
          "name": "",
          "type": "uint256"
        }
      ],
      "stateMutability": "nonpayable",
      "type": "function"
    },
    {
      "inputs": [
        {
          "internalType": "uint256",
          "name": "",
          "type": "uint256"
        }
      ],
      "name": "rebases",
      "outputs": [
        {
          "internalType": "uint256",
          "name": "epoch",
          "type": "uint256"
        },
        {
          "internalType": "uint256",
          "name": "rebase",
          "type": "uint256"
        },
        {
          "internalType": "uint256",
          "name": "totalStakedBefore",
          "type": "uint256"
        },
        {
          "internalType": "uint256",
          "name": "totalStakedAfter",
          "type": "uint256"
        },
        {
          "internalType": "uint256",
          "name": "amountRebased",
          "type": "uint256"
        },
        {
          "internalType": "uint256",
          "name": "index",
          "type": "uint256"
        },
        {
          "internalType": "uint256",
          "name": "blockNumberOccurred",
          "type": "uint256"
        }
      ],
      "stateMutability": "view",
      "type": "function"
    },
    {
      "inputs": [
        {
          "internalType": "bytes32",
          "name": "role",
          "type": "bytes32"
        },
        {
          "internalType": "address",
          "name": "account",
          "type": "address"
        }
      ],
      "name": "renounceRole",
      "outputs": [],
      "stateMutability": "nonpayable",
      "type": "function"
    },
    {
      "inputs": [
        {
          "internalType": "bytes32",
          "name": "role",
          "type": "bytes32"
        },
        {
          "internalType": "address",
          "name": "account",
          "type": "address"
        }
      ],
      "name": "revokeRole",
      "outputs": [],
      "stateMutability": "nonpayable",
      "type": "function"
    },
    {
      "inputs": [],
      "name": "stakingContract",
      "outputs": [
        {
          "internalType": "address",
          "name": "",
          "type": "address"
        }
      ],
      "stateMutability": "view",
      "type": "function"
    },
    {
      "inputs": [
        {
          "internalType": "bytes4",
          "name": "interfaceId",
          "type": "bytes4"
        }
      ],
      "name": "supportsInterface",
      "outputs": [
        {
          "internalType": "bool",
          "name": "",
          "type": "bool"
        }
      ],
      "stateMutability": "view",
      "type": "function"
    },
    {
      "inputs": [],
      "name": "symbol",
      "outputs": [
        {
          "internalType": "string",
          "name": "",
          "type": "string"
        }
      ],
      "stateMutability": "view",
      "type": "function"
    },
    {
      "inputs": [],
      "name": "totalSupply",
      "outputs": [
        {
          "internalType": "uint256",
          "name": "",
          "type": "uint256"
        }
      ],
      "stateMutability": "view",
      "type": "function"
    },
    {
      "inputs": [
        {
          "internalType": "address",
          "name": "_to",
          "type": "address"
        },
        {
          "internalType": "uint256",
          "name": "_value",
          "type": "uint256"
        }
      ],
      "name": "transfer",
      "outputs": [
        {
          "internalType": "bool",
          "name": "",
          "type": "bool"
        }
      ],
      "stateMutability": "nonpayable",
      "type": "function"
    },
    {
      "inputs": [
        {
          "internalType": "address",
          "name": "_from",
          "type": "address"
        },
        {
          "internalType": "address",
          "name": "_to",
          "type": "address"
        },
        {
          "internalType": "uint256",
          "name": "_value",
          "type": "uint256"
        }
      ],
      "name": "transferFrom",
      "outputs": [
        {
          "internalType": "bool",
          "name": "",
          "type": "bool"
        }
      ],
      "stateMutability": "nonpayable",
      "type": "function"
    }
  ],
  "bytecode": "0x608060405234801561001057600080fd5b50612331806100206000396000f3fe608060405234801561001057600080fd5b50600436106101cf5760003560e01c806370a082311161010457806395d89b41116100a2578063bcc5ceca11610071578063bcc5ceca1461041f578063d547741f14610432578063dd62ed3e14610445578063ee99205c1461048b57600080fd5b806395d89b41146103e9578063a217fddf146103f1578063a457c2d7146103f9578063a9059cbb1461040c57600080fd5b80637965d56d116100de5780637965d56d1461037e57806381045ead1461039157806391d148541461039a5780639358928b146103e057600080fd5b806370a08231146102fc57806373c69eb71461030f57806375b238fc1461035757600080fd5b8063248a9ca311610171578063313ce5671161014b578063313ce567146102b457806336568abe146102c357806339509351146102d65780634cd88b76146102e957600080fd5b8063248a9ca3146102735780632986c0e5146102965780632f2ff15d1461029f57600080fd5b8063095ea7b3116101ad578063095ea7b31461023257806318160ddd146102455780631bd396741461024d57806323b872dd1461026057600080fd5b806301ffc9a7146101d4578063058ecdb4146101fc57806306fdde031461021d575b600080fd5b6101e76101e2366004611d94565b6104d0565b60405190151581526020015b60405180910390f35b61020f61020a366004611dd6565b610569565b6040519081526020016101f3565b610225610774565b6040516101f39190611e28565b6101e7610240366004611ea2565b610806565b603b5461020f565b61020f61025b366004611ecc565b61087f565b6101e761026e366004611ee5565b61088f565b61020f610281366004611ecc565b60009081526070602052604090206001015490565b61020f60025481565b6102b26102ad366004611f21565b610ac0565b005b604051601281526020016101f3565b6102b26102d1366004611f21565b610aeb565b6101e76102e4366004611ea2565b610b9e565b6102b26102f7366004612027565b610c51565b61020f61030a36600461208b565b610e78565b61032261031d366004611ecc565b610eac565b604080519788526020880196909652948601939093526060850191909152608084015260a083015260c082015260e0016101f3565b61020f7fdf8b4c520ffe197c5343c6f5aec59570151ef9a492f2c624fd45ddde6135ec4281565b61020f61038c366004611ecc565b610efe565b6201e24061020f565b6101e76103a8366004611f21565b600091825260706020908152604080842073ffffffffffffffffffffffffffffffffffffffff93909316845291905290205460ff1690565b6276adf161020f565b610225610f0e565b61020f600081565b6101e7610407366004611ea2565b610f1d565b6101e761041a366004611ea2565b611068565b6102b261042d36600461208b565b611226565b6102b2610440366004611f21565b611468565b61020f6104533660046120a6565b73ffffffffffffffffffffffffffffffffffffffff918216600090815260056020908152604080832093909416825291909152205490565b6000546104ab9073ffffffffffffffffffffffffffffffffffffffff1681565b60405173ffffffffffffffffffffffffffffffffffffffff90911681526020016101f3565b60007fffffffff0000000000000000000000000000000000000000000000000000000082167f7965db0b00000000000000000000000000000000000000000000000000000000148061056357507f01ffc9a7000000000000000000000000000000000000000000000000000000007fffffffff000000000000000000000000000000000000000000000000000000008316145b92915050565b6000805473ffffffffffffffffffffffffffffffffffffffff1633146105f0576040517f08c379a000000000000000000000000000000000000000000000000000000000815260206004820152601460248201527f4e6f74207374616b696e6720636f6e747261637400000000000000000000000060448201526064015b60405180910390fd5b60006276adf18461068957837f917acfbe39be6509ccf7fecb66a7e42ce2be1083c2d7dd3b9b7491dabddb8da442603b54604051610638929190918252602082015260400190565b60405180910390a260408051600081526201e2406020820152815186927f6012dbce857565c4a40974aa5de8373a761fc429077ef0c8c8611d1e20d63fb2928290030190a2603b5492505050610563565b80603b548661069891906120ff565b6106a2919061216b565b915081603b546106b2919061217f565b603b8190556fffffffffffffffffffffffffffffffff10156106e3576fffffffffffffffffffffffffffffffff603b555b603b546106fc670de0b6b3a7640000631dcd65006120ff565b610726907fffffffffffffffffffffffffffffffffffffffffffffffffffffffffffffffff612197565b610750907fffffffffffffffffffffffffffffffffffffffffffffffffffffffffffffffff6121ab565b61075a919061216b565b60035561076881868661148e565b5050603b549392505050565b6060603c8054610783906121c2565b80601f01602080910402602001604051908101604052809291908181526020018280546107af906121c2565b80156107fc5780601f106107d1576101008083540402835291602001916107fc565b820191906000526020600020905b8154815290600101906020018083116107df57829003601f168201915b5050505050905090565b33600081815260056020908152604080832073ffffffffffffffffffffffffffffffffffffffff8716808552925280832085905551919290917f8c5be1e5ebec7d5bd14f71427d1e84f3dd0314c0f7b2291e5b200ac8c7c3b9259061086e9086815260200190565b60405180910390a350600192915050565b60006003548261056391906120ff565b73ffffffffffffffffffffffffffffffffffffffff83166000908152600560209081526040808320338452909152812054821115610929576040517f08c379a000000000000000000000000000000000000000000000000000000000815260206004820152601160248201527f416c6c6f77616e636520746f6f206c6f7700000000000000000000000000000060448201526064016105e7565b73ffffffffffffffffffffffffffffffffffffffff841660009081526005602090815260408083203384529091528120546109659084906121ab565b73ffffffffffffffffffffffffffffffffffffffff8616600081815260056020908152604080832033808552908352928190208590555184815293945090927f8c5be1e5ebec7d5bd14f71427d1e84f3dd0314c0f7b2291e5b200ac8c7c3b925910160405180910390a360006109da8461087f565b73ffffffffffffffffffffffffffffffffffffffff8716600090815260046020526040902054909150610a0e9082906121ab565b73ffffffffffffffffffffffffffffffffffffffff8088166000908152600460205260408082209390935590871681522054610a4b90829061217f565b73ffffffffffffffffffffffffffffffffffffffff80871660008181526004602052604090819020939093559151908816907fddf252ad1be2c89b69c2b068fc378daa952ba7f163c4a11628f55a4df523b3ef90610aac9088815260200190565b60405180910390a350600195945050505050565b600082815260706020526040902060010154610adc81336115d1565b610ae683836116a3565b505050565b73ffffffffffffffffffffffffffffffffffffffff81163314610b90576040517f08c379a000000000000000000000000000000000000000000000000000000000815260206004820152602f60248201527f416363657373436f6e74726f6c3a2063616e206f6e6c792072656e6f756e636560448201527f20726f6c657320666f722073656c66000000000000000000000000000000000060648201526084016105e7565b610b9a8282611797565b5050565b33600090815260056020908152604080832073ffffffffffffffffffffffffffffffffffffffff861684529091528120548190610bdc90849061217f565b33600081815260056020908152604080832073ffffffffffffffffffffffffffffffffffffffff8a16808552908352928190208590555184815293945090927f8c5be1e5ebec7d5bd14f71427d1e84f3dd0314c0f7b2291e5b200ac8c7c3b92591015b60405180910390a35060019392505050565b600654610100900460ff16610c6c5760065460ff1615610c70565b303b155b610cfc576040517f08c379a000000000000000000000000000000000000000000000000000000000815260206004820152602e60248201527f496e697469616c697a61626c653a20636f6e747261637420697320616c72656160448201527f647920696e697469616c697a656400000000000000000000000000000000000060648201526084016105e7565b600654610100900460ff16158015610d3b57600680547fffffffffffffffffffffffffffffffffffffffffffffffffffffffffffff0000166101011790555b610d458383611852565b610d4d6118f3565b610d777fdf8b4c520ffe197c5343c6f5aec59570151ef9a492f2c624fd45ddde6135ec423361198c565b610da17fdf8b4c520ffe197c5343c6f5aec59570151ef9a492f2c624fd45ddde6135ec4280611996565b610db7670de0b6b3a7640000631dcd65006120ff565b603b819055610dd2670de0b6b3a7640000631dcd65006120ff565b610dfc907fffffffffffffffffffffffffffffffffffffffffffffffffffffffffffffffff612197565b610e26907fffffffffffffffffffffffffffffffffffffffffffffffffffffffffffffffff6121ab565b610e30919061216b565b600355610e44670de0b6b3a76400006119e1565b508015610ae657600680547fffffffffffffffffffffffffffffffffffffffffffffffffffffffffffff00ff169055505050565b60035473ffffffffffffffffffffffffffffffffffffffff821660009081526004602052604081205490916105639161216b565b60018181548110610ebc57600080fd5b90600052602060002090600702016000915090508060000154908060010154908060020154908060030154908060040154908060050154908060060154905087565b600060035482610563919061216b565b6060603d8054610783906121c2565b33600090815260056020908152604080832073ffffffffffffffffffffffffffffffffffffffff86168452909152812054821115610fb7576040517f08c379a000000000000000000000000000000000000000000000000000000000815260206004820152601460248201527f4e6f7420656e6f75676820616c6c6f77616e636500000000000000000000000060448201526064016105e7565b33600090815260056020908152604080832073ffffffffffffffffffffffffffffffffffffffff8716845290915281205490610ff384836121ab565b33600081815260056020908152604080832073ffffffffffffffffffffffffffffffffffffffff8b16808552908352928190208590555184815293945090927f8c5be1e5ebec7d5bd14f71427d1e84f3dd0314c0f7b2291e5b200ac8c7c3b925910160405180910390a3506001949350505050565b600073ffffffffffffffffffffffffffffffffffffffff83166110e7576040517f08c379a000000000000000000000000000000000000000000000000000000000815260206004820152600f60248201527f496e76616c69642061646472657373000000000000000000000000000000000060448201526064016105e7565b6000600354836110f791906120ff565b33600090815260046020526040902054909150811115611173576040517f08c379a000000000000000000000000000000000000000000000000000000000815260206004820152601060248201527f4e6f7420656e6f7567682066756e64730000000000000000000000000000000060448201526064016105e7565b3360009081526004602052604090205461118e9082906121ab565b336000908152600460205260408082209290925573ffffffffffffffffffffffffffffffffffffffff8616815220546111c890829061217f565b73ffffffffffffffffffffffffffffffffffffffff85166000818152600460205260409081902092909255905133907fddf252ad1be2c89b69c2b068fc378daa952ba7f163c4a11628f55a4df523b3ef90610c3f9087815260200190565b7fdf8b4c520ffe197c5343c6f5aec59570151ef9a492f2c624fd45ddde6135ec4261125181336115d1565b60005473ffffffffffffffffffffffffffffffffffffffff16156112d1576040517f08c379a000000000000000000000000000000000000000000000000000000000815260206004820152601360248201527f416c726561647920496e697469616c697a65640000000000000000000000000060448201526064016105e7565b73ffffffffffffffffffffffffffffffffffffffff821661134e576040517f08c379a000000000000000000000000000000000000000000000000000000000815260206004820152600f60248201527f496e76616c69642061646472657373000000000000000000000000000000000060448201526064016105e7565b600080547fffffffffffffffffffffffff00000000000000000000000000000000000000001673ffffffffffffffffffffffffffffffffffffffff84161790556113a4670de0b6b3a7640000631dcd65006120ff565b6113ce907fffffffffffffffffffffffffffffffffffffffffffffffffffffffffffffffff612197565b6113f8907fffffffffffffffffffffffffffffffffffffffffffffffffffffffffffffffff6121ab565b6000805473ffffffffffffffffffffffffffffffffffffffff908116825260046020526040808320939093558154603b5493519116927fddf252ad1be2c89b69c2b068fc378daa952ba7f163c4a11628f55a4df523b3ef9161145c91815260200190565b60405180910390a35050565b60008281526070602052604090206001015461148481336115d1565b610ae68383611797565b6000836114a3670de0b6b3a7640000856120ff565b6114ad919061216b565b905060016040518060e001604052808481526020018381526020018681526020016114d86276adf190565b81526020018581526020016114ed6201e24090565b815243602091820152825460018082018555600094855293829020835160079092020190815582820151938101939093556040808301516002850155606083015160038501556080830151600485015560a0830151600585015560c090920151600690930192909255603b5481514281529283015283917f917acfbe39be6509ccf7fecb66a7e42ce2be1083c2d7dd3b9b7491dabddb8da4910160405180910390a2604080518281526201e2406020820152815184927f6012dbce857565c4a40974aa5de8373a761fc429077ef0c8c8611d1e20d63fb2928290030190a250505050565b600082815260706020908152604080832073ffffffffffffffffffffffffffffffffffffffff8516845290915290205460ff16610b9a576116298173ffffffffffffffffffffffffffffffffffffffff1660146119f7565b6116348360206119f7565b604051602001611645929190612216565b604080517fffffffffffffffffffffffffffffffffffffffffffffffffffffffffffffffe0818403018152908290527f08c379a00000000000000000000000000000000000000000000000000000000082526105e791600401611e28565b600082815260706020908152604080832073ffffffffffffffffffffffffffffffffffffffff8516845290915290205460ff16610b9a57600082815260706020908152604080832073ffffffffffffffffffffffffffffffffffffffff85168452909152902080547fffffffffffffffffffffffffffffffffffffffffffffffffffffffffffffff001660011790556117393390565b73ffffffffffffffffffffffffffffffffffffffff168173ffffffffffffffffffffffffffffffffffffffff16837f2f8788117e7eff1d82e926ec794901d17c78024a50270940304540a733656f0d60405160405180910390a45050565b600082815260706020908152604080832073ffffffffffffffffffffffffffffffffffffffff8516845290915290205460ff1615610b9a57600082815260706020908152604080832073ffffffffffffffffffffffffffffffffffffffff8516808552925280832080547fffffffffffffffffffffffffffffffffffffffffffffffffffffffffffffff0016905551339285917ff6391f5c32d9c69d2a47ea670b442974b53935d1edc7fd64eb21e047a839171b9190a45050565b600654610100900460ff166118e9576040517f08c379a000000000000000000000000000000000000000000000000000000000815260206004820152602b60248201527f496e697469616c697a61626c653a20636f6e7472616374206973206e6f74206960448201527f6e697469616c697a696e6700000000000000000000000000000000000000000060648201526084016105e7565b610b9a8282611c41565b600654610100900460ff1661198a576040517f08c379a000000000000000000000000000000000000000000000000000000000815260206004820152602b60248201527f496e697469616c697a61626c653a20636f6e7472616374206973206e6f74206960448201527f6e697469616c697a696e6700000000000000000000000000000000000000000060648201526084016105e7565b565b610b9a82826116a3565b600082815260706020526040808220600101805490849055905190918391839186917fbd79b86ffe0ab8e8776151514217cd7cacd52c909f66475c3af44e129f0b00ff9190a4505050565b60006119ec8261087f565b600255506001919050565b60606000611a068360026120ff565b611a1190600261217f565b67ffffffffffffffff811115611a2957611a29611f4d565b6040519080825280601f01601f191660200182016040528015611a53576020820181803683370190505b5090507f300000000000000000000000000000000000000000000000000000000000000081600081518110611a8a57611a8a612297565b60200101907effffffffffffffffffffffffffffffffffffffffffffffffffffffffffffff1916908160001a9053507f780000000000000000000000000000000000000000000000000000000000000081600181518110611aed57611aed612297565b60200101907effffffffffffffffffffffffffffffffffffffffffffffffffffffffffffff1916908160001a9053506000611b298460026120ff565b611b3490600161217f565b90505b6001811115611bd1577f303132333435363738396162636465660000000000000000000000000000000085600f1660108110611b7557611b75612297565b1a60f81b828281518110611b8b57611b8b612297565b60200101907effffffffffffffffffffffffffffffffffffffffffffffffffffffffffffff1916908160001a90535060049490941c93611bca816122c6565b9050611b37565b508315611c3a576040517f08c379a000000000000000000000000000000000000000000000000000000000815260206004820181905260248201527f537472696e67733a20686578206c656e67746820696e73756666696369656e7460448201526064016105e7565b9392505050565b600654610100900460ff16611cd8576040517f08c379a000000000000000000000000000000000000000000000000000000000815260206004820152602b60248201527f496e697469616c697a61626c653a20636f6e7472616374206973206e6f74206960448201527f6e697469616c697a696e6700000000000000000000000000000000000000000060648201526084016105e7565b8151611ceb90603c906020850190611cfb565b508051610ae690603d9060208401905b828054611d07906121c2565b90600052602060002090601f016020900481019282611d295760008555611d6f565b82601f10611d4257805160ff1916838001178555611d6f565b82800160010185558215611d6f579182015b82811115611d6f578251825591602001919060010190611d54565b50611d7b929150611d7f565b5090565b5b80821115611d7b5760008155600101611d80565b600060208284031215611da657600080fd5b81357fffffffff0000000000000000000000000000000000000000000000000000000081168114611c3a57600080fd5b60008060408385031215611de957600080fd5b50508035926020909101359150565b60005b83811015611e13578181015183820152602001611dfb565b83811115611e22576000848401525b50505050565b6020815260008251806020840152611e47816040850160208701611df8565b601f017fffffffffffffffffffffffffffffffffffffffffffffffffffffffffffffffe0169190910160400192915050565b803573ffffffffffffffffffffffffffffffffffffffff81168114611e9d57600080fd5b919050565b60008060408385031215611eb557600080fd5b611ebe83611e79565b946020939093013593505050565b600060208284031215611ede57600080fd5b5035919050565b600080600060608486031215611efa57600080fd5b611f0384611e79565b9250611f1160208501611e79565b9150604084013590509250925092565b60008060408385031215611f3457600080fd5b82359150611f4460208401611e79565b90509250929050565b7f4e487b7100000000000000000000000000000000000000000000000000000000600052604160045260246000fd5b600082601f830112611f8d57600080fd5b813567ffffffffffffffff80821115611fa857611fa8611f4d565b604051601f83017fffffffffffffffffffffffffffffffffffffffffffffffffffffffffffffffe0908116603f01168101908282118183101715611fee57611fee611f4d565b8160405283815286602085880101111561200757600080fd5b836020870160208301376000602085830101528094505050505092915050565b6000806040838503121561203a57600080fd5b823567ffffffffffffffff8082111561205257600080fd5b61205e86838701611f7c565b9350602085013591508082111561207457600080fd5b5061208185828601611f7c565b9150509250929050565b60006020828403121561209d57600080fd5b611c3a82611e79565b600080604083850312156120b957600080fd5b6120c283611e79565b9150611f4460208401611e79565b7f4e487b7100000000000000000000000000000000000000000000000000000000600052601160045260246000fd5b6000817fffffffffffffffffffffffffffffffffffffffffffffffffffffffffffffffff0483118215151615612137576121376120d0565b500290565b7f4e487b7100000000000000000000000000000000000000000000000000000000600052601260045260246000fd5b60008261217a5761217a61213c565b500490565b60008219821115612192576121926120d0565b500190565b6000826121a6576121a661213c565b500690565b6000828210156121bd576121bd6120d0565b500390565b600181811c908216806121d657607f821691505b60208210811415612210577f4e487b7100000000000000000000000000000000000000000000000000000000600052602260045260246000fd5b50919050565b7f416363657373436f6e74726f6c3a206163636f756e742000000000000000000081526000835161224e816017850160208801611df8565b7f206973206d697373696e6720726f6c6520000000000000000000000000000000601791840191820152835161228b816028840160208801611df8565b01602801949350505050565b7f4e487b7100000000000000000000000000000000000000000000000000000000600052603260045260246000fd5b6000816122d5576122d56120d0565b507fffffffffffffffffffffffffffffffffffffffffffffffffffffffffffffffff019056fea26469706673582212200a933939f86c05973f423d4b5b77c97520d93990b75862628aca70a1680d45a364736f6c63430008090033",
  "linkReferences": {},
  "deployedLinkReferences": {}
}