{
  "_format": "hh-sol-artifact-1",
  "contractName": "YieldyV2Test",
  "sourceName": "src/contracts/test/YieldyUpgradeTest.sol",
  "abi": [
    {
      "anonymous": false,
      "inputs": [
        {
          "indexed": true,
          "internalType": "address",
          "name": "owner",
          "type": "address"
        },
        {
          "indexed": true,
          "internalType": "address",
          "name": "spender",
          "type": "address"
        },
        {
          "indexed": false,
          "internalType": "uint256",
          "name": "value",
          "type": "uint256"
        }
      ],
      "name": "Approval",
      "type": "event"
    },
    {
      "anonymous": false,
      "inputs": [
        {
          "indexed": true,
          "internalType": "uint256",
          "name": "epoch",
          "type": "uint256"
        },
        {
          "indexed": false,
          "internalType": "uint256",
          "name": "rebase",
          "type": "uint256"
        },
        {
          "indexed": false,
          "internalType": "uint256",
          "name": "index",
          "type": "uint256"
        }
      ],
      "name": "LogRebase",
      "type": "event"
    },
    {
      "anonymous": false,
      "inputs": [
        {
          "indexed": true,
          "internalType": "uint256",
          "name": "epoch",
          "type": "uint256"
        },
        {
          "indexed": false,
          "internalType": "uint256",
          "name": "timestamp",
          "type": "uint256"
        },
        {
          "indexed": false,
          "internalType": "uint256",
          "name": "totalSupply",
          "type": "uint256"
        }
      ],
      "name": "LogSupply",
      "type": "event"
    },
    {
      "anonymous": false,
      "inputs": [
        {
          "indexed": true,
          "internalType": "bytes32",
          "name": "role",
          "type": "bytes32"
        },
        {
          "indexed": true,
          "internalType": "bytes32",
          "name": "previousAdminRole",
          "type": "bytes32"
        },
        {
          "indexed": true,
          "internalType": "bytes32",
          "name": "newAdminRole",
          "type": "bytes32"
        }
      ],
      "name": "RoleAdminChanged",
      "type": "event"
    },
    {
      "anonymous": false,
      "inputs": [
        {
          "indexed": true,
          "internalType": "bytes32",
          "name": "role",
          "type": "bytes32"
        },
        {
          "indexed": true,
          "internalType": "address",
          "name": "account",
          "type": "address"
        },
        {
          "indexed": true,
          "internalType": "address",
          "name": "sender",
          "type": "address"
        }
      ],
      "name": "RoleGranted",
      "type": "event"
    },
    {
      "anonymous": false,
      "inputs": [
        {
          "indexed": true,
          "internalType": "bytes32",
          "name": "role",
          "type": "bytes32"
        },
        {
          "indexed": true,
          "internalType": "address",
          "name": "account",
          "type": "address"
        },
        {
          "indexed": true,
          "internalType": "address",
          "name": "sender",
          "type": "address"
        }
      ],
      "name": "RoleRevoked",
      "type": "event"
    },
    {
      "anonymous": false,
      "inputs": [
        {
          "indexed": true,
          "internalType": "address",
          "name": "from",
          "type": "address"
        },
        {
          "indexed": true,
          "internalType": "address",
          "name": "to",
          "type": "address"
        },
        {
          "indexed": false,
          "internalType": "uint256",
          "name": "value",
          "type": "uint256"
        }
      ],
      "name": "Transfer",
      "type": "event"
    },
    {
      "inputs": [],
      "name": "ADMIN_ROLE",
      "outputs": [
        {
          "internalType": "bytes32",
          "name": "",
          "type": "bytes32"
        }
      ],
      "stateMutability": "view",
      "type": "function"
    },
    {
      "inputs": [],
      "name": "DEFAULT_ADMIN_ROLE",
      "outputs": [
        {
          "internalType": "bytes32",
          "name": "",
          "type": "bytes32"
        }
      ],
      "stateMutability": "view",
      "type": "function"
    },
    {
      "inputs": [],
      "name": "DOMAIN_SEPARATOR",
      "outputs": [
        {
          "internalType": "bytes32",
          "name": "",
          "type": "bytes32"
        }
      ],
      "stateMutability": "view",
      "type": "function"
    },
    {
      "inputs": [
        {
          "internalType": "address",
          "name": "_owner",
          "type": "address"
        },
        {
          "internalType": "address",
          "name": "_spender",
          "type": "address"
        }
      ],
      "name": "allowance",
      "outputs": [
        {
          "internalType": "uint256",
          "name": "",
          "type": "uint256"
        }
      ],
      "stateMutability": "view",
      "type": "function"
    },
    {
      "inputs": [
        {
          "internalType": "address",
          "name": "_spender",
          "type": "address"
        },
        {
          "internalType": "uint256",
          "name": "_value",
          "type": "uint256"
        }
      ],
      "name": "approve",
      "outputs": [
        {
          "internalType": "bool",
          "name": "",
          "type": "bool"
        }
      ],
      "stateMutability": "nonpayable",
      "type": "function"
    },
    {
      "inputs": [
        {
          "internalType": "uint256",
          "name": "_gons",
          "type": "uint256"
        }
      ],
      "name": "balanceForGons",
      "outputs": [
        {
          "internalType": "uint256",
          "name": "",
          "type": "uint256"
        }
      ],
      "stateMutability": "view",
      "type": "function"
    },
    {
      "inputs": [
        {
          "internalType": "address",
          "name": "_wallet",
          "type": "address"
        }
      ],
      "name": "balanceOf",
      "outputs": [
        {
          "internalType": "uint256",
          "name": "",
          "type": "uint256"
        }
      ],
      "stateMutability": "view",
      "type": "function"
    },
    {
      "inputs": [],
      "name": "circulatingSupply",
      "outputs": [
        {
          "internalType": "uint256",
          "name": "",
          "type": "uint256"
        }
      ],
      "stateMutability": "pure",
      "type": "function"
    },
    {
      "inputs": [],
      "name": "decimals",
      "outputs": [
        {
          "internalType": "uint8",
          "name": "",
          "type": "uint8"
        }
      ],
      "stateMutability": "view",
      "type": "function"
    },
    {
      "inputs": [
        {
          "internalType": "address",
          "name": "_spender",
          "type": "address"
        },
        {
          "internalType": "uint256",
          "name": "_subtractedValue",
          "type": "uint256"
        }
      ],
      "name": "decreaseAllowance",
      "outputs": [
        {
          "internalType": "bool",
          "name": "",
          "type": "bool"
        }
      ],
      "stateMutability": "nonpayable",
      "type": "function"
    },
    {
      "inputs": [],
      "name": "getIndex",
      "outputs": [
        {
          "internalType": "uint256",
          "name": "",
          "type": "uint256"
        }
      ],
      "stateMutability": "pure",
      "type": "function"
    },
    {
      "inputs": [
        {
          "internalType": "bytes32",
          "name": "role",
          "type": "bytes32"
        }
      ],
      "name": "getRoleAdmin",
      "outputs": [
        {
          "internalType": "bytes32",
          "name": "",
          "type": "bytes32"
        }
      ],
      "stateMutability": "view",
      "type": "function"
    },
    {
      "inputs": [
        {
          "internalType": "uint256",
          "name": "_amount",
          "type": "uint256"
        }
      ],
      "name": "gonsForBalance",
      "outputs": [
        {
          "internalType": "uint256",
          "name": "",
          "type": "uint256"
        }
      ],
      "stateMutability": "view",
      "type": "function"
    },
    {
      "inputs": [
        {
          "internalType": "bytes32",
          "name": "role",
          "type": "bytes32"
        },
        {
          "internalType": "address",
          "name": "account",
          "type": "address"
        }
      ],
      "name": "grantRole",
      "outputs": [],
      "stateMutability": "nonpayable",
      "type": "function"
    },
    {
      "inputs": [
        {
          "internalType": "bytes32",
          "name": "role",
          "type": "bytes32"
        },
        {
          "internalType": "address",
          "name": "account",
          "type": "address"
        }
      ],
      "name": "hasRole",
      "outputs": [
        {
          "internalType": "bool",
          "name": "",
          "type": "bool"
        }
      ],
      "stateMutability": "view",
      "type": "function"
    },
    {
      "inputs": [
        {
          "internalType": "address",
          "name": "_spender",
          "type": "address"
        },
        {
          "internalType": "uint256",
          "name": "_addedValue",
          "type": "uint256"
        }
      ],
      "name": "increaseAllowance",
      "outputs": [
        {
          "internalType": "bool",
          "name": "",
          "type": "bool"
        }
      ],
      "stateMutability": "nonpayable",
      "type": "function"
    },
    {
      "inputs": [],
      "name": "index",
      "outputs": [
        {
          "internalType": "uint256",
          "name": "",
          "type": "uint256"
        }
      ],
      "stateMutability": "view",
      "type": "function"
    },
    {
      "inputs": [
        {
          "internalType": "string",
          "name": "_tokenName",
          "type": "string"
        },
        {
          "internalType": "string",
          "name": "_tokenSymbol",
          "type": "string"
        }
      ],
      "name": "initialize",
      "outputs": [],
      "stateMutability": "nonpayable",
      "type": "function"
    },
    {
      "inputs": [
        {
          "internalType": "address",
          "name": "_stakingContract",
          "type": "address"
        }
      ],
      "name": "initializeStakingContract",
      "outputs": [],
      "stateMutability": "nonpayable",
      "type": "function"
    },
    {
      "inputs": [],
      "name": "name",
      "outputs": [
        {
          "internalType": "string",
          "name": "",
          "type": "string"
        }
      ],
      "stateMutability": "view",
      "type": "function"
    },
    {
      "inputs": [
        {
          "internalType": "address",
          "name": "owner",
          "type": "address"
        }
      ],
      "name": "nonces",
      "outputs": [
        {
          "internalType": "uint256",
          "name": "",
          "type": "uint256"
        }
      ],
      "stateMutability": "view",
      "type": "function"
    },
    {
      "inputs": [
        {
          "internalType": "address",
          "name": "owner",
          "type": "address"
        },
        {
          "internalType": "address",
          "name": "spender",
          "type": "address"
        },
        {
          "internalType": "uint256",
          "name": "value",
          "type": "uint256"
        },
        {
          "internalType": "uint256",
          "name": "deadline",
          "type": "uint256"
        },
        {
          "internalType": "uint8",
          "name": "v",
          "type": "uint8"
        },
        {
          "internalType": "bytes32",
          "name": "r",
          "type": "bytes32"
        },
        {
          "internalType": "bytes32",
          "name": "s",
          "type": "bytes32"
        }
      ],
      "name": "permit",
      "outputs": [],
      "stateMutability": "nonpayable",
      "type": "function"
    },
    {
      "inputs": [
        {
          "internalType": "uint256",
          "name": "_profit",
          "type": "uint256"
        },
        {
          "internalType": "uint256",
          "name": "_epoch",
          "type": "uint256"
        }
      ],
      "name": "rebase",
      "outputs": [
        {
          "internalType": "uint256",
          "name": "",
          "type": "uint256"
        }
      ],
      "stateMutability": "nonpayable",
      "type": "function"
    },
    {
      "inputs": [
        {
          "internalType": "uint256",
          "name": "",
          "type": "uint256"
        }
      ],
      "name": "rebases",
      "outputs": [
        {
          "internalType": "uint256",
          "name": "epoch",
          "type": "uint256"
        },
        {
          "internalType": "uint256",
          "name": "rebase",
          "type": "uint256"
        },
        {
          "internalType": "uint256",
          "name": "totalStakedBefore",
          "type": "uint256"
        },
        {
          "internalType": "uint256",
          "name": "totalStakedAfter",
          "type": "uint256"
        },
        {
          "internalType": "uint256",
          "name": "amountRebased",
          "type": "uint256"
        },
        {
          "internalType": "uint256",
          "name": "index",
          "type": "uint256"
        },
        {
          "internalType": "uint256",
          "name": "blockNumberOccurred",
          "type": "uint256"
        }
      ],
      "stateMutability": "view",
      "type": "function"
    },
    {
      "inputs": [
        {
          "internalType": "bytes32",
          "name": "role",
          "type": "bytes32"
        },
        {
          "internalType": "address",
          "name": "account",
          "type": "address"
        }
      ],
      "name": "renounceRole",
      "outputs": [],
      "stateMutability": "nonpayable",
      "type": "function"
    },
    {
      "inputs": [
        {
          "internalType": "bytes32",
          "name": "role",
          "type": "bytes32"
        },
        {
          "internalType": "address",
          "name": "account",
          "type": "address"
        }
      ],
      "name": "revokeRole",
      "outputs": [],
      "stateMutability": "nonpayable",
      "type": "function"
    },
    {
      "inputs": [],
      "name": "stakingContract",
      "outputs": [
        {
          "internalType": "address",
          "name": "",
          "type": "address"
        }
      ],
      "stateMutability": "view",
      "type": "function"
    },
    {
      "inputs": [
        {
          "internalType": "bytes4",
          "name": "interfaceId",
          "type": "bytes4"
        }
      ],
      "name": "supportsInterface",
      "outputs": [
        {
          "internalType": "bool",
          "name": "",
          "type": "bool"
        }
      ],
      "stateMutability": "view",
      "type": "function"
    },
    {
      "inputs": [],
      "name": "symbol",
      "outputs": [
        {
          "internalType": "string",
          "name": "",
          "type": "string"
        }
      ],
      "stateMutability": "view",
      "type": "function"
    },
    {
      "inputs": [],
      "name": "totalSupply",
      "outputs": [
        {
          "internalType": "uint256",
          "name": "",
          "type": "uint256"
        }
      ],
      "stateMutability": "view",
      "type": "function"
    },
    {
      "inputs": [
        {
          "internalType": "address",
          "name": "_to",
          "type": "address"
        },
        {
          "internalType": "uint256",
          "name": "_value",
          "type": "uint256"
        }
      ],
      "name": "transfer",
      "outputs": [
        {
          "internalType": "bool",
          "name": "",
          "type": "bool"
        }
      ],
      "stateMutability": "nonpayable",
      "type": "function"
    },
    {
      "inputs": [
        {
          "internalType": "address",
          "name": "_from",
          "type": "address"
        },
        {
          "internalType": "address",
          "name": "_to",
          "type": "address"
        },
        {
          "internalType": "uint256",
          "name": "_value",
          "type": "uint256"
        }
      ],
      "name": "transferFrom",
      "outputs": [
        {
          "internalType": "bool",
          "name": "",
          "type": "bool"
        }
      ],
      "stateMutability": "nonpayable",
      "type": "function"
    }
  ],
  "bytecode": "0x608060405234801561001057600080fd5b50612e11806100206000396000f3fe608060405234801561001057600080fd5b50600436106101f05760003560e01c806373c69eb71161010f578063a217fddf116100a2578063d505accf11610071578063d505accf1461046e578063d547741f14610481578063dd62ed3e14610494578063ee99205c146104da57600080fd5b8063a217fddf1461042d578063a457c2d714610435578063a9059cbb14610448578063bcc5ceca1461045b57600080fd5b806381045ead116100de57806381045ead146103cd57806391d14854146103d65780639358928b1461041c57806395d89b411461042557600080fd5b806373c69eb71461033857806375b238fc146103805780637965d56d146103a75780637ecebe00146103ba57600080fd5b80632986c0e51161018757806336568abe1161015657806336568abe146102ec57806339509351146102ff5780634cd88b761461031257806370a082311461032557600080fd5b80632986c0e5146102b75780632f2ff15d146102c0578063313ce567146102d55780633644e515146102e457600080fd5b806318160ddd116101c357806318160ddd146102665780631bd396741461026e57806323b872dd14610281578063248a9ca31461029457600080fd5b806301ffc9a7146101f5578063058ecdb41461021d57806306fdde031461023e578063095ea7b314610253575b600080fd5b6102086102033660046127d8565b61051f565b60405190151581526020015b60405180910390f35b61023061022b36600461281a565b6105b8565b604051908152602001610214565b6102466107c3565b604051610214919061286c565b6102086102613660046128e6565b610855565b603b54610230565b61023061027c366004612910565b6108ce565b61020861028f366004612929565b6108de565b6102306102a2366004612910565b600090815260d7602052604090206001015490565b61023060025481565b6102d36102ce366004612965565b610b0f565b005b60405160128152602001610214565b610230610b3a565b6102d36102fa366004612965565b610b49565b61020861030d3660046128e6565b610bfc565b6102d3610320366004612a6b565b610caf565b610230610333366004612acf565b610edf565b61034b610346366004612910565b610f13565b604080519788526020880196909652948601939093526060850191909152608084015260a083015260c082015260e001610214565b6102307fdf8b4c520ffe197c5343c6f5aec59570151ef9a492f2c624fd45ddde6135ec4281565b6102306103b5366004612910565b610f65565b6102306103c8366004612acf565b610f75565b6201e240610230565b6102086103e4366004612965565b600091825260d76020908152604080842073ffffffffffffffffffffffffffffffffffffffff93909316845291905290205460ff1690565b6276adf1610230565b610246610fa0565b610230600081565b6102086104433660046128e6565b610faf565b6102086104563660046128e6565b6110fa565b6102d3610469366004612acf565b6112b8565b6102d361047c366004612aea565b6114fa565b6102d361048f366004612965565b6116b9565b6102306104a2366004612b5d565b73ffffffffffffffffffffffffffffffffffffffff918216600090815260056020908152604080832093909416825291909152205490565b6000546104fa9073ffffffffffffffffffffffffffffffffffffffff1681565b60405173ffffffffffffffffffffffffffffffffffffffff9091168152602001610214565b60007fffffffff0000000000000000000000000000000000000000000000000000000082167f7965db0b0000000000000000000000000000000000000000000000000000000014806105b257507f01ffc9a7000000000000000000000000000000000000000000000000000000007fffffffff000000000000000000000000000000000000000000000000000000008316145b92915050565b6000805473ffffffffffffffffffffffffffffffffffffffff16331461063f576040517f08c379a000000000000000000000000000000000000000000000000000000000815260206004820152601460248201527f4e6f74207374616b696e6720636f6e747261637400000000000000000000000060448201526064015b60405180910390fd5b60006276adf1846106d857837f917acfbe39be6509ccf7fecb66a7e42ce2be1083c2d7dd3b9b7491dabddb8da442603b54604051610687929190918252602082015260400190565b60405180910390a260408051600081526201e2406020820152815186927f6012dbce857565c4a40974aa5de8373a761fc429077ef0c8c8611d1e20d63fb2928290030190a2603b54925050506105b2565b80603b54866106e79190612bb6565b6106f19190612c22565b915081603b546107019190612c36565b603b8190556fffffffffffffffffffffffffffffffff1015610732576fffffffffffffffffffffffffffffffff603b555b603b5461074b670de0b6b3a7640000631dcd6500612bb6565b610775907fffffffffffffffffffffffffffffffffffffffffffffffffffffffffffffffff612c4e565b61079f907fffffffffffffffffffffffffffffffffffffffffffffffffffffffffffffffff612c62565b6107a99190612c22565b6003556107b78186866116df565b5050603b549392505050565b6060603c80546107d290612c79565b80601f01602080910402602001604051908101604052809291908181526020018280546107fe90612c79565b801561084b5780601f106108205761010080835404028352916020019161084b565b820191906000526020600020905b81548152906001019060200180831161082e57829003601f168201915b5050505050905090565b33600081815260056020908152604080832073ffffffffffffffffffffffffffffffffffffffff8716808552925280832085905551919290917f8c5be1e5ebec7d5bd14f71427d1e84f3dd0314c0f7b2291e5b200ac8c7c3b925906108bd9086815260200190565b60405180910390a350600192915050565b6000600354826105b29190612bb6565b73ffffffffffffffffffffffffffffffffffffffff83166000908152600560209081526040808320338452909152812054821115610978576040517f08c379a000000000000000000000000000000000000000000000000000000000815260206004820152601160248201527f416c6c6f77616e636520746f6f206c6f770000000000000000000000000000006044820152606401610636565b73ffffffffffffffffffffffffffffffffffffffff841660009081526005602090815260408083203384529091528120546109b4908490612c62565b73ffffffffffffffffffffffffffffffffffffffff8616600081815260056020908152604080832033808552908352928190208590555184815293945090927f8c5be1e5ebec7d5bd14f71427d1e84f3dd0314c0f7b2291e5b200ac8c7c3b925910160405180910390a36000610a29846108ce565b73ffffffffffffffffffffffffffffffffffffffff8716600090815260046020526040902054909150610a5d908290612c62565b73ffffffffffffffffffffffffffffffffffffffff8088166000908152600460205260408082209390935590871681522054610a9a908290612c36565b73ffffffffffffffffffffffffffffffffffffffff80871660008181526004602052604090819020939093559151908816907fddf252ad1be2c89b69c2b068fc378daa952ba7f163c4a11628f55a4df523b3ef90610afb9088815260200190565b60405180910390a350600195945050505050565b600082815260d76020526040902060010154610b2b8133611822565b610b3583836118f4565b505050565b6000610b446119e8565b905090565b73ffffffffffffffffffffffffffffffffffffffff81163314610bee576040517f08c379a000000000000000000000000000000000000000000000000000000000815260206004820152602f60248201527f416363657373436f6e74726f6c3a2063616e206f6e6c792072656e6f756e636560448201527f20726f6c657320666f722073656c6600000000000000000000000000000000006064820152608401610636565b610bf88282611a63565b5050565b33600090815260056020908152604080832073ffffffffffffffffffffffffffffffffffffffff861684529091528120548190610c3a908490612c36565b33600081815260056020908152604080832073ffffffffffffffffffffffffffffffffffffffff8a16808552908352928190208590555184815293945090927f8c5be1e5ebec7d5bd14f71427d1e84f3dd0314c0f7b2291e5b200ac8c7c3b92591015b60405180910390a35060019392505050565b600654610100900460ff16610cca5760065460ff1615610cce565b303b155b610d5a576040517f08c379a000000000000000000000000000000000000000000000000000000000815260206004820152602e60248201527f496e697469616c697a61626c653a20636f6e747261637420697320616c72656160448201527f647920696e697469616c697a65640000000000000000000000000000000000006064820152608401610636565b600654610100900460ff16158015610d9957600680547fffffffffffffffffffffffffffffffffffffffffffffffffffffffffffff0000166101011790555b610da38383611b1e565b610dac83611bbf565b610db4611c98565b610dde7fdf8b4c520ffe197c5343c6f5aec59570151ef9a492f2c624fd45ddde6135ec4233611d31565b610e087fdf8b4c520ffe197c5343c6f5aec59570151ef9a492f2c624fd45ddde6135ec4280611d3b565b610e1e670de0b6b3a7640000631dcd6500612bb6565b603b819055610e39670de0b6b3a7640000631dcd6500612bb6565b610e63907fffffffffffffffffffffffffffffffffffffffffffffffffffffffffffffffff612c4e565b610e8d907fffffffffffffffffffffffffffffffffffffffffffffffffffffffffffffffff612c62565b610e979190612c22565b600355610eab670de0b6b3a7640000611d86565b508015610b3557600680547fffffffffffffffffffffffffffffffffffffffffffffffffffffffffffff00ff169055505050565b60035473ffffffffffffffffffffffffffffffffffffffff821660009081526004602052604081205490916105b291612c22565b60018181548110610f2357600080fd5b90600052602060002090600702016000915090508060000154908060010154908060020154908060030154908060040154908060050154908060060154905087565b6000600354826105b29190612c22565b73ffffffffffffffffffffffffffffffffffffffff81166000908152607260205260408120546105b2565b6060603d80546107d290612c79565b33600090815260056020908152604080832073ffffffffffffffffffffffffffffffffffffffff86168452909152812054821115611049576040517f08c379a000000000000000000000000000000000000000000000000000000000815260206004820152601460248201527f4e6f7420656e6f75676820616c6c6f77616e63650000000000000000000000006044820152606401610636565b33600090815260056020908152604080832073ffffffffffffffffffffffffffffffffffffffff87168452909152812054906110858483612c62565b33600081815260056020908152604080832073ffffffffffffffffffffffffffffffffffffffff8b16808552908352928190208590555184815293945090927f8c5be1e5ebec7d5bd14f71427d1e84f3dd0314c0f7b2291e5b200ac8c7c3b925910160405180910390a3506001949350505050565b600073ffffffffffffffffffffffffffffffffffffffff8316611179576040517f08c379a000000000000000000000000000000000000000000000000000000000815260206004820152600f60248201527f496e76616c6964206164647265737300000000000000000000000000000000006044820152606401610636565b6000600354836111899190612bb6565b33600090815260046020526040902054909150811115611205576040517f08c379a000000000000000000000000000000000000000000000000000000000815260206004820152601060248201527f4e6f7420656e6f7567682066756e6473000000000000000000000000000000006044820152606401610636565b33600090815260046020526040902054611220908290612c62565b336000908152600460205260408082209290925573ffffffffffffffffffffffffffffffffffffffff86168152205461125a908290612c36565b73ffffffffffffffffffffffffffffffffffffffff85166000818152600460205260409081902092909255905133907fddf252ad1be2c89b69c2b068fc378daa952ba7f163c4a11628f55a4df523b3ef90610c9d9087815260200190565b7fdf8b4c520ffe197c5343c6f5aec59570151ef9a492f2c624fd45ddde6135ec426112e38133611822565b60005473ffffffffffffffffffffffffffffffffffffffff1615611363576040517f08c379a000000000000000000000000000000000000000000000000000000000815260206004820152601360248201527f416c726561647920496e697469616c697a6564000000000000000000000000006044820152606401610636565b73ffffffffffffffffffffffffffffffffffffffff82166113e0576040517f08c379a000000000000000000000000000000000000000000000000000000000815260206004820152600f60248201527f496e76616c6964206164647265737300000000000000000000000000000000006044820152606401610636565b600080547fffffffffffffffffffffffff00000000000000000000000000000000000000001673ffffffffffffffffffffffffffffffffffffffff8416179055611436670de0b6b3a7640000631dcd6500612bb6565b611460907fffffffffffffffffffffffffffffffffffffffffffffffffffffffffffffffff612c4e565b61148a907fffffffffffffffffffffffffffffffffffffffffffffffffffffffffffffffff612c62565b6000805473ffffffffffffffffffffffffffffffffffffffff908116825260046020526040808320939093558154603b5493519116927fddf252ad1be2c89b69c2b068fc378daa952ba7f163c4a11628f55a4df523b3ef916114ee91815260200190565b60405180910390a35050565b83421115611564576040517f08c379a000000000000000000000000000000000000000000000000000000000815260206004820152601d60248201527f45524332305065726d69743a206578706972656420646561646c696e650000006044820152606401610636565b60007f6e71edae12b1b97f4d1f60370fef10105fa2faae0126114a169c64845d6126c98888886115938c611d9c565b60408051602081019690965273ffffffffffffffffffffffffffffffffffffffff94851690860152929091166060840152608083015260a082015260c0810186905260e00160405160208183030381529060405280519060200120905060006115fb82611dd1565b9050600061160b82878787611e3a565b90508973ffffffffffffffffffffffffffffffffffffffff168173ffffffffffffffffffffffffffffffffffffffff16146116a2576040517f08c379a000000000000000000000000000000000000000000000000000000000815260206004820152601e60248201527f45524332305065726d69743a20696e76616c6964207369676e617475726500006044820152606401610636565b6116ad8a8a8a611e62565b50505050505050505050565b600082815260d760205260409020600101546116d58133611822565b610b358383611a63565b6000836116f4670de0b6b3a764000085612bb6565b6116fe9190612c22565b905060016040518060e001604052808481526020018381526020018681526020016117296276adf190565b815260200185815260200161173e6201e24090565b815243602091820152825460018082018555600094855293829020835160079092020190815582820151938101939093556040808301516002850155606083015160038501556080830151600485015560a0830151600585015560c090920151600690930192909255603b5481514281529283015283917f917acfbe39be6509ccf7fecb66a7e42ce2be1083c2d7dd3b9b7491dabddb8da4910160405180910390a2604080518281526201e2406020820152815184927f6012dbce857565c4a40974aa5de8373a761fc429077ef0c8c8611d1e20d63fb2928290030190a250505050565b600082815260d76020908152604080832073ffffffffffffffffffffffffffffffffffffffff8516845290915290205460ff16610bf85761187a8173ffffffffffffffffffffffffffffffffffffffff166014612015565b611885836020612015565b604051602001611896929190612cc7565b604080517fffffffffffffffffffffffffffffffffffffffffffffffffffffffffffffffe0818403018152908290527f08c379a00000000000000000000000000000000000000000000000000000000082526106369160040161286c565b600082815260d76020908152604080832073ffffffffffffffffffffffffffffffffffffffff8516845290915290205460ff16610bf857600082815260d76020908152604080832073ffffffffffffffffffffffffffffffffffffffff85168452909152902080547fffffffffffffffffffffffffffffffffffffffffffffffffffffffffffffff0016600117905561198a3390565b73ffffffffffffffffffffffffffffffffffffffff168173ffffffffffffffffffffffffffffffffffffffff16837f2f8788117e7eff1d82e926ec794901d17c78024a50270940304540a733656f0d60405160405180910390a45050565b6000610b447f8b73c3c69bb8fe3d512ecc4cf759cc79239f7b179b0ffacaa9a75d522b39400f611a17603e5490565b603f546040805160208101859052908101839052606081018290524660808201523060a082015260009060c0016040516020818303038152906040528051906020012090509392505050565b600082815260d76020908152604080832073ffffffffffffffffffffffffffffffffffffffff8516845290915290205460ff1615610bf857600082815260d76020908152604080832073ffffffffffffffffffffffffffffffffffffffff8516808552925280832080547fffffffffffffffffffffffffffffffffffffffffffffffffffffffffffffff0016905551339285917ff6391f5c32d9c69d2a47ea670b442974b53935d1edc7fd64eb21e047a839171b9190a45050565b600654610100900460ff16611bb5576040517f08c379a000000000000000000000000000000000000000000000000000000000815260206004820152602b60248201527f496e697469616c697a61626c653a20636f6e7472616374206973206e6f74206960448201527f6e697469616c697a696e670000000000000000000000000000000000000000006064820152608401610636565b610bf8828261225f565b600654610100900460ff16611c56576040517f08c379a000000000000000000000000000000000000000000000000000000000815260206004820152602b60248201527f496e697469616c697a61626c653a20636f6e7472616374206973206e6f74206960448201527f6e697469616c697a696e670000000000000000000000000000000000000000006064820152608401610636565b611c95816040518060400160405280600181526020017f310000000000000000000000000000000000000000000000000000000000000081525061231d565b50565b600654610100900460ff16611d2f576040517f08c379a000000000000000000000000000000000000000000000000000000000815260206004820152602b60248201527f496e697469616c697a61626c653a20636f6e7472616374206973206e6f74206960448201527f6e697469616c697a696e670000000000000000000000000000000000000000006064820152608401610636565b565b610bf882826118f4565b600082815260d76020526040808220600101805490849055905190918391839186917fbd79b86ffe0ab8e8776151514217cd7cacd52c909f66475c3af44e129f0b00ff9190a4505050565b6000611d91826108ce565b600255506001919050565b73ffffffffffffffffffffffffffffffffffffffff811660009081526072602052604090208054600181018255905b50919050565b60006105b2611dde6119e8565b836040517f19010000000000000000000000000000000000000000000000000000000000006020820152602281018390526042810182905260009060620160405160208183030381529060405280519060200120905092915050565b6000806000611e4b878787876123ce565b91509150611e58816124e6565b5095945050505050565b73ffffffffffffffffffffffffffffffffffffffff8316611f04576040517f08c379a0000000000000000000000000000000000000000000000000000000008152602060048201526024808201527f45524332303a20617070726f76652066726f6d20746865207a65726f2061646460448201527f72657373000000000000000000000000000000000000000000000000000000006064820152608401610636565b73ffffffffffffffffffffffffffffffffffffffff8216611fa7576040517f08c379a000000000000000000000000000000000000000000000000000000000815260206004820152602260248201527f45524332303a20617070726f766520746f20746865207a65726f20616464726560448201527f73730000000000000000000000000000000000000000000000000000000000006064820152608401610636565b73ffffffffffffffffffffffffffffffffffffffff8381166000818152603a602090815260408083209487168084529482529182902085905590518481527f8c5be1e5ebec7d5bd14f71427d1e84f3dd0314c0f7b2291e5b200ac8c7c3b925910160405180910390a3505050565b60606000612024836002612bb6565b61202f906002612c36565b67ffffffffffffffff81111561204757612047612991565b6040519080825280601f01601f191660200182016040528015612071576020820181803683370190505b5090507f3000000000000000000000000000000000000000000000000000000000000000816000815181106120a8576120a8612d48565b60200101907effffffffffffffffffffffffffffffffffffffffffffffffffffffffffffff1916908160001a9053507f78000000000000000000000000000000000000000000000000000000000000008160018151811061210b5761210b612d48565b60200101907effffffffffffffffffffffffffffffffffffffffffffffffffffffffffffff1916908160001a9053506000612147846002612bb6565b612152906001612c36565b90505b60018111156121ef577f303132333435363738396162636465660000000000000000000000000000000085600f166010811061219357612193612d48565b1a60f81b8282815181106121a9576121a9612d48565b60200101907effffffffffffffffffffffffffffffffffffffffffffffffffffffffffffff1916908160001a90535060049490941c936121e881612d77565b9050612155565b508315612258576040517f08c379a000000000000000000000000000000000000000000000000000000000815260206004820181905260248201527f537472696e67733a20686578206c656e67746820696e73756666696369656e746044820152606401610636565b9392505050565b600654610100900460ff166122f6576040517f08c379a000000000000000000000000000000000000000000000000000000000815260206004820152602b60248201527f496e697469616c697a61626c653a20636f6e7472616374206973206e6f74206960448201527f6e697469616c697a696e670000000000000000000000000000000000000000006064820152608401610636565b815161230990603c90602085019061273f565b508051610b3590603d90602084019061273f565b600654610100900460ff166123b4576040517f08c379a000000000000000000000000000000000000000000000000000000000815260206004820152602b60248201527f496e697469616c697a61626c653a20636f6e7472616374206973206e6f74206960448201527f6e697469616c697a696e670000000000000000000000000000000000000000006064820152608401610636565b815160209283012081519190920120603e91909155603f55565b6000807f7fffffffffffffffffffffffffffffff5d576e7357a4501ddfe92f46681b20a083111561240557506000905060036124dd565b8460ff16601b1415801561241d57508460ff16601c14155b1561242e57506000905060046124dd565b6040805160008082526020820180845289905260ff881692820192909252606081018690526080810185905260019060a0016020604051602081039080840390855afa158015612482573d6000803e3d6000fd5b50506040517fffffffffffffffffffffffffffffffffffffffffffffffffffffffffffffffe0015191505073ffffffffffffffffffffffffffffffffffffffff81166124d6576000600192509250506124dd565b9150600090505b94509492505050565b60008160048111156124fa576124fa612dac565b14156125035750565b600181600481111561251757612517612dac565b141561257f576040517f08c379a000000000000000000000000000000000000000000000000000000000815260206004820152601860248201527f45434453413a20696e76616c6964207369676e617475726500000000000000006044820152606401610636565b600281600481111561259357612593612dac565b14156125fb576040517f08c379a000000000000000000000000000000000000000000000000000000000815260206004820152601f60248201527f45434453413a20696e76616c6964207369676e6174757265206c656e677468006044820152606401610636565b600381600481111561260f5761260f612dac565b141561269d576040517f08c379a000000000000000000000000000000000000000000000000000000000815260206004820152602260248201527f45434453413a20696e76616c6964207369676e6174757265202773272076616c60448201527f75650000000000000000000000000000000000000000000000000000000000006064820152608401610636565b60048160048111156126b1576126b1612dac565b1415611c95576040517f08c379a000000000000000000000000000000000000000000000000000000000815260206004820152602260248201527f45434453413a20696e76616c6964207369676e6174757265202776272076616c60448201527f75650000000000000000000000000000000000000000000000000000000000006064820152608401610636565b82805461274b90612c79565b90600052602060002090601f01602090048101928261276d57600085556127b3565b82601f1061278657805160ff19168380011785556127b3565b828001600101855582156127b3579182015b828111156127b3578251825591602001919060010190612798565b506127bf9291506127c3565b5090565b5b808211156127bf57600081556001016127c4565b6000602082840312156127ea57600080fd5b81357fffffffff000000000000000000000000000000000000000000000000000000008116811461225857600080fd5b6000806040838503121561282d57600080fd5b50508035926020909101359150565b60005b8381101561285757818101518382015260200161283f565b83811115612866576000848401525b50505050565b602081526000825180602084015261288b81604085016020870161283c565b601f017fffffffffffffffffffffffffffffffffffffffffffffffffffffffffffffffe0169190910160400192915050565b803573ffffffffffffffffffffffffffffffffffffffff811681146128e157600080fd5b919050565b600080604083850312156128f957600080fd5b612902836128bd565b946020939093013593505050565b60006020828403121561292257600080fd5b5035919050565b60008060006060848603121561293e57600080fd5b612947846128bd565b9250612955602085016128bd565b9150604084013590509250925092565b6000806040838503121561297857600080fd5b82359150612988602084016128bd565b90509250929050565b7f4e487b7100000000000000000000000000000000000000000000000000000000600052604160045260246000fd5b600082601f8301126129d157600080fd5b813567ffffffffffffffff808211156129ec576129ec612991565b604051601f83017fffffffffffffffffffffffffffffffffffffffffffffffffffffffffffffffe0908116603f01168101908282118183101715612a3257612a32612991565b81604052838152866020858801011115612a4b57600080fd5b836020870160208301376000602085830101528094505050505092915050565b60008060408385031215612a7e57600080fd5b823567ffffffffffffffff80821115612a9657600080fd5b612aa2868387016129c0565b93506020850135915080821115612ab857600080fd5b50612ac5858286016129c0565b9150509250929050565b600060208284031215612ae157600080fd5b612258826128bd565b600080600080600080600060e0888a031215612b0557600080fd5b612b0e886128bd565b9650612b1c602089016128bd565b95506040880135945060608801359350608088013560ff81168114612b4057600080fd5b9699959850939692959460a0840135945060c09093013592915050565b60008060408385031215612b7057600080fd5b612b79836128bd565b9150612988602084016128bd565b7f4e487b7100000000000000000000000000000000000000000000000000000000600052601160045260246000fd5b6000817fffffffffffffffffffffffffffffffffffffffffffffffffffffffffffffffff0483118215151615612bee57612bee612b87565b500290565b7f4e487b7100000000000000000000000000000000000000000000000000000000600052601260045260246000fd5b600082612c3157612c31612bf3565b500490565b60008219821115612c4957612c49612b87565b500190565b600082612c5d57612c5d612bf3565b500690565b600082821015612c7457612c74612b87565b500390565b600181811c90821680612c8d57607f821691505b60208210811415611dcb577f4e487b7100000000000000000000000000000000000000000000000000000000600052602260045260246000fd5b7f416363657373436f6e74726f6c3a206163636f756e7420000000000000000000815260008351612cff81601785016020880161283c565b7f206973206d697373696e6720726f6c65200000000000000000000000000000006017918401918201528351612d3c81602884016020880161283c565b01602801949350505050565b7f4e487b7100000000000000000000000000000000000000000000000000000000600052603260045260246000fd5b600081612d8657612d86612b87565b507fffffffffffffffffffffffffffffffffffffffffffffffffffffffffffffffff0190565b7f4e487b7100000000000000000000000000000000000000000000000000000000600052602160045260246000fdfea2646970667358221220d83da42fcd355405514b52ef932284531f6893f735dff2715e447d5c9c49d73b64736f6c63430008090033",
  "linkReferences": {},
  "deployedLinkReferences": {}
}