{
  "_format": "hh-sol-artifact-1",
  "contractName": "YieldyV2Test",
  "sourceName": "src/contracts/test/YieldyUpgradeTest.sol",
  "abi": [
    {
      "anonymous": false,
      "inputs": [
        {
          "indexed": true,
          "internalType": "address",
          "name": "owner",
          "type": "address"
        },
        {
          "indexed": true,
          "internalType": "address",
          "name": "spender",
          "type": "address"
        },
        {
          "indexed": false,
          "internalType": "uint256",
          "name": "value",
          "type": "uint256"
        }
      ],
      "name": "Approval",
      "type": "event"
    },
    {
      "anonymous": false,
      "inputs": [
        {
          "indexed": true,
          "internalType": "uint256",
          "name": "epoch",
          "type": "uint256"
        },
        {
          "indexed": false,
          "internalType": "uint256",
          "name": "rebase",
          "type": "uint256"
        },
        {
          "indexed": false,
          "internalType": "uint256",
          "name": "index",
          "type": "uint256"
        }
      ],
      "name": "LogRebase",
      "type": "event"
    },
    {
      "anonymous": false,
      "inputs": [
        {
          "indexed": true,
          "internalType": "uint256",
          "name": "epoch",
          "type": "uint256"
        },
        {
          "indexed": false,
          "internalType": "uint256",
          "name": "timestamp",
          "type": "uint256"
        },
        {
          "indexed": false,
          "internalType": "uint256",
          "name": "totalSupply",
          "type": "uint256"
        }
      ],
      "name": "LogSupply",
      "type": "event"
    },
    {
      "anonymous": false,
      "inputs": [
        {
          "indexed": true,
          "internalType": "bytes32",
          "name": "role",
          "type": "bytes32"
        },
        {
          "indexed": true,
          "internalType": "bytes32",
          "name": "previousAdminRole",
          "type": "bytes32"
        },
        {
          "indexed": true,
          "internalType": "bytes32",
          "name": "newAdminRole",
          "type": "bytes32"
        }
      ],
      "name": "RoleAdminChanged",
      "type": "event"
    },
    {
      "anonymous": false,
      "inputs": [
        {
          "indexed": true,
          "internalType": "bytes32",
          "name": "role",
          "type": "bytes32"
        },
        {
          "indexed": true,
          "internalType": "address",
          "name": "account",
          "type": "address"
        },
        {
          "indexed": true,
          "internalType": "address",
          "name": "sender",
          "type": "address"
        }
      ],
      "name": "RoleGranted",
      "type": "event"
    },
    {
      "anonymous": false,
      "inputs": [
        {
          "indexed": true,
          "internalType": "bytes32",
          "name": "role",
          "type": "bytes32"
        },
        {
          "indexed": true,
          "internalType": "address",
          "name": "account",
          "type": "address"
        },
        {
          "indexed": true,
          "internalType": "address",
          "name": "sender",
          "type": "address"
        }
      ],
      "name": "RoleRevoked",
      "type": "event"
    },
    {
      "anonymous": false,
      "inputs": [
        {
          "indexed": true,
          "internalType": "address",
          "name": "from",
          "type": "address"
        },
        {
          "indexed": true,
          "internalType": "address",
          "name": "to",
          "type": "address"
        },
        {
          "indexed": false,
          "internalType": "uint256",
          "name": "value",
          "type": "uint256"
        }
      ],
      "name": "Transfer",
      "type": "event"
    },
    {
      "inputs": [],
      "name": "ADMIN_ROLE",
      "outputs": [
        {
          "internalType": "bytes32",
          "name": "",
          "type": "bytes32"
        }
      ],
      "stateMutability": "view",
      "type": "function"
    },
    {
      "inputs": [],
      "name": "DEFAULT_ADMIN_ROLE",
      "outputs": [
        {
          "internalType": "bytes32",
          "name": "",
          "type": "bytes32"
        }
      ],
      "stateMutability": "view",
      "type": "function"
    },
    {
      "inputs": [],
      "name": "DOMAIN_SEPARATOR",
      "outputs": [
        {
          "internalType": "bytes32",
          "name": "",
          "type": "bytes32"
        }
      ],
      "stateMutability": "view",
      "type": "function"
    },
    {
      "inputs": [],
      "name": "MINTER_BURNER_ROLE",
      "outputs": [
        {
          "internalType": "bytes32",
          "name": "",
          "type": "bytes32"
        }
      ],
      "stateMutability": "view",
      "type": "function"
    },
    {
      "inputs": [],
      "name": "REBASE_ROLE",
      "outputs": [
        {
          "internalType": "bytes32",
          "name": "",
          "type": "bytes32"
        }
      ],
      "stateMutability": "view",
      "type": "function"
    },
    {
      "inputs": [
        {
          "internalType": "address",
          "name": "owner",
          "type": "address"
        },
        {
          "internalType": "address",
          "name": "spender",
          "type": "address"
        }
      ],
      "name": "allowance",
      "outputs": [
        {
          "internalType": "uint256",
          "name": "",
          "type": "uint256"
        }
      ],
      "stateMutability": "view",
      "type": "function"
    },
    {
      "inputs": [
        {
          "internalType": "address",
          "name": "spender",
          "type": "address"
        },
        {
          "internalType": "uint256",
          "name": "amount",
          "type": "uint256"
        }
      ],
      "name": "approve",
      "outputs": [
        {
          "internalType": "bool",
          "name": "",
          "type": "bool"
        }
      ],
      "stateMutability": "nonpayable",
      "type": "function"
    },
    {
      "inputs": [
        {
          "internalType": "address",
          "name": "_wallet",
          "type": "address"
        }
      ],
      "name": "balanceOf",
      "outputs": [
        {
          "internalType": "uint256",
          "name": "",
          "type": "uint256"
        }
      ],
      "stateMutability": "view",
      "type": "function"
    },
    {
      "inputs": [
        {
          "internalType": "address",
          "name": "_address",
          "type": "address"
        },
        {
          "internalType": "uint256",
          "name": "_amount",
          "type": "uint256"
        }
      ],
      "name": "burn",
      "outputs": [],
      "stateMutability": "nonpayable",
      "type": "function"
    },
    {
      "inputs": [
        {
          "internalType": "address",
          "name": "",
          "type": "address"
        }
      ],
      "name": "creditBalances",
      "outputs": [
        {
          "internalType": "uint256",
          "name": "",
          "type": "uint256"
        }
      ],
      "stateMutability": "view",
      "type": "function"
    },
    {
      "inputs": [
        {
          "internalType": "uint256",
          "name": "_amount",
          "type": "uint256"
        }
      ],
      "name": "creditsForTokenBalance",
      "outputs": [
        {
          "internalType": "uint256",
          "name": "",
          "type": "uint256"
        }
      ],
      "stateMutability": "view",
      "type": "function"
    },
    {
      "inputs": [],
      "name": "decimals",
      "outputs": [
        {
          "internalType": "uint8",
          "name": "",
          "type": "uint8"
        }
      ],
      "stateMutability": "view",
      "type": "function"
    },
    {
      "inputs": [
        {
          "internalType": "address",
          "name": "spender",
          "type": "address"
        },
        {
          "internalType": "uint256",
          "name": "subtractedValue",
          "type": "uint256"
        }
      ],
      "name": "decreaseAllowance",
      "outputs": [
        {
          "internalType": "bool",
          "name": "",
          "type": "bool"
        }
      ],
      "stateMutability": "nonpayable",
      "type": "function"
    },
    {
      "inputs": [],
      "name": "getIndex",
      "outputs": [
        {
          "internalType": "uint256",
          "name": "",
          "type": "uint256"
        }
      ],
      "stateMutability": "view",
      "type": "function"
    },
    {
      "inputs": [
        {
          "internalType": "bytes32",
          "name": "role",
          "type": "bytes32"
        }
      ],
      "name": "getRoleAdmin",
      "outputs": [
        {
          "internalType": "bytes32",
          "name": "",
          "type": "bytes32"
        }
      ],
      "stateMutability": "view",
      "type": "function"
    },
    {
      "inputs": [
        {
          "internalType": "bytes32",
          "name": "role",
          "type": "bytes32"
        },
        {
          "internalType": "address",
          "name": "account",
          "type": "address"
        }
      ],
      "name": "grantRole",
      "outputs": [],
      "stateMutability": "nonpayable",
      "type": "function"
    },
    {
      "inputs": [
        {
          "internalType": "bytes32",
          "name": "role",
          "type": "bytes32"
        },
        {
          "internalType": "address",
          "name": "account",
          "type": "address"
        }
      ],
      "name": "hasRole",
      "outputs": [
        {
          "internalType": "bool",
          "name": "",
          "type": "bool"
        }
      ],
      "stateMutability": "view",
      "type": "function"
    },
    {
      "inputs": [
        {
          "internalType": "address",
          "name": "spender",
          "type": "address"
        },
        {
          "internalType": "uint256",
          "name": "addedValue",
          "type": "uint256"
        }
      ],
      "name": "increaseAllowance",
      "outputs": [
        {
          "internalType": "bool",
          "name": "",
          "type": "bool"
        }
      ],
      "stateMutability": "nonpayable",
      "type": "function"
    },
    {
      "inputs": [],
      "name": "index",
      "outputs": [
        {
          "internalType": "uint256",
          "name": "",
          "type": "uint256"
        }
      ],
      "stateMutability": "view",
      "type": "function"
    },
    {
      "inputs": [
        {
          "internalType": "string",
          "name": "_tokenName",
          "type": "string"
        },
        {
          "internalType": "string",
          "name": "_tokenSymbol",
          "type": "string"
        },
        {
          "internalType": "uint8",
          "name": "_decimal",
          "type": "uint8"
        }
      ],
      "name": "initialize",
      "outputs": [],
      "stateMutability": "nonpayable",
      "type": "function"
    },
    {
      "inputs": [
        {
          "internalType": "address",
          "name": "_stakingContract",
          "type": "address"
        }
      ],
      "name": "initializeStakingContract",
      "outputs": [],
      "stateMutability": "nonpayable",
      "type": "function"
    },
    {
      "inputs": [
        {
          "internalType": "address",
          "name": "_address",
          "type": "address"
        },
        {
          "internalType": "uint256",
          "name": "_amount",
          "type": "uint256"
        }
      ],
      "name": "mint",
      "outputs": [],
      "stateMutability": "nonpayable",
      "type": "function"
    },
    {
      "inputs": [],
      "name": "name",
      "outputs": [
        {
          "internalType": "string",
          "name": "",
          "type": "string"
        }
      ],
      "stateMutability": "view",
      "type": "function"
    },
    {
      "inputs": [],
      "name": "newFunction",
      "outputs": [
        {
          "internalType": "uint256",
          "name": "",
          "type": "uint256"
        }
      ],
      "stateMutability": "pure",
      "type": "function"
    },
    {
      "inputs": [
        {
          "internalType": "address",
          "name": "owner",
          "type": "address"
        }
      ],
      "name": "nonces",
      "outputs": [
        {
          "internalType": "uint256",
          "name": "",
          "type": "uint256"
        }
      ],
      "stateMutability": "view",
      "type": "function"
    },
    {
      "inputs": [
        {
          "internalType": "address",
          "name": "owner",
          "type": "address"
        },
        {
          "internalType": "address",
          "name": "spender",
          "type": "address"
        },
        {
          "internalType": "uint256",
          "name": "value",
          "type": "uint256"
        },
        {
          "internalType": "uint256",
          "name": "deadline",
          "type": "uint256"
        },
        {
          "internalType": "uint8",
          "name": "v",
          "type": "uint8"
        },
        {
          "internalType": "bytes32",
          "name": "r",
          "type": "bytes32"
        },
        {
          "internalType": "bytes32",
          "name": "s",
          "type": "bytes32"
        }
      ],
      "name": "permit",
      "outputs": [],
      "stateMutability": "nonpayable",
      "type": "function"
    },
    {
      "inputs": [
        {
          "internalType": "uint256",
          "name": "_profit",
          "type": "uint256"
        },
        {
          "internalType": "uint256",
          "name": "_epoch",
          "type": "uint256"
        }
      ],
      "name": "rebase",
      "outputs": [],
      "stateMutability": "nonpayable",
      "type": "function"
    },
    {
      "inputs": [
        {
          "internalType": "uint256",
          "name": "",
          "type": "uint256"
        }
      ],
      "name": "rebases",
      "outputs": [
        {
          "internalType": "uint256",
          "name": "epoch",
          "type": "uint256"
        },
        {
          "internalType": "uint256",
          "name": "rebase",
          "type": "uint256"
        },
        {
          "internalType": "uint256",
          "name": "totalStakedBefore",
          "type": "uint256"
        },
        {
          "internalType": "uint256",
          "name": "totalStakedAfter",
          "type": "uint256"
        },
        {
          "internalType": "uint256",
          "name": "amountRebased",
          "type": "uint256"
        },
        {
          "internalType": "uint256",
          "name": "index",
          "type": "uint256"
        },
        {
          "internalType": "uint256",
          "name": "blockNumberOccurred",
          "type": "uint256"
        }
      ],
      "stateMutability": "view",
      "type": "function"
    },
    {
      "inputs": [],
      "name": "rebasingCredits",
      "outputs": [
        {
          "internalType": "uint256",
          "name": "",
          "type": "uint256"
        }
      ],
      "stateMutability": "view",
      "type": "function"
    },
    {
      "inputs": [],
      "name": "rebasingCreditsPerToken",
      "outputs": [
        {
          "internalType": "uint256",
          "name": "",
          "type": "uint256"
        }
      ],
      "stateMutability": "view",
      "type": "function"
    },
    {
      "inputs": [
        {
          "internalType": "bytes32",
          "name": "role",
          "type": "bytes32"
        },
        {
          "internalType": "address",
          "name": "account",
          "type": "address"
        }
      ],
      "name": "renounceRole",
      "outputs": [],
      "stateMutability": "nonpayable",
      "type": "function"
    },
    {
      "inputs": [
        {
          "internalType": "bytes32",
          "name": "role",
          "type": "bytes32"
        },
        {
          "internalType": "address",
          "name": "account",
          "type": "address"
        }
      ],
      "name": "revokeRole",
      "outputs": [],
      "stateMutability": "nonpayable",
      "type": "function"
    },
    {
      "inputs": [],
      "name": "stakingContract",
      "outputs": [
        {
          "internalType": "address",
          "name": "",
          "type": "address"
        }
      ],
      "stateMutability": "view",
      "type": "function"
    },
    {
      "inputs": [
        {
          "internalType": "bytes4",
          "name": "interfaceId",
          "type": "bytes4"
        }
      ],
      "name": "supportsInterface",
      "outputs": [
        {
          "internalType": "bool",
          "name": "",
          "type": "bool"
        }
      ],
      "stateMutability": "view",
      "type": "function"
    },
    {
      "inputs": [],
      "name": "symbol",
      "outputs": [
        {
          "internalType": "string",
          "name": "",
          "type": "string"
        }
      ],
      "stateMutability": "view",
      "type": "function"
    },
    {
      "inputs": [
        {
          "internalType": "uint256",
          "name": "_credits",
          "type": "uint256"
        }
      ],
      "name": "tokenBalanceForCredits",
      "outputs": [
        {
          "internalType": "uint256",
          "name": "",
          "type": "uint256"
        }
      ],
      "stateMutability": "view",
      "type": "function"
    },
    {
      "inputs": [],
      "name": "totalSupply",
      "outputs": [
        {
          "internalType": "uint256",
          "name": "",
          "type": "uint256"
        }
      ],
      "stateMutability": "view",
      "type": "function"
    },
    {
      "inputs": [
        {
          "internalType": "address",
          "name": "_to",
          "type": "address"
        },
        {
          "internalType": "uint256",
          "name": "_value",
          "type": "uint256"
        }
      ],
      "name": "transfer",
      "outputs": [
        {
          "internalType": "bool",
          "name": "",
          "type": "bool"
        }
      ],
      "stateMutability": "nonpayable",
      "type": "function"
    },
    {
      "inputs": [
        {
          "internalType": "address",
          "name": "_from",
          "type": "address"
        },
        {
          "internalType": "address",
          "name": "_to",
          "type": "address"
        },
        {
          "internalType": "uint256",
          "name": "_value",
          "type": "uint256"
        }
      ],
      "name": "transferFrom",
      "outputs": [
        {
          "internalType": "bool",
          "name": "",
          "type": "bool"
        }
      ],
      "stateMutability": "nonpayable",
      "type": "function"
    }
  ],
  "bytecode": "0x608060405234801561001057600080fd5b50613333806100206000396000f3fe608060405234801561001057600080fd5b50600436106102ad5760003560e01c80636691cb3d1161017b5780639dc29fac116100d8578063d505accf1161008c578063dd62ed3e11610071578063dd62ed3e146105d5578063edaefc311461061b578063ee99205c1461064257600080fd5b8063d505accf146105af578063d547741f146105c257600080fd5b8063a457c2d7116100bd578063a457c2d714610576578063a9059cbb14610589578063bcc5ceca1461059c57600080fd5b80639dc29fac1461055b578063a217fddf1461056e57600080fd5b80637ecebe001161012f57806391d148541161011457806391d14854146104fa57806392386fb51461054057806395d89b411461055357600080fd5b80637ecebe00146104df57806381045ead146104f257600080fd5b806372c328601161016057806372c328601461044957806373c69eb71461047057806375b238fc146104b857600080fd5b80636691cb3d1461042d57806370a082311461043657600080fd5b806323b872dd116102295780633644e515116101dd57806339509351116101c257806339509351146103e757806340c10f19146103fa5780636009a2d81461040d57600080fd5b80633644e515146103cc57806336568abe146103d457600080fd5b80632986c0e51161020e5780632986c0e51461039b5780632f2ff15d146103a4578063313ce567146103b757600080fd5b806323b872dd14610365578063248a9ca31461037857600080fd5b8063095ea7b31161028057806318160ddd1161026557806318160ddd146103415780631b28d63e1461034957806320eed4291461035257600080fd5b8063095ea7b31461031b5780631624f6c61461032e57600080fd5b806301ffc9a7146102b2578063058ecdb4146102da57806306fdde03146102ef578063077f22b714610304575b600080fd5b6102c56102c0366004612bd3565b610687565b60405190151581526020015b60405180910390f35b6102ed6102e8366004612c15565b610720565b005b6102f761090d565b6040516102d19190612c63565b61030d60055481565b6040519081526020016102d1565b6102c5610329366004612cdd565b61099f565b6102ed61033c366004612df2565b6109b5565b603c5461030d565b6276adf161030d565b61030d610360366004612e66565b610c2c565b6102c5610373366004612e7f565b610c3c565b61030d610386366004612e66565b600090815260d8602052604090206001015490565b61030d60025481565b6102ed6103b2366004612ebb565b610e6d565b60075460405160ff90911681526020016102d1565b61030d610e98565b6102ed6103e2366004612ebb565b610ea7565b6102c56103f5366004612cdd565b610f5a565b6102ed610408366004612cdd565b610fa3565b61030d61041b366004612ee7565b60066020526000908152604090205481565b61030d60045481565b61030d610444366004612ee7565b6111a5565b61030d7fcfd53186d792f1ec9d0679afc2dc3ffc86fc31fe1e0f342b838eb6c3eade62b381565b61048361047e366004612e66565b6111d9565b604080519788526020880196909652948601939093526060850191909152608084015260a083015260c082015260e0016102d1565b61030d7fdf8b4c520ffe197c5343c6f5aec59570151ef9a492f2c624fd45ddde6135ec4281565b61030d6104ed366004612ee7565b61122b565b61030d611256565b6102c5610508366004612ebb565b600091825260d86020908152604080842073ffffffffffffffffffffffffffffffffffffffff93909316845291905290205460ff1690565b61030d61054e366004612e66565b61125f565b6102f761126f565b6102ed610569366004612cdd565b61127e565b61030d600081565b6102c5610584366004612cdd565b6114a1565b6102c5610597366004612cdd565b611579565b6102ed6105aa366004612ee7565b611749565b6102ed6105bd366004612f02565b611905565b6102ed6105d0366004612ebb565b611ac4565b61030d6105e3366004612f6c565b73ffffffffffffffffffffffffffffffffffffffff9182166000908152603b6020908152604080832093909416825291909152205490565b61030d7f2cb8fee3430f011f8ea5df36a120dd5a293aa25c9ca88cc51159a94f41f768bb81565b6000546106629073ffffffffffffffffffffffffffffffffffffffff1681565b60405173ffffffffffffffffffffffffffffffffffffffff90911681526020016102d1565b60007fffffffff0000000000000000000000000000000000000000000000000000000082167f7965db0b00000000000000000000000000000000000000000000000000000000148061071a57507f01ffc9a7000000000000000000000000000000000000000000000000000000007fffffffff000000000000000000000000000000000000000000000000000000008316145b92915050565b7f2cb8fee3430f011f8ea5df36a120dd5a293aa25c9ca88cc51159a94f41f768bb61074b8133611aea565b603c54806107ba576040517f08c379a000000000000000000000000000000000000000000000000000000000815260206004820152601f60248201527f43616e277420726562617365206966206e6f742063697263756c6174696e670060448201526064015b60405180910390fd5b8361084357604080514281526020810183905284917f917acfbe39be6509ccf7fecb66a7e42ce2be1083c2d7dd3b9b7491dabddb8da4910160405180910390a2827f6012dbce857565c4a40974aa5de8373a761fc429077ef0c8c8611d1e20d63fb26000610826611256565b6040805192835260208301919091520160405180910390a2610907565b600061084f8583612fc5565b90506fffffffffffffffffffffffffffffffff81111561087c57506fffffffffffffffffffffffffffffffff5b8060055461088a9190612fdd565b60048190556108f5576040517f08c379a000000000000000000000000000000000000000000000000000000000815260206004820152601860248201527f496e76616c6964206368616e676520696e20737570706c79000000000000000060448201526064016107b1565b603c819055610905818686611bbc565b505b50505050565b6060603d805461091c90613018565b80601f016020809104026020016040519081016040528092919081815260200182805461094890613018565b80156109955780601f1061096a57610100808354040283529160200191610995565b820191906000526020600020905b81548152906001019060200180831161097857829003601f168201915b5050505050905090565b60006109ac338484611cf9565b50600192915050565b60075462010000900460ff166109d657600754610100900460ff16156109da565b303b155b610a66576040517f08c379a000000000000000000000000000000000000000000000000000000000815260206004820152602e60248201527f496e697469616c697a61626c653a20636f6e747261637420697320616c72656160448201527f647920696e697469616c697a656400000000000000000000000000000000000060648201526084016107b1565b60075462010000900460ff16158015610aa757600780547fffffffffffffffffffffffffffffffffffffffffffffffffffffffffff0000ff16620101001790555b610ab18484611eac565b610aba84611f4e565b610ac2612028565b610aec7fdf8b4c520ffe197c5343c6f5aec59570151ef9a492f2c624fd45ddde6135ec42336120c2565b610b167fdf8b4c520ffe197c5343c6f5aec59570151ef9a492f2c624fd45ddde6135ec42806120cc565b610b607fcfd53186d792f1ec9d0679afc2dc3ffc86fc31fe1e0f342b838eb6c3eade62b37fdf8b4c520ffe197c5343c6f5aec59570151ef9a492f2c624fd45ddde6135ec426120cc565b610baa7f2cb8fee3430f011f8ea5df36a120dd5a293aa25c9ca88cc51159a94f41f768bb7fdf8b4c520ffe197c5343c6f5aec59570151ef9a492f2c624fd45ddde6135ec426120cc565b600780547fffffffffffffffffffffffffffffffffffffffffffffffffffffffffffffff001660ff8416908117909155610be590600a613186565b60038190556004819055610bf890612117565b801561090757600780547fffffffffffffffffffffffffffffffffffffffffffffffffffffffffff00ffff16905550505050565b60006004548261071a9190613195565b73ffffffffffffffffffffffffffffffffffffffff83166000908152603b60209081526040808320338452909152812054821115610cd6576040517f08c379a000000000000000000000000000000000000000000000000000000000815260206004820152601160248201527f416c6c6f77616e636520746f6f206c6f7700000000000000000000000000000060448201526064016107b1565b73ffffffffffffffffffffffffffffffffffffffff84166000908152603b60209081526040808320338452909152812054610d129084906131d2565b73ffffffffffffffffffffffffffffffffffffffff86166000818152603b6020908152604080832033808552908352928190208590555184815293945090927f8c5be1e5ebec7d5bd14f71427d1e84f3dd0314c0f7b2291e5b200ac8c7c3b925910160405180910390a36000610d8784610c2c565b73ffffffffffffffffffffffffffffffffffffffff8716600090815260066020526040902054909150610dbb9082906131d2565b73ffffffffffffffffffffffffffffffffffffffff8088166000908152600660205260408082209390935590871681522054610df8908290612fc5565b73ffffffffffffffffffffffffffffffffffffffff80871660008181526006602052604090819020939093559151908816907fddf252ad1be2c89b69c2b068fc378daa952ba7f163c4a11628f55a4df523b3ef90610e599088815260200190565b60405180910390a350600195945050505050565b600082815260d86020526040902060010154610e898133611aea565b610e938383612126565b505050565b6000610ea261221a565b905090565b73ffffffffffffffffffffffffffffffffffffffff81163314610f4c576040517f08c379a000000000000000000000000000000000000000000000000000000000815260206004820152602f60248201527f416363657373436f6e74726f6c3a2063616e206f6e6c792072656e6f756e636560448201527f20726f6c657320666f722073656c66000000000000000000000000000000000060648201526084016107b1565b610f56828261228d565b5050565b336000818152603b6020908152604080832073ffffffffffffffffffffffffffffffffffffffff8716845290915281205490916109ac918590610f9e908690612fc5565b611cf9565b7fcfd53186d792f1ec9d0679afc2dc3ffc86fc31fe1e0f342b838eb6c3eade62b3610fce8133611aea565b73ffffffffffffffffffffffffffffffffffffffff831661104b576040517f08c379a000000000000000000000000000000000000000000000000000000000815260206004820152601860248201527f4d696e7420746f20746865207a65726f2061646472657373000000000000000060448201526064016107b1565b60006004548361105b9190613195565b73ffffffffffffffffffffffffffffffffffffffff851660009081526006602052604090205490915061108f908290612fc5565b73ffffffffffffffffffffffffffffffffffffffff85166000908152600660205260409020556005546110c3908290612fc5565b600555603c546110d4908490612fc5565b603c8190556fffffffffffffffffffffffffffffffff11611151576040517f08c379a000000000000000000000000000000000000000000000000000000000815260206004820152600a60248201527f4d617820737570706c790000000000000000000000000000000000000000000060448201526064016107b1565b60405183815273ffffffffffffffffffffffffffffffffffffffff8516906000907fddf252ad1be2c89b69c2b068fc378daa952ba7f163c4a11628f55a4df523b3ef9060200160405180910390a350505050565b60045473ffffffffffffffffffffffffffffffffffffffff8216600090815260066020526040812054909161071a91612fdd565b600181815481106111e957600080fd5b90600052602060002090600702016000915090508060000154908060010154908060020154908060030154908060040154908060050154908060060154905087565b73ffffffffffffffffffffffffffffffffffffffff811660009081526073602052604081205461071a565b6000610ea26002545b60006004548261071a9190612fdd565b6060603e805461091c90613018565b7fcfd53186d792f1ec9d0679afc2dc3ffc86fc31fe1e0f342b838eb6c3eade62b36112a98133611aea565b73ffffffffffffffffffffffffffffffffffffffff8316611326576040517f08c379a000000000000000000000000000000000000000000000000000000000815260206004820152601a60248201527f4275726e2066726f6d20746865207a65726f206164647265737300000000000060448201526064016107b1565b8161133057505050565b6000600454836113409190613195565b73ffffffffffffffffffffffffffffffffffffffff8516600090815260066020526040902054909150818110156113d3576040517f08c379a000000000000000000000000000000000000000000000000000000000815260206004820152601260248201527f4e6f7420656e6f7567682062616c616e6365000000000000000000000000000060448201526064016107b1565b73ffffffffffffffffffffffffffffffffffffffff85166000908152600660205260409020546114049083906131d2565b73ffffffffffffffffffffffffffffffffffffffff86166000908152600660205260409020556005546114389083906131d2565b600555603c546114499085906131d2565b603c5560405184815260009073ffffffffffffffffffffffffffffffffffffffff8716907fddf252ad1be2c89b69c2b068fc378daa952ba7f163c4a11628f55a4df523b3ef9060200160405180910390a35050505050565b336000908152603b6020908152604080832073ffffffffffffffffffffffffffffffffffffffff8616845290915281205482811015611562576040517f08c379a000000000000000000000000000000000000000000000000000000000815260206004820152602560248201527f45524332303a2064656372656173656420616c6c6f77616e63652062656c6f7760448201527f207a65726f00000000000000000000000000000000000000000000000000000060648201526084016107b1565b61156f3385858403611cf9565b5060019392505050565b600073ffffffffffffffffffffffffffffffffffffffff83166115f8576040517f08c379a000000000000000000000000000000000000000000000000000000000815260206004820152600f60248201527f496e76616c69642061646472657373000000000000000000000000000000000060448201526064016107b1565b6000600454836116089190613195565b33600090815260066020526040902054909150811115611684576040517f08c379a000000000000000000000000000000000000000000000000000000000815260206004820152601060248201527f4e6f7420656e6f7567682066756e64730000000000000000000000000000000060448201526064016107b1565b3360009081526006602052604090205461169f9082906131d2565b336000908152600660205260408082209290925573ffffffffffffffffffffffffffffffffffffffff8616815220546116d9908290612fc5565b73ffffffffffffffffffffffffffffffffffffffff85166000818152600660205260409081902092909255905133907fddf252ad1be2c89b69c2b068fc378daa952ba7f163c4a11628f55a4df523b3ef906117379087815260200190565b60405180910390a35060019392505050565b7fdf8b4c520ffe197c5343c6f5aec59570151ef9a492f2c624fd45ddde6135ec426117748133611aea565b60005473ffffffffffffffffffffffffffffffffffffffff16156117f4576040517f08c379a000000000000000000000000000000000000000000000000000000000815260206004820152601360248201527f416c726561647920496e697469616c697a65640000000000000000000000000060448201526064016107b1565b73ffffffffffffffffffffffffffffffffffffffff8216611871576040517f08c379a000000000000000000000000000000000000000000000000000000000815260206004820152600f60248201527f496e76616c69642061646472657373000000000000000000000000000000000060448201526064016107b1565b600080547fffffffffffffffffffffffff00000000000000000000000000000000000000001673ffffffffffffffffffffffffffffffffffffffff84161790556118db7fcfd53186d792f1ec9d0679afc2dc3ffc86fc31fe1e0f342b838eb6c3eade62b3836120c2565b610f567f2cb8fee3430f011f8ea5df36a120dd5a293aa25c9ca88cc51159a94f41f768bb836120c2565b8342111561196f576040517f08c379a000000000000000000000000000000000000000000000000000000000815260206004820152601d60248201527f45524332305065726d69743a206578706972656420646561646c696e6500000060448201526064016107b1565b60007f6e71edae12b1b97f4d1f60370fef10105fa2faae0126114a169c64845d6126c988888861199e8c612348565b60408051602081019690965273ffffffffffffffffffffffffffffffffffffffff94851690860152929091166060840152608083015260a082015260c0810186905260e0016040516020818303038152906040528051906020012090506000611a068261237d565b90506000611a16828787876123e6565b90508973ffffffffffffffffffffffffffffffffffffffff168173ffffffffffffffffffffffffffffffffffffffff1614611aad576040517f08c379a000000000000000000000000000000000000000000000000000000000815260206004820152601e60248201527f45524332305065726d69743a20696e76616c6964207369676e6174757265000060448201526064016107b1565b611ab88a8a8a611cf9565b50505050505050505050565b600082815260d86020526040902060010154611ae08133611aea565b610e93838361228d565b600082815260d86020908152604080832073ffffffffffffffffffffffffffffffffffffffff8516845290915290205460ff16610f5657611b428173ffffffffffffffffffffffffffffffffffffffff16601461240e565b611b4d83602061240e565b604051602001611b5e9291906131e9565b604080517fffffffffffffffffffffffffffffffffffffffffffffffffffffffffffffffe0818403018152908290527f08c379a00000000000000000000000000000000000000000000000000000000082526107b191600401612c63565b60008360035484611bcd9190613195565b611bd79190612fdd565b905060016040518060e00160405280848152602001838152602001868152602001603c548152602001858152602001611c0e611256565b815243602091820152825460018082018555600094855293829020835160079092020190815582820151938101939093556040808301516002850155606083015160038501556080830151600485015560a0830151600585015560c090920151600690930192909255603c5481514281529283015283917f917acfbe39be6509ccf7fecb66a7e42ce2be1083c2d7dd3b9b7491dabddb8da4910160405180910390a2817f6012dbce857565c4a40974aa5de8373a761fc429077ef0c8c8611d1e20d63fb282611cdb611256565b6040805192835260208301919091520160405180910390a250505050565b73ffffffffffffffffffffffffffffffffffffffff8316611d9b576040517f08c379a0000000000000000000000000000000000000000000000000000000008152602060048201526024808201527f45524332303a20617070726f76652066726f6d20746865207a65726f2061646460448201527f726573730000000000000000000000000000000000000000000000000000000060648201526084016107b1565b73ffffffffffffffffffffffffffffffffffffffff8216611e3e576040517f08c379a000000000000000000000000000000000000000000000000000000000815260206004820152602260248201527f45524332303a20617070726f766520746f20746865207a65726f20616464726560448201527f737300000000000000000000000000000000000000000000000000000000000060648201526084016107b1565b73ffffffffffffffffffffffffffffffffffffffff8381166000818152603b602090815260408083209487168084529482529182902085905590518481527f8c5be1e5ebec7d5bd14f71427d1e84f3dd0314c0f7b2291e5b200ac8c7c3b925910160405180910390a3505050565b60075462010000900460ff16611f44576040517f08c379a000000000000000000000000000000000000000000000000000000000815260206004820152602b60248201527f496e697469616c697a61626c653a20636f6e7472616374206973206e6f74206960448201527f6e697469616c697a696e6700000000000000000000000000000000000000000060648201526084016107b1565b610f568282612658565b60075462010000900460ff16611fe6576040517f08c379a000000000000000000000000000000000000000000000000000000000815260206004820152602b60248201527f496e697469616c697a61626c653a20636f6e7472616374206973206e6f74206960448201527f6e697469616c697a696e6700000000000000000000000000000000000000000060648201526084016107b1565b612025816040518060400160405280600181526020017f3100000000000000000000000000000000000000000000000000000000000000815250612717565b50565b60075462010000900460ff166120c0576040517f08c379a000000000000000000000000000000000000000000000000000000000815260206004820152602b60248201527f496e697469616c697a61626c653a20636f6e7472616374206973206e6f74206960448201527f6e697469616c697a696e6700000000000000000000000000000000000000000060648201526084016107b1565b565b610f568282612126565b600082815260d86020526040808220600101805490849055905190918391839186917fbd79b86ffe0ab8e8776151514217cd7cacd52c909f66475c3af44e129f0b00ff9190a4505050565b61212081610c2c565b60025550565b600082815260d86020908152604080832073ffffffffffffffffffffffffffffffffffffffff8516845290915290205460ff16610f5657600082815260d86020908152604080832073ffffffffffffffffffffffffffffffffffffffff85168452909152902080547fffffffffffffffffffffffffffffffffffffffffffffffffffffffffffffff001660011790556121bc3390565b73ffffffffffffffffffffffffffffffffffffffff168173ffffffffffffffffffffffffffffffffffffffff16837f2f8788117e7eff1d82e926ec794901d17c78024a50270940304540a733656f0d60405160405180910390a45050565b6000610ea27f8b73c3c69bb8fe3d512ecc4cf759cc79239f7b179b0ffacaa9a75d522b39400f612249603f5490565b6040805481516020808201959095528083019390935260608301524660808301523060a0808401919091528151808403909101815260c09092019052805191012090565b600082815260d86020908152604080832073ffffffffffffffffffffffffffffffffffffffff8516845290915290205460ff1615610f5657600082815260d86020908152604080832073ffffffffffffffffffffffffffffffffffffffff8516808552925280832080547fffffffffffffffffffffffffffffffffffffffffffffffffffffffffffffff0016905551339285917ff6391f5c32d9c69d2a47ea670b442974b53935d1edc7fd64eb21e047a839171b9190a45050565b73ffffffffffffffffffffffffffffffffffffffff811660009081526073602052604090208054600181018255905b50919050565b600061071a61238a61221a565b836040517f19010000000000000000000000000000000000000000000000000000000000006020820152602281018390526042810182905260009060620160405160208183030381529060405280519060200120905092915050565b60008060006123f7878787876127c9565b91509150612404816128e1565b5095945050505050565b6060600061241d836002613195565b612428906002612fc5565b67ffffffffffffffff81111561244057612440612d07565b6040519080825280601f01601f19166020018201604052801561246a576020820181803683370190505b5090507f3000000000000000000000000000000000000000000000000000000000000000816000815181106124a1576124a161326a565b60200101907effffffffffffffffffffffffffffffffffffffffffffffffffffffffffffff1916908160001a9053507f7800000000000000000000000000000000000000000000000000000000000000816001815181106125045761250461326a565b60200101907effffffffffffffffffffffffffffffffffffffffffffffffffffffffffffff1916908160001a9053506000612540846002613195565b61254b906001612fc5565b90505b60018111156125e8577f303132333435363738396162636465660000000000000000000000000000000085600f166010811061258c5761258c61326a565b1a60f81b8282815181106125a2576125a261326a565b60200101907effffffffffffffffffffffffffffffffffffffffffffffffffffffffffffff1916908160001a90535060049490941c936125e181613299565b905061254e565b508315612651576040517f08c379a000000000000000000000000000000000000000000000000000000000815260206004820181905260248201527f537472696e67733a20686578206c656e67746820696e73756666696369656e7460448201526064016107b1565b9392505050565b60075462010000900460ff166126f0576040517f08c379a000000000000000000000000000000000000000000000000000000000815260206004820152602b60248201527f496e697469616c697a61626c653a20636f6e7472616374206973206e6f74206960448201527f6e697469616c697a696e6700000000000000000000000000000000000000000060648201526084016107b1565b815161270390603d906020850190612b3a565b508051610e9390603e906020840190612b3a565b60075462010000900460ff166127af576040517f08c379a000000000000000000000000000000000000000000000000000000000815260206004820152602b60248201527f496e697469616c697a61626c653a20636f6e7472616374206973206e6f74206960448201527f6e697469616c697a696e6700000000000000000000000000000000000000000060648201526084016107b1565b815160209283012081519190920120603f91909155604055565b6000807f7fffffffffffffffffffffffffffffff5d576e7357a4501ddfe92f46681b20a083111561280057506000905060036128d8565b8460ff16601b1415801561281857508460ff16601c14155b1561282957506000905060046128d8565b6040805160008082526020820180845289905260ff881692820192909252606081018690526080810185905260019060a0016020604051602081039080840390855afa15801561287d573d6000803e3d6000fd5b50506040517fffffffffffffffffffffffffffffffffffffffffffffffffffffffffffffffe0015191505073ffffffffffffffffffffffffffffffffffffffff81166128d1576000600192509250506128d8565b9150600090505b94509492505050565b60008160048111156128f5576128f56132ce565b14156128fe5750565b6001816004811115612912576129126132ce565b141561297a576040517f08c379a000000000000000000000000000000000000000000000000000000000815260206004820152601860248201527f45434453413a20696e76616c6964207369676e6174757265000000000000000060448201526064016107b1565b600281600481111561298e5761298e6132ce565b14156129f6576040517f08c379a000000000000000000000000000000000000000000000000000000000815260206004820152601f60248201527f45434453413a20696e76616c6964207369676e6174757265206c656e6774680060448201526064016107b1565b6003816004811115612a0a57612a0a6132ce565b1415612a98576040517f08c379a000000000000000000000000000000000000000000000000000000000815260206004820152602260248201527f45434453413a20696e76616c6964207369676e6174757265202773272076616c60448201527f756500000000000000000000000000000000000000000000000000000000000060648201526084016107b1565b6004816004811115612aac57612aac6132ce565b1415612025576040517f08c379a000000000000000000000000000000000000000000000000000000000815260206004820152602260248201527f45434453413a20696e76616c6964207369676e6174757265202776272076616c60448201527f756500000000000000000000000000000000000000000000000000000000000060648201526084016107b1565b828054612b4690613018565b90600052602060002090601f016020900481019282612b685760008555612bae565b82601f10612b8157805160ff1916838001178555612bae565b82800160010185558215612bae579182015b82811115612bae578251825591602001919060010190612b93565b50612bba929150612bbe565b5090565b5b80821115612bba5760008155600101612bbf565b600060208284031215612be557600080fd5b81357fffffffff000000000000000000000000000000000000000000000000000000008116811461265157600080fd5b60008060408385031215612c2857600080fd5b50508035926020909101359150565b60005b83811015612c52578181015183820152602001612c3a565b838111156109075750506000910152565b6020815260008251806020840152612c82816040850160208701612c37565b601f017fffffffffffffffffffffffffffffffffffffffffffffffffffffffffffffffe0169190910160400192915050565b803573ffffffffffffffffffffffffffffffffffffffff81168114612cd857600080fd5b919050565b60008060408385031215612cf057600080fd5b612cf983612cb4565b946020939093013593505050565b7f4e487b7100000000000000000000000000000000000000000000000000000000600052604160045260246000fd5b600082601f830112612d4757600080fd5b813567ffffffffffffffff80821115612d6257612d62612d07565b604051601f83017fffffffffffffffffffffffffffffffffffffffffffffffffffffffffffffffe0908116603f01168101908282118183101715612da857612da8612d07565b81604052838152866020858801011115612dc157600080fd5b836020870160208301376000602085830101528094505050505092915050565b803560ff81168114612cd857600080fd5b600080600060608486031215612e0757600080fd5b833567ffffffffffffffff80821115612e1f57600080fd5b612e2b87838801612d36565b94506020860135915080821115612e4157600080fd5b50612e4e86828701612d36565b925050612e5d60408501612de1565b90509250925092565b600060208284031215612e7857600080fd5b5035919050565b600080600060608486031215612e9457600080fd5b612e9d84612cb4565b9250612eab60208501612cb4565b9150604084013590509250925092565b60008060408385031215612ece57600080fd5b82359150612ede60208401612cb4565b90509250929050565b600060208284031215612ef957600080fd5b61265182612cb4565b600080600080600080600060e0888a031215612f1d57600080fd5b612f2688612cb4565b9650612f3460208901612cb4565b95506040880135945060608801359350612f5060808901612de1565b925060a0880135915060c0880135905092959891949750929550565b60008060408385031215612f7f57600080fd5b612f8883612cb4565b9150612ede60208401612cb4565b7f4e487b7100000000000000000000000000000000000000000000000000000000600052601160045260246000fd5b60008219821115612fd857612fd8612f96565b500190565b600082613013577f4e487b7100000000000000000000000000000000000000000000000000000000600052601260045260246000fd5b500490565b600181811c9082168061302c57607f821691505b60208210811415612377577f4e487b7100000000000000000000000000000000000000000000000000000000600052602260045260246000fd5b600181815b808511156130bf57817fffffffffffffffffffffffffffffffffffffffffffffffffffffffffffffffff048211156130a5576130a5612f96565b808516156130b257918102915b93841c939080029061306b565b509250929050565b6000826130d65750600161071a565b816130e35750600061071a565b81600181146130f957600281146131035761311f565b600191505061071a565b60ff84111561311457613114612f96565b50506001821b61071a565b5060208310610133831016604e8410600b8410161715613142575081810a61071a565b61314c8383613066565b807fffffffffffffffffffffffffffffffffffffffffffffffffffffffffffffffff0482111561317e5761317e612f96565b029392505050565b600061265160ff8416836130c7565b6000817fffffffffffffffffffffffffffffffffffffffffffffffffffffffffffffffff04831182151516156131cd576131cd612f96565b500290565b6000828210156131e4576131e4612f96565b500390565b7f416363657373436f6e74726f6c3a206163636f756e7420000000000000000000815260008351613221816017850160208801612c37565b7f206973206d697373696e6720726f6c6520000000000000000000000000000000601791840191820152835161325e816028840160208801612c37565b01602801949350505050565b7f4e487b7100000000000000000000000000000000000000000000000000000000600052603260045260246000fd5b6000816132a8576132a8612f96565b507fffffffffffffffffffffffffffffffffffffffffffffffffffffffffffffffff0190565b7f4e487b7100000000000000000000000000000000000000000000000000000000600052602160045260246000fdfea2646970667358221220db7f027822cfd0af35c9ee4816e9714589caf7c0d163ecb1aa2598fa364c4b9564736f6c63430008090033",
  "linkReferences": {},
  "deployedLinkReferences": {}
}