{
  "_format": "hh-sol-artifact-1",
  "contractName": "StakingStorage",
  "sourceName": "src/contracts/StakingStorage.sol",
  "abi": [
    {
      "inputs": [],
      "name": "COOL_DOWN_CONTRACT",
      "outputs": [
        {
          "internalType": "address",
          "name": "",
          "type": "address"
        }
      ],
      "stateMutability": "view",
      "type": "function"
    },
    {
      "inputs": [],
      "name": "LIQUIDITY_RESERVE",
      "outputs": [
        {
          "internalType": "address",
          "name": "",
          "type": "address"
        }
      ],
      "stateMutability": "view",
      "type": "function"
    },
    {
      "inputs": [],
      "name": "REWARD_TOKEN",
      "outputs": [
        {
          "internalType": "address",
          "name": "",
          "type": "address"
        }
      ],
      "stateMutability": "view",
      "type": "function"
    },
    {
      "inputs": [],
      "name": "STAKING_TOKEN",
      "outputs": [
        {
          "internalType": "address",
          "name": "",
          "type": "address"
        }
      ],
      "stateMutability": "view",
      "type": "function"
    },
    {
      "inputs": [],
      "name": "TOKE_MANAGER",
      "outputs": [
        {
          "internalType": "address",
          "name": "",
          "type": "address"
        }
      ],
      "stateMutability": "view",
      "type": "function"
    },
    {
      "inputs": [],
      "name": "TOKE_POOL",
      "outputs": [
        {
          "internalType": "address",
          "name": "",
          "type": "address"
        }
      ],
      "stateMutability": "view",
      "type": "function"
    },
    {
      "inputs": [],
      "name": "TOKE_REWARD",
      "outputs": [
        {
          "internalType": "address",
          "name": "",
          "type": "address"
        }
      ],
      "stateMutability": "view",
      "type": "function"
    },
    {
      "inputs": [],
      "name": "TOKE_TOKEN",
      "outputs": [
        {
          "internalType": "address",
          "name": "",
          "type": "address"
        }
      ],
      "stateMutability": "view",
      "type": "function"
    },
    {
      "inputs": [],
      "name": "WARM_UP_CONTRACT",
      "outputs": [
        {
          "internalType": "address",
          "name": "",
          "type": "address"
        }
      ],
      "stateMutability": "view",
      "type": "function"
    },
    {
      "inputs": [
        {
          "internalType": "address",
          "name": "",
          "type": "address"
        }
      ],
      "name": "coolDownInfo",
      "outputs": [
        {
          "internalType": "uint256",
          "name": "amount",
          "type": "uint256"
        },
        {
          "internalType": "uint256",
          "name": "gons",
          "type": "uint256"
        },
        {
          "internalType": "uint256",
          "name": "expiry",
          "type": "uint256"
        }
      ],
      "stateMutability": "view",
      "type": "function"
    },
    {
      "inputs": [],
      "name": "coolDownPeriod",
      "outputs": [
        {
          "internalType": "uint256",
          "name": "",
          "type": "uint256"
        }
      ],
      "stateMutability": "view",
      "type": "function"
    },
    {
      "inputs": [],
      "name": "epoch",
      "outputs": [
        {
          "internalType": "uint256",
          "name": "length",
          "type": "uint256"
        },
        {
          "internalType": "uint256",
          "name": "number",
          "type": "uint256"
        },
        {
          "internalType": "uint256",
          "name": "endBlock",
          "type": "uint256"
        },
        {
          "internalType": "uint256",
          "name": "distribute",
          "type": "uint256"
        }
      ],
      "stateMutability": "view",
      "type": "function"
    },
    {
      "inputs": [],
      "name": "lastTokeCycleIndex",
      "outputs": [
        {
          "internalType": "uint256",
          "name": "",
          "type": "uint256"
        }
      ],
      "stateMutability": "view",
      "type": "function"
    },
    {
      "inputs": [],
      "name": "pauseInstantUnstaking",
      "outputs": [
        {
          "internalType": "bool",
          "name": "",
          "type": "bool"
        }
      ],
      "stateMutability": "view",
      "type": "function"
    },
    {
      "inputs": [],
      "name": "pauseStaking",
      "outputs": [
        {
          "internalType": "bool",
          "name": "",
          "type": "bool"
        }
      ],
      "stateMutability": "view",
      "type": "function"
    },
    {
      "inputs": [],
      "name": "pauseUnstaking",
      "outputs": [
        {
          "internalType": "bool",
          "name": "",
          "type": "bool"
        }
      ],
      "stateMutability": "view",
      "type": "function"
    },
    {
      "inputs": [],
      "name": "requestWithdrawalAmount",
      "outputs": [
        {
          "internalType": "uint256",
          "name": "",
          "type": "uint256"
        }
      ],
      "stateMutability": "view",
      "type": "function"
    },
    {
      "inputs": [],
      "name": "timeLeftToRequestWithdrawal",
      "outputs": [
        {
          "internalType": "uint256",
          "name": "",
          "type": "uint256"
        }
      ],
      "stateMutability": "view",
      "type": "function"
    },
    {
      "inputs": [
        {
          "internalType": "address",
          "name": "",
          "type": "address"
        }
      ],
      "name": "warmUpInfo",
      "outputs": [
        {
          "internalType": "uint256",
          "name": "amount",
          "type": "uint256"
        },
        {
          "internalType": "uint256",
          "name": "gons",
          "type": "uint256"
        },
        {
          "internalType": "uint256",
          "name": "expiry",
          "type": "uint256"
        }
      ],
      "stateMutability": "view",
      "type": "function"
    },
    {
      "inputs": [],
      "name": "warmUpPeriod",
      "outputs": [
        {
          "internalType": "uint256",
          "name": "",
          "type": "uint256"
        }
      ],
      "stateMutability": "view",
      "type": "function"
    },
    {
      "inputs": [],
      "name": "withdrawalAmount",
      "outputs": [
        {
          "internalType": "uint256",
          "name": "",
          "type": "uint256"
        }
      ],
      "stateMutability": "view",
      "type": "function"
    }
  ],
  "bytecode": "0x608060405234801561001057600080fd5b506104ae806100206000396000f3fe608060405234801561001057600080fd5b50600436106101775760003560e01c8063823a46a1116100d8578063b8e4b2441161008c578063e6e268f411610066578063e6e268f4146103ed578063ed295509146103f6578063f999c5061461041657600080fd5b8063b8e4b244146103a4578063c9d4f350146103c4578063e2a8179d146103cd57600080fd5b80639776cb78116100bd5780639776cb781461035b57806399248ea714610364578063b09881cc1461038457600080fd5b8063823a46a11461031c578063900cf0cf1461032557600080fd5b80631c4e6ab71161012f57806328ebcda11161011457806328ebcda1146102c457806330f1ebb9146102e4578063820c6f5b146102ed57600080fd5b80631c4e6ab71461026757806326d8b9ae1461029d57600080fd5b8063107816791161016057806310781679146101e6578063156c46bf146102065780631b618cc01461021d57600080fd5b80630479d6441461017c578063050c486c146101c6575b600080fd5b60035461019c9073ffffffffffffffffffffffffffffffffffffffff1681565b60405173ffffffffffffffffffffffffffffffffffffffff90911681526020015b60405180910390f35b60055461019c9073ffffffffffffffffffffffffffffffffffffffff1681565b60005461019c9073ffffffffffffffffffffffffffffffffffffffff1681565b61020f600f5481565b6040519081526020016101bd565b61024c61022b36600461043b565b600e6020526000908152604090208054600182015460029092015490919083565b604080519384526020840192909252908201526060016101bd565b60085461028d907501000000000000000000000000000000000000000000900460ff1681565b60405190151581526020016101bd565b60085461028d90760100000000000000000000000000000000000000000000900460ff1681565b60065461019c9073ffffffffffffffffffffffffffffffffffffffff1681565b61020f60115481565b61024c6102fb36600461043b565b600d6020526000908152604090208054600182015460029092015490919083565b61020f60125481565b600954600a54600b54600c5461033b9392919084565b6040805194855260208501939093529183015260608201526080016101bd565b61020f60105481565b60045461019c9073ffffffffffffffffffffffffffffffffffffffff1681565b60025461019c9073ffffffffffffffffffffffffffffffffffffffff1681565b60085461019c9073ffffffffffffffffffffffffffffffffffffffff1681565b61020f60145481565b60015461019c9073ffffffffffffffffffffffffffffffffffffffff1681565b61020f60135481565b60075461019c9073ffffffffffffffffffffffffffffffffffffffff1681565b60085461028d9074010000000000000000000000000000000000000000900460ff1681565b60006020828403121561044d57600080fd5b813573ffffffffffffffffffffffffffffffffffffffff8116811461047157600080fd5b939250505056fea264697066735822122071483670f4f3f3c35660232e66550cd75850f9f2db58c92094e7686a7138275d64736f6c63430008090033",
  "linkReferences": {},
  "deployedLinkReferences": {}
}