{
  "_format": "hh-sol-artifact-1",
  "contractName": "Staking",
  "sourceName": "src/contracts/Staking.sol",
  "abi": [
    {
      "anonymous": false,
      "inputs": [
        {
          "indexed": true,
          "internalType": "uint256",
          "name": "blockNumber",
          "type": "uint256"
        },
        {
          "indexed": false,
          "internalType": "address",
          "name": "affilateAddress",
          "type": "address"
        }
      ],
      "name": "LogSetAffiliateAddress",
      "type": "event"
    },
    {
      "anonymous": false,
      "inputs": [
        {
          "indexed": true,
          "internalType": "uint256",
          "name": "blockNumber",
          "type": "uint256"
        },
        {
          "indexed": false,
          "internalType": "uint256",
          "name": "fee",
          "type": "uint256"
        }
      ],
      "name": "LogSetAffiliateFee",
      "type": "event"
    },
    {
      "anonymous": false,
      "inputs": [
        {
          "indexed": true,
          "internalType": "uint256",
          "name": "blockNumber",
          "type": "uint256"
        },
        {
          "indexed": false,
          "internalType": "uint256",
          "name": "period",
          "type": "uint256"
        }
      ],
      "name": "LogSetCoolDownPeriod",
      "type": "event"
    },
    {
      "anonymous": false,
      "inputs": [
        {
          "indexed": true,
          "internalType": "address",
          "name": "curvePool",
          "type": "address"
        },
        {
          "indexed": false,
          "internalType": "int128",
          "name": "to",
          "type": "int128"
        },
        {
          "indexed": false,
          "internalType": "int128",
          "name": "from",
          "type": "int128"
        }
      ],
      "name": "LogSetCurvePool",
      "type": "event"
    },
    {
      "anonymous": false,
      "inputs": [
        {
          "indexed": true,
          "internalType": "uint256",
          "name": "blockNumber",
          "type": "uint256"
        },
        {
          "indexed": false,
          "internalType": "uint256",
          "name": "duration",
          "type": "uint256"
        }
      ],
      "name": "LogSetEpochDuration",
      "type": "event"
    },
    {
      "anonymous": false,
      "inputs": [
        {
          "indexed": true,
          "internalType": "uint256",
          "name": "blockNumber",
          "type": "uint256"
        },
        {
          "indexed": false,
          "internalType": "bool",
          "name": "shouldPause",
          "type": "bool"
        }
      ],
      "name": "LogSetPauseInstantUnstaking",
      "type": "event"
    },
    {
      "anonymous": false,
      "inputs": [
        {
          "indexed": true,
          "internalType": "uint256",
          "name": "blockNumber",
          "type": "uint256"
        },
        {
          "indexed": false,
          "internalType": "bool",
          "name": "shouldPause",
          "type": "bool"
        }
      ],
      "name": "LogSetPauseStaking",
      "type": "event"
    },
    {
      "anonymous": false,
      "inputs": [
        {
          "indexed": true,
          "internalType": "uint256",
          "name": "blockNumber",
          "type": "uint256"
        },
        {
          "indexed": false,
          "internalType": "bool",
          "name": "shouldPause",
          "type": "bool"
        }
      ],
      "name": "LogSetPauseUnstaking",
      "type": "event"
    },
    {
      "anonymous": false,
      "inputs": [
        {
          "indexed": true,
          "internalType": "uint256",
          "name": "blockNumber",
          "type": "uint256"
        },
        {
          "indexed": false,
          "internalType": "uint256",
          "name": "period",
          "type": "uint256"
        }
      ],
      "name": "LogSetWarmUpPeriod",
      "type": "event"
    },
    {
      "anonymous": false,
      "inputs": [
        {
          "indexed": true,
          "internalType": "address",
          "name": "previousOwner",
          "type": "address"
        },
        {
          "indexed": true,
          "internalType": "address",
          "name": "newOwner",
          "type": "address"
        }
      ],
      "name": "OwnershipTransferred",
      "type": "event"
    },
    {
      "inputs": [],
      "name": "BASIS_POINTS",
      "outputs": [
        {
          "internalType": "uint256",
          "name": "",
          "type": "uint256"
        }
      ],
      "stateMutability": "view",
      "type": "function"
    },
    {
      "inputs": [],
      "name": "COW_RELAYER",
      "outputs": [
        {
          "internalType": "address",
          "name": "",
          "type": "address"
        }
      ],
      "stateMutability": "view",
      "type": "function"
    },
    {
      "inputs": [],
      "name": "COW_SETTLEMENT",
      "outputs": [
        {
          "internalType": "address",
          "name": "",
          "type": "address"
        }
      ],
      "stateMutability": "view",
      "type": "function"
    },
    {
      "inputs": [],
      "name": "CURVE_POOL",
      "outputs": [
        {
          "internalType": "address",
          "name": "",
          "type": "address"
        }
      ],
      "stateMutability": "view",
      "type": "function"
    },
    {
      "inputs": [],
      "name": "FEE_ADDRESS",
      "outputs": [
        {
          "internalType": "address",
          "name": "",
          "type": "address"
        }
      ],
      "stateMutability": "view",
      "type": "function"
    },
    {
      "inputs": [],
      "name": "LIQUIDITY_RESERVE",
      "outputs": [
        {
          "internalType": "address",
          "name": "",
          "type": "address"
        }
      ],
      "stateMutability": "view",
      "type": "function"
    },
    {
      "inputs": [],
      "name": "STAKING_TOKEN",
      "outputs": [
        {
          "internalType": "address",
          "name": "",
          "type": "address"
        }
      ],
      "stateMutability": "view",
      "type": "function"
    },
    {
      "inputs": [],
      "name": "TOKE_MANAGER",
      "outputs": [
        {
          "internalType": "address",
          "name": "",
          "type": "address"
        }
      ],
      "stateMutability": "view",
      "type": "function"
    },
    {
      "inputs": [],
      "name": "TOKE_POOL",
      "outputs": [
        {
          "internalType": "address",
          "name": "",
          "type": "address"
        }
      ],
      "stateMutability": "view",
      "type": "function"
    },
    {
      "inputs": [],
      "name": "TOKE_REWARD",
      "outputs": [
        {
          "internalType": "address",
          "name": "",
          "type": "address"
        }
      ],
      "stateMutability": "view",
      "type": "function"
    },
    {
      "inputs": [],
      "name": "TOKE_TOKEN",
      "outputs": [
        {
          "internalType": "address",
          "name": "",
          "type": "address"
        }
      ],
      "stateMutability": "view",
      "type": "function"
    },
    {
      "inputs": [],
      "name": "YIELDY_TOKEN",
      "outputs": [
        {
          "internalType": "address",
          "name": "",
          "type": "address"
        }
      ],
      "stateMutability": "view",
      "type": "function"
    },
    {
      "inputs": [
        {
          "internalType": "uint256",
          "name": "_amount",
          "type": "uint256"
        },
        {
          "internalType": "bool",
          "name": "_trigger",
          "type": "bool"
        }
      ],
      "name": "addRewardsForStakers",
      "outputs": [],
      "stateMutability": "nonpayable",
      "type": "function"
    },
    {
      "inputs": [],
      "name": "affiliateFee",
      "outputs": [
        {
          "internalType": "uint256",
          "name": "",
          "type": "uint256"
        }
      ],
      "stateMutability": "view",
      "type": "function"
    },
    {
      "inputs": [],
      "name": "canBatchTransactions",
      "outputs": [
        {
          "internalType": "bool",
          "name": "",
          "type": "bool"
        }
      ],
      "stateMutability": "view",
      "type": "function"
    },
    {
      "inputs": [
        {
          "internalType": "address",
          "name": "_recipient",
          "type": "address"
        }
      ],
      "name": "claim",
      "outputs": [],
      "stateMutability": "nonpayable",
      "type": "function"
    },
    {
      "inputs": [
        {
          "components": [
            {
              "internalType": "uint256",
              "name": "chainId",
              "type": "uint256"
            },
            {
              "internalType": "uint256",
              "name": "cycle",
              "type": "uint256"
            },
            {
              "internalType": "address",
              "name": "wallet",
              "type": "address"
            },
            {
              "internalType": "uint256",
              "name": "amount",
              "type": "uint256"
            }
          ],
          "internalType": "struct Recipient",
          "name": "_recipient",
          "type": "tuple"
        },
        {
          "internalType": "uint8",
          "name": "_v",
          "type": "uint8"
        },
        {
          "internalType": "bytes32",
          "name": "_r",
          "type": "bytes32"
        },
        {
          "internalType": "bytes32",
          "name": "_s",
          "type": "bytes32"
        }
      ],
      "name": "claimFromTokemak",
      "outputs": [],
      "stateMutability": "nonpayable",
      "type": "function"
    },
    {
      "inputs": [
        {
          "internalType": "address",
          "name": "_recipient",
          "type": "address"
        }
      ],
      "name": "claimWithdraw",
      "outputs": [],
      "stateMutability": "nonpayable",
      "type": "function"
    },
    {
      "inputs": [
        {
          "internalType": "address",
          "name": "",
          "type": "address"
        }
      ],
      "name": "coolDownInfo",
      "outputs": [
        {
          "internalType": "uint256",
          "name": "amount",
          "type": "uint256"
        },
        {
          "internalType": "uint256",
          "name": "credits",
          "type": "uint256"
        },
        {
          "internalType": "uint256",
          "name": "expiry",
          "type": "uint256"
        }
      ],
      "stateMutability": "view",
      "type": "function"
    },
    {
      "inputs": [],
      "name": "coolDownPeriod",
      "outputs": [
        {
          "internalType": "uint256",
          "name": "",
          "type": "uint256"
        }
      ],
      "stateMutability": "view",
      "type": "function"
    },
    {
      "inputs": [],
      "name": "curvePoolFrom",
      "outputs": [
        {
          "internalType": "int128",
          "name": "",
          "type": "int128"
        }
      ],
      "stateMutability": "view",
      "type": "function"
    },
    {
      "inputs": [],
      "name": "curvePoolTo",
      "outputs": [
        {
          "internalType": "int128",
          "name": "",
          "type": "int128"
        }
      ],
      "stateMutability": "view",
      "type": "function"
    },
    {
      "inputs": [],
      "name": "epoch",
      "outputs": [
        {
          "internalType": "uint256",
          "name": "duration",
          "type": "uint256"
        },
        {
          "internalType": "uint256",
          "name": "number",
          "type": "uint256"
        },
        {
          "internalType": "uint256",
          "name": "timestamp",
          "type": "uint256"
        },
        {
          "internalType": "uint256",
          "name": "endTime",
          "type": "uint256"
        },
        {
          "internalType": "uint256",
          "name": "distribute",
          "type": "uint256"
        }
      ],
      "stateMutability": "view",
      "type": "function"
    },
    {
      "inputs": [
        {
          "internalType": "uint256",
          "name": "_amount",
          "type": "uint256"
        }
      ],
      "name": "estimateInstantCurve",
      "outputs": [
        {
          "internalType": "uint256",
          "name": "",
          "type": "uint256"
        }
      ],
      "stateMutability": "view",
      "type": "function"
    },
    {
      "inputs": [
        {
          "internalType": "address",
          "name": "_stakingToken",
          "type": "address"
        },
        {
          "internalType": "address",
          "name": "_rewardToken",
          "type": "address"
        },
        {
          "internalType": "address",
          "name": "_tokeToken",
          "type": "address"
        },
        {
          "internalType": "address",
          "name": "_tokePool",
          "type": "address"
        },
        {
          "internalType": "address",
          "name": "_tokeManager",
          "type": "address"
        },
        {
          "internalType": "address",
          "name": "_tokeReward",
          "type": "address"
        },
        {
          "internalType": "address",
          "name": "_liquidityReserve",
          "type": "address"
        },
        {
          "internalType": "address",
          "name": "_feeAddress",
          "type": "address"
        },
        {
          "internalType": "address",
          "name": "_curvePool",
          "type": "address"
        },
        {
          "internalType": "uint256",
          "name": "_epochDuration",
          "type": "uint256"
        },
        {
          "internalType": "uint256",
          "name": "_firstEpochEndTime",
          "type": "uint256"
        }
      ],
      "name": "initialize",
      "outputs": [],
      "stateMutability": "nonpayable",
      "type": "function"
    },
    {
      "inputs": [
        {
          "internalType": "uint256",
          "name": "_amount",
          "type": "uint256"
        },
        {
          "internalType": "uint256",
          "name": "_minAmount",
          "type": "uint256"
        }
      ],
      "name": "instantUnstakeCurve",
      "outputs": [
        {
          "internalType": "uint256",
          "name": "",
          "type": "uint256"
        }
      ],
      "stateMutability": "nonpayable",
      "type": "function"
    },
    {
      "inputs": [
        {
          "internalType": "uint256",
          "name": "_amount",
          "type": "uint256"
        }
      ],
      "name": "instantUnstakeReserve",
      "outputs": [],
      "stateMutability": "nonpayable",
      "type": "function"
    },
    {
      "inputs": [],
      "name": "isInstantUnstakingPaused",
      "outputs": [
        {
          "internalType": "bool",
          "name": "",
          "type": "bool"
        }
      ],
      "stateMutability": "view",
      "type": "function"
    },
    {
      "inputs": [],
      "name": "isStakingPaused",
      "outputs": [
        {
          "internalType": "bool",
          "name": "",
          "type": "bool"
        }
      ],
      "stateMutability": "view",
      "type": "function"
    },
    {
      "inputs": [],
      "name": "isUnstakingPaused",
      "outputs": [
        {
          "internalType": "bool",
          "name": "",
          "type": "bool"
        }
      ],
      "stateMutability": "view",
      "type": "function"
    },
    {
      "inputs": [],
      "name": "lastTokeCycleIndex",
      "outputs": [
        {
          "internalType": "uint256",
          "name": "",
          "type": "uint256"
        }
      ],
      "stateMutability": "view",
      "type": "function"
    },
    {
      "inputs": [],
      "name": "owner",
      "outputs": [
        {
          "internalType": "address",
          "name": "",
          "type": "address"
        }
      ],
      "stateMutability": "view",
      "type": "function"
    },
    {
      "inputs": [
        {
          "internalType": "bytes",
          "name": "orderUid",
          "type": "bytes"
        }
      ],
      "name": "preSign",
      "outputs": [],
      "stateMutability": "nonpayable",
      "type": "function"
    },
    {
      "inputs": [],
      "name": "rebase",
      "outputs": [],
      "stateMutability": "nonpayable",
      "type": "function"
    },
    {
      "inputs": [],
      "name": "renounceOwnership",
      "outputs": [],
      "stateMutability": "nonpayable",
      "type": "function"
    },
    {
      "inputs": [],
      "name": "requestWithdrawalAmount",
      "outputs": [
        {
          "internalType": "uint256",
          "name": "",
          "type": "uint256"
        }
      ],
      "stateMutability": "view",
      "type": "function"
    },
    {
      "inputs": [],
      "name": "sendWithdrawalRequests",
      "outputs": [],
      "stateMutability": "nonpayable",
      "type": "function"
    },
    {
      "inputs": [
        {
          "internalType": "address",
          "name": "_affiliateAddress",
          "type": "address"
        }
      ],
      "name": "setAffiliateAddress",
      "outputs": [],
      "stateMutability": "nonpayable",
      "type": "function"
    },
    {
      "inputs": [
        {
          "internalType": "uint256",
          "name": "_affiliateFee",
          "type": "uint256"
        }
      ],
      "name": "setAffiliateFee",
      "outputs": [],
      "stateMutability": "nonpayable",
      "type": "function"
    },
    {
      "inputs": [
        {
          "internalType": "uint256",
          "name": "_vestingPeriod",
          "type": "uint256"
        }
      ],
      "name": "setCoolDownPeriod",
      "outputs": [],
      "stateMutability": "nonpayable",
      "type": "function"
    },
    {
      "inputs": [
        {
          "internalType": "address",
          "name": "_curvePool",
          "type": "address"
        }
      ],
      "name": "setCurvePool",
      "outputs": [],
      "stateMutability": "nonpayable",
      "type": "function"
    },
    {
      "inputs": [
        {
          "internalType": "uint256",
          "name": "duration",
          "type": "uint256"
        }
      ],
      "name": "setEpochDuration",
      "outputs": [],
      "stateMutability": "nonpayable",
      "type": "function"
    },
    {
      "inputs": [
        {
          "internalType": "uint256",
          "name": "_timestamp",
          "type": "uint256"
        }
      ],
      "name": "setTimeLeftToRequestWithdrawal",
      "outputs": [],
      "stateMutability": "nonpayable",
      "type": "function"
    },
    {
      "inputs": [
        {
          "internalType": "uint256",
          "name": "_vestingPeriod",
          "type": "uint256"
        }
      ],
      "name": "setWarmUpPeriod",
      "outputs": [],
      "stateMutability": "nonpayable",
      "type": "function"
    },
    {
      "inputs": [
        {
          "internalType": "bool",
          "name": "_shouldPause",
          "type": "bool"
        }
      ],
      "name": "shouldPauseInstantUnstaking",
      "outputs": [],
      "stateMutability": "nonpayable",
      "type": "function"
    },
    {
      "inputs": [
        {
          "internalType": "bool",
          "name": "_shouldPause",
          "type": "bool"
        }
      ],
      "name": "shouldPauseStaking",
      "outputs": [],
      "stateMutability": "nonpayable",
      "type": "function"
    },
    {
      "inputs": [
        {
          "internalType": "bool",
          "name": "_shouldPause",
          "type": "bool"
        }
      ],
      "name": "shouldPauseUnstaking",
      "outputs": [],
      "stateMutability": "nonpayable",
      "type": "function"
    },
    {
      "inputs": [
        {
          "internalType": "uint256",
          "name": "_amount",
          "type": "uint256"
        },
        {
          "internalType": "address",
          "name": "_recipient",
          "type": "address"
        }
      ],
      "name": "stake",
      "outputs": [],
      "stateMutability": "nonpayable",
      "type": "function"
    },
    {
      "inputs": [
        {
          "internalType": "uint256",
          "name": "_amount",
          "type": "uint256"
        }
      ],
      "name": "stake",
      "outputs": [],
      "stateMutability": "nonpayable",
      "type": "function"
    },
    {
      "inputs": [],
      "name": "timeLeftToRequestWithdrawal",
      "outputs": [
        {
          "internalType": "uint256",
          "name": "",
          "type": "uint256"
        }
      ],
      "stateMutability": "view",
      "type": "function"
    },
    {
      "inputs": [
        {
          "internalType": "address",
          "name": "newOwner",
          "type": "address"
        }
      ],
      "name": "transferOwnership",
      "outputs": [],
      "stateMutability": "nonpayable",
      "type": "function"
    },
    {
      "inputs": [
        {
          "internalType": "address",
          "name": "_claimAddress",
          "type": "address"
        }
      ],
      "name": "transferToke",
      "outputs": [],
      "stateMutability": "nonpayable",
      "type": "function"
    },
    {
      "inputs": [
        {
          "internalType": "uint256",
          "name": "_amount",
          "type": "uint256"
        },
        {
          "internalType": "bool",
          "name": "_trigger",
          "type": "bool"
        }
      ],
      "name": "unstake",
      "outputs": [],
      "stateMutability": "nonpayable",
      "type": "function"
    },
    {
      "inputs": [],
      "name": "unstakeAllFromTokemak",
      "outputs": [],
      "stateMutability": "nonpayable",
      "type": "function"
    },
    {
      "inputs": [
        {
          "internalType": "address",
          "name": "",
          "type": "address"
        }
      ],
      "name": "warmUpInfo",
      "outputs": [
        {
          "internalType": "uint256",
          "name": "amount",
          "type": "uint256"
        },
        {
          "internalType": "uint256",
          "name": "credits",
          "type": "uint256"
        },
        {
          "internalType": "uint256",
          "name": "expiry",
          "type": "uint256"
        }
      ],
      "stateMutability": "view",
      "type": "function"
    },
    {
      "inputs": [],
      "name": "warmUpPeriod",
      "outputs": [
        {
          "internalType": "uint256",
          "name": "",
          "type": "uint256"
        }
      ],
      "stateMutability": "view",
      "type": "function"
    },
    {
      "inputs": [],
      "name": "withdrawalAmount",
      "outputs": [
        {
          "internalType": "uint256",
          "name": "",
          "type": "uint256"
        }
      ],
      "stateMutability": "view",
      "type": "function"
    }
  ],
  "bytecode": "0x608060405234801561001057600080fd5b5061505a806100206000396000f3fe608060405234801561001057600080fd5b50600436106103835760003560e01c806374320225116101de578063af14052c1161010f578063e2a8179d116100ad578063f3bff5921161007c578063f3bff59214610890578063f8aeccbd1461089d578063f9a571a2146108bd578063fd5dcab8146108d057600080fd5b8063e2a8179d14610834578063e6e268f414610854578063eb1edd611461085d578063f2fde38b1461087d57600080fd5b8063c9d4f350116100e9578063c9d4f35014610807578063ca57bae214610810578063e0e8c02114610823578063e1f1c4a71461082b57600080fd5b8063af14052c146107d6578063b09881cc146107de578063ba818f8d146107fe57600080fd5b806386a8b4b51161017c5780639776cb78116101565780639776cb78146107945780639ad399081461079d5780639ebea88c146107b0578063a694fc3a146107c357600080fd5b806386a8b4b5146107145780638da5cb5b14610734578063900cf0cf1461075257600080fd5b80637fa91eba116101b85780637fa91eba146106b657806380fc16c8146106c9578063820c6f5b146106dc578063823a46a11461070b57600080fd5b8063743202251461065c5780637a0ecaeb1461067c5780637acb7757146106a357600080fd5b806333e3544a116102b8578063516c49d9116102565780635b3112fc116102305780635b3112fc1461062657806368d8f51414610639578063715018a614610641578063736f616b1461064957600080fd5b8063516c49d9146105ed57806353fe23281461060057806354d4be5a1461061357600080fd5b80633b606454116102925780633b606454146105a15780633f69d130146105b45780634baa0cd2146105c75780634bbce08b146105da57600080fd5b806333e3544a1461055257806337df07ee146105865780633897e22b1461058e57600080fd5b80631ea7ca8911610325578063266db6aa116102ff578063266db6aa1461050357806328ebcda11461051657806330024dfe1461053657806330f1ebb91461054957600080fd5b80631ea7ca891461049b578063212f5cef146104d057806325126a2c146104e357600080fd5b8063156c46bf11610361578063156c46bf146104125780631b618cc0146104295780631d78ed81146104735780631e83409a1461048857600080fd5b80630479d64414610388578063050c486c146103d257806310781679146103f2575b600080fd5b6068546103a89073ffffffffffffffffffffffffffffffffffffffff1681565b60405173ffffffffffffffffffffffffffffffffffffffff90911681526020015b60405180910390f35b606a546103a89073ffffffffffffffffffffffffffffffffffffffff1681565b6065546103a89073ffffffffffffffffffffffffffffffffffffffff1681565b61041b60775481565b6040519081526020016103c9565b610458610437366004614a87565b60766020526000908152604090208054600182015460029092015490919083565b604080519384526020840192909252908201526060016103c9565b610486610481366004614aa4565b6108f6565b005b610486610496366004614a87565b610bcb565b606f546104c09074010000000000000000000000000000000000000000900460ff1681565b60405190151581526020016103c9565b6104866104de366004614a87565b610dc0565b6069546103a89073ffffffffffffffffffffffffffffffffffffffff1681565b61041b610511366004614abd565b610e8c565b606b546103a89073ffffffffffffffffffffffffffffffffffffffff1681565b610486610544366004614aa4565b61114f565b61041b60795481565b607e54610573907001000000000000000000000000000000009004600f0b81565b604051600f9190910b81526020016103c9565b61048661120e565b61048661059c366004614aed565b6112da565b6104866105af366004614b0a565b6113d7565b6104866105c2366004614aed565b611b91565b6104866105d5366004614bdc565b611c8f565b6104866105e8366004614c0c565b611d87565b6104866105fb366004614a87565b611e99565b61048661060e366004614a87565b61208e565b610486610621366004614a87565b612184565b610486610634366004614aa4565b61234b565b6104866123d1565b610486612512565b610486610657366004614aa4565b61259d565b606e546103a89073ffffffffffffffffffffffffffffffffffffffff1681565b606f546104c090760100000000000000000000000000000000000000000000900460ff1681565b6104866106b1366004614c5e565b612655565b6104866106c4366004614aed565b612aa7565b6104866106d7366004614aa4565b612ba3565b6104586106ea366004614a87565b60756020526000908152604090208054600182015460029092015490919083565b61041b607a5481565b606d546103a89073ffffffffffffffffffffffffffffffffffffffff1681565b60335473ffffffffffffffffffffffffffffffffffffffff166103a8565b60705460715460725460735460745461076c949392919085565b604080519586526020860194909452928401919091526060830152608082015260a0016103c9565b61041b60785481565b61041b6107ab366004614aa4565b612c5b565b6104866107be366004614bdc565b612d2e565b6104866107d1366004614aa4565b612f20565b610486612f2a565b6067546103a89073ffffffffffffffffffffffffffffffffffffffff1681565b61041b607d5481565b61041b607c5481565b61048661081e366004614c83565b6130c1565b6104c061319d565b61041b61271081565b6066546103a89073ffffffffffffffffffffffffffffffffffffffff1681565b61041b607b5481565b606c546103a89073ffffffffffffffffffffffffffffffffffffffff1681565b61048661088b366004614a87565b61338e565b607e5461057390600f0b81565b606f546103a89073ffffffffffffffffffffffffffffffffffffffff1681565b6104866108cb366004614aa4565b6134bb565b606f546104c0907501000000000000000000000000000000000000000000900460ff1681565b60008111610965576040517f08c379a000000000000000000000000000000000000000000000000000000000815260206004820152600e60248201527f496e76616c696420616d6f756e7400000000000000000000000000000000000060448201526064015b60405180910390fd5b606f547501000000000000000000000000000000000000000000900460ff161580156109ae5750606f54760100000000000000000000000000000000000000000000900460ff16155b610a14576040517f08c379a000000000000000000000000000000000000000000000000000000000815260206004820152601360248201527f556e7374616b696e672069732070617573656400000000000000000000000000604482015260640161095c565b610a1c612f2a565b610a268133613573565b606854606b546040517f70a0823100000000000000000000000000000000000000000000000000000000815273ffffffffffffffffffffffffffffffffffffffff918216600482015260009291909116906370a082319060240160206040518083038186803b158015610a9857600080fd5b505afa158015610aac573d6000803e3d6000fd5b505050506040513d601f19601f82011682018060405250810190610ad09190614cf5565b905081811015610b3c576040517f08c379a000000000000000000000000000000000000000000000000000000000815260206004820152601b60248201527f4e6f7420656e6f7567682066756e647320696e20726573657276650000000000604482015260640161095c565b606b546040517fbbb6a9830000000000000000000000000000000000000000000000000000000081526004810184905233602482015273ffffffffffffffffffffffffffffffffffffffff9091169063bbb6a983906044015b600060405180830381600087803b158015610baf57600080fd5b505af1158015610bc3573d6000803e3d6000fd5b505050505050565b73ffffffffffffffffffffffffffffffffffffffff81166000908152607560209081526040918290208251606081018452815481526001820154928101929092526002015491810191909152610c20826139a2565b15610dbc5773ffffffffffffffffffffffffffffffffffffffff821660009081526075602090815260408220828155600181018390556002019190915581015115610dbc5760695460208201516040517f92386fb5000000000000000000000000000000000000000000000000000000008152600481019190915273ffffffffffffffffffffffffffffffffffffffff9091169063a9059cbb90849083906392386fb59060240160206040518083038186803b158015610cdf57600080fd5b505afa158015610cf3573d6000803e3d6000fd5b505050506040513d601f19601f82011682018060405250810190610d179190614cf5565b6040517fffffffff0000000000000000000000000000000000000000000000000000000060e085901b16815273ffffffffffffffffffffffffffffffffffffffff90921660048301526024820152604401602060405180830381600087803b158015610d8257600080fd5b505af1158015610d96573d6000803e3d6000fd5b505050506040513d601f19601f82011682018060405250810190610dba9190614d0e565b505b5050565b60335473ffffffffffffffffffffffffffffffffffffffff163314610e41576040517f08c379a000000000000000000000000000000000000000000000000000000000815260206004820181905260248201527f4f776e61626c653a2063616c6c6572206973206e6f7420746865206f776e6572604482015260640161095c565b606d80547fffffffffffffffffffffffff00000000000000000000000000000000000000001673ffffffffffffffffffffffffffffffffffffffff8316179055610e89613a04565b50565b6000808311610ef7576040517f08c379a000000000000000000000000000000000000000000000000000000000815260206004820152600e60248201527f496e76616c696420616d6f756e74000000000000000000000000000000000000604482015260640161095c565b606d5473ffffffffffffffffffffffffffffffffffffffff1615801590610f465750607e54600f0b60011480610f465750607e547001000000000000000000000000000000009004600f0b6001145b610fac576040517f08c379a000000000000000000000000000000000000000000000000000000000815260206004820152601260248201527f496e76616c696420437572766520506f6f6c0000000000000000000000000000604482015260640161095c565b606f547501000000000000000000000000000000000000000000900460ff16158015610ff55750606f54760100000000000000000000000000000000000000000000900460ff16155b61105b576040517f08c379a000000000000000000000000000000000000000000000000000000000815260206004820152601360248201527f556e7374616b696e672069732070617573656400000000000000000000000000604482015260640161095c565b611063612f2a565b61106d8333613573565b606d54607e546040517fddc1f59d000000000000000000000000000000000000000000000000000000008152600f82810b600483015270010000000000000000000000000000000090920490910b6024820152604481018590526064810184905233608482015273ffffffffffffffffffffffffffffffffffffffff9091169063ddc1f59d9060a401602060405180830381600087803b15801561111057600080fd5b505af1158015611124573d6000803e3d6000fd5b505050506040513d601f19601f820116820180604052508101906111489190614cf5565b9392505050565b60335473ffffffffffffffffffffffffffffffffffffffff1633146111d0576040517f08c379a000000000000000000000000000000000000000000000000000000000815260206004820181905260248201527f4f776e61626c653a2063616c6c6572206973206e6f7420746865206f776e6572604482015260640161095c565b607081905560405181815243907fae75be1f12d8228aa4758ec68e22289c11eeefacda519562b752e6094974fd8f906020015b60405180910390a250565b61121661319d565b156112d857611223613d22565b606654607a5473ffffffffffffffffffffffffffffffffffffffff909116901561125257611252607a54613f31565b60008173ffffffffffffffffffffffffffffffffffffffff1663857909456040518163ffffffff1660e01b815260040160206040518083038186803b15801561129a57600080fd5b505afa1580156112ae573d6000803e3d6000fd5b505050506040513d601f19601f820116820180604052508101906112d29190614cf5565b607c5550505b565b60335473ffffffffffffffffffffffffffffffffffffffff16331461135b576040517f08c379a000000000000000000000000000000000000000000000000000000000815260206004820181905260248201527f4f776e61626c653a2063616c6c6572206973206e6f7420746865206f776e6572604482015260640161095c565b606f80548215157501000000000000000000000000000000000000000000027fffffffffffffffffffff00ffffffffffffffffffffffffffffffffffffffffff90911617905560405143907fb10ce310bab2ca2b94bb817ad34e180c7f2fefeb2ad9ce04aef298ea93de4f5b9061120390841515815260200190565b600054610100900460ff166113f25760005460ff16156113f6565b303b155b611482576040517f08c379a000000000000000000000000000000000000000000000000000000000815260206004820152602e60248201527f496e697469616c697a61626c653a20636f6e747261637420697320616c72656160448201527f647920696e697469616c697a6564000000000000000000000000000000000000606482015260840161095c565b600054610100900460ff161580156114c157600080547fffffffffffffffffffffffffffffffffffffffffffffffffffffffffffff0000166101011790555b6114c9614078565b73ffffffffffffffffffffffffffffffffffffffff8c1615801590611503575073ffffffffffffffffffffffffffffffffffffffff8b1615155b8015611524575073ffffffffffffffffffffffffffffffffffffffff8a1615155b8015611545575073ffffffffffffffffffffffffffffffffffffffff891615155b8015611566575073ffffffffffffffffffffffffffffffffffffffff881615155b8015611587575073ffffffffffffffffffffffffffffffffffffffff871615155b80156115a8575073ffffffffffffffffffffffffffffffffffffffff861615155b61160e576040517f08c379a000000000000000000000000000000000000000000000000000000000815260206004820152600f60248201527f496e76616c696420616464726573730000000000000000000000000000000000604482015260640161095c565b606880547fffffffffffffffffffffffff000000000000000000000000000000000000000090811673ffffffffffffffffffffffffffffffffffffffff8f8116919091179092556069805482168e8416179055606a805482168d84161790556065805482168c84161790556066805482168b84161790556067805482168a8416179055606b80548216898416179055606c80548216888416179055606d805482169287169283179055606e8054739008d19f58aabd9ed0d60971565aa8510560ab41908316179055606f805473c92e8bdf79f0507f65a392b0ab4667716bfe0110921691909117905561a8c0607755156117d857606554606d546040517f095ea7b300000000000000000000000000000000000000000000000000000000815273ffffffffffffffffffffffffffffffffffffffff91821660048201527fffffffffffffffffffffffffffffffffffffffffffffffffffffffffffffffff602482015291169063095ea7b390604401602060405180830381600087803b15801561179757600080fd5b505af11580156117ab573d6000803e3d6000fd5b505050506040513d601f19601f820116820180604052508101906117cf9190614d0e565b506117d8613a04565b6068546065546040517f095ea7b300000000000000000000000000000000000000000000000000000000815273ffffffffffffffffffffffffffffffffffffffff91821660048201527fffffffffffffffffffffffffffffffffffffffffffffffffffffffffffffffff602482015291169063095ea7b390604401602060405180830381600087803b15801561186d57600080fd5b505af1158015611881573d6000803e3d6000fd5b505050506040513d601f19601f820116820180604052508101906118a59190614d0e565b50606954606b546040517f095ea7b300000000000000000000000000000000000000000000000000000000815273ffffffffffffffffffffffffffffffffffffffff91821660048201527fffffffffffffffffffffffffffffffffffffffffffffffffffffffffffffffff602482015291169063095ea7b390604401602060405180830381600087803b15801561193b57600080fd5b505af115801561194f573d6000803e3d6000fd5b505050506040513d601f19601f820116820180604052508101906119739190614d0e565b50606954606b546040517f095ea7b300000000000000000000000000000000000000000000000000000000815273ffffffffffffffffffffffffffffffffffffffff91821660048201527fffffffffffffffffffffffffffffffffffffffffffffffffffffffffffffffff602482015291169063095ea7b390604401602060405180830381600087803b158015611a0957600080fd5b505af1158015611a1d573d6000803e3d6000fd5b505050506040513d601f19601f82011682018060405250810190611a419190614d0e565b50606a54606f546040517f095ea7b300000000000000000000000000000000000000000000000000000000815273ffffffffffffffffffffffffffffffffffffffff91821660048201527fffffffffffffffffffffffffffffffffffffffffffffffffffffffffffffffff602482015291169063095ea7b390604401602060405180830381600087803b158015611ad757600080fd5b505af1158015611aeb573d6000803e3d6000fd5b505050506040513d601f19601f82011682018060405250810190611b0f9190614d0e565b506040805160a081018252848152600160208201819052429282018390526060820185905260006080909201829052607086905560715560729190915560738390556074558015611b8357600080547fffffffffffffffffffffffffffffffffffffffffffffffffffffffffffff00ff1690555b505050505050505050505050565b60335473ffffffffffffffffffffffffffffffffffffffff163314611c12576040517f08c379a000000000000000000000000000000000000000000000000000000000815260206004820181905260248201527f4f776e61626c653a2063616c6c6572206973206e6f7420746865206f776e6572604482015260640161095c565b606f8054821515760100000000000000000000000000000000000000000000027fffffffffffffffffff00ffffffffffffffffffffffffffffffffffffffffffff90911617905560405143907f50b6b2724155fca2923d974f5d873ee0f0c9a1b420003eb054ab3f52d2fe0b4e9061120390841515815260200190565b606854611cb49073ffffffffffffffffffffffffffffffffffffffff16333085614117565b6068546040517f70a0823100000000000000000000000000000000000000000000000000000000815230600482015260009173ffffffffffffffffffffffffffffffffffffffff16906370a082319060240160206040518083038186803b158015611d1e57600080fd5b505afa158015611d32573d6000803e3d6000fd5b505050506040513d601f19601f82011682018060405250810190611d569190614cf5565b90506000607b5482611d689190614d5a565b9050611d73816141f3565b8215611d8157611d81612f2a565b50505050565b6000846060013511611df5576040517f08c379a000000000000000000000000000000000000000000000000000000000815260206004820152601760248201527f4d75737420656e7465722076616c696420616d6f756e74000000000000000000604482015260640161095c565b6067546040517fe1fc869100000000000000000000000000000000000000000000000000000000815273ffffffffffffffffffffffffffffffffffffffff90911690819063e1fc869190611e53908890889088908890600401614d71565b600060405180830381600087803b158015611e6d57600080fd5b505af1158015611e81573d6000803e3d6000fd5b50505050611e92856060013561424c565b5050505050565b73ffffffffffffffffffffffffffffffffffffffff818116600090815260766020908152604080832081516060810183528154815260018201549381018490526002909101548183015260695491517f92386fb500000000000000000000000000000000000000000000000000000000815260048101939093529316906392386fb59060240160206040518083038186803b158015611f3757600080fd5b505afa158015611f4b573d6000803e3d6000fd5b505050506040513d601f19601f82011682018060405250810190611f6f9190614cf5565b9050611f7a836142c3565b15610dba57611f87613d22565b73ffffffffffffffffffffffffffffffffffffffff83166000908152607660205260408120818155600181018290556002018190558251607b805491929091611fd1908490614d5a565b90915550508151606854611fff9173ffffffffffffffffffffffffffffffffffffffff909116908590614497565b6069546040517f9dc29fac0000000000000000000000000000000000000000000000000000000081523060048201526024810183905273ffffffffffffffffffffffffffffffffffffffff90911690639dc29fac90604401600060405180830381600087803b15801561207157600080fd5b505af1158015612085573d6000803e3d6000fd5b50505050505050565b60335473ffffffffffffffffffffffffffffffffffffffff16331461210f576040517f08c379a000000000000000000000000000000000000000000000000000000000815260206004820181905260248201527f4f776e61626c653a2063616c6c6572206973206e6f7420746865206f776e6572604482015260640161095c565b606c80547fffffffffffffffffffffffff00000000000000000000000000000000000000001673ffffffffffffffffffffffffffffffffffffffff831690811790915560405190815243907f2c1ada70981f6fddd8947ab85f99a6228532dde71841ad77d7b4dfc74b9b04f790602001611203565b60335473ffffffffffffffffffffffffffffffffffffffff163314612205576040517f08c379a000000000000000000000000000000000000000000000000000000000815260206004820181905260248201527f4f776e61626c653a2063616c6c6572206973206e6f7420746865206f776e6572604482015260640161095c565b73ffffffffffffffffffffffffffffffffffffffff8116612282576040517f08c379a000000000000000000000000000000000000000000000000000000000815260206004820152600f60248201527f496e76616c696420616464726573730000000000000000000000000000000000604482015260640161095c565b606a546040517f70a0823100000000000000000000000000000000000000000000000000000000815230600482015260009173ffffffffffffffffffffffffffffffffffffffff16906370a082319060240160206040518083038186803b1580156122ec57600080fd5b505afa158015612300573d6000803e3d6000fd5b505050506040513d601f19601f820116820180604052508101906123249190614cf5565b606a54909150610dbc9073ffffffffffffffffffffffffffffffffffffffff168383614497565b60335473ffffffffffffffffffffffffffffffffffffffff1633146123cc576040517f08c379a000000000000000000000000000000000000000000000000000000000815260206004820181905260248201527f4f776e61626c653a2063616c6c6572206973206e6f7420746865206f776e6572604482015260640161095c565b607755565b60335473ffffffffffffffffffffffffffffffffffffffff163314612452576040517f08c379a000000000000000000000000000000000000000000000000000000000815260206004820181905260248201527f4f776e61626c653a2063616c6c6572206973206e6f7420746865206f776e6572604482015260640161095c565b6065546040517f70a0823100000000000000000000000000000000000000000000000000000000815230600482015273ffffffffffffffffffffffffffffffffffffffff9091169060009082906370a082319060240160206040518083038186803b1580156124c057600080fd5b505afa1580156124d4573d6000803e3d6000fd5b505050506040513d601f19601f820116820180604052508101906124f89190614cf5565b90506125046001612aa7565b607a819055610dbc81613f31565b60335473ffffffffffffffffffffffffffffffffffffffff163314612593576040517f08c379a000000000000000000000000000000000000000000000000000000000815260206004820181905260248201527f4f776e61626c653a2063616c6c6572206973206e6f7420746865206f776e6572604482015260640161095c565b6112d860006144ed565b60335473ffffffffffffffffffffffffffffffffffffffff16331461261e576040517f08c379a000000000000000000000000000000000000000000000000000000000815260206004820181905260248201527f4f776e61626c653a2063616c6c6572206973206e6f7420746865206f776e6572604482015260640161095c565b607981905560405181815243907f5c7e8dffa0ac359bd82a2f2cfc3d0ac8f671ae530f22e691d6fb99af06aaba2490602001611203565b606f5474010000000000000000000000000000000000000000900460ff16156126da576040517f08c379a000000000000000000000000000000000000000000000000000000000815260206004820152601160248201527f5374616b696e6720697320706175736564000000000000000000000000000000604482015260640161095c565b60008211612744576040517f08c379a000000000000000000000000000000000000000000000000000000000815260206004820152601660248201527f4d75737420686176652076616c696420616d6f756e7400000000000000000000604482015260640161095c565b606954604080517f18160ddd000000000000000000000000000000000000000000000000000000008152905160009273ffffffffffffffffffffffffffffffffffffffff16916318160ddd916004808301926020929190829003018186803b1580156127af57600080fd5b505afa1580156127c3573d6000803e3d6000fd5b505050506040513d601f19601f820116820180604052508101906127e79190614cf5565b905080156127f7576127f7612f2a565b60685461281c9073ffffffffffffffffffffffffffffffffffffffff16333086614117565b73ffffffffffffffffffffffffffffffffffffffff8216600090815260756020526040902061284a836139a2565b156128585761285883610bcb565b612861846141f3565b6078546128f9576069546040517f40c10f1900000000000000000000000000000000000000000000000000000000815273ffffffffffffffffffffffffffffffffffffffff858116600483015260248201879052909116906340c10f1990604401600060405180830381600087803b1580156128dc57600080fd5b505af11580156128f0573d6000803e3d6000fd5b50505050612a9f565b60405180606001604052808583600001546129149190614dd6565b81526069546040517f20eed4290000000000000000000000000000000000000000000000000000000081526004810188905260209092019173ffffffffffffffffffffffffffffffffffffffff909116906320eed4299060240160206040518083038186803b15801561298657600080fd5b505afa15801561299a573d6000803e3d6000fd5b505050506040513d601f19601f820116820180604052508101906129be9190614cf5565b83600101546129cd9190614dd6565b81526020016078546070600101546129e59190614dd6565b905273ffffffffffffffffffffffffffffffffffffffff848116600090815260756020908152604091829020845181559084015160018201559281015160029093019290925560695491517f40c10f19000000000000000000000000000000000000000000000000000000008152306004820152602481018790529116906340c10f1990604401600060405180830381600087803b158015612a8657600080fd5b505af1158015612a9a573d6000803e3d6000fd5b505050505b611d8161120e565b60335473ffffffffffffffffffffffffffffffffffffffff163314612b28576040517f08c379a000000000000000000000000000000000000000000000000000000000815260206004820181905260248201527f4f776e61626c653a2063616c6c6572206973206e6f7420746865206f776e6572604482015260640161095c565b606f805482151574010000000000000000000000000000000000000000027fffffffffffffffffffffff00ffffffffffffffffffffffffffffffffffffffff90911617905560405143907f86a34bd7f66bd3b2e87f46767dbd4958cc483e1fa3be1485fcf9d75c068eb1ca9061120390841515815260200190565b60335473ffffffffffffffffffffffffffffffffffffffff163314612c24576040517f08c379a000000000000000000000000000000000000000000000000000000000815260206004820181905260248201527f4f776e61626c653a2063616c6c6572206973206e6f7420746865206f776e6572604482015260640161095c565b607d81905560405181815243907f93cde8a616d6082d00b343f8fe4f55ef08dc0f8aec52cc4dfaf3192abe1287c390602001611203565b606d54607e546040517f5e0d443f000000000000000000000000000000000000000000000000000000008152600f82810b600483015270010000000000000000000000000000000090920490910b60248201526044810183905260009173ffffffffffffffffffffffffffffffffffffffff1690635e0d443f9060640160206040518083038186803b158015612cf057600080fd5b505afa158015612d04573d6000803e3d6000fd5b505050506040513d601f19601f82011682018060405250810190612d289190614cf5565b92915050565b606f547501000000000000000000000000000000000000000000900460ff1615612db4576040517f08c379a000000000000000000000000000000000000000000000000000000000815260206004820152601360248201527f556e7374616b696e672069732070617573656400000000000000000000000000604482015260640161095c565b8015612dc257612dc2612f2a565b612dcc8233613573565b33600081815260766020526040902090612de590611e99565b6040518060600160405280848360000154612e009190614dd6565b81526069546040517f20eed4290000000000000000000000000000000000000000000000000000000081526004810187905260209092019173ffffffffffffffffffffffffffffffffffffffff909116906320eed4299060240160206040518083038186803b158015612e7257600080fd5b505afa158015612e86573d6000803e3d6000fd5b505050506040513d601f19601f82011682018060405250810190612eaa9190614cf5565b8360010154612eb99190614dd6565b8152602001607954607060010154612ed19190614dd6565b9052336000908152607660209081526040808320845181559184015160018301559290920151600290920191909155607a8054859290612f12908490614dd6565b90915550610dba905061120e565b610e898133612655565b60735442106112d8576069546074546071546040517f058ecdb40000000000000000000000000000000000000000000000000000000081526004810192909252602482015273ffffffffffffffffffffffffffffffffffffffff9091169063058ecdb490604401600060405180830381600087803b158015612fab57600080fd5b505af1158015612fbf573d6000803e3d6000fd5b5050607054607354612fd49350909150614dd6565b6073554260725560718054906000612feb83614dee565b91905055506000612ffa614564565b90506000606960009054906101000a900473ffffffffffffffffffffffffffffffffffffffff1673ffffffffffffffffffffffffffffffffffffffff166318160ddd6040518163ffffffff1660e01b815260040160206040518083038186803b15801561306657600080fd5b505afa15801561307a573d6000803e3d6000fd5b505050506040513d601f19601f8201168201806040525081019061309e9190614cf5565b90508082116130b05760006074555050565b6130ba8183614d5a565b6074555050565b60335473ffffffffffffffffffffffffffffffffffffffff163314613142576040517f08c379a000000000000000000000000000000000000000000000000000000000815260206004820181905260248201527f4f776e61626c653a2063616c6c6572206973206e6f7420746865206f776e6572604482015260640161095c565b606e546040517fec6cb13f00000000000000000000000000000000000000000000000000000000815273ffffffffffffffffffffffffffffffffffffffff9091169063ec6cb13f90610b959085908590600190600401614e27565b606654604080517fbd5da9ac000000000000000000000000000000000000000000000000000000008152905160009273ffffffffffffffffffffffffffffffffffffffff16918391839163bd5da9ac916004808301926020929190829003018186803b15801561320c57600080fd5b505afa158015613220573d6000803e3d6000fd5b505050506040513d601f19601f820116820180604052508101906132449190614cf5565b905060008273ffffffffffffffffffffffffffffffffffffffff1663be26ed7f6040518163ffffffff1660e01b815260040160206040518083038186803b15801561328e57600080fd5b505afa1580156132a2573d6000803e3d6000fd5b505050506040513d601f19601f820116820180604052508101906132c69190614cf5565b905060008373ffffffffffffffffffffffffffffffffffffffff1663857909456040518163ffffffff1660e01b815260040160206040518083038186803b15801561331057600080fd5b505afa158015613324573d6000803e3d6000fd5b505050506040513d601f19601f820116820180604052508101906133489190614cf5565b905060006133568484614dd6565b905080607754426133679190614dd6565b101580156133765750607c5482115b801561338457506000607a54115b9550505050505090565b60335473ffffffffffffffffffffffffffffffffffffffff16331461340f576040517f08c379a000000000000000000000000000000000000000000000000000000000815260206004820181905260248201527f4f776e61626c653a2063616c6c6572206973206e6f7420746865206f776e6572604482015260640161095c565b73ffffffffffffffffffffffffffffffffffffffff81166134b2576040517f08c379a000000000000000000000000000000000000000000000000000000000815260206004820152602660248201527f4f776e61626c653a206e6577206f776e657220697320746865207a65726f206160448201527f6464726573730000000000000000000000000000000000000000000000000000606482015260840161095c565b610e89816144ed565b60335473ffffffffffffffffffffffffffffffffffffffff16331461353c576040517f08c379a000000000000000000000000000000000000000000000000000000000815260206004820181905260248201527f4f776e61626c653a2063616c6c6572206973206e6f7420746865206f776e6572604482015260640161095c565b607881905560405181815243907fd8f10b001d80d0f1a24960632b7678bf460573321ed31239086fb92a90221a3e90602001611203565b73ffffffffffffffffffffffffffffffffffffffff8181166000818152607560209081526040808320815160608101835281548152600182015493810193909352600201548282015260695490517f70a082310000000000000000000000000000000000000000000000000000000081526004810194909452909391929116906370a082319060240160206040518083038186803b15801561361457600080fd5b505afa158015613628573d6000803e3d6000fd5b505050506040513d601f19601f8201168201806040525081019061364c9190614cf5565b60695460208401516040517f92386fb500000000000000000000000000000000000000000000000000000000815292935060009273ffffffffffffffffffffffffffffffffffffffff909216916392386fb5916136af9160040190815260200190565b60206040518083038186803b1580156136c757600080fd5b505afa1580156136db573d6000803e3d6000fd5b505050506040513d601f19601f820116820180604052508101906136ff9190614cf5565b905061370b8183614dd6565b851115613774576040517f08c379a000000000000000000000000000000000000000000000000000000000815260206004820152601460248201527f496e73756666696369656e742042616c616e6365000000000000000000000000604482015260640161095c565b848115613977578186106137bd5773ffffffffffffffffffffffffffffffffffffffff851660009081526075602052604081208181556001810182905560020155819003613977565b506069546040517f20eed42900000000000000000000000000000000000000000000000000000000815260048101879052600091829173ffffffffffffffffffffffffffffffffffffffff909116906320eed4299060240160206040518083038186803b15801561382d57600080fd5b505afa158015613841573d6000803e3d6000fd5b505050506040513d601f19601f820116820180604052508101906138659190614cf5565b85602001516138749190614d5a565b6069546040517f92386fb50000000000000000000000000000000000000000000000000000000081526004810183905291925060009173ffffffffffffffffffffffffffffffffffffffff909116906392386fb59060240160206040518083038186803b1580156138e457600080fd5b505afa1580156138f8573d6000803e3d6000fd5b505050506040513d601f19601f8201168201806040525081019061391c9190614cf5565b6040805160608101825291825260208083019485528882015183830190815273ffffffffffffffffffffffffffffffffffffffff8b166000908152607590925291902091518255925160018201559151600290920191909155505b8015610bc357606954610bc39073ffffffffffffffffffffffffffffffffffffffff16863084614117565b73ffffffffffffffffffffffffffffffffffffffff811660009081526075602090815260408083208151606081018352815481526001820154938101939093526002015490820181905260715410801590611148575060400151151592915050565b606d5473ffffffffffffffffffffffffffffffffffffffff16156112d857606d546040517fc66106570000000000000000000000000000000000000000000000000000000081526000600482018190529173ffffffffffffffffffffffffffffffffffffffff169063c66106579060240160206040518083038186803b158015613a8d57600080fd5b505afa158015613aa1573d6000803e3d6000fd5b505050506040513d601f19601f82011682018060405250810190613ac59190614e80565b606d546040517fc66106570000000000000000000000000000000000000000000000000000000081526001600482015291925060009173ffffffffffffffffffffffffffffffffffffffff9091169063c66106579060240160206040518083038186803b158015613b3557600080fd5b505afa158015613b49573d6000803e3d6000fd5b505050506040513d601f19601f82011682018060405250810190613b6d9190614e80565b606554909150600090819073ffffffffffffffffffffffffffffffffffffffff8581169116148015613bb9575060685473ffffffffffffffffffffffffffffffffffffffff8481169116145b15613bc657506001613c14565b60655473ffffffffffffffffffffffffffffffffffffffff8481169116148015613c0a575060685473ffffffffffffffffffffffffffffffffffffffff8581169116145b15613c1457600191505b81600f0b60011480613c29575080600f0b6001145b613c8f576040517f08c379a000000000000000000000000000000000000000000000000000000000815260206004820152601260248201527f496e76616c696420437572766520506f6f6c0000000000000000000000000000604482015260640161095c565b6fffffffffffffffffffffffffffffffff828116700100000000000000000000000000000000918316820217607e819055606d5460408051938304600f90810b85529290920b602084015273ffffffffffffffffffffffffffffffffffffffff16917f828513d9eccf264077e51323c8dd0fa90720141ef138beef5f967e4a7bf25cb8910160405180910390a250505050565b6065546066546040517fbb582d8000000000000000000000000000000000000000000000000000000000815230600482015273ffffffffffffffffffffffffffffffffffffffff9283169290911690600090839063bb582d80906024016040805180830381600087803b158015613d9857600080fd5b505af1158015613dac573d6000803e3d6000fd5b505050506040513d601f19601f82011682018060405250810190613dd09190614e9d565b905060008273ffffffffffffffffffffffffffffffffffffffff1663857909456040518163ffffffff1660e01b815260040160206040518083038186803b158015613e1a57600080fd5b505afa158015613e2e573d6000803e3d6000fd5b505050506040513d601f19601f82011682018060405250810190613e529190614cf5565b905060008260200151118015613e69575081518110155b15611d815760208201516040517f2e1a7d4d000000000000000000000000000000000000000000000000000000008152600481019190915273ffffffffffffffffffffffffffffffffffffffff851690632e1a7d4d90602401600060405180830381600087803b158015613edc57600080fd5b505af1158015613ef0573d6000803e3d6000fd5b505050508160200151607a6000828254613f0a9190614d5a565b90915550506020820151607b8054600090613f26908490614dd6565b909155505050505050565b6065546040517f70a0823100000000000000000000000000000000000000000000000000000000815230600482015273ffffffffffffffffffffffffffffffffffffffff9091169060009082906370a082319060240160206040518083038186803b158015613f9f57600080fd5b505afa158015613fb3573d6000803e3d6000fd5b505050506040513d601f19601f82011682018060405250810190613fd79190614cf5565b90506000838210613fe85783613fea565b815b90508015611d81576040517f9ee679e80000000000000000000000000000000000000000000000000000000081526004810185905273ffffffffffffffffffffffffffffffffffffffff841690639ee679e890602401600060405180830381600087803b15801561405a57600080fd5b505af115801561406e573d6000803e3d6000fd5b5050505050505050565b600054610100900460ff1661410f576040517f08c379a000000000000000000000000000000000000000000000000000000000815260206004820152602b60248201527f496e697469616c697a61626c653a20636f6e7472616374206973206e6f74206960448201527f6e697469616c697a696e67000000000000000000000000000000000000000000606482015260840161095c565b6112d8614625565b60405173ffffffffffffffffffffffffffffffffffffffff80851660248301528316604482015260648101829052611d819085907f23b872dd00000000000000000000000000000000000000000000000000000000906084015b604080517fffffffffffffffffffffffffffffffffffffffffffffffffffffffffffffffe08184030181529190526020810180517bffffffffffffffffffffffffffffffffffffffffffffffffffffffff167fffffffff00000000000000000000000000000000000000000000000000000000909316929092179091526146c5565b6065546040517fb6b55f250000000000000000000000000000000000000000000000000000000081526004810183905273ffffffffffffffffffffffffffffffffffffffff90911690819063b6b55f2590602401610b95565b607d54158015906142745750606c5473ffffffffffffffffffffffffffffffffffffffff1615155b15610e89576000612710607d548361428c9190614f13565b6142969190614f50565b606c54606a54919250610dbc9173ffffffffffffffffffffffffffffffffffffffff908116911683614497565b73ffffffffffffffffffffffffffffffffffffffff8181166000908152607660209081526040808320815160608101835281548152600182015493810193909352600201548282015260665460655491517fbb582d80000000000000000000000000000000000000000000000000000000008152306004820152939492939083169291909116908490829063bb582d80906024016040805180830381600087803b15801561437057600080fd5b505af1158015614384573d6000803e3d6000fd5b505050506040513d601f19601f820116820180604052508101906143a89190614e9d565b905060008373ffffffffffffffffffffffffffffffffffffffff1663857909456040518163ffffffff1660e01b815260040160206040518083038186803b1580156143f257600080fd5b505afa158015614406573d6000803e3d6000fd5b505050506040513d601f19601f8201168201806040525081019061442a9190614cf5565b90508460400151607060010154101580156144485750604085015115155b80156144545750845115155b801561448c57508151811080159061447e57508451607b54602084015161447b9190614dd6565b10155b8061448c57508451607b5410155b979650505050505050565b60405173ffffffffffffffffffffffffffffffffffffffff8316602482015260448101829052610dba9084907fa9059cbb0000000000000000000000000000000000000000000000000000000090606401614171565b6033805473ffffffffffffffffffffffffffffffffffffffff8381167fffffffffffffffffffffffff0000000000000000000000000000000000000000831681179093556040519116919082907f8be0079c531659141344cd1fd0a4f28419497f9722a3daafe3b4186f6b6457e090600090a35050565b60008061456f6147d1565b6068546040517f70a08231000000000000000000000000000000000000000000000000000000008152306004820152919250829173ffffffffffffffffffffffffffffffffffffffff909116906370a082319060240160206040518083038186803b1580156145dd57600080fd5b505afa1580156145f1573d6000803e3d6000fd5b505050506040513d601f19601f820116820180604052508101906146159190614cf5565b61461f9190614dd6565b91505090565b600054610100900460ff166146bc576040517f08c379a000000000000000000000000000000000000000000000000000000000815260206004820152602b60248201527f496e697469616c697a61626c653a20636f6e7472616374206973206e6f74206960448201527f6e697469616c697a696e67000000000000000000000000000000000000000000606482015260840161095c565b6112d8336144ed565b6000614727826040518060400160405280602081526020017f5361666545524332303a206c6f772d6c6576656c2063616c6c206661696c65648152508573ffffffffffffffffffffffffffffffffffffffff166148759092919063ffffffff16565b805190915015610dba57808060200190518101906147459190614d0e565b610dba576040517f08c379a000000000000000000000000000000000000000000000000000000000815260206004820152602a60248201527f5361666545524332303a204552433230206f7065726174696f6e20646964206e60448201527f6f74207375636365656400000000000000000000000000000000000000000000606482015260840161095c565b6065546040517f70a0823100000000000000000000000000000000000000000000000000000000815230600482015260009173ffffffffffffffffffffffffffffffffffffffff169081906370a082319060240160206040518083038186803b15801561483d57600080fd5b505afa158015614851573d6000803e3d6000fd5b505050506040513d601f19601f8201168201806040525081019061461f9190614cf5565b6060614884848460008561488c565b949350505050565b60608247101561491e576040517f08c379a000000000000000000000000000000000000000000000000000000000815260206004820152602660248201527f416464726573733a20696e73756666696369656e742062616c616e636520666f60448201527f722063616c6c0000000000000000000000000000000000000000000000000000606482015260840161095c565b73ffffffffffffffffffffffffffffffffffffffff85163b61499c576040517f08c379a000000000000000000000000000000000000000000000000000000000815260206004820152601d60248201527f416464726573733a2063616c6c20746f206e6f6e2d636f6e7472616374000000604482015260640161095c565b6000808673ffffffffffffffffffffffffffffffffffffffff1685876040516149c59190614fb7565b60006040518083038185875af1925050503d8060008114614a02576040519150601f19603f3d011682016040523d82523d6000602084013e614a07565b606091505b509150915061448c82828660608315614a21575081611148565b825115614a315782518084602001fd5b816040517f08c379a000000000000000000000000000000000000000000000000000000000815260040161095c9190614fd3565b73ffffffffffffffffffffffffffffffffffffffff81168114610e8957600080fd5b600060208284031215614a9957600080fd5b813561114881614a65565b600060208284031215614ab657600080fd5b5035919050565b60008060408385031215614ad057600080fd5b50508035926020909101359150565b8015158114610e8957600080fd5b600060208284031215614aff57600080fd5b813561114881614adf565b60008060008060008060008060008060006101608c8e031215614b2c57600080fd5b8b35614b3781614a65565b9a5060208c0135614b4781614a65565b995060408c0135614b5781614a65565b985060608c0135614b6781614a65565b975060808c0135614b7781614a65565b965060a08c0135614b8781614a65565b955060c08c0135614b9781614a65565b945060e08c0135614ba781614a65565b93506101008c0135614bb881614a65565b809350506101208c013591506101408c013590509295989b509295989b9093969950565b60008060408385031215614bef57600080fd5b823591506020830135614c0181614adf565b809150509250929050565b60008060008084860360e0811215614c2357600080fd5b6080811215614c3157600080fd5b50849350608085013560ff81168114614c4957600080fd5b939693955050505060a08201359160c0013590565b60008060408385031215614c7157600080fd5b823591506020830135614c0181614a65565b60008060208385031215614c9657600080fd5b823567ffffffffffffffff80821115614cae57600080fd5b818501915085601f830112614cc257600080fd5b813581811115614cd157600080fd5b866020828501011115614ce357600080fd5b60209290920196919550909350505050565b600060208284031215614d0757600080fd5b5051919050565b600060208284031215614d2057600080fd5b815161114881614adf565b7f4e487b7100000000000000000000000000000000000000000000000000000000600052601160045260246000fd5b600082821015614d6c57614d6c614d2b565b500390565b843581526020808601359082015260e081016040860135614d9181614a65565b73ffffffffffffffffffffffffffffffffffffffff81166040840152506060860135606083015260ff851660808301528360a08301528260c083015295945050505050565b60008219821115614de957614de9614d2b565b500190565b60007fffffffffffffffffffffffffffffffffffffffffffffffffffffffffffffffff821415614e2057614e20614d2b565b5060010190565b6040815282604082015282846060830137600060608483010152600060607fffffffffffffffffffffffffffffffffffffffffffffffffffffffffffffffe0601f86011683010190508215156020830152949350505050565b600060208284031215614e9257600080fd5b815161114881614a65565b600060408284031215614eaf57600080fd5b6040516040810181811067ffffffffffffffff82111715614ef9577f4e487b7100000000000000000000000000000000000000000000000000000000600052604160045260246000fd5b604052825181526020928301519281019290925250919050565b6000817fffffffffffffffffffffffffffffffffffffffffffffffffffffffffffffffff0483118215151615614f4b57614f4b614d2b565b500290565b600082614f86577f4e487b7100000000000000000000000000000000000000000000000000000000600052601260045260246000fd5b500490565b60005b83811015614fa6578181015183820152602001614f8e565b83811115611d815750506000910152565b60008251614fc9818460208701614f8b565b9190910192915050565b6020815260008251806020840152614ff2816040850160208701614f8b565b601f017fffffffffffffffffffffffffffffffffffffffffffffffffffffffffffffffe016919091016040019291505056fea2646970667358221220b87994f8cec33a751e3d964b4be57032aeec63cb990b586c60ea594e1b0ea4c964736f6c63430008090033",
  "linkReferences": {},
  "deployedLinkReferences": {}
}