{
  "_format": "hh-sol-artifact-1",
  "contractName": "Staking",
  "sourceName": "src/contracts/Staking.sol",
  "abi": [
    {
      "anonymous": false,
      "inputs": [
        {
          "indexed": true,
          "internalType": "address",
          "name": "previousOwner",
          "type": "address"
        },
        {
          "indexed": true,
          "internalType": "address",
          "name": "newOwner",
          "type": "address"
        }
      ],
      "name": "OwnershipTransferred",
      "type": "event"
    },
    {
      "inputs": [],
      "name": "COOL_DOWN_CONTRACT",
      "outputs": [
        {
          "internalType": "address",
          "name": "",
          "type": "address"
        }
      ],
      "stateMutability": "view",
      "type": "function"
    },
    {
      "inputs": [],
      "name": "LIQUIDITY_RESERVE",
      "outputs": [
        {
          "internalType": "address",
          "name": "",
          "type": "address"
        }
      ],
      "stateMutability": "view",
      "type": "function"
    },
    {
      "inputs": [],
      "name": "REWARD_TOKEN",
      "outputs": [
        {
          "internalType": "address",
          "name": "",
          "type": "address"
        }
      ],
      "stateMutability": "view",
      "type": "function"
    },
    {
      "inputs": [],
      "name": "STAKING_TOKEN",
      "outputs": [
        {
          "internalType": "address",
          "name": "",
          "type": "address"
        }
      ],
      "stateMutability": "view",
      "type": "function"
    },
    {
      "inputs": [],
      "name": "TOKE_MANAGER",
      "outputs": [
        {
          "internalType": "address",
          "name": "",
          "type": "address"
        }
      ],
      "stateMutability": "view",
      "type": "function"
    },
    {
      "inputs": [],
      "name": "TOKE_POOL",
      "outputs": [
        {
          "internalType": "address",
          "name": "",
          "type": "address"
        }
      ],
      "stateMutability": "view",
      "type": "function"
    },
    {
      "inputs": [],
      "name": "TOKE_REWARD",
      "outputs": [
        {
          "internalType": "address",
          "name": "",
          "type": "address"
        }
      ],
      "stateMutability": "view",
      "type": "function"
    },
    {
      "inputs": [],
      "name": "TOKE_TOKEN",
      "outputs": [
        {
          "internalType": "address",
          "name": "",
          "type": "address"
        }
      ],
      "stateMutability": "view",
      "type": "function"
    },
    {
      "inputs": [],
      "name": "WARM_UP_CONTRACT",
      "outputs": [
        {
          "internalType": "address",
          "name": "",
          "type": "address"
        }
      ],
      "stateMutability": "view",
      "type": "function"
    },
    {
      "inputs": [
        {
          "internalType": "uint256",
          "name": "_amount",
          "type": "uint256"
        },
        {
          "internalType": "bool",
          "name": "_trigger",
          "type": "bool"
        }
      ],
      "name": "addRewardsForStakers",
      "outputs": [],
      "stateMutability": "nonpayable",
      "type": "function"
    },
    {
      "inputs": [
        {
          "internalType": "address",
          "name": "_recipient",
          "type": "address"
        }
      ],
      "name": "claim",
      "outputs": [],
      "stateMutability": "nonpayable",
      "type": "function"
    },
    {
      "inputs": [
        {
          "components": [
            {
              "internalType": "uint256",
              "name": "chainId",
              "type": "uint256"
            },
            {
              "internalType": "uint256",
              "name": "cycle",
              "type": "uint256"
            },
            {
              "internalType": "address",
              "name": "wallet",
              "type": "address"
            },
            {
              "internalType": "uint256",
              "name": "amount",
              "type": "uint256"
            }
          ],
          "internalType": "struct Recipient",
          "name": "_recipient",
          "type": "tuple"
        },
        {
          "internalType": "uint8",
          "name": "_v",
          "type": "uint8"
        },
        {
          "internalType": "bytes32",
          "name": "_r",
          "type": "bytes32"
        },
        {
          "internalType": "bytes32",
          "name": "_s",
          "type": "bytes32"
        }
      ],
      "name": "claimFromTokemak",
      "outputs": [],
      "stateMutability": "nonpayable",
      "type": "function"
    },
    {
      "inputs": [
        {
          "internalType": "address",
          "name": "_recipient",
          "type": "address"
        }
      ],
      "name": "claimWithdraw",
      "outputs": [],
      "stateMutability": "nonpayable",
      "type": "function"
    },
    {
      "inputs": [
        {
          "internalType": "address",
          "name": "",
          "type": "address"
        }
      ],
      "name": "coolDownInfo",
      "outputs": [
        {
          "internalType": "uint256",
          "name": "amount",
          "type": "uint256"
        },
        {
          "internalType": "uint256",
          "name": "gons",
          "type": "uint256"
        },
        {
          "internalType": "uint256",
          "name": "expiry",
          "type": "uint256"
        }
      ],
      "stateMutability": "view",
      "type": "function"
    },
    {
      "inputs": [],
      "name": "coolDownPeriod",
      "outputs": [
        {
          "internalType": "uint256",
          "name": "",
          "type": "uint256"
        }
      ],
      "stateMutability": "view",
      "type": "function"
    },
    {
      "inputs": [],
      "name": "epoch",
      "outputs": [
        {
          "internalType": "uint256",
          "name": "length",
          "type": "uint256"
        },
        {
          "internalType": "uint256",
          "name": "number",
          "type": "uint256"
        },
        {
          "internalType": "uint256",
          "name": "endBlock",
          "type": "uint256"
        },
        {
          "internalType": "uint256",
          "name": "distribute",
          "type": "uint256"
        }
      ],
      "stateMutability": "view",
      "type": "function"
    },
    {
      "inputs": [
        {
          "internalType": "address",
          "name": "_stakingToken",
          "type": "address"
        },
        {
          "internalType": "address",
          "name": "_rewardToken",
          "type": "address"
        },
        {
          "internalType": "address",
          "name": "_tokeToken",
          "type": "address"
        },
        {
          "internalType": "address",
          "name": "_tokePool",
          "type": "address"
        },
        {
          "internalType": "address",
          "name": "_tokeManager",
          "type": "address"
        },
        {
          "internalType": "address",
          "name": "_tokeReward",
          "type": "address"
        },
        {
          "internalType": "address",
          "name": "_liquidityReserve",
          "type": "address"
        },
        {
          "internalType": "uint256",
          "name": "_epochLength",
          "type": "uint256"
        },
        {
          "internalType": "uint256",
          "name": "_firstEpochNumber",
          "type": "uint256"
        },
        {
          "internalType": "uint256",
          "name": "_firstEpochBlock",
          "type": "uint256"
        },
        {
          "internalType": "uint256",
          "name": "_timeLeftToRequestWithdrawal",
          "type": "uint256"
        }
      ],
      "name": "initialize",
      "outputs": [],
      "stateMutability": "nonpayable",
      "type": "function"
    },
    {
      "inputs": [
        {
          "internalType": "bool",
          "name": "_trigger",
          "type": "bool"
        }
      ],
      "name": "instantUnstake",
      "outputs": [],
      "stateMutability": "nonpayable",
      "type": "function"
    },
    {
      "inputs": [],
      "name": "lastTokeCycleIndex",
      "outputs": [
        {
          "internalType": "uint256",
          "name": "",
          "type": "uint256"
        }
      ],
      "stateMutability": "view",
      "type": "function"
    },
    {
      "inputs": [],
      "name": "owner",
      "outputs": [
        {
          "internalType": "address",
          "name": "",
          "type": "address"
        }
      ],
      "stateMutability": "view",
      "type": "function"
    },
    {
      "inputs": [],
      "name": "pauseInstantUnstaking",
      "outputs": [
        {
          "internalType": "bool",
          "name": "",
          "type": "bool"
        }
      ],
      "stateMutability": "view",
      "type": "function"
    },
    {
      "inputs": [],
      "name": "pauseStaking",
      "outputs": [
        {
          "internalType": "bool",
          "name": "",
          "type": "bool"
        }
      ],
      "stateMutability": "view",
      "type": "function"
    },
    {
      "inputs": [],
      "name": "pauseUnstaking",
      "outputs": [
        {
          "internalType": "bool",
          "name": "",
          "type": "bool"
        }
      ],
      "stateMutability": "view",
      "type": "function"
    },
    {
      "inputs": [],
      "name": "rebase",
      "outputs": [],
      "stateMutability": "nonpayable",
      "type": "function"
    },
    {
      "inputs": [],
      "name": "renounceOwnership",
      "outputs": [],
      "stateMutability": "nonpayable",
      "type": "function"
    },
    {
      "inputs": [],
      "name": "requestWithdrawalAmount",
      "outputs": [
        {
          "internalType": "uint256",
          "name": "",
          "type": "uint256"
        }
      ],
      "stateMutability": "view",
      "type": "function"
    },
    {
      "inputs": [],
      "name": "sendWithdrawalRequests",
      "outputs": [],
      "stateMutability": "nonpayable",
      "type": "function"
    },
    {
      "inputs": [
        {
          "internalType": "uint256",
          "name": "_vestingPeriod",
          "type": "uint256"
        }
      ],
      "name": "setCoolDownPeriod",
      "outputs": [],
      "stateMutability": "nonpayable",
      "type": "function"
    },
    {
      "inputs": [
        {
          "internalType": "uint256",
          "name": "length",
          "type": "uint256"
        }
      ],
      "name": "setEpochLength",
      "outputs": [],
      "stateMutability": "nonpayable",
      "type": "function"
    },
    {
      "inputs": [
        {
          "internalType": "uint256",
          "name": "_timestamp",
          "type": "uint256"
        }
      ],
      "name": "setTimeLeftToRequestWithdrawal",
      "outputs": [],
      "stateMutability": "nonpayable",
      "type": "function"
    },
    {
      "inputs": [
        {
          "internalType": "uint256",
          "name": "_vestingPeriod",
          "type": "uint256"
        }
      ],
      "name": "setWarmUpPeriod",
      "outputs": [],
      "stateMutability": "nonpayable",
      "type": "function"
    },
    {
      "inputs": [
        {
          "internalType": "bool",
          "name": "_shouldPause",
          "type": "bool"
        }
      ],
      "name": "shouldPauseInstantUnstaking",
      "outputs": [],
      "stateMutability": "nonpayable",
      "type": "function"
    },
    {
      "inputs": [
        {
          "internalType": "bool",
          "name": "_shouldPause",
          "type": "bool"
        }
      ],
      "name": "shouldPauseStaking",
      "outputs": [],
      "stateMutability": "nonpayable",
      "type": "function"
    },
    {
      "inputs": [
        {
          "internalType": "bool",
          "name": "_shouldPause",
          "type": "bool"
        }
      ],
      "name": "shouldPauseUnstaking",
      "outputs": [],
      "stateMutability": "nonpayable",
      "type": "function"
    },
    {
      "inputs": [
        {
          "internalType": "uint256",
          "name": "_amount",
          "type": "uint256"
        },
        {
          "internalType": "address",
          "name": "_recipient",
          "type": "address"
        }
      ],
      "name": "stake",
      "outputs": [],
      "stateMutability": "nonpayable",
      "type": "function"
    },
    {
      "inputs": [
        {
          "internalType": "uint256",
          "name": "_amount",
          "type": "uint256"
        }
      ],
      "name": "stake",
      "outputs": [],
      "stateMutability": "nonpayable",
      "type": "function"
    },
    {
      "inputs": [],
      "name": "timeLeftToRequestWithdrawal",
      "outputs": [
        {
          "internalType": "uint256",
          "name": "",
          "type": "uint256"
        }
      ],
      "stateMutability": "view",
      "type": "function"
    },
    {
      "inputs": [
        {
          "internalType": "address",
          "name": "newOwner",
          "type": "address"
        }
      ],
      "name": "transferOwnership",
      "outputs": [],
      "stateMutability": "nonpayable",
      "type": "function"
    },
    {
      "inputs": [
        {
          "internalType": "address",
          "name": "_claimAddress",
          "type": "address"
        }
      ],
      "name": "transferToke",
      "outputs": [],
      "stateMutability": "nonpayable",
      "type": "function"
    },
    {
      "inputs": [
        {
          "internalType": "uint256",
          "name": "_amount",
          "type": "uint256"
        },
        {
          "internalType": "bool",
          "name": "_trigger",
          "type": "bool"
        }
      ],
      "name": "unstake",
      "outputs": [],
      "stateMutability": "nonpayable",
      "type": "function"
    },
    {
      "inputs": [],
      "name": "unstakeAllFromTokemak",
      "outputs": [],
      "stateMutability": "nonpayable",
      "type": "function"
    },
    {
      "inputs": [
        {
          "internalType": "address",
          "name": "",
          "type": "address"
        }
      ],
      "name": "warmUpInfo",
      "outputs": [
        {
          "internalType": "uint256",
          "name": "amount",
          "type": "uint256"
        },
        {
          "internalType": "uint256",
          "name": "gons",
          "type": "uint256"
        },
        {
          "internalType": "uint256",
          "name": "expiry",
          "type": "uint256"
        }
      ],
      "stateMutability": "view",
      "type": "function"
    },
    {
      "inputs": [],
      "name": "warmUpPeriod",
      "outputs": [
        {
          "internalType": "uint256",
          "name": "",
          "type": "uint256"
        }
      ],
      "stateMutability": "view",
      "type": "function"
    },
    {
      "inputs": [],
      "name": "withdrawalAmount",
      "outputs": [
        {
          "internalType": "uint256",
          "name": "",
          "type": "uint256"
        }
      ],
      "stateMutability": "view",
      "type": "function"
    }
  ],
  "bytecode": "0x608060405234801561001057600080fd5b506147dd806100206000396000f3fe60806040523480156200001157600080fd5b5060043610620003315760003560e01c8063736f616b11620001b1578063af14052c11620000f5578063e2a8179d11620000a3578063f2fde38b116200007a578063f2fde38b14620007a5578063f999c50614620007bc578063f9a571a214620007e257600080fd5b8063e2a8179d1462000759578063e6e268f4146200077a578063ed295509146200078457600080fd5b8063b736ca8211620000d8578063b736ca821462000717578063b8e4b244146200072e578063c9d4f350146200074f57600080fd5b8063af14052c14620006ec578063b09881cc14620006f657600080fd5b80638da5cb5b116200015f57806399248ea7116200013657806399248ea7146200069d5780639ebea88c14620006be578063a694fc3a14620006d557600080fd5b80638da5cb5b146200063c578063900cf0cf146200065b5780639776cb78146200069357600080fd5b80637fa91eba11620001945780637fa91eba14620005e9578063820c6f5b1462000600578063823a46a1146200063257600080fd5b8063736f616b14620005bb5780637acb775714620005d257600080fd5b806337df07ee1162000279578063516c49d911620002275780635b3112fc11620001fe5780635b3112fc146200059057806368d8f51414620005a7578063715018a614620005b157600080fd5b8063516c49d9146200054b57806354d4be5a146200056257806354eea796146200057957600080fd5b80633f69d130116200025c5780633f69d13014620005065780634baa0cd2146200051d5780634bbce08b146200053457600080fd5b806337df07ee14620004e55780633897e22b14620004ef57600080fd5b80631b618cc011620002e357806326d8b9ae11620002ba57806326d8b9ae146200049257806328ebcda114620004ba57806330f1ebb914620004db57600080fd5b80631b618cc014620003f55780631c4e6ab714620004435780631e83409a146200047b57600080fd5b80630a8dd5e611620003185780630a8dd5e614620003a25780631078167914620003bb578063156c46bf14620003dc57600080fd5b80630479d6441462000336578063050c486c1462000381575b600080fd5b606854620003579073ffffffffffffffffffffffffffffffffffffffff1681565b60405173ffffffffffffffffffffffffffffffffffffffff90911681526020015b60405180910390f35b606a54620003579073ffffffffffffffffffffffffffffffffffffffff1681565b620003b9620003b336600462003f4d565b620007f9565b005b606554620003579073ffffffffffffffffffffffffffffffffffffffff1681565b620003e660745481565b60405190815260200162000378565b620004276200040636600462003f97565b60736020526000908152604090208054600182015460029092015490919083565b6040805193845260208401929092529082015260600162000378565b606d546200046a907501000000000000000000000000000000000000000000900460ff1681565b604051901515815260200162000378565b620003b96200048c36600462003f97565b62000d5b565b606d546200046a90760100000000000000000000000000000000000000000000900460ff1681565b606b54620003579073ffffffffffffffffffffffffffffffffffffffff1681565b620003e660765481565b620003b962000f20565b620003b96200050036600462003f4d565b62000ff8565b620003b96200051736600462003f4d565b620010c6565b620003b96200052e36600462003fb5565b62001195565b620003b96200054536600462003fe8565b6200129a565b620003b96200055c36600462003f97565b620013a5565b620003b96200057336600462003f97565b62001593565b620003b96200058a3660046200403d565b62001764565b620003b9620005a13660046200403d565b620017ec565b620003b962001874565b620003b9620019bf565b620003b9620005cc3660046200403d565b62001a4e565b620003b9620005e336600462004057565b62001ad6565b620003b9620005fa36600462003f4d565b62001e7c565b620004276200061136600462003f97565b60726020526000908152604090208054600182015460029092015490919083565b620003e660775481565b60335473ffffffffffffffffffffffffffffffffffffffff1662000357565b606e54606f54607054607154620006729392919084565b60408051948552602085019390935291830152606082015260800162000378565b620003e660755481565b606954620003579073ffffffffffffffffffffffffffffffffffffffff1681565b620003b9620006cf36600462003fb5565b62001f49565b620003b9620006e63660046200403d565b6200217e565b620003b96200218d565b606754620003579073ffffffffffffffffffffffffffffffffffffffff1681565b620003b96200072836600462004086565b62002352565b606d54620003579073ffffffffffffffffffffffffffffffffffffffff1681565b620003e660795481565b606654620003579073ffffffffffffffffffffffffffffffffffffffff1681565b620003e660785481565b606c54620003579073ffffffffffffffffffffffffffffffffffffffff1681565b620003b9620007b636600462003f97565b62002979565b606d546200046a9074010000000000000000000000000000000000000000900460ff1681565b620003b9620007f33660046200403d565b62002aac565b606d547501000000000000000000000000000000000000000000900460ff16158015620008435750606d54760100000000000000000000000000000000000000000000900460ff16155b620008af576040517f08c379a000000000000000000000000000000000000000000000000000000000815260206004820152601360248201527f556e7374616b696e67206973207061757365640000000000000000000000000060448201526064015b60405180910390fd5b8015620008c057620008c06200218d565b336000818152607260209081526040808320815160608101835281548152600182015493810193909352600201548282015260695490517f70a082310000000000000000000000000000000000000000000000000000000081526004810194909452909273ffffffffffffffffffffffffffffffffffffffff909116906370a082319060240160206040518083038186803b1580156200095f57600080fd5b505afa15801562000974573d6000803e3d6000fd5b505050506040513d601f19601f820116820180604052508101906200099a919062004145565b60695460208401516040517f7965d56d00000000000000000000000000000000000000000000000000000000815292935060009273ffffffffffffffffffffffffffffffffffffffff90921691637965d56d91620009fe9160040190815260200190565b60206040518083038186803b15801562000a1757600080fd5b505afa15801562000a2c573d6000803e3d6000fd5b505050506040513d601f19601f8201168201806040525081019062000a52919062004145565b9050600062000a6283836200418e565b606854606b546040517f70a0823100000000000000000000000000000000000000000000000000000000815273ffffffffffffffffffffffffffffffffffffffff91821660048201529293506000929116906370a082319060240160206040518083038186803b15801562000ad657600080fd5b505afa15801562000aeb573d6000803e3d6000fd5b505050506040513d601f19601f8201168201806040525081019062000b11919062004145565b90508162000b7c576040517f08c379a000000000000000000000000000000000000000000000000000000000815260206004820152601760248201527f4d75737420686176652072657761726420746f6b656e730000000000000000006044820152606401620008a6565b8181101562000be8576040517f08c379a000000000000000000000000000000000000000000000000000000000815260206004820152601b60248201527f4e6f7420656e6f7567682066756e647320696e207265736572766500000000006044820152606401620008a6565b821562000c9957606c546040517fc3a2a6650000000000000000000000000000000000000000000000000000000081523060048201526024810185905273ffffffffffffffffffffffffffffffffffffffff9091169063c3a2a66590604401600060405180830381600087803b15801562000c6257600080fd5b505af115801562000c77573d6000803e3d6000fd5b5050336000908152607260205260408120818155600181018290556002015550505b831562000cc75760695462000cc79073ffffffffffffffffffffffffffffffffffffffff1633308762002b34565b606b546040517fbbb6a9830000000000000000000000000000000000000000000000000000000081526004810184905233602482015273ffffffffffffffffffffffffffffffffffffffff9091169063bbb6a98390604401600060405180830381600087803b15801562000d3a57600080fd5b505af115801562000d4f573d6000803e3d6000fd5b50505050505050505050565b73ffffffffffffffffffffffffffffffffffffffff8116600090815260726020908152604091829020825160608101845281548152600182015492810192909252600201549181019190915262000db28262002c12565b1562000f1c5773ffffffffffffffffffffffffffffffffffffffff82811660009081526072602090815260408083208381556001810184905560020192909255606c546069549185015192517f7965d56d000000000000000000000000000000000000000000000000000000008152600481019390935283169263c3a2a66592869290911690637965d56d9060240160206040518083038186803b15801562000e5a57600080fd5b505afa15801562000e6f573d6000803e3d6000fd5b505050506040513d601f19601f8201168201806040525081019062000e95919062004145565b6040517fffffffff0000000000000000000000000000000000000000000000000000000060e085901b16815273ffffffffffffffffffffffffffffffffffffffff909216600483015260248201526044015b600060405180830381600087803b15801562000f0257600080fd5b505af115801562000f17573d6000803e3d6000fd5b505050505b5050565b62000f2a62002c78565b1562000ff65762000f3a62002e7b565b60665460775473ffffffffffffffffffffffffffffffffffffffff909116901562000f6c5762000f6c6077546200309a565b60008173ffffffffffffffffffffffffffffffffffffffff1663857909456040518163ffffffff1660e01b815260040160206040518083038186803b15801562000fb557600080fd5b505afa15801562000fca573d6000803e3d6000fd5b505050506040513d601f19601f8201168201806040525081019062000ff0919062004145565b60795550505b565b60335473ffffffffffffffffffffffffffffffffffffffff1633146200107b576040517f08c379a000000000000000000000000000000000000000000000000000000000815260206004820181905260248201527f4f776e61626c653a2063616c6c6572206973206e6f7420746865206f776e65726044820152606401620008a6565b606d80549115157501000000000000000000000000000000000000000000027fffffffffffffffffffff00ffffffffffffffffffffffffffffffffffffffffff909216919091179055565b60335473ffffffffffffffffffffffffffffffffffffffff16331462001149576040517f08c379a000000000000000000000000000000000000000000000000000000000815260206004820181905260248201527f4f776e61626c653a2063616c6c6572206973206e6f7420746865206f776e65726044820152606401620008a6565b606d8054911515760100000000000000000000000000000000000000000000027fffffffffffffffffff00ffffffffffffffffffffffffffffffffffffffffffff909216919091179055565b606854620011bc9073ffffffffffffffffffffffffffffffffffffffff1633308562002b34565b6068546040517f70a0823100000000000000000000000000000000000000000000000000000000815230600482015260009173ffffffffffffffffffffffffffffffffffffffff16906370a082319060240160206040518083038186803b1580156200122757600080fd5b505afa1580156200123c573d6000803e3d6000fd5b505050506040513d601f19601f8201168201806040525081019062001262919062004145565b9050600060785482620012769190620041a9565b90506200128381620030f4565b82156200129457620012946200218d565b50505050565b60008460600135116200130a576040517f08c379a000000000000000000000000000000000000000000000000000000000815260206004820152601760248201527f4d75737420656e7465722076616c696420616d6f756e740000000000000000006044820152606401620008a6565b6067546040517fe1fc869100000000000000000000000000000000000000000000000000000000815273ffffffffffffffffffffffffffffffffffffffff90911690819063e1fc8691906200136a908890889088908890600401620041c3565b600060405180830381600087803b1580156200138557600080fd5b505af11580156200139a573d6000803e3d6000fd5b505050505050505050565b73ffffffffffffffffffffffffffffffffffffffff818116600090815260736020908152604080832081516060810183528154815260018201549381018490526002909101548183015260695491517f7965d56d0000000000000000000000000000000000000000000000000000000081526004810193909352931690637965d56d9060240160206040518083038186803b1580156200144457600080fd5b505afa15801562001459573d6000803e3d6000fd5b505050506040513d601f19601f820116820180604052508101906200147f919062004145565b90506200148c836200314e565b156200158e576200149c62002e7b565b73ffffffffffffffffffffffffffffffffffffffff808416600090815260736020526040812081815560018101829055600201558251606854620014e4921690859062003331565b606d546040517fc3a2a6650000000000000000000000000000000000000000000000000000000081523060048201526024810183905273ffffffffffffffffffffffffffffffffffffffff9091169063c3a2a66590604401600060405180830381600087803b1580156200155757600080fd5b505af11580156200156c573d6000803e3d6000fd5b50505050816000015160786000828254620015889190620041a9565b90915550505b505050565b60335473ffffffffffffffffffffffffffffffffffffffff16331462001616576040517f08c379a000000000000000000000000000000000000000000000000000000000815260206004820181905260248201527f4f776e61626c653a2063616c6c6572206973206e6f7420746865206f776e65726044820152606401620008a6565b73ffffffffffffffffffffffffffffffffffffffff811662001695576040517f08c379a000000000000000000000000000000000000000000000000000000000815260206004820152600f60248201527f496e76616c6964206164647265737300000000000000000000000000000000006044820152606401620008a6565b606a546040517f70a0823100000000000000000000000000000000000000000000000000000000815230600482015260009173ffffffffffffffffffffffffffffffffffffffff16906370a082319060240160206040518083038186803b1580156200170057600080fd5b505afa15801562001715573d6000803e3d6000fd5b505050506040513d601f19601f820116820180604052508101906200173b919062004145565b606a5490915062000f1c9073ffffffffffffffffffffffffffffffffffffffff16838362003331565b60335473ffffffffffffffffffffffffffffffffffffffff163314620017e7576040517f08c379a000000000000000000000000000000000000000000000000000000000815260206004820181905260248201527f4f776e61626c653a2063616c6c6572206973206e6f7420746865206f776e65726044820152606401620008a6565b606e55565b60335473ffffffffffffffffffffffffffffffffffffffff1633146200186f576040517f08c379a000000000000000000000000000000000000000000000000000000000815260206004820181905260248201527f4f776e61626c653a2063616c6c6572206973206e6f7420746865206f776e65726044820152606401620008a6565b607455565b60335473ffffffffffffffffffffffffffffffffffffffff163314620018f7576040517f08c379a000000000000000000000000000000000000000000000000000000000815260206004820181905260248201527f4f776e61626c653a2063616c6c6572206973206e6f7420746865206f776e65726044820152606401620008a6565b6065546040517f70a0823100000000000000000000000000000000000000000000000000000000815230600482015273ffffffffffffffffffffffffffffffffffffffff9091169060009082906370a082319060240160206040518083038186803b1580156200196657600080fd5b505afa1580156200197b573d6000803e3d6000fd5b505050506040513d601f19601f82011682018060405250810190620019a1919062004145565b9050620019af600162001e7c565b607781905562000f1c816200309a565b60335473ffffffffffffffffffffffffffffffffffffffff16331462001a42576040517f08c379a000000000000000000000000000000000000000000000000000000000815260206004820181905260248201527f4f776e61626c653a2063616c6c6572206973206e6f7420746865206f776e65726044820152606401620008a6565b62000ff6600062003389565b60335473ffffffffffffffffffffffffffffffffffffffff16331462001ad1576040517f08c379a000000000000000000000000000000000000000000000000000000000815260206004820181905260248201527f4f776e61626c653a2063616c6c6572206973206e6f7420746865206f776e65726044820152606401620008a6565b607655565b606d5474010000000000000000000000000000000000000000900460ff161562001b5d576040517f08c379a000000000000000000000000000000000000000000000000000000000815260206004820152601160248201527f5374616b696e67206973207061757365640000000000000000000000000000006044820152606401620008a6565b6000821162001bc9576040517f08c379a000000000000000000000000000000000000000000000000000000000815260206004820152601660248201527f4d75737420686176652076616c696420616d6f756e74000000000000000000006044820152606401620008a6565b606954604080517f9358928b000000000000000000000000000000000000000000000000000000008152905160009273ffffffffffffffffffffffffffffffffffffffff1691639358928b916004808301926020929190829003018186803b15801562001c3557600080fd5b505afa15801562001c4a573d6000803e3d6000fd5b505050506040513d601f19601f8201168201806040525081019062001c70919062004145565b9050801562001c835762001c836200218d565b60685462001caa9073ffffffffffffffffffffffffffffffffffffffff1633308662002b34565b73ffffffffffffffffffffffffffffffffffffffff8216600090815260726020526040902062001cda8362002c12565b1562001ceb5762001ceb8362000d5b565b62001cf684620030f4565b60755462001d2a5760695462001d249073ffffffffffffffffffffffffffffffffffffffff16848662003331565b62001294565b604051806060016040528085836000015462001d4791906200418e565b81526069546040517f1bd396740000000000000000000000000000000000000000000000000000000081526004810188905260209092019173ffffffffffffffffffffffffffffffffffffffff90911690631bd396749060240160206040518083038186803b15801562001dba57600080fd5b505afa15801562001dcf573d6000803e3d6000fd5b505050506040513d601f19601f8201168201806040525081019062001df5919062004145565b836001015462001e0691906200418e565b8152602001607554606e6001015462001e2091906200418e565b905273ffffffffffffffffffffffffffffffffffffffff80851660009081526072602090815260409182902084518155908401516001820155920151600290920191909155606c54606954620012949290811691168662003331565b60335473ffffffffffffffffffffffffffffffffffffffff16331462001eff576040517f08c379a000000000000000000000000000000000000000000000000000000000815260206004820181905260248201527f4f776e61626c653a2063616c6c6572206973206e6f7420746865206f776e65726044820152606401620008a6565b606d805491151574010000000000000000000000000000000000000000027fffffffffffffffffffffff00ffffffffffffffffffffffffffffffffffffffff909216919091179055565b606d547501000000000000000000000000000000000000000000900460ff161562001fd1576040517f08c379a000000000000000000000000000000000000000000000000000000000815260206004820152601360248201527f556e7374616b696e6720697320706175736564000000000000000000000000006044820152606401620008a6565b801562001fe25762001fe26200218d565b62001fee823362003400565b336000818152607360205260409020906200200990620013a5565b60405180606001604052808483600001546200202691906200418e565b81526069546040517f1bd396740000000000000000000000000000000000000000000000000000000081526004810187905260209092019173ffffffffffffffffffffffffffffffffffffffff90911690631bd396749060240160206040518083038186803b1580156200209957600080fd5b505afa158015620020ae573d6000803e3d6000fd5b505050506040513d601f19601f82011682018060405250810190620020d4919062004145565b8360010154620020e591906200418e565b8152602001607654606e60010154620020ff91906200418e565b905233600090815260736020908152604080832084518155918401516001830155929092015160029092019190915560778054859290620021429084906200418e565b9091555062002152905062000f20565b606d546069546200158e9173ffffffffffffffffffffffffffffffffffffffff91821691168562003331565b6200218a813362001ad6565b50565b607054431062000ff657606954607154606f546040517f058ecdb40000000000000000000000000000000000000000000000000000000081526004810192909252602482015273ffffffffffffffffffffffffffffffffffffffff9091169063058ecdb490604401602060405180830381600087803b1580156200221057600080fd5b505af115801562002225573d6000803e3d6000fd5b505050506040513d601f19601f820116820180604052508101906200224b919062004145565b50606e546070546200225e91906200418e565b607055606f8054906000620022738362004226565b919050555060006200228462003965565b90506000606960009054906101000a900473ffffffffffffffffffffffffffffffffffffffff1673ffffffffffffffffffffffffffffffffffffffff16639358928b6040518163ffffffff1660e01b815260040160206040518083038186803b158015620022f157600080fd5b505afa15801562002306573d6000803e3d6000fd5b505050506040513d601f19601f820116820180604052508101906200232c919062004145565b90508082116200233f5760006071555050565b6200234b8183620041a9565b6071555050565b600054610100900460ff166200236f5760005460ff161562002373565b303b155b62002401576040517f08c379a000000000000000000000000000000000000000000000000000000000815260206004820152602e60248201527f496e697469616c697a61626c653a20636f6e747261637420697320616c72656160448201527f647920696e697469616c697a65640000000000000000000000000000000000006064820152608401620008a6565b600054610100900460ff161580156200244157600080547fffffffffffffffffffffffffffffffffffffffffffffffffffffffffffff0000166101011790555b6200244b62003a2e565b73ffffffffffffffffffffffffffffffffffffffff8c161580159062002486575073ffffffffffffffffffffffffffffffffffffffff8b1615155b8015620024a8575073ffffffffffffffffffffffffffffffffffffffff8a1615155b8015620024ca575073ffffffffffffffffffffffffffffffffffffffff891615155b8015620024ec575073ffffffffffffffffffffffffffffffffffffffff881615155b80156200250e575073ffffffffffffffffffffffffffffffffffffffff871615155b801562002530575073ffffffffffffffffffffffffffffffffffffffff861615155b62002598576040517f08c379a000000000000000000000000000000000000000000000000000000000815260206004820152600f60248201527f496e76616c6964206164647265737300000000000000000000000000000000006044820152606401620008a6565b606880547fffffffffffffffffffffffff000000000000000000000000000000000000000090811673ffffffffffffffffffffffffffffffffffffffff8f8116919091179092556069805482168e8416908117909155606a805483168e85161790556065805483168d85161790556066805483168c85161790556067805483168b8516179055606b805490921692891692909217905560748390556040516000913091620026469062003f30565b73ffffffffffffffffffffffffffffffffffffffff928316815291166020820152604001604051809103906000f08015801562002687573d6000803e3d6000fd5b50606c80547fffffffffffffffffffffffff00000000000000000000000000000000000000001673ffffffffffffffffffffffffffffffffffffffff8381169190911790915560695460405192935060009230929190911690620026eb9062003f30565b73ffffffffffffffffffffffffffffffffffffffff928316815291166020820152604001604051809103906000f0801580156200272c573d6000803e3d6000fd5b50606d80547fffffffffffffffffffffffff00000000000000000000000000000000000000001673ffffffffffffffffffffffffffffffffffffffff838116919091179091556068546065546040517f095ea7b300000000000000000000000000000000000000000000000000000000815290831660048201527fffffffffffffffffffffffffffffffffffffffffffffffffffffffffffffffff6024820152929350169063095ea7b390604401602060405180830381600087803b158015620027f557600080fd5b505af11580156200280a573d6000803e3d6000fd5b505050506040513d601f19601f8201168201806040525081019062002830919062004262565b50606954606b546040517f095ea7b300000000000000000000000000000000000000000000000000000000815273ffffffffffffffffffffffffffffffffffffffff91821660048201527fffffffffffffffffffffffffffffffffffffffffffffffffffffffffffffffff602482015291169063095ea7b390604401602060405180830381600087803b158015620028c757600080fd5b505af1158015620028dc573d6000803e3d6000fd5b505050506040513d601f19601f8201168201806040525081019062002902919062004262565b5050604080516080810182528781526020810187905290810185905260006060909101819052606e879055606f86905560708590556071555080156200296b57600080547fffffffffffffffffffffffffffffffffffffffffffffffffffffffffffff00ff1690555b505050505050505050505050565b60335473ffffffffffffffffffffffffffffffffffffffff163314620029fc576040517f08c379a000000000000000000000000000000000000000000000000000000000815260206004820181905260248201527f4f776e61626c653a2063616c6c6572206973206e6f7420746865206f776e65726044820152606401620008a6565b73ffffffffffffffffffffffffffffffffffffffff811662002aa1576040517f08c379a000000000000000000000000000000000000000000000000000000000815260206004820152602660248201527f4f776e61626c653a206e6577206f776e657220697320746865207a65726f206160448201527f64647265737300000000000000000000000000000000000000000000000000006064820152608401620008a6565b6200218a8162003389565b60335473ffffffffffffffffffffffffffffffffffffffff16331462002b2f576040517f08c379a000000000000000000000000000000000000000000000000000000000815260206004820181905260248201527f4f776e61626c653a2063616c6c6572206973206e6f7420746865206f776e65726044820152606401620008a6565b607555565b60405173ffffffffffffffffffffffffffffffffffffffff80851660248301528316604482015260648101829052620012949085907f23b872dd00000000000000000000000000000000000000000000000000000000906084015b604080517fffffffffffffffffffffffffffffffffffffffffffffffffffffffffffffffe08184030181529190526020810180517bffffffffffffffffffffffffffffffffffffffffffffffffffffffff167fffffffff000000000000000000000000000000000000000000000000000000009093169290921790915262003ad1565b73ffffffffffffffffffffffffffffffffffffffff8116600090815260726020908152604080832081516060810183528154815260018201549381019390935260020154908201819052606f541080159062002c715750604081015115155b9392505050565b606654604080517fbd5da9ac000000000000000000000000000000000000000000000000000000008152905160009273ffffffffffffffffffffffffffffffffffffffff16918391839163bd5da9ac916004808301926020929190829003018186803b15801562002ce857600080fd5b505afa15801562002cfd573d6000803e3d6000fd5b505050506040513d601f19601f8201168201806040525081019062002d23919062004145565b905060008273ffffffffffffffffffffffffffffffffffffffff1663be26ed7f6040518163ffffffff1660e01b815260040160206040518083038186803b15801562002d6e57600080fd5b505afa15801562002d83573d6000803e3d6000fd5b505050506040513d601f19601f8201168201806040525081019062002da9919062004145565b905060008373ffffffffffffffffffffffffffffffffffffffff1663857909456040518163ffffffff1660e01b815260040160206040518083038186803b15801562002df457600080fd5b505afa15801562002e09573d6000803e3d6000fd5b505050506040513d601f19601f8201168201806040525081019062002e2f919062004145565b9050600062002e3f84846200418e565b9050806074544262002e5291906200418e565b1015801562002e62575060795482115b801562002e7157506000607754115b9550505050505090565b6065546066546040517fbb582d8000000000000000000000000000000000000000000000000000000000815230600482015273ffffffffffffffffffffffffffffffffffffffff9283169290911690600090839063bb582d80906024016040805180830381600087803b15801562002ef257600080fd5b505af115801562002f07573d6000803e3d6000fd5b505050506040513d601f19601f8201168201806040525081019062002f2d919062004282565b905060008273ffffffffffffffffffffffffffffffffffffffff1663857909456040518163ffffffff1660e01b815260040160206040518083038186803b15801562002f7857600080fd5b505afa15801562002f8d573d6000803e3d6000fd5b505050506040513d601f19601f8201168201806040525081019062002fb3919062004145565b90506000826020015111801562002fcb575081518110155b15620012945760208201516040517f2e1a7d4d000000000000000000000000000000000000000000000000000000008152600481019190915273ffffffffffffffffffffffffffffffffffffffff851690632e1a7d4d90602401600060405180830381600087803b1580156200304057600080fd5b505af115801562003055573d6000803e3d6000fd5b50505050816020015160776000828254620030719190620041a9565b90915550506020820151607880546000906200308f9084906200418e565b909155505050505050565b6065546040517f9ee679e80000000000000000000000000000000000000000000000000000000081526004810183905273ffffffffffffffffffffffffffffffffffffffff909116908190639ee679e89060240162000ee7565b6065546040517fb6b55f250000000000000000000000000000000000000000000000000000000081526004810183905273ffffffffffffffffffffffffffffffffffffffff90911690819063b6b55f259060240162000ee7565b73ffffffffffffffffffffffffffffffffffffffff8181166000908152607360209081526040808320815160608101835281548152600182015493810193909352600201548282015260665460655491517fbb582d80000000000000000000000000000000000000000000000000000000008152306004820152939492939083169291909116908490829063bb582d80906024016040805180830381600087803b158015620031fc57600080fd5b505af115801562003211573d6000803e3d6000fd5b505050506040513d601f19601f8201168201806040525081019062003237919062004282565b905060008373ffffffffffffffffffffffffffffffffffffffff1663857909456040518163ffffffff1660e01b815260040160206040518083038186803b1580156200328257600080fd5b505afa15801562003297573d6000803e3d6000fd5b505050506040513d601f19601f82011682018060405250810190620032bd919062004145565b90508460400151606e6001015410158015620032dc5750604085015115155b8015620032e95750845115155b801562003326575081518110801590620033175750845160785460208401516200331491906200418e565b10155b80620033265750845160785410155b979650505050505050565b60405173ffffffffffffffffffffffffffffffffffffffff83166024820152604481018290526200158e9084907fa9059cbb000000000000000000000000000000000000000000000000000000009060640162002b8f565b6033805473ffffffffffffffffffffffffffffffffffffffff8381167fffffffffffffffffffffffff0000000000000000000000000000000000000000831681179093556040519116919082907f8be0079c531659141344cd1fd0a4f28419497f9722a3daafe3b4186f6b6457e090600090a35050565b73ffffffffffffffffffffffffffffffffffffffff8181166000818152607260209081526040808320815160608101835281548152600182015493810193909352600201548282015260695490517f70a082310000000000000000000000000000000000000000000000000000000081526004810194909452909391929116906370a082319060240160206040518083038186803b158015620034a257600080fd5b505afa158015620034b7573d6000803e3d6000fd5b505050506040513d601f19601f82011682018060405250810190620034dd919062004145565b60695460208401516040517f7965d56d00000000000000000000000000000000000000000000000000000000815292935060009273ffffffffffffffffffffffffffffffffffffffff90921691637965d56d91620035419160040190815260200190565b60206040518083038186803b1580156200355a57600080fd5b505afa1580156200356f573d6000803e3d6000fd5b505050506040513d601f19601f8201168201806040525081019062003595919062004145565b9050620035a381836200418e565b8511156200360e576040517f08c379a000000000000000000000000000000000000000000000000000000000815260206004820152601460248201527f496e73756666696369656e742042616c616e63650000000000000000000000006044820152606401620008a6565b8481156200393757818610620036e857606c546040517fc3a2a66500000000000000000000000000000000000000000000000000000000815230600482015260248101849052918390039173ffffffffffffffffffffffffffffffffffffffff9091169063c3a2a66590604401600060405180830381600087803b1580156200369657600080fd5b505af1158015620036ab573d6000803e3d6000fd5b50505073ffffffffffffffffffffffffffffffffffffffff8616600090815260726020526040812081815560018101829055600201555062003937565b50606c546040517fc3a2a6650000000000000000000000000000000000000000000000000000000081523060048201526024810187905260009173ffffffffffffffffffffffffffffffffffffffff169063c3a2a66590604401600060405180830381600087803b1580156200375d57600080fd5b505af115801562003772573d6000803e3d6000fd5b50506069546040517f1bd39674000000000000000000000000000000000000000000000000000000008152600481018a90526000935073ffffffffffffffffffffffffffffffffffffffff9091169150631bd396749060240160206040518083038186803b158015620037e457600080fd5b505afa158015620037f9573d6000803e3d6000fd5b505050506040513d601f19601f820116820180604052508101906200381f919062004145565b8560200151620038309190620041a9565b6069546040517f7965d56d0000000000000000000000000000000000000000000000000000000081526004810183905291925060009173ffffffffffffffffffffffffffffffffffffffff90911690637965d56d9060240160206040518083038186803b158015620038a157600080fd5b505afa158015620038b6573d6000803e3d6000fd5b505050506040513d601f19601f82011682018060405250810190620038dc919062004145565b6040805160608101825291825260208083019485528882015183830190815273ffffffffffffffffffffffffffffffffffffffff8b166000908152607290925291902091518255925160018201559151600290920191909155505b801562000f175760695462000f179073ffffffffffffffffffffffffffffffffffffffff1686308462002b34565b6000806200397262003be4565b6068546040517f70a08231000000000000000000000000000000000000000000000000000000008152306004820152919250829173ffffffffffffffffffffffffffffffffffffffff909116906370a082319060240160206040518083038186803b158015620039e157600080fd5b505afa158015620039f6573d6000803e3d6000fd5b505050506040513d601f19601f8201168201806040525081019062003a1c919062004145565b62003a2891906200418e565b91505090565b600054610100900460ff1662003ac7576040517f08c379a000000000000000000000000000000000000000000000000000000000815260206004820152602b60248201527f496e697469616c697a61626c653a20636f6e7472616374206973206e6f74206960448201527f6e697469616c697a696e670000000000000000000000000000000000000000006064820152608401620008a6565b62000ff662003c8c565b600062003b35826040518060400160405280602081526020017f5361666545524332303a206c6f772d6c6576656c2063616c6c206661696c65648152508573ffffffffffffffffffffffffffffffffffffffff1662003d309092919063ffffffff16565b8051909150156200158e578080602001905181019062003b56919062004262565b6200158e576040517f08c379a000000000000000000000000000000000000000000000000000000000815260206004820152602a60248201527f5361666545524332303a204552433230206f7065726174696f6e20646964206e60448201527f6f742073756363656564000000000000000000000000000000000000000000006064820152608401620008a6565b6065546040517f70a0823100000000000000000000000000000000000000000000000000000000815230600482015260009173ffffffffffffffffffffffffffffffffffffffff169081906370a082319060240160206040518083038186803b15801562003c5157600080fd5b505afa15801562003c66573d6000803e3d6000fd5b505050506040513d601f19601f8201168201806040525081019062003a28919062004145565b600054610100900460ff1662003d25576040517f08c379a000000000000000000000000000000000000000000000000000000000815260206004820152602b60248201527f496e697469616c697a61626c653a20636f6e7472616374206973206e6f74206960448201527f6e697469616c697a696e670000000000000000000000000000000000000000006064820152608401620008a6565b62000ff63362003389565b606062003d41848460008562003d49565b949350505050565b60608247101562003ddd576040517f08c379a000000000000000000000000000000000000000000000000000000000815260206004820152602660248201527f416464726573733a20696e73756666696369656e742062616c616e636520666f60448201527f722063616c6c00000000000000000000000000000000000000000000000000006064820152608401620008a6565b73ffffffffffffffffffffffffffffffffffffffff85163b62003e5d576040517f08c379a000000000000000000000000000000000000000000000000000000000815260206004820152601d60248201527f416464726573733a2063616c6c20746f206e6f6e2d636f6e74726163740000006044820152606401620008a6565b6000808673ffffffffffffffffffffffffffffffffffffffff16858760405162003e88919062004329565b60006040518083038185875af1925050503d806000811462003ec7576040519150601f19603f3d011682016040523d82523d6000602084013e62003ecc565b606091505b5091509150620033268282866060831562003ee957508162002c71565b82511562003efa5782518084602001fd5b816040517f08c379a0000000000000000000000000000000000000000000000000000000008152600401620008a6919062004347565b61040d806200439b83390190565b80151581146200218a57600080fd5b60006020828403121562003f6057600080fd5b813562002c718162003f3e565b803573ffffffffffffffffffffffffffffffffffffffff8116811462003f9257600080fd5b919050565b60006020828403121562003faa57600080fd5b62002c718262003f6d565b6000806040838503121562003fc957600080fd5b82359150602083013562003fdd8162003f3e565b809150509250929050565b60008060008084860360e08112156200400057600080fd5b60808112156200400f57600080fd5b50849350608085013560ff811681146200402857600080fd5b939693955050505060a08201359160c0013590565b6000602082840312156200405057600080fd5b5035919050565b600080604083850312156200406b57600080fd5b823591506200407d6020840162003f6d565b90509250929050565b60008060008060008060008060008060006101608c8e031215620040a957600080fd5b620040b48c62003f6d565b9a50620040c460208d0162003f6d565b9950620040d460408d0162003f6d565b9850620040e460608d0162003f6d565b9750620040f460808d0162003f6d565b96506200410460a08d0162003f6d565b95506200411460c08d0162003f6d565b945060e08c013593506101008c013592506101208c013591506101408c013590509295989b509295989b9093969950565b6000602082840312156200415857600080fd5b5051919050565b7f4e487b7100000000000000000000000000000000000000000000000000000000600052601160045260246000fd5b60008219821115620041a457620041a46200415f565b500190565b600082821015620041be57620041be6200415f565b500390565b843581526020808601359082015260e0810173ffffffffffffffffffffffffffffffffffffffff620041f86040880162003f6d565b1660408301526060860135606083015260ff851660808301528360a08301528260c083015295945050505050565b60007fffffffffffffffffffffffffffffffffffffffffffffffffffffffffffffffff8214156200425b576200425b6200415f565b5060010190565b6000602082840312156200427557600080fd5b815162002c718162003f3e565b6000604082840312156200429557600080fd5b6040516040810181811067ffffffffffffffff82111715620042e0577f4e487b7100000000000000000000000000000000000000000000000000000000600052604160045260246000fd5b604052825181526020928301519281019290925250919050565b60005b8381101562004317578181015183820152602001620042fd565b83811115620012945750506000910152565b600082516200433d818460208701620042fa565b9190910192915050565b602081526000825180602084015262004368816040850160208701620042fa565b601f017fffffffffffffffffffffffffffffffffffffffffffffffffffffffffffffffe016919091016040019291505056fe60c060405234801561001057600080fd5b5060405161040d38038061040d83398101604081905261002f916100c4565b6001600160a01b0382161580159061004f57506001600160a01b03811615155b6100915760405162461bcd60e51b815260206004820152600f60248201526e496e76616c6964206164647265737360881b604482015260640160405180910390fd5b6001600160a01b039182166080521660a0526100f7565b80516001600160a01b03811681146100bf57600080fd5b919050565b600080604083850312156100d757600080fd5b6100e0836100a8565b91506100ee602084016100a8565b90509250929050565b60805160a0516102e661012760003960008181604b01526101c101526000818160b0015260ea01526102e66000f3fe608060405234801561001057600080fd5b50600436106100415760003560e01c806399248ea714610046578063c3a2a66514610096578063da19ddfb146100ab575b600080fd5b61006d7f000000000000000000000000000000000000000000000000000000000000000081565b60405173ffffffffffffffffffffffffffffffffffffffff909116815260200160405180910390f35b6100a96100a4366004610242565b6100d2565b005b61006d7f000000000000000000000000000000000000000000000000000000000000000081565b3373ffffffffffffffffffffffffffffffffffffffff7f00000000000000000000000000000000000000000000000000000000000000001614610175576040517f08c379a000000000000000000000000000000000000000000000000000000000815260206004820181905260248201527f4e6f742063616c6c65642066726f6d207374616b696e6720636f6e7472616374604482015260640160405180910390fd5b6040517fa9059cbb00000000000000000000000000000000000000000000000000000000815273ffffffffffffffffffffffffffffffffffffffff8381166004830152602482018390527f0000000000000000000000000000000000000000000000000000000000000000169063a9059cbb90604401602060405180830381600087803b15801561020557600080fd5b505af1158015610219573d6000803e3d6000fd5b505050506040513d601f19601f8201168201806040525081019061023d9190610287565b505050565b6000806040838503121561025557600080fd5b823573ffffffffffffffffffffffffffffffffffffffff8116811461027957600080fd5b946020939093013593505050565b60006020828403121561029957600080fd5b815180151581146102a957600080fd5b939250505056fea26469706673582212207ea98e6d63ce6cffc4ed61eb75ea1bff472395deeb4c0f869e4fe40dfbee0e6c64736f6c63430008090033a26469706673582212206f6b3c1286ae234d17069aa1b6f9baef3cc3754db4a9d0e980e2ae0e8c5c32fe64736f6c63430008090033",
  "linkReferences": {},
  "deployedLinkReferences": {}
}