{
  "_format": "hh-sol-artifact-1",
  "contractName": "Staking",
  "sourceName": "src/contracts/Staking.sol",
  "abi": [
    {
      "anonymous": false,
      "inputs": [
        {
          "indexed": true,
          "internalType": "address",
          "name": "previousOwner",
          "type": "address"
        },
        {
          "indexed": true,
          "internalType": "address",
          "name": "newOwner",
          "type": "address"
        }
      ],
      "name": "OwnershipTransferred",
      "type": "event"
    },
    {
      "inputs": [],
      "name": "COOL_DOWN_CONTRACT",
      "outputs": [
        {
          "internalType": "address",
          "name": "",
          "type": "address"
        }
      ],
      "stateMutability": "view",
      "type": "function"
    },
    {
      "inputs": [],
      "name": "LIQUIDITY_RESERVE",
      "outputs": [
        {
          "internalType": "address",
          "name": "",
          "type": "address"
        }
      ],
      "stateMutability": "view",
      "type": "function"
    },
    {
      "inputs": [],
      "name": "REWARD_TOKEN",
      "outputs": [
        {
          "internalType": "address",
          "name": "",
          "type": "address"
        }
      ],
      "stateMutability": "view",
      "type": "function"
    },
    {
      "inputs": [],
      "name": "STAKING_TOKEN",
      "outputs": [
        {
          "internalType": "address",
          "name": "",
          "type": "address"
        }
      ],
      "stateMutability": "view",
      "type": "function"
    },
    {
      "inputs": [],
      "name": "TOKE_MANAGER",
      "outputs": [
        {
          "internalType": "address",
          "name": "",
          "type": "address"
        }
      ],
      "stateMutability": "view",
      "type": "function"
    },
    {
      "inputs": [],
      "name": "TOKE_POOL",
      "outputs": [
        {
          "internalType": "address",
          "name": "",
          "type": "address"
        }
      ],
      "stateMutability": "view",
      "type": "function"
    },
    {
      "inputs": [],
      "name": "TOKE_REWARD",
      "outputs": [
        {
          "internalType": "address",
          "name": "",
          "type": "address"
        }
      ],
      "stateMutability": "view",
      "type": "function"
    },
    {
      "inputs": [],
      "name": "TOKE_TOKEN",
      "outputs": [
        {
          "internalType": "address",
          "name": "",
          "type": "address"
        }
      ],
      "stateMutability": "view",
      "type": "function"
    },
    {
      "inputs": [],
      "name": "WARM_UP_CONTRACT",
      "outputs": [
        {
          "internalType": "address",
          "name": "",
          "type": "address"
        }
      ],
      "stateMutability": "view",
      "type": "function"
    },
    {
      "inputs": [
        {
          "internalType": "uint256",
          "name": "_amount",
          "type": "uint256"
        },
        {
          "internalType": "bool",
          "name": "_trigger",
          "type": "bool"
        }
      ],
      "name": "addRewardsForStakers",
      "outputs": [],
      "stateMutability": "nonpayable",
      "type": "function"
    },
    {
      "inputs": [
        {
          "internalType": "address",
          "name": "_recipient",
          "type": "address"
        }
      ],
      "name": "claim",
      "outputs": [],
      "stateMutability": "nonpayable",
      "type": "function"
    },
    {
      "inputs": [
        {
          "components": [
            {
              "internalType": "uint256",
              "name": "chainId",
              "type": "uint256"
            },
            {
              "internalType": "uint256",
              "name": "cycle",
              "type": "uint256"
            },
            {
              "internalType": "address",
              "name": "wallet",
              "type": "address"
            },
            {
              "internalType": "uint256",
              "name": "amount",
              "type": "uint256"
            }
          ],
          "internalType": "struct Recipient",
          "name": "_recipient",
          "type": "tuple"
        },
        {
          "internalType": "uint8",
          "name": "_v",
          "type": "uint8"
        },
        {
          "internalType": "bytes32",
          "name": "_r",
          "type": "bytes32"
        },
        {
          "internalType": "bytes32",
          "name": "_s",
          "type": "bytes32"
        }
      ],
      "name": "claimFromTokemak",
      "outputs": [],
      "stateMutability": "nonpayable",
      "type": "function"
    },
    {
      "inputs": [
        {
          "internalType": "address",
          "name": "_recipient",
          "type": "address"
        }
      ],
      "name": "claimWithdraw",
      "outputs": [],
      "stateMutability": "nonpayable",
      "type": "function"
    },
    {
      "inputs": [
        {
          "internalType": "address",
          "name": "",
          "type": "address"
        }
      ],
      "name": "coolDownInfo",
      "outputs": [
        {
          "internalType": "uint256",
          "name": "amount",
          "type": "uint256"
        },
        {
          "internalType": "uint256",
          "name": "gons",
          "type": "uint256"
        },
        {
          "internalType": "uint256",
          "name": "expiry",
          "type": "uint256"
        }
      ],
      "stateMutability": "view",
      "type": "function"
    },
    {
      "inputs": [],
      "name": "coolDownPeriod",
      "outputs": [
        {
          "internalType": "uint256",
          "name": "",
          "type": "uint256"
        }
      ],
      "stateMutability": "view",
      "type": "function"
    },
    {
      "inputs": [],
      "name": "epoch",
      "outputs": [
        {
          "internalType": "uint256",
          "name": "length",
          "type": "uint256"
        },
        {
          "internalType": "uint256",
          "name": "number",
          "type": "uint256"
        },
        {
          "internalType": "uint256",
          "name": "endBlock",
          "type": "uint256"
        },
        {
          "internalType": "uint256",
          "name": "distribute",
          "type": "uint256"
        }
      ],
      "stateMutability": "view",
      "type": "function"
    },
    {
      "inputs": [
        {
          "internalType": "address",
          "name": "_stakingToken",
          "type": "address"
        },
        {
          "internalType": "address",
          "name": "_rewardToken",
          "type": "address"
        },
        {
          "internalType": "address",
          "name": "_tokeToken",
          "type": "address"
        },
        {
          "internalType": "address",
          "name": "_tokePool",
          "type": "address"
        },
        {
          "internalType": "address",
          "name": "_tokeManager",
          "type": "address"
        },
        {
          "internalType": "address",
          "name": "_tokeReward",
          "type": "address"
        },
        {
          "internalType": "address",
          "name": "_liquidityReserve",
          "type": "address"
        },
        {
          "internalType": "uint256",
          "name": "_epochLength",
          "type": "uint256"
        },
        {
          "internalType": "uint256",
          "name": "_firstEpochNumber",
          "type": "uint256"
        },
        {
          "internalType": "uint256",
          "name": "_firstEpochBlock",
          "type": "uint256"
        },
        {
          "internalType": "uint256",
          "name": "_timeLeftToRequestWithdrawal",
          "type": "uint256"
        }
      ],
      "name": "initialize",
      "outputs": [],
      "stateMutability": "nonpayable",
      "type": "function"
    },
    {
      "inputs": [
        {
          "internalType": "bool",
          "name": "_trigger",
          "type": "bool"
        }
      ],
      "name": "instantUnstake",
      "outputs": [],
      "stateMutability": "nonpayable",
      "type": "function"
    },
    {
      "inputs": [],
      "name": "lastTokeCycleIndex",
      "outputs": [
        {
          "internalType": "uint256",
          "name": "",
          "type": "uint256"
        }
      ],
      "stateMutability": "view",
      "type": "function"
    },
    {
      "inputs": [],
      "name": "owner",
      "outputs": [
        {
          "internalType": "address",
          "name": "",
          "type": "address"
        }
      ],
      "stateMutability": "view",
      "type": "function"
    },
    {
      "inputs": [],
      "name": "pauseStaking",
      "outputs": [
        {
          "internalType": "bool",
          "name": "",
          "type": "bool"
        }
      ],
      "stateMutability": "view",
      "type": "function"
    },
    {
      "inputs": [],
      "name": "pauseUnstaking",
      "outputs": [
        {
          "internalType": "bool",
          "name": "",
          "type": "bool"
        }
      ],
      "stateMutability": "view",
      "type": "function"
    },
    {
      "inputs": [],
      "name": "rebase",
      "outputs": [],
      "stateMutability": "nonpayable",
      "type": "function"
    },
    {
      "inputs": [],
      "name": "renounceOwnership",
      "outputs": [],
      "stateMutability": "nonpayable",
      "type": "function"
    },
    {
      "inputs": [],
      "name": "requestWithdrawalAmount",
      "outputs": [
        {
          "internalType": "uint256",
          "name": "",
          "type": "uint256"
        }
      ],
      "stateMutability": "view",
      "type": "function"
    },
    {
      "inputs": [],
      "name": "sendWithdrawalRequests",
      "outputs": [],
      "stateMutability": "nonpayable",
      "type": "function"
    },
    {
      "inputs": [
        {
          "internalType": "uint256",
          "name": "_vestingPeriod",
          "type": "uint256"
        }
      ],
      "name": "setCoolDownPeriod",
      "outputs": [],
      "stateMutability": "nonpayable",
      "type": "function"
    },
    {
      "inputs": [
        {
          "internalType": "uint256",
          "name": "length",
          "type": "uint256"
        }
      ],
      "name": "setEpochLength",
      "outputs": [],
      "stateMutability": "nonpayable",
      "type": "function"
    },
    {
      "inputs": [
        {
          "internalType": "uint256",
          "name": "_timestamp",
          "type": "uint256"
        }
      ],
      "name": "setTimeLeftToRequestWithdrawal",
      "outputs": [],
      "stateMutability": "nonpayable",
      "type": "function"
    },
    {
      "inputs": [
        {
          "internalType": "uint256",
          "name": "_vestingPeriod",
          "type": "uint256"
        }
      ],
      "name": "setWarmUpPeriod",
      "outputs": [],
      "stateMutability": "nonpayable",
      "type": "function"
    },
    {
      "inputs": [
        {
          "internalType": "bool",
          "name": "_shouldPause",
          "type": "bool"
        }
      ],
      "name": "shouldPauseStaking",
      "outputs": [],
      "stateMutability": "nonpayable",
      "type": "function"
    },
    {
      "inputs": [
        {
          "internalType": "bool",
          "name": "_shouldPause",
          "type": "bool"
        }
      ],
      "name": "shouldPauseUnstaking",
      "outputs": [],
      "stateMutability": "nonpayable",
      "type": "function"
    },
    {
      "inputs": [
        {
          "internalType": "uint256",
          "name": "_amount",
          "type": "uint256"
        },
        {
          "internalType": "address",
          "name": "_recipient",
          "type": "address"
        }
      ],
      "name": "stake",
      "outputs": [],
      "stateMutability": "nonpayable",
      "type": "function"
    },
    {
      "inputs": [
        {
          "internalType": "uint256",
          "name": "_amount",
          "type": "uint256"
        }
      ],
      "name": "stake",
      "outputs": [],
      "stateMutability": "nonpayable",
      "type": "function"
    },
    {
      "inputs": [],
      "name": "timeLeftToRequestWithdrawal",
      "outputs": [
        {
          "internalType": "uint256",
          "name": "",
          "type": "uint256"
        }
      ],
      "stateMutability": "view",
      "type": "function"
    },
    {
      "inputs": [
        {
          "internalType": "address",
          "name": "newOwner",
          "type": "address"
        }
      ],
      "name": "transferOwnership",
      "outputs": [],
      "stateMutability": "nonpayable",
      "type": "function"
    },
    {
      "inputs": [
        {
          "internalType": "address",
          "name": "_claimAddress",
          "type": "address"
        }
      ],
      "name": "transferToke",
      "outputs": [],
      "stateMutability": "nonpayable",
      "type": "function"
    },
    {
      "inputs": [
        {
          "internalType": "uint256",
          "name": "_amount",
          "type": "uint256"
        },
        {
          "internalType": "bool",
          "name": "_trigger",
          "type": "bool"
        }
      ],
      "name": "unstake",
      "outputs": [],
      "stateMutability": "nonpayable",
      "type": "function"
    },
    {
      "inputs": [],
      "name": "unstakeAllFromTokemak",
      "outputs": [],
      "stateMutability": "nonpayable",
      "type": "function"
    },
    {
      "inputs": [
        {
          "internalType": "address",
          "name": "",
          "type": "address"
        }
      ],
      "name": "warmUpInfo",
      "outputs": [
        {
          "internalType": "uint256",
          "name": "amount",
          "type": "uint256"
        },
        {
          "internalType": "uint256",
          "name": "gons",
          "type": "uint256"
        },
        {
          "internalType": "uint256",
          "name": "expiry",
          "type": "uint256"
        }
      ],
      "stateMutability": "view",
      "type": "function"
    },
    {
      "inputs": [],
      "name": "warmUpPeriod",
      "outputs": [
        {
          "internalType": "uint256",
          "name": "",
          "type": "uint256"
        }
      ],
      "stateMutability": "view",
      "type": "function"
    },
    {
      "inputs": [],
      "name": "withdrawalAmount",
      "outputs": [
        {
          "internalType": "uint256",
          "name": "",
          "type": "uint256"
        }
      ],
      "stateMutability": "view",
      "type": "function"
    }
  ],
  "bytecode": "0x608060405234801561001057600080fd5b5061468d806100206000396000f3fe60806040523480156200001157600080fd5b5060043610620003195760003560e01c80637acb775711620001a5578063af14052c11620000f5578063e2a8179d11620000a3578063f2fde38b116200007a578063f2fde38b146200074e578063f999c5061462000765578063f9a571a2146200078b57600080fd5b8063e2a8179d1462000702578063e6e268f41462000723578063ed295509146200072d57600080fd5b8063b736ca8211620000d8578063b736ca8214620006c0578063b8e4b24414620006d7578063c9d4f35014620006f857600080fd5b8063af14052c1462000695578063b09881cc146200069f57600080fd5b8063900cf0cf116200015357806399248ea7116200013657806399248ea714620006465780639ebea88c1462000667578063a694fc3a146200067e57600080fd5b8063900cf0cf14620006045780639776cb78146200063c57600080fd5b8063820c6f5b1162000188578063820c6f5b14620005a9578063823a46a114620005db5780638da5cb5b14620005e557600080fd5b80637acb7757146200057b5780637fa91eba146200059257600080fd5b806337df07ee116200026d57806354d4be5a116200021b57806368d8f51411620001f257806368d8f5141462000550578063715018a6146200055a578063736f616b146200056457600080fd5b806354d4be5a146200050b57806354eea79614620005225780635b3112fc146200053957600080fd5b80634baa0cd211620002505780634baa0cd214620004c65780634bbce08b14620004dd578063516c49d914620004f457600080fd5b806337df07ee14620004a55780633897e22b14620004af57600080fd5b80631b618cc011620002cb5780631e83409a11620002ae5780631e83409a146200046357806328ebcda1146200047a57806330f1ebb9146200049b57600080fd5b80631b618cc014620003dd5780631c4e6ab7146200042b57600080fd5b80630a8dd5e611620003005780630a8dd5e6146200038a5780631078167914620003a3578063156c46bf14620003c457600080fd5b80630479d644146200031e578063050c486c1462000369575b600080fd5b6068546200033f9073ffffffffffffffffffffffffffffffffffffffff1681565b60405173ffffffffffffffffffffffffffffffffffffffff90911681526020015b60405180910390f35b606a546200033f9073ffffffffffffffffffffffffffffffffffffffff1681565b620003a16200039b36600462003dfd565b620007a2565b005b6065546200033f9073ffffffffffffffffffffffffffffffffffffffff1681565b620003ce60745481565b60405190815260200162000360565b6200040f620003ee36600462003e47565b60736020526000908152604090208054600182015460029092015490919083565b6040805193845260208401929092529082015260600162000360565b606d5462000452907501000000000000000000000000000000000000000000900460ff1681565b604051901515815260200162000360565b620003a16200047436600462003e47565b62000cda565b606b546200033f9073ffffffffffffffffffffffffffffffffffffffff1681565b620003ce60765481565b620003a162000e9f565b620003a1620004c036600462003dfd565b62000f77565b620003a1620004d736600462003e65565b62001045565b620003a1620004ee36600462003e98565b6200114a565b620003a16200050536600462003e47565b62001255565b620003a16200051c36600462003e47565b62001443565b620003a16200053336600462003eed565b62001614565b620003a16200054a36600462003eed565b6200169c565b620003a162001724565b620003a16200186f565b620003a16200057536600462003eed565b620018fe565b620003a16200058c36600462003f07565b62001986565b620003a1620005a336600462003dfd565b62001d2c565b6200040f620005ba36600462003e47565b60726020526000908152604090208054600182015460029092015490919083565b620003ce60775481565b60335473ffffffffffffffffffffffffffffffffffffffff166200033f565b606e54606f546070546071546200061b9392919084565b60408051948552602085019390935291830152606082015260800162000360565b620003ce60755481565b6069546200033f9073ffffffffffffffffffffffffffffffffffffffff1681565b620003a16200067836600462003e65565b62001df9565b620003a16200068f36600462003eed565b6200202e565b620003a16200203d565b6067546200033f9073ffffffffffffffffffffffffffffffffffffffff1681565b620003a1620006d136600462003f36565b62002202565b606d546200033f9073ffffffffffffffffffffffffffffffffffffffff1681565b620003ce60795481565b6066546200033f9073ffffffffffffffffffffffffffffffffffffffff1681565b620003ce60785481565b606c546200033f9073ffffffffffffffffffffffffffffffffffffffff1681565b620003a16200075f36600462003e47565b62002829565b606d54620004529074010000000000000000000000000000000000000000900460ff1681565b620003a16200079c36600462003eed565b6200295c565b606d547501000000000000000000000000000000000000000000900460ff16156200082e576040517f08c379a000000000000000000000000000000000000000000000000000000000815260206004820152601360248201527f556e7374616b696e67206973207061757365640000000000000000000000000060448201526064015b60405180910390fd5b80156200083f576200083f6200203d565b336000818152607260209081526040808320815160608101835281548152600182015493810193909352600201548282015260695490517f70a082310000000000000000000000000000000000000000000000000000000081526004810194909452909273ffffffffffffffffffffffffffffffffffffffff909116906370a082319060240160206040518083038186803b158015620008de57600080fd5b505afa158015620008f3573d6000803e3d6000fd5b505050506040513d601f19601f8201168201806040525081019062000919919062003ff5565b60695460208401516040517f7965d56d00000000000000000000000000000000000000000000000000000000815292935060009273ffffffffffffffffffffffffffffffffffffffff90921691637965d56d916200097d9160040190815260200190565b60206040518083038186803b1580156200099657600080fd5b505afa158015620009ab573d6000803e3d6000fd5b505050506040513d601f19601f82011682018060405250810190620009d1919062003ff5565b90506000620009e183836200403e565b606854606b546040517f70a0823100000000000000000000000000000000000000000000000000000000815273ffffffffffffffffffffffffffffffffffffffff91821660048201529293506000929116906370a082319060240160206040518083038186803b15801562000a5557600080fd5b505afa15801562000a6a573d6000803e3d6000fd5b505050506040513d601f19601f8201168201806040525081019062000a90919062003ff5565b90508162000afb576040517f08c379a000000000000000000000000000000000000000000000000000000000815260206004820152601760248201527f4d75737420686176652072657761726420746f6b656e73000000000000000000604482015260640162000825565b8181101562000b67576040517f08c379a000000000000000000000000000000000000000000000000000000000815260206004820152601b60248201527f4e6f7420656e6f7567682066756e647320696e20726573657276650000000000604482015260640162000825565b821562000c1857606c546040517fc3a2a6650000000000000000000000000000000000000000000000000000000081523060048201526024810185905273ffffffffffffffffffffffffffffffffffffffff9091169063c3a2a66590604401600060405180830381600087803b15801562000be157600080fd5b505af115801562000bf6573d6000803e3d6000fd5b5050336000908152607260205260408120818155600181018290556002015550505b831562000c465760695462000c469073ffffffffffffffffffffffffffffffffffffffff16333087620029e4565b606b546040517fbbb6a9830000000000000000000000000000000000000000000000000000000081526004810184905233602482015273ffffffffffffffffffffffffffffffffffffffff9091169063bbb6a98390604401600060405180830381600087803b15801562000cb957600080fd5b505af115801562000cce573d6000803e3d6000fd5b50505050505050505050565b73ffffffffffffffffffffffffffffffffffffffff8116600090815260726020908152604091829020825160608101845281548152600182015492810192909252600201549181019190915262000d318262002ac2565b1562000e9b5773ffffffffffffffffffffffffffffffffffffffff82811660009081526072602090815260408083208381556001810184905560020192909255606c546069549185015192517f7965d56d000000000000000000000000000000000000000000000000000000008152600481019390935283169263c3a2a66592869290911690637965d56d9060240160206040518083038186803b15801562000dd957600080fd5b505afa15801562000dee573d6000803e3d6000fd5b505050506040513d601f19601f8201168201806040525081019062000e14919062003ff5565b6040517fffffffff0000000000000000000000000000000000000000000000000000000060e085901b16815273ffffffffffffffffffffffffffffffffffffffff909216600483015260248201526044015b600060405180830381600087803b15801562000e8157600080fd5b505af115801562000e96573d6000803e3d6000fd5b505050505b5050565b62000ea962002b28565b1562000f755762000eb962002d2b565b60665460775473ffffffffffffffffffffffffffffffffffffffff909116901562000eeb5762000eeb60775462002f4a565b60008173ffffffffffffffffffffffffffffffffffffffff1663857909456040518163ffffffff1660e01b815260040160206040518083038186803b15801562000f3457600080fd5b505afa15801562000f49573d6000803e3d6000fd5b505050506040513d601f19601f8201168201806040525081019062000f6f919062003ff5565b60795550505b565b60335473ffffffffffffffffffffffffffffffffffffffff16331462000ffa576040517f08c379a000000000000000000000000000000000000000000000000000000000815260206004820181905260248201527f4f776e61626c653a2063616c6c6572206973206e6f7420746865206f776e6572604482015260640162000825565b606d80549115157501000000000000000000000000000000000000000000027fffffffffffffffffffff00ffffffffffffffffffffffffffffffffffffffffff909216919091179055565b6068546200106c9073ffffffffffffffffffffffffffffffffffffffff16333085620029e4565b6068546040517f70a0823100000000000000000000000000000000000000000000000000000000815230600482015260009173ffffffffffffffffffffffffffffffffffffffff16906370a082319060240160206040518083038186803b158015620010d757600080fd5b505afa158015620010ec573d6000803e3d6000fd5b505050506040513d601f19601f8201168201806040525081019062001112919062003ff5565b905060006078548262001126919062004059565b9050620011338162002fa4565b82156200114457620011446200203d565b50505050565b6000846060013511620011ba576040517f08c379a000000000000000000000000000000000000000000000000000000000815260206004820152601760248201527f4d75737420656e7465722076616c696420616d6f756e74000000000000000000604482015260640162000825565b6067546040517fe1fc869100000000000000000000000000000000000000000000000000000000815273ffffffffffffffffffffffffffffffffffffffff90911690819063e1fc8691906200121a90889088908890889060040162004073565b600060405180830381600087803b1580156200123557600080fd5b505af11580156200124a573d6000803e3d6000fd5b505050505050505050565b73ffffffffffffffffffffffffffffffffffffffff818116600090815260736020908152604080832081516060810183528154815260018201549381018490526002909101548183015260695491517f7965d56d0000000000000000000000000000000000000000000000000000000081526004810193909352931690637965d56d9060240160206040518083038186803b158015620012f457600080fd5b505afa15801562001309573d6000803e3d6000fd5b505050506040513d601f19601f820116820180604052508101906200132f919062003ff5565b90506200133c8362002ffe565b156200143e576200134c62002d2b565b73ffffffffffffffffffffffffffffffffffffffff808416600090815260736020526040812081815560018101829055600201558251606854620013949216908590620031e1565b606d546040517fc3a2a6650000000000000000000000000000000000000000000000000000000081523060048201526024810183905273ffffffffffffffffffffffffffffffffffffffff9091169063c3a2a66590604401600060405180830381600087803b1580156200140757600080fd5b505af11580156200141c573d6000803e3d6000fd5b5050505081600001516078600082825462001438919062004059565b90915550505b505050565b60335473ffffffffffffffffffffffffffffffffffffffff163314620014c6576040517f08c379a000000000000000000000000000000000000000000000000000000000815260206004820181905260248201527f4f776e61626c653a2063616c6c6572206973206e6f7420746865206f776e6572604482015260640162000825565b73ffffffffffffffffffffffffffffffffffffffff811662001545576040517f08c379a000000000000000000000000000000000000000000000000000000000815260206004820152600f60248201527f496e76616c696420616464726573730000000000000000000000000000000000604482015260640162000825565b606a546040517f70a0823100000000000000000000000000000000000000000000000000000000815230600482015260009173ffffffffffffffffffffffffffffffffffffffff16906370a082319060240160206040518083038186803b158015620015b057600080fd5b505afa158015620015c5573d6000803e3d6000fd5b505050506040513d601f19601f82011682018060405250810190620015eb919062003ff5565b606a5490915062000e9b9073ffffffffffffffffffffffffffffffffffffffff168383620031e1565b60335473ffffffffffffffffffffffffffffffffffffffff16331462001697576040517f08c379a000000000000000000000000000000000000000000000000000000000815260206004820181905260248201527f4f776e61626c653a2063616c6c6572206973206e6f7420746865206f776e6572604482015260640162000825565b606e55565b60335473ffffffffffffffffffffffffffffffffffffffff1633146200171f576040517f08c379a000000000000000000000000000000000000000000000000000000000815260206004820181905260248201527f4f776e61626c653a2063616c6c6572206973206e6f7420746865206f776e6572604482015260640162000825565b607455565b60335473ffffffffffffffffffffffffffffffffffffffff163314620017a7576040517f08c379a000000000000000000000000000000000000000000000000000000000815260206004820181905260248201527f4f776e61626c653a2063616c6c6572206973206e6f7420746865206f776e6572604482015260640162000825565b6065546040517f70a0823100000000000000000000000000000000000000000000000000000000815230600482015273ffffffffffffffffffffffffffffffffffffffff9091169060009082906370a082319060240160206040518083038186803b1580156200181657600080fd5b505afa1580156200182b573d6000803e3d6000fd5b505050506040513d601f19601f8201168201806040525081019062001851919062003ff5565b90506200185f600162001d2c565b607781905562000e9b8162002f4a565b60335473ffffffffffffffffffffffffffffffffffffffff163314620018f2576040517f08c379a000000000000000000000000000000000000000000000000000000000815260206004820181905260248201527f4f776e61626c653a2063616c6c6572206973206e6f7420746865206f776e6572604482015260640162000825565b62000f75600062003239565b60335473ffffffffffffffffffffffffffffffffffffffff16331462001981576040517f08c379a000000000000000000000000000000000000000000000000000000000815260206004820181905260248201527f4f776e61626c653a2063616c6c6572206973206e6f7420746865206f776e6572604482015260640162000825565b607655565b606d5474010000000000000000000000000000000000000000900460ff161562001a0d576040517f08c379a000000000000000000000000000000000000000000000000000000000815260206004820152601160248201527f5374616b696e6720697320706175736564000000000000000000000000000000604482015260640162000825565b6000821162001a79576040517f08c379a000000000000000000000000000000000000000000000000000000000815260206004820152601660248201527f4d75737420686176652076616c696420616d6f756e7400000000000000000000604482015260640162000825565b606954604080517f9358928b000000000000000000000000000000000000000000000000000000008152905160009273ffffffffffffffffffffffffffffffffffffffff1691639358928b916004808301926020929190829003018186803b15801562001ae557600080fd5b505afa15801562001afa573d6000803e3d6000fd5b505050506040513d601f19601f8201168201806040525081019062001b20919062003ff5565b9050801562001b335762001b336200203d565b60685462001b5a9073ffffffffffffffffffffffffffffffffffffffff16333086620029e4565b73ffffffffffffffffffffffffffffffffffffffff8216600090815260726020526040902062001b8a8362002ac2565b1562001b9b5762001b9b8362000cda565b62001ba68462002fa4565b60755462001bda5760695462001bd49073ffffffffffffffffffffffffffffffffffffffff168486620031e1565b62001144565b604051806060016040528085836000015462001bf791906200403e565b81526069546040517f1bd396740000000000000000000000000000000000000000000000000000000081526004810188905260209092019173ffffffffffffffffffffffffffffffffffffffff90911690631bd396749060240160206040518083038186803b15801562001c6a57600080fd5b505afa15801562001c7f573d6000803e3d6000fd5b505050506040513d601f19601f8201168201806040525081019062001ca5919062003ff5565b836001015462001cb691906200403e565b8152602001607554606e6001015462001cd091906200403e565b905273ffffffffffffffffffffffffffffffffffffffff80851660009081526072602090815260409182902084518155908401516001820155920151600290920191909155606c546069546200114492908116911686620031e1565b60335473ffffffffffffffffffffffffffffffffffffffff16331462001daf576040517f08c379a000000000000000000000000000000000000000000000000000000000815260206004820181905260248201527f4f776e61626c653a2063616c6c6572206973206e6f7420746865206f776e6572604482015260640162000825565b606d805491151574010000000000000000000000000000000000000000027fffffffffffffffffffffff00ffffffffffffffffffffffffffffffffffffffff909216919091179055565b606d547501000000000000000000000000000000000000000000900460ff161562001e81576040517f08c379a000000000000000000000000000000000000000000000000000000000815260206004820152601360248201527f556e7374616b696e672069732070617573656400000000000000000000000000604482015260640162000825565b801562001e925762001e926200203d565b62001e9e8233620032b0565b3360008181526073602052604090209062001eb99062001255565b604051806060016040528084836000015462001ed691906200403e565b81526069546040517f1bd396740000000000000000000000000000000000000000000000000000000081526004810187905260209092019173ffffffffffffffffffffffffffffffffffffffff90911690631bd396749060240160206040518083038186803b15801562001f4957600080fd5b505afa15801562001f5e573d6000803e3d6000fd5b505050506040513d601f19601f8201168201806040525081019062001f84919062003ff5565b836001015462001f9591906200403e565b8152602001607654606e6001015462001faf91906200403e565b90523360009081526073602090815260408083208451815591840151600183015592909201516002909201919091556077805485929062001ff29084906200403e565b9091555062002002905062000e9f565b606d546069546200143e9173ffffffffffffffffffffffffffffffffffffffff918216911685620031e1565b6200203a813362001986565b50565b607054431062000f7557606954607154606f546040517f058ecdb40000000000000000000000000000000000000000000000000000000081526004810192909252602482015273ffffffffffffffffffffffffffffffffffffffff9091169063058ecdb490604401602060405180830381600087803b158015620020c057600080fd5b505af1158015620020d5573d6000803e3d6000fd5b505050506040513d601f19601f82011682018060405250810190620020fb919062003ff5565b50606e546070546200210e91906200403e565b607055606f80549060006200212383620040d6565b919050555060006200213462003815565b90506000606960009054906101000a900473ffffffffffffffffffffffffffffffffffffffff1673ffffffffffffffffffffffffffffffffffffffff16639358928b6040518163ffffffff1660e01b815260040160206040518083038186803b158015620021a157600080fd5b505afa158015620021b6573d6000803e3d6000fd5b505050506040513d601f19601f82011682018060405250810190620021dc919062003ff5565b9050808211620021ef5760006071555050565b620021fb818362004059565b6071555050565b600054610100900460ff166200221f5760005460ff161562002223565b303b155b620022b1576040517f08c379a000000000000000000000000000000000000000000000000000000000815260206004820152602e60248201527f496e697469616c697a61626c653a20636f6e747261637420697320616c72656160448201527f647920696e697469616c697a6564000000000000000000000000000000000000606482015260840162000825565b600054610100900460ff16158015620022f157600080547fffffffffffffffffffffffffffffffffffffffffffffffffffffffffffff0000166101011790555b620022fb620038de565b73ffffffffffffffffffffffffffffffffffffffff8c161580159062002336575073ffffffffffffffffffffffffffffffffffffffff8b1615155b801562002358575073ffffffffffffffffffffffffffffffffffffffff8a1615155b80156200237a575073ffffffffffffffffffffffffffffffffffffffff891615155b80156200239c575073ffffffffffffffffffffffffffffffffffffffff881615155b8015620023be575073ffffffffffffffffffffffffffffffffffffffff871615155b8015620023e0575073ffffffffffffffffffffffffffffffffffffffff861615155b62002448576040517f08c379a000000000000000000000000000000000000000000000000000000000815260206004820152600f60248201527f496e76616c696420616464726573730000000000000000000000000000000000604482015260640162000825565b606880547fffffffffffffffffffffffff000000000000000000000000000000000000000090811673ffffffffffffffffffffffffffffffffffffffff8f8116919091179092556069805482168e8416908117909155606a805483168e85161790556065805483168d85161790556066805483168c85161790556067805483168b8516179055606b805490921692891692909217905560748390556040516000913091620024f69062003de0565b73ffffffffffffffffffffffffffffffffffffffff928316815291166020820152604001604051809103906000f08015801562002537573d6000803e3d6000fd5b50606c80547fffffffffffffffffffffffff00000000000000000000000000000000000000001673ffffffffffffffffffffffffffffffffffffffff83811691909117909155606954604051929350600092309291909116906200259b9062003de0565b73ffffffffffffffffffffffffffffffffffffffff928316815291166020820152604001604051809103906000f080158015620025dc573d6000803e3d6000fd5b50606d80547fffffffffffffffffffffffff00000000000000000000000000000000000000001673ffffffffffffffffffffffffffffffffffffffff838116919091179091556068546065546040517f095ea7b300000000000000000000000000000000000000000000000000000000815290831660048201527fffffffffffffffffffffffffffffffffffffffffffffffffffffffffffffffff6024820152929350169063095ea7b390604401602060405180830381600087803b158015620026a557600080fd5b505af1158015620026ba573d6000803e3d6000fd5b505050506040513d601f19601f82011682018060405250810190620026e0919062004112565b50606954606b546040517f095ea7b300000000000000000000000000000000000000000000000000000000815273ffffffffffffffffffffffffffffffffffffffff91821660048201527fffffffffffffffffffffffffffffffffffffffffffffffffffffffffffffffff602482015291169063095ea7b390604401602060405180830381600087803b1580156200277757600080fd5b505af11580156200278c573d6000803e3d6000fd5b505050506040513d601f19601f82011682018060405250810190620027b2919062004112565b5050604080516080810182528781526020810187905290810185905260006060909101819052606e879055606f86905560708590556071555080156200281b57600080547fffffffffffffffffffffffffffffffffffffffffffffffffffffffffffff00ff1690555b505050505050505050505050565b60335473ffffffffffffffffffffffffffffffffffffffff163314620028ac576040517f08c379a000000000000000000000000000000000000000000000000000000000815260206004820181905260248201527f4f776e61626c653a2063616c6c6572206973206e6f7420746865206f776e6572604482015260640162000825565b73ffffffffffffffffffffffffffffffffffffffff811662002951576040517f08c379a000000000000000000000000000000000000000000000000000000000815260206004820152602660248201527f4f776e61626c653a206e6577206f776e657220697320746865207a65726f206160448201527f6464726573730000000000000000000000000000000000000000000000000000606482015260840162000825565b6200203a8162003239565b60335473ffffffffffffffffffffffffffffffffffffffff163314620029df576040517f08c379a000000000000000000000000000000000000000000000000000000000815260206004820181905260248201527f4f776e61626c653a2063616c6c6572206973206e6f7420746865206f776e6572604482015260640162000825565b607555565b60405173ffffffffffffffffffffffffffffffffffffffff80851660248301528316604482015260648101829052620011449085907f23b872dd00000000000000000000000000000000000000000000000000000000906084015b604080517fffffffffffffffffffffffffffffffffffffffffffffffffffffffffffffffe08184030181529190526020810180517bffffffffffffffffffffffffffffffffffffffffffffffffffffffff167fffffffff000000000000000000000000000000000000000000000000000000009093169290921790915262003981565b73ffffffffffffffffffffffffffffffffffffffff8116600090815260726020908152604080832081516060810183528154815260018201549381019390935260020154908201819052606f541080159062002b215750604081015115155b9392505050565b606654604080517fbd5da9ac000000000000000000000000000000000000000000000000000000008152905160009273ffffffffffffffffffffffffffffffffffffffff16918391839163bd5da9ac916004808301926020929190829003018186803b15801562002b9857600080fd5b505afa15801562002bad573d6000803e3d6000fd5b505050506040513d601f19601f8201168201806040525081019062002bd3919062003ff5565b905060008273ffffffffffffffffffffffffffffffffffffffff1663be26ed7f6040518163ffffffff1660e01b815260040160206040518083038186803b15801562002c1e57600080fd5b505afa15801562002c33573d6000803e3d6000fd5b505050506040513d601f19601f8201168201806040525081019062002c59919062003ff5565b905060008373ffffffffffffffffffffffffffffffffffffffff1663857909456040518163ffffffff1660e01b815260040160206040518083038186803b15801562002ca457600080fd5b505afa15801562002cb9573d6000803e3d6000fd5b505050506040513d601f19601f8201168201806040525081019062002cdf919062003ff5565b9050600062002cef84846200403e565b9050806074544262002d0291906200403e565b1015801562002d12575060795482115b801562002d2157506000607754115b9550505050505090565b6065546066546040517fbb582d8000000000000000000000000000000000000000000000000000000000815230600482015273ffffffffffffffffffffffffffffffffffffffff9283169290911690600090839063bb582d80906024016040805180830381600087803b15801562002da257600080fd5b505af115801562002db7573d6000803e3d6000fd5b505050506040513d601f19601f8201168201806040525081019062002ddd919062004132565b905060008273ffffffffffffffffffffffffffffffffffffffff1663857909456040518163ffffffff1660e01b815260040160206040518083038186803b15801562002e2857600080fd5b505afa15801562002e3d573d6000803e3d6000fd5b505050506040513d601f19601f8201168201806040525081019062002e63919062003ff5565b90506000826020015111801562002e7b575081518110155b15620011445760208201516040517f2e1a7d4d000000000000000000000000000000000000000000000000000000008152600481019190915273ffffffffffffffffffffffffffffffffffffffff851690632e1a7d4d90602401600060405180830381600087803b15801562002ef057600080fd5b505af115801562002f05573d6000803e3d6000fd5b5050505081602001516077600082825462002f21919062004059565b909155505060208201516078805460009062002f3f9084906200403e565b909155505050505050565b6065546040517f9ee679e80000000000000000000000000000000000000000000000000000000081526004810183905273ffffffffffffffffffffffffffffffffffffffff909116908190639ee679e89060240162000e66565b6065546040517fb6b55f250000000000000000000000000000000000000000000000000000000081526004810183905273ffffffffffffffffffffffffffffffffffffffff90911690819063b6b55f259060240162000e66565b73ffffffffffffffffffffffffffffffffffffffff8181166000908152607360209081526040808320815160608101835281548152600182015493810193909352600201548282015260665460655491517fbb582d80000000000000000000000000000000000000000000000000000000008152306004820152939492939083169291909116908490829063bb582d80906024016040805180830381600087803b158015620030ac57600080fd5b505af1158015620030c1573d6000803e3d6000fd5b505050506040513d601f19601f82011682018060405250810190620030e7919062004132565b905060008373ffffffffffffffffffffffffffffffffffffffff1663857909456040518163ffffffff1660e01b815260040160206040518083038186803b1580156200313257600080fd5b505afa15801562003147573d6000803e3d6000fd5b505050506040513d601f19601f820116820180604052508101906200316d919062003ff5565b90508460400151606e60010154101580156200318c5750604085015115155b8015620031995750845115155b8015620031d6575081518110801590620031c7575084516078546020840151620031c491906200403e565b10155b80620031d65750845160785410155b979650505050505050565b60405173ffffffffffffffffffffffffffffffffffffffff83166024820152604481018290526200143e9084907fa9059cbb000000000000000000000000000000000000000000000000000000009060640162002a3f565b6033805473ffffffffffffffffffffffffffffffffffffffff8381167fffffffffffffffffffffffff0000000000000000000000000000000000000000831681179093556040519116919082907f8be0079c531659141344cd1fd0a4f28419497f9722a3daafe3b4186f6b6457e090600090a35050565b73ffffffffffffffffffffffffffffffffffffffff8181166000818152607260209081526040808320815160608101835281548152600182015493810193909352600201548282015260695490517f70a082310000000000000000000000000000000000000000000000000000000081526004810194909452909391929116906370a082319060240160206040518083038186803b1580156200335257600080fd5b505afa15801562003367573d6000803e3d6000fd5b505050506040513d601f19601f820116820180604052508101906200338d919062003ff5565b60695460208401516040517f7965d56d00000000000000000000000000000000000000000000000000000000815292935060009273ffffffffffffffffffffffffffffffffffffffff90921691637965d56d91620033f19160040190815260200190565b60206040518083038186803b1580156200340a57600080fd5b505afa1580156200341f573d6000803e3d6000fd5b505050506040513d601f19601f8201168201806040525081019062003445919062003ff5565b90506200345381836200403e565b851115620034be576040517f08c379a000000000000000000000000000000000000000000000000000000000815260206004820152601460248201527f496e73756666696369656e742042616c616e6365000000000000000000000000604482015260640162000825565b848115620037e7578186106200359857606c546040517fc3a2a66500000000000000000000000000000000000000000000000000000000815230600482015260248101849052918390039173ffffffffffffffffffffffffffffffffffffffff9091169063c3a2a66590604401600060405180830381600087803b1580156200354657600080fd5b505af11580156200355b573d6000803e3d6000fd5b50505073ffffffffffffffffffffffffffffffffffffffff86166000908152607260205260408120818155600181018290556002015550620037e7565b50606c546040517fc3a2a6650000000000000000000000000000000000000000000000000000000081523060048201526024810187905260009173ffffffffffffffffffffffffffffffffffffffff169063c3a2a66590604401600060405180830381600087803b1580156200360d57600080fd5b505af115801562003622573d6000803e3d6000fd5b50506069546040517f1bd39674000000000000000000000000000000000000000000000000000000008152600481018a90526000935073ffffffffffffffffffffffffffffffffffffffff9091169150631bd396749060240160206040518083038186803b1580156200369457600080fd5b505afa158015620036a9573d6000803e3d6000fd5b505050506040513d601f19601f82011682018060405250810190620036cf919062003ff5565b8560200151620036e0919062004059565b6069546040517f7965d56d0000000000000000000000000000000000000000000000000000000081526004810183905291925060009173ffffffffffffffffffffffffffffffffffffffff90911690637965d56d9060240160206040518083038186803b1580156200375157600080fd5b505afa15801562003766573d6000803e3d6000fd5b505050506040513d601f19601f820116820180604052508101906200378c919062003ff5565b6040805160608101825291825260208083019485528882015183830190815273ffffffffffffffffffffffffffffffffffffffff8b166000908152607290925291902091518255925160018201559151600290920191909155505b801562000e965760695462000e969073ffffffffffffffffffffffffffffffffffffffff16863084620029e4565b6000806200382262003a94565b6068546040517f70a08231000000000000000000000000000000000000000000000000000000008152306004820152919250829173ffffffffffffffffffffffffffffffffffffffff909116906370a082319060240160206040518083038186803b1580156200389157600080fd5b505afa158015620038a6573d6000803e3d6000fd5b505050506040513d601f19601f82011682018060405250810190620038cc919062003ff5565b620038d891906200403e565b91505090565b600054610100900460ff1662003977576040517f08c379a000000000000000000000000000000000000000000000000000000000815260206004820152602b60248201527f496e697469616c697a61626c653a20636f6e7472616374206973206e6f74206960448201527f6e697469616c697a696e67000000000000000000000000000000000000000000606482015260840162000825565b62000f7562003b3c565b6000620039e5826040518060400160405280602081526020017f5361666545524332303a206c6f772d6c6576656c2063616c6c206661696c65648152508573ffffffffffffffffffffffffffffffffffffffff1662003be09092919063ffffffff16565b8051909150156200143e578080602001905181019062003a06919062004112565b6200143e576040517f08c379a000000000000000000000000000000000000000000000000000000000815260206004820152602a60248201527f5361666545524332303a204552433230206f7065726174696f6e20646964206e60448201527f6f74207375636365656400000000000000000000000000000000000000000000606482015260840162000825565b6065546040517f70a0823100000000000000000000000000000000000000000000000000000000815230600482015260009173ffffffffffffffffffffffffffffffffffffffff169081906370a082319060240160206040518083038186803b15801562003b0157600080fd5b505afa15801562003b16573d6000803e3d6000fd5b505050506040513d601f19601f82011682018060405250810190620038d8919062003ff5565b600054610100900460ff1662003bd5576040517f08c379a000000000000000000000000000000000000000000000000000000000815260206004820152602b60248201527f496e697469616c697a61626c653a20636f6e7472616374206973206e6f74206960448201527f6e697469616c697a696e67000000000000000000000000000000000000000000606482015260840162000825565b62000f753362003239565b606062003bf1848460008562003bf9565b949350505050565b60608247101562003c8d576040517f08c379a000000000000000000000000000000000000000000000000000000000815260206004820152602660248201527f416464726573733a20696e73756666696369656e742062616c616e636520666f60448201527f722063616c6c0000000000000000000000000000000000000000000000000000606482015260840162000825565b73ffffffffffffffffffffffffffffffffffffffff85163b62003d0d576040517f08c379a000000000000000000000000000000000000000000000000000000000815260206004820152601d60248201527f416464726573733a2063616c6c20746f206e6f6e2d636f6e7472616374000000604482015260640162000825565b6000808673ffffffffffffffffffffffffffffffffffffffff16858760405162003d389190620041d9565b60006040518083038185875af1925050503d806000811462003d77576040519150601f19603f3d011682016040523d82523d6000602084013e62003d7c565b606091505b5091509150620031d68282866060831562003d9957508162002b21565b82511562003daa5782518084602001fd5b816040517f08c379a0000000000000000000000000000000000000000000000000000000008152600401620008259190620041f7565b61040d806200424b83390190565b80151581146200203a57600080fd5b60006020828403121562003e1057600080fd5b813562002b218162003dee565b803573ffffffffffffffffffffffffffffffffffffffff8116811462003e4257600080fd5b919050565b60006020828403121562003e5a57600080fd5b62002b218262003e1d565b6000806040838503121562003e7957600080fd5b82359150602083013562003e8d8162003dee565b809150509250929050565b60008060008084860360e081121562003eb057600080fd5b608081121562003ebf57600080fd5b50849350608085013560ff8116811462003ed857600080fd5b939693955050505060a08201359160c0013590565b60006020828403121562003f0057600080fd5b5035919050565b6000806040838503121562003f1b57600080fd5b8235915062003f2d6020840162003e1d565b90509250929050565b60008060008060008060008060008060006101608c8e03121562003f5957600080fd5b62003f648c62003e1d565b9a5062003f7460208d0162003e1d565b995062003f8460408d0162003e1d565b985062003f9460608d0162003e1d565b975062003fa460808d0162003e1d565b965062003fb460a08d0162003e1d565b955062003fc460c08d0162003e1d565b945060e08c013593506101008c013592506101208c013591506101408c013590509295989b509295989b9093969950565b6000602082840312156200400857600080fd5b5051919050565b7f4e487b7100000000000000000000000000000000000000000000000000000000600052601160045260246000fd5b600082198211156200405457620040546200400f565b500190565b6000828210156200406e576200406e6200400f565b500390565b843581526020808601359082015260e0810173ffffffffffffffffffffffffffffffffffffffff620040a86040880162003e1d565b1660408301526060860135606083015260ff851660808301528360a08301528260c083015295945050505050565b60007fffffffffffffffffffffffffffffffffffffffffffffffffffffffffffffffff8214156200410b576200410b6200400f565b5060010190565b6000602082840312156200412557600080fd5b815162002b218162003dee565b6000604082840312156200414557600080fd5b6040516040810181811067ffffffffffffffff8211171562004190577f4e487b7100000000000000000000000000000000000000000000000000000000600052604160045260246000fd5b604052825181526020928301519281019290925250919050565b60005b83811015620041c7578181015183820152602001620041ad565b83811115620011445750506000910152565b60008251620041ed818460208701620041aa565b9190910192915050565b602081526000825180602084015262004218816040850160208701620041aa565b601f017fffffffffffffffffffffffffffffffffffffffffffffffffffffffffffffffe016919091016040019291505056fe60c060405234801561001057600080fd5b5060405161040d38038061040d83398101604081905261002f916100c4565b6001600160a01b0382161580159061004f57506001600160a01b03811615155b6100915760405162461bcd60e51b815260206004820152600f60248201526e496e76616c6964206164647265737360881b604482015260640160405180910390fd5b6001600160a01b039182166080521660a0526100f7565b80516001600160a01b03811681146100bf57600080fd5b919050565b600080604083850312156100d757600080fd5b6100e0836100a8565b91506100ee602084016100a8565b90509250929050565b60805160a0516102e661012760003960008181604b01526101c101526000818160b0015260ea01526102e66000f3fe608060405234801561001057600080fd5b50600436106100415760003560e01c806399248ea714610046578063c3a2a66514610096578063da19ddfb146100ab575b600080fd5b61006d7f000000000000000000000000000000000000000000000000000000000000000081565b60405173ffffffffffffffffffffffffffffffffffffffff909116815260200160405180910390f35b6100a96100a4366004610242565b6100d2565b005b61006d7f000000000000000000000000000000000000000000000000000000000000000081565b3373ffffffffffffffffffffffffffffffffffffffff7f00000000000000000000000000000000000000000000000000000000000000001614610175576040517f08c379a000000000000000000000000000000000000000000000000000000000815260206004820181905260248201527f4e6f742063616c6c65642066726f6d207374616b696e6720636f6e7472616374604482015260640160405180910390fd5b6040517fa9059cbb00000000000000000000000000000000000000000000000000000000815273ffffffffffffffffffffffffffffffffffffffff8381166004830152602482018390527f0000000000000000000000000000000000000000000000000000000000000000169063a9059cbb90604401602060405180830381600087803b15801561020557600080fd5b505af1158015610219573d6000803e3d6000fd5b505050506040513d601f19601f8201168201806040525081019061023d9190610287565b505050565b6000806040838503121561025557600080fd5b823573ffffffffffffffffffffffffffffffffffffffff8116811461027957600080fd5b946020939093013593505050565b60006020828403121561029957600080fd5b815180151581146102a957600080fd5b939250505056fea26469706673582212207ea98e6d63ce6cffc4ed61eb75ea1bff472395deeb4c0f869e4fe40dfbee0e6c64736f6c63430008090033a2646970667358221220ffd79b2d2e478d859425c9e031fa50d62cd7771b8075f82173463594afaa925c64736f6c63430008090033",
  "linkReferences": {},
  "deployedLinkReferences": {}
}