{
  "_format": "hh-sol-artifact-1",
  "contractName": "Staking",
  "sourceName": "src/contracts/Staking.sol",
  "abi": [
    {
      "anonymous": false,
      "inputs": [
        {
          "indexed": true,
          "internalType": "address",
          "name": "previousOwner",
          "type": "address"
        },
        {
          "indexed": true,
          "internalType": "address",
          "name": "newOwner",
          "type": "address"
        }
      ],
      "name": "OwnershipTransferred",
      "type": "event"
    },
    {
      "inputs": [],
      "name": "COOL_DOWN_CONTRACT",
      "outputs": [
        {
          "internalType": "address",
          "name": "",
          "type": "address"
        }
      ],
      "stateMutability": "view",
      "type": "function"
    },
    {
      "inputs": [],
      "name": "LIQUIDITY_RESERVE",
      "outputs": [
        {
          "internalType": "address",
          "name": "",
          "type": "address"
        }
      ],
      "stateMutability": "view",
      "type": "function"
    },
    {
      "inputs": [],
      "name": "REWARD_TOKEN",
      "outputs": [
        {
          "internalType": "address",
          "name": "",
          "type": "address"
        }
      ],
      "stateMutability": "view",
      "type": "function"
    },
    {
      "inputs": [],
      "name": "STAKING_TOKEN",
      "outputs": [
        {
          "internalType": "address",
          "name": "",
          "type": "address"
        }
      ],
      "stateMutability": "view",
      "type": "function"
    },
    {
      "inputs": [],
      "name": "TOKE_MANAGER",
      "outputs": [
        {
          "internalType": "address",
          "name": "",
          "type": "address"
        }
      ],
      "stateMutability": "view",
      "type": "function"
    },
    {
      "inputs": [],
      "name": "TOKE_POOL",
      "outputs": [
        {
          "internalType": "address",
          "name": "",
          "type": "address"
        }
      ],
      "stateMutability": "view",
      "type": "function"
    },
    {
      "inputs": [],
      "name": "TOKE_REWARD",
      "outputs": [
        {
          "internalType": "address",
          "name": "",
          "type": "address"
        }
      ],
      "stateMutability": "view",
      "type": "function"
    },
    {
      "inputs": [],
      "name": "TOKE_TOKEN",
      "outputs": [
        {
          "internalType": "address",
          "name": "",
          "type": "address"
        }
      ],
      "stateMutability": "view",
      "type": "function"
    },
    {
      "inputs": [],
      "name": "WARM_UP_CONTRACT",
      "outputs": [
        {
          "internalType": "address",
          "name": "",
          "type": "address"
        }
      ],
      "stateMutability": "view",
      "type": "function"
    },
    {
      "inputs": [
        {
          "internalType": "uint256",
          "name": "_amount",
          "type": "uint256"
        },
        {
          "internalType": "bool",
          "name": "_trigger",
          "type": "bool"
        }
      ],
      "name": "addRewardsForStakers",
      "outputs": [],
      "stateMutability": "nonpayable",
      "type": "function"
    },
    {
      "inputs": [
        {
          "internalType": "address",
          "name": "_recipient",
          "type": "address"
        }
      ],
      "name": "claim",
      "outputs": [],
      "stateMutability": "nonpayable",
      "type": "function"
    },
    {
      "inputs": [
        {
          "components": [
            {
              "internalType": "uint256",
              "name": "chainId",
              "type": "uint256"
            },
            {
              "internalType": "uint256",
              "name": "cycle",
              "type": "uint256"
            },
            {
              "internalType": "address",
              "name": "wallet",
              "type": "address"
            },
            {
              "internalType": "uint256",
              "name": "amount",
              "type": "uint256"
            }
          ],
          "internalType": "struct Recipient",
          "name": "_recipient",
          "type": "tuple"
        },
        {
          "internalType": "uint8",
          "name": "_v",
          "type": "uint8"
        },
        {
          "internalType": "bytes32",
          "name": "_r",
          "type": "bytes32"
        },
        {
          "internalType": "bytes32",
          "name": "_s",
          "type": "bytes32"
        }
      ],
      "name": "claimFromTokemak",
      "outputs": [],
      "stateMutability": "nonpayable",
      "type": "function"
    },
    {
      "inputs": [
        {
          "internalType": "address",
          "name": "_recipient",
          "type": "address"
        }
      ],
      "name": "claimWithdraw",
      "outputs": [],
      "stateMutability": "nonpayable",
      "type": "function"
    },
    {
      "inputs": [
        {
          "internalType": "address",
          "name": "",
          "type": "address"
        }
      ],
      "name": "coolDownInfo",
      "outputs": [
        {
          "internalType": "uint256",
          "name": "amount",
          "type": "uint256"
        },
        {
          "internalType": "uint256",
          "name": "gons",
          "type": "uint256"
        },
        {
          "internalType": "uint256",
          "name": "expiry",
          "type": "uint256"
        }
      ],
      "stateMutability": "view",
      "type": "function"
    },
    {
      "inputs": [],
      "name": "coolDownPeriod",
      "outputs": [
        {
          "internalType": "uint256",
          "name": "",
          "type": "uint256"
        }
      ],
      "stateMutability": "view",
      "type": "function"
    },
    {
      "inputs": [],
      "name": "epoch",
      "outputs": [
        {
          "internalType": "uint256",
          "name": "length",
          "type": "uint256"
        },
        {
          "internalType": "uint256",
          "name": "number",
          "type": "uint256"
        },
        {
          "internalType": "uint256",
          "name": "endBlock",
          "type": "uint256"
        },
        {
          "internalType": "uint256",
          "name": "distribute",
          "type": "uint256"
        }
      ],
      "stateMutability": "view",
      "type": "function"
    },
    {
      "inputs": [
        {
          "internalType": "address",
          "name": "_stakingToken",
          "type": "address"
        },
        {
          "internalType": "address",
          "name": "_rewardToken",
          "type": "address"
        },
        {
          "internalType": "address",
          "name": "_tokeToken",
          "type": "address"
        },
        {
          "internalType": "address",
          "name": "_tokePool",
          "type": "address"
        },
        {
          "internalType": "address",
          "name": "_tokeManager",
          "type": "address"
        },
        {
          "internalType": "address",
          "name": "_tokeReward",
          "type": "address"
        },
        {
          "internalType": "address",
          "name": "_liquidityReserve",
          "type": "address"
        },
        {
          "internalType": "uint256",
          "name": "_epochLength",
          "type": "uint256"
        },
        {
          "internalType": "uint256",
          "name": "_firstEpochNumber",
          "type": "uint256"
        },
        {
          "internalType": "uint256",
          "name": "_firstEpochBlock",
          "type": "uint256"
        }
      ],
      "name": "initialize",
      "outputs": [],
      "stateMutability": "nonpayable",
      "type": "function"
    },
    {
      "inputs": [
        {
          "internalType": "bool",
          "name": "_trigger",
          "type": "bool"
        }
      ],
      "name": "instantUnstake",
      "outputs": [],
      "stateMutability": "nonpayable",
      "type": "function"
    },
    {
      "inputs": [],
      "name": "lastTokeCycleIndex",
      "outputs": [
        {
          "internalType": "uint256",
          "name": "",
          "type": "uint256"
        }
      ],
      "stateMutability": "view",
      "type": "function"
    },
    {
      "inputs": [],
      "name": "owner",
      "outputs": [
        {
          "internalType": "address",
          "name": "",
          "type": "address"
        }
      ],
      "stateMutability": "view",
      "type": "function"
    },
    {
      "inputs": [],
      "name": "pauseStaking",
      "outputs": [
        {
          "internalType": "bool",
          "name": "",
          "type": "bool"
        }
      ],
      "stateMutability": "view",
      "type": "function"
    },
    {
      "inputs": [],
      "name": "pauseUnstaking",
      "outputs": [
        {
          "internalType": "bool",
          "name": "",
          "type": "bool"
        }
      ],
      "stateMutability": "view",
      "type": "function"
    },
    {
      "inputs": [],
      "name": "rebase",
      "outputs": [],
      "stateMutability": "nonpayable",
      "type": "function"
    },
    {
      "inputs": [],
      "name": "renounceOwnership",
      "outputs": [],
      "stateMutability": "nonpayable",
      "type": "function"
    },
    {
      "inputs": [],
      "name": "requestWithdrawalAmount",
      "outputs": [
        {
          "internalType": "uint256",
          "name": "",
          "type": "uint256"
        }
      ],
      "stateMutability": "view",
      "type": "function"
    },
    {
      "inputs": [],
      "name": "sendWithdrawalRequests",
      "outputs": [],
      "stateMutability": "nonpayable",
      "type": "function"
    },
    {
      "inputs": [
        {
          "internalType": "uint256",
          "name": "_vestingPeriod",
          "type": "uint256"
        }
      ],
      "name": "setCoolDownPeriod",
      "outputs": [],
      "stateMutability": "nonpayable",
      "type": "function"
    },
    {
      "inputs": [
        {
          "internalType": "uint256",
          "name": "length",
          "type": "uint256"
        }
      ],
      "name": "setEpochLength",
      "outputs": [],
      "stateMutability": "nonpayable",
      "type": "function"
    },
    {
      "inputs": [
        {
          "internalType": "uint256",
          "name": "_timestamp",
          "type": "uint256"
        }
      ],
      "name": "setTimeLeftToRequestWithdrawal",
      "outputs": [],
      "stateMutability": "nonpayable",
      "type": "function"
    },
    {
      "inputs": [
        {
          "internalType": "uint256",
          "name": "_vestingPeriod",
          "type": "uint256"
        }
      ],
      "name": "setWarmUpPeriod",
      "outputs": [],
      "stateMutability": "nonpayable",
      "type": "function"
    },
    {
      "inputs": [
        {
          "internalType": "bool",
          "name": "_shouldPause",
          "type": "bool"
        }
      ],
      "name": "shouldPauseStaking",
      "outputs": [],
      "stateMutability": "nonpayable",
      "type": "function"
    },
    {
      "inputs": [
        {
          "internalType": "bool",
          "name": "_shouldPause",
          "type": "bool"
        }
      ],
      "name": "shouldPauseUnstaking",
      "outputs": [],
      "stateMutability": "nonpayable",
      "type": "function"
    },
    {
      "inputs": [
        {
          "internalType": "uint256",
          "name": "_amount",
          "type": "uint256"
        },
        {
          "internalType": "address",
          "name": "_recipient",
          "type": "address"
        }
      ],
      "name": "stake",
      "outputs": [],
      "stateMutability": "nonpayable",
      "type": "function"
    },
    {
      "inputs": [
        {
          "internalType": "uint256",
          "name": "_amount",
          "type": "uint256"
        }
      ],
      "name": "stake",
      "outputs": [],
      "stateMutability": "nonpayable",
      "type": "function"
    },
    {
      "inputs": [],
      "name": "timeLeftToRequestWithdrawal",
      "outputs": [
        {
          "internalType": "uint256",
          "name": "",
          "type": "uint256"
        }
      ],
      "stateMutability": "view",
      "type": "function"
    },
    {
      "inputs": [
        {
          "internalType": "address",
          "name": "newOwner",
          "type": "address"
        }
      ],
      "name": "transferOwnership",
      "outputs": [],
      "stateMutability": "nonpayable",
      "type": "function"
    },
    {
      "inputs": [
        {
          "internalType": "address",
          "name": "_claimAddress",
          "type": "address"
        }
      ],
      "name": "transferToke",
      "outputs": [],
      "stateMutability": "nonpayable",
      "type": "function"
    },
    {
      "inputs": [
        {
          "internalType": "uint256",
          "name": "_amount",
          "type": "uint256"
        },
        {
          "internalType": "bool",
          "name": "_trigger",
          "type": "bool"
        }
      ],
      "name": "unstake",
      "outputs": [],
      "stateMutability": "nonpayable",
      "type": "function"
    },
    {
      "inputs": [],
      "name": "unstakeAllFromTokemak",
      "outputs": [],
      "stateMutability": "nonpayable",
      "type": "function"
    },
    {
      "inputs": [
        {
          "internalType": "address",
          "name": "",
          "type": "address"
        }
      ],
      "name": "warmUpInfo",
      "outputs": [
        {
          "internalType": "uint256",
          "name": "amount",
          "type": "uint256"
        },
        {
          "internalType": "uint256",
          "name": "gons",
          "type": "uint256"
        },
        {
          "internalType": "uint256",
          "name": "expiry",
          "type": "uint256"
        }
      ],
      "stateMutability": "view",
      "type": "function"
    },
    {
      "inputs": [],
      "name": "warmUpPeriod",
      "outputs": [
        {
          "internalType": "uint256",
          "name": "",
          "type": "uint256"
        }
      ],
      "stateMutability": "view",
      "type": "function"
    },
    {
      "inputs": [],
      "name": "withdrawalAmount",
      "outputs": [
        {
          "internalType": "uint256",
          "name": "",
          "type": "uint256"
        }
      ],
      "stateMutability": "view",
      "type": "function"
    }
  ],
  "bytecode": "0x6080604052606d805461ffff60a01b1916905534801561001e57600080fd5b506146828061002e6000396000f3fe60806040523480156200001157600080fd5b5060043610620003195760003560e01c8063736f616b11620001a5578063a694fc3a11620000f5578063e2a8179d11620000a3578063f2fde38b116200007a578063f2fde38b146200074e578063f999c5061462000765578063f9a571a2146200078b57600080fd5b8063e2a8179d1462000702578063e6e268f41462000723578063ed295509146200072d57600080fd5b8063b09881cc11620000d8578063b09881cc14620006b6578063b8e4b24414620006d7578063c9d4f35014620006f857600080fd5b8063a694fc3a1462000695578063af14052c14620006ac57600080fd5b80638da5cb5b11620001535780639776cb7811620001365780639776cb78146200065357806399248ea7146200065d5780639ebea88c146200067e57600080fd5b80638da5cb5b14620005fc578063900cf0cf146200061b57600080fd5b80637fa91eba11620001885780637fa91eba14620005a9578063820c6f5b14620005c0578063823a46a114620005f257600080fd5b8063736f616b146200057b5780637acb7757146200059257600080fd5b806330f1ebb9116200026d578063516c49d9116200021b5780635b3112fc11620001f25780635b3112fc146200055057806368d8f5141462000567578063715018a6146200057157600080fd5b8063516c49d9146200050b57806354d4be5a146200052257806354eea796146200053957600080fd5b80633897e22b11620002505780633897e22b14620004c65780634baa0cd214620004dd5780634bbce08b14620004f457600080fd5b806330f1ebb914620004b257806337df07ee14620004bc57600080fd5b8063156c46bf11620002cb5780631c4e6ab711620002ae5780631c4e6ab714620004425780631e83409a146200047a57806328ebcda1146200049157600080fd5b8063156c46bf14620003db5780631b618cc014620003f457600080fd5b80630974f94c11620003005780630974f94c146200038a5780630a8dd5e614620003a35780631078167914620003ba57600080fd5b80630479d644146200031e578063050c486c1462000369575b600080fd5b6068546200033f9073ffffffffffffffffffffffffffffffffffffffff1681565b60405173ffffffffffffffffffffffffffffffffffffffff90911681526020015b60405180910390f35b606a546200033f9073ffffffffffffffffffffffffffffffffffffffff1681565b620003a16200039b36600462003e18565b620007a2565b005b620003a1620003b436600462003edb565b62000dcd565b6065546200033f9073ffffffffffffffffffffffffffffffffffffffff1681565b620003e560745481565b60405190815260200162000360565b620004266200040536600462003efb565b60736020526000908152604090208054600182015460029092015490919083565b6040805193845260208401929092529082015260600162000360565b606d5462000469907501000000000000000000000000000000000000000000900460ff1681565b604051901515815260200162000360565b620003a16200048b36600462003efb565b62001301565b606b546200033f9073ffffffffffffffffffffffffffffffffffffffff1681565b620003e560765481565b620003a1620014c6565b620003a1620004d736600462003edb565b6200159e565b620003a1620004ee36600462003f19565b6200166c565b620003a16200050536600462003f4c565b62001771565b620003a16200051c36600462003efb565b6200187c565b620003a16200053336600462003efb565b62001a6a565b620003a16200054a36600462003fa1565b62001c3b565b620003a16200056136600462003fa1565b62001cc3565b620003a162001d4b565b620003a162001e96565b620003a16200058c36600462003fa1565b62001f25565b620003a1620005a336600462003fbb565b62001fad565b620003a1620005ba36600462003edb565b62002353565b62000426620005d136600462003efb565b60726020526000908152604090208054600182015460029092015490919083565b620003e560775481565b60335473ffffffffffffffffffffffffffffffffffffffff166200033f565b606e54606f54607054607154620006329392919084565b60408051948552602085019390935291830152606082015260800162000360565b620003e560755481565b6069546200033f9073ffffffffffffffffffffffffffffffffffffffff1681565b620003a16200068f36600462003f19565b62002420565b620003a1620006a636600462003fa1565b62002655565b620003a162002664565b6067546200033f9073ffffffffffffffffffffffffffffffffffffffff1681565b606d546200033f9073ffffffffffffffffffffffffffffffffffffffff1681565b620003e560795481565b6066546200033f9073ffffffffffffffffffffffffffffffffffffffff1681565b620003e560785481565b606c546200033f9073ffffffffffffffffffffffffffffffffffffffff1681565b620003a16200075f36600462003efb565b62002829565b606d54620004699074010000000000000000000000000000000000000000900460ff1681565b620003a16200079c36600462003fa1565b6200295c565b600054610100900460ff16620007bf5760005460ff1615620007c3565b303b155b62000855576040517f08c379a000000000000000000000000000000000000000000000000000000000815260206004820152602e60248201527f496e697469616c697a61626c653a20636f6e747261637420697320616c72656160448201527f647920696e697469616c697a656400000000000000000000000000000000000060648201526084015b60405180910390fd5b600054610100900460ff161580156200089557600080547fffffffffffffffffffffffffffffffffffffffffffffffffffffffffffff0000166101011790555b6200089f620029e4565b73ffffffffffffffffffffffffffffffffffffffff8b1615801590620008da575073ffffffffffffffffffffffffffffffffffffffff8a1615155b8015620008fc575073ffffffffffffffffffffffffffffffffffffffff891615155b80156200091e575073ffffffffffffffffffffffffffffffffffffffff881615155b801562000940575073ffffffffffffffffffffffffffffffffffffffff871615155b801562000962575073ffffffffffffffffffffffffffffffffffffffff861615155b801562000984575073ffffffffffffffffffffffffffffffffffffffff851615155b620009ec576040517f08c379a000000000000000000000000000000000000000000000000000000000815260206004820152600f60248201527f496e76616c69642061646472657373000000000000000000000000000000000060448201526064016200084c565b606880547fffffffffffffffffffffffff000000000000000000000000000000000000000090811673ffffffffffffffffffffffffffffffffffffffff8e8116919091179092556069805482168d8416908117909155606a805483168d85161790556065805483168c85161790556066805483168b85161790556067805483168a8516179055606b805490921692881692909217905561a8c0607455604051600091309162000a9b9062003de0565b73ffffffffffffffffffffffffffffffffffffffff928316815291166020820152604001604051809103906000f08015801562000adc573d6000803e3d6000fd5b50606c80547fffffffffffffffffffffffff00000000000000000000000000000000000000001673ffffffffffffffffffffffffffffffffffffffff838116919091179091556069546040519293506000923092919091169062000b409062003de0565b73ffffffffffffffffffffffffffffffffffffffff928316815291166020820152604001604051809103906000f08015801562000b81573d6000803e3d6000fd5b50606d80547fffffffffffffffffffffffff00000000000000000000000000000000000000001673ffffffffffffffffffffffffffffffffffffffff838116919091179091556068546065546040517f095ea7b300000000000000000000000000000000000000000000000000000000815290831660048201527fffffffffffffffffffffffffffffffffffffffffffffffffffffffffffffffff6024820152929350169063095ea7b390604401602060405180830381600087803b15801562000c4a57600080fd5b505af115801562000c5f573d6000803e3d6000fd5b505050506040513d601f19601f8201168201806040525081019062000c85919062003fea565b50606954606b546040517f095ea7b300000000000000000000000000000000000000000000000000000000815273ffffffffffffffffffffffffffffffffffffffff91821660048201527fffffffffffffffffffffffffffffffffffffffffffffffffffffffffffffffff602482015291169063095ea7b390604401602060405180830381600087803b15801562000d1c57600080fd5b505af115801562000d31573d6000803e3d6000fd5b505050506040513d601f19601f8201168201806040525081019062000d57919062003fea565b5050604080516080810182528681526020810186905290810184905260006060909101819052606e869055606f859055607084905560715550801562000dc057600080547fffffffffffffffffffffffffffffffffffffffffffffffffffffffffffff00ff1690555b5050505050505050505050565b606d547501000000000000000000000000000000000000000000900460ff161562000e55576040517f08c379a000000000000000000000000000000000000000000000000000000000815260206004820152601360248201527f556e7374616b696e67206973207061757365640000000000000000000000000060448201526064016200084c565b801562000e665762000e6662002664565b336000818152607260209081526040808320815160608101835281548152600182015493810193909352600201548282015260695490517f70a082310000000000000000000000000000000000000000000000000000000081526004810194909452909273ffffffffffffffffffffffffffffffffffffffff909116906370a082319060240160206040518083038186803b15801562000f0557600080fd5b505afa15801562000f1a573d6000803e3d6000fd5b505050506040513d601f19601f8201168201806040525081019062000f4091906200400a565b60695460208401516040517f7965d56d00000000000000000000000000000000000000000000000000000000815292935060009273ffffffffffffffffffffffffffffffffffffffff90921691637965d56d9162000fa49160040190815260200190565b60206040518083038186803b15801562000fbd57600080fd5b505afa15801562000fd2573d6000803e3d6000fd5b505050506040513d601f19601f8201168201806040525081019062000ff891906200400a565b9050600062001008838362004053565b606854606b546040517f70a0823100000000000000000000000000000000000000000000000000000000815273ffffffffffffffffffffffffffffffffffffffff91821660048201529293506000929116906370a082319060240160206040518083038186803b1580156200107c57600080fd5b505afa15801562001091573d6000803e3d6000fd5b505050506040513d601f19601f82011682018060405250810190620010b791906200400a565b90508162001122576040517f08c379a000000000000000000000000000000000000000000000000000000000815260206004820152601760248201527f4d75737420686176652072657761726420746f6b656e7300000000000000000060448201526064016200084c565b818110156200118e576040517f08c379a000000000000000000000000000000000000000000000000000000000815260206004820152601b60248201527f4e6f7420656e6f7567682066756e647320696e2072657365727665000000000060448201526064016200084c565b82156200123f57606c546040517fc3a2a6650000000000000000000000000000000000000000000000000000000081523060048201526024810185905273ffffffffffffffffffffffffffffffffffffffff9091169063c3a2a66590604401600060405180830381600087803b1580156200120857600080fd5b505af11580156200121d573d6000803e3d6000fd5b5050336000908152607260205260408120818155600181018290556002015550505b83156200126d576069546200126d9073ffffffffffffffffffffffffffffffffffffffff1633308762002a87565b606b546040517fbbb6a9830000000000000000000000000000000000000000000000000000000081526004810184905233602482015273ffffffffffffffffffffffffffffffffffffffff9091169063bbb6a98390604401600060405180830381600087803b158015620012e057600080fd5b505af1158015620012f5573d6000803e3d6000fd5b50505050505050505050565b73ffffffffffffffffffffffffffffffffffffffff81166000908152607260209081526040918290208251606081018452815481526001820154928101929092526002015491810191909152620013588262002b65565b15620014c25773ffffffffffffffffffffffffffffffffffffffff82811660009081526072602090815260408083208381556001810184905560020192909255606c546069549185015192517f7965d56d000000000000000000000000000000000000000000000000000000008152600481019390935283169263c3a2a66592869290911690637965d56d9060240160206040518083038186803b1580156200140057600080fd5b505afa15801562001415573d6000803e3d6000fd5b505050506040513d601f19601f820116820180604052508101906200143b91906200400a565b6040517fffffffff0000000000000000000000000000000000000000000000000000000060e085901b16815273ffffffffffffffffffffffffffffffffffffffff909216600483015260248201526044015b600060405180830381600087803b158015620014a857600080fd5b505af1158015620014bd573d6000803e3d6000fd5b505050505b5050565b620014d062002bcb565b156200159c57620014e062002dce565b60665460775473ffffffffffffffffffffffffffffffffffffffff909116901562001512576200151260775462002fed565b60008173ffffffffffffffffffffffffffffffffffffffff1663857909456040518163ffffffff1660e01b815260040160206040518083038186803b1580156200155b57600080fd5b505afa15801562001570573d6000803e3d6000fd5b505050506040513d601f19601f820116820180604052508101906200159691906200400a565b60795550505b565b60335473ffffffffffffffffffffffffffffffffffffffff16331462001621576040517f08c379a000000000000000000000000000000000000000000000000000000000815260206004820181905260248201527f4f776e61626c653a2063616c6c6572206973206e6f7420746865206f776e657260448201526064016200084c565b606d80549115157501000000000000000000000000000000000000000000027fffffffffffffffffffff00ffffffffffffffffffffffffffffffffffffffffff909216919091179055565b606854620016939073ffffffffffffffffffffffffffffffffffffffff1633308562002a87565b6068546040517f70a0823100000000000000000000000000000000000000000000000000000000815230600482015260009173ffffffffffffffffffffffffffffffffffffffff16906370a082319060240160206040518083038186803b158015620016fe57600080fd5b505afa15801562001713573d6000803e3d6000fd5b505050506040513d601f19601f820116820180604052508101906200173991906200400a565b90506000607854826200174d91906200406e565b90506200175a8162003047565b82156200176b576200176b62002664565b50505050565b6000846060013511620017e1576040517f08c379a000000000000000000000000000000000000000000000000000000000815260206004820152601760248201527f4d75737420656e7465722076616c696420616d6f756e7400000000000000000060448201526064016200084c565b6067546040517fe1fc869100000000000000000000000000000000000000000000000000000000815273ffffffffffffffffffffffffffffffffffffffff90911690819063e1fc8691906200184190889088908890889060040162004088565b600060405180830381600087803b1580156200185c57600080fd5b505af115801562001871573d6000803e3d6000fd5b505050505050505050565b73ffffffffffffffffffffffffffffffffffffffff818116600090815260736020908152604080832081516060810183528154815260018201549381018490526002909101548183015260695491517f7965d56d0000000000000000000000000000000000000000000000000000000081526004810193909352931690637965d56d9060240160206040518083038186803b1580156200191b57600080fd5b505afa15801562001930573d6000803e3d6000fd5b505050506040513d601f19601f820116820180604052508101906200195691906200400a565b90506200196383620030a1565b1562001a65576200197362002dce565b73ffffffffffffffffffffffffffffffffffffffff808416600090815260736020526040812081815560018101829055600201558251606854620019bb921690859062003284565b606d546040517fc3a2a6650000000000000000000000000000000000000000000000000000000081523060048201526024810183905273ffffffffffffffffffffffffffffffffffffffff9091169063c3a2a66590604401600060405180830381600087803b15801562001a2e57600080fd5b505af115801562001a43573d6000803e3d6000fd5b5050505081600001516078600082825462001a5f91906200406e565b90915550505b505050565b60335473ffffffffffffffffffffffffffffffffffffffff16331462001aed576040517f08c379a000000000000000000000000000000000000000000000000000000000815260206004820181905260248201527f4f776e61626c653a2063616c6c6572206973206e6f7420746865206f776e657260448201526064016200084c565b73ffffffffffffffffffffffffffffffffffffffff811662001b6c576040517f08c379a000000000000000000000000000000000000000000000000000000000815260206004820152600f60248201527f496e76616c69642061646472657373000000000000000000000000000000000060448201526064016200084c565b606a546040517f70a0823100000000000000000000000000000000000000000000000000000000815230600482015260009173ffffffffffffffffffffffffffffffffffffffff16906370a082319060240160206040518083038186803b15801562001bd757600080fd5b505afa15801562001bec573d6000803e3d6000fd5b505050506040513d601f19601f8201168201806040525081019062001c1291906200400a565b606a54909150620014c29073ffffffffffffffffffffffffffffffffffffffff16838362003284565b60335473ffffffffffffffffffffffffffffffffffffffff16331462001cbe576040517f08c379a000000000000000000000000000000000000000000000000000000000815260206004820181905260248201527f4f776e61626c653a2063616c6c6572206973206e6f7420746865206f776e657260448201526064016200084c565b606e55565b60335473ffffffffffffffffffffffffffffffffffffffff16331462001d46576040517f08c379a000000000000000000000000000000000000000000000000000000000815260206004820181905260248201527f4f776e61626c653a2063616c6c6572206973206e6f7420746865206f776e657260448201526064016200084c565b607455565b60335473ffffffffffffffffffffffffffffffffffffffff16331462001dce576040517f08c379a000000000000000000000000000000000000000000000000000000000815260206004820181905260248201527f4f776e61626c653a2063616c6c6572206973206e6f7420746865206f776e657260448201526064016200084c565b6065546040517f70a0823100000000000000000000000000000000000000000000000000000000815230600482015273ffffffffffffffffffffffffffffffffffffffff9091169060009082906370a082319060240160206040518083038186803b15801562001e3d57600080fd5b505afa15801562001e52573d6000803e3d6000fd5b505050506040513d601f19601f8201168201806040525081019062001e7891906200400a565b905062001e86600162002353565b6077819055620014c28162002fed565b60335473ffffffffffffffffffffffffffffffffffffffff16331462001f19576040517f08c379a000000000000000000000000000000000000000000000000000000000815260206004820181905260248201527f4f776e61626c653a2063616c6c6572206973206e6f7420746865206f776e657260448201526064016200084c565b6200159c6000620032dc565b60335473ffffffffffffffffffffffffffffffffffffffff16331462001fa8576040517f08c379a000000000000000000000000000000000000000000000000000000000815260206004820181905260248201527f4f776e61626c653a2063616c6c6572206973206e6f7420746865206f776e657260448201526064016200084c565b607655565b606d5474010000000000000000000000000000000000000000900460ff161562002034576040517f08c379a000000000000000000000000000000000000000000000000000000000815260206004820152601160248201527f5374616b696e672069732070617573656400000000000000000000000000000060448201526064016200084c565b60008211620020a0576040517f08c379a000000000000000000000000000000000000000000000000000000000815260206004820152601660248201527f4d75737420686176652076616c696420616d6f756e740000000000000000000060448201526064016200084c565b606954604080517f9358928b000000000000000000000000000000000000000000000000000000008152905160009273ffffffffffffffffffffffffffffffffffffffff1691639358928b916004808301926020929190829003018186803b1580156200210c57600080fd5b505afa15801562002121573d6000803e3d6000fd5b505050506040513d601f19601f820116820180604052508101906200214791906200400a565b905080156200215a576200215a62002664565b606854620021819073ffffffffffffffffffffffffffffffffffffffff1633308662002a87565b73ffffffffffffffffffffffffffffffffffffffff82166000908152607260205260409020620021b18362002b65565b15620021c257620021c28362001301565b620021cd8462003047565b6075546200220157606954620021fb9073ffffffffffffffffffffffffffffffffffffffff16848662003284565b6200176b565b60405180606001604052808583600001546200221e919062004053565b81526069546040517f1bd396740000000000000000000000000000000000000000000000000000000081526004810188905260209092019173ffffffffffffffffffffffffffffffffffffffff90911690631bd396749060240160206040518083038186803b1580156200229157600080fd5b505afa158015620022a6573d6000803e3d6000fd5b505050506040513d601f19601f82011682018060405250810190620022cc91906200400a565b8360010154620022dd919062004053565b8152602001607554606e60010154620022f7919062004053565b905273ffffffffffffffffffffffffffffffffffffffff80851660009081526072602090815260409182902084518155908401516001820155920151600290920191909155606c546069546200176b9290811691168662003284565b60335473ffffffffffffffffffffffffffffffffffffffff163314620023d6576040517f08c379a000000000000000000000000000000000000000000000000000000000815260206004820181905260248201527f4f776e61626c653a2063616c6c6572206973206e6f7420746865206f776e657260448201526064016200084c565b606d805491151574010000000000000000000000000000000000000000027fffffffffffffffffffffff00ffffffffffffffffffffffffffffffffffffffff909216919091179055565b606d547501000000000000000000000000000000000000000000900460ff1615620024a8576040517f08c379a000000000000000000000000000000000000000000000000000000000815260206004820152601360248201527f556e7374616b696e67206973207061757365640000000000000000000000000060448201526064016200084c565b8015620024b957620024b962002664565b620024c5823362003353565b33600081815260736020526040902090620024e0906200187c565b6040518060600160405280848360000154620024fd919062004053565b81526069546040517f1bd396740000000000000000000000000000000000000000000000000000000081526004810187905260209092019173ffffffffffffffffffffffffffffffffffffffff90911690631bd396749060240160206040518083038186803b1580156200257057600080fd5b505afa15801562002585573d6000803e3d6000fd5b505050506040513d601f19601f82011682018060405250810190620025ab91906200400a565b8360010154620025bc919062004053565b8152602001607654606e60010154620025d6919062004053565b9052336000908152607360209081526040808320845181559184015160018301559290920151600290920191909155607780548592906200261990849062004053565b90915550620026299050620014c6565b606d5460695462001a659173ffffffffffffffffffffffffffffffffffffffff91821691168562003284565b62002661813362001fad565b50565b60705443106200159c57606954607154606f546040517f058ecdb40000000000000000000000000000000000000000000000000000000081526004810192909252602482015273ffffffffffffffffffffffffffffffffffffffff9091169063058ecdb490604401602060405180830381600087803b158015620026e757600080fd5b505af1158015620026fc573d6000803e3d6000fd5b505050506040513d601f19601f820116820180604052508101906200272291906200400a565b50606e5460705462002735919062004053565b607055606f80549060006200274a83620040eb565b919050555060006200275b620038b8565b90506000606960009054906101000a900473ffffffffffffffffffffffffffffffffffffffff1673ffffffffffffffffffffffffffffffffffffffff16639358928b6040518163ffffffff1660e01b815260040160206040518083038186803b158015620027c857600080fd5b505afa158015620027dd573d6000803e3d6000fd5b505050506040513d601f19601f820116820180604052508101906200280391906200400a565b9050808211620028165760006071555050565b6200282281836200406e565b6071555050565b60335473ffffffffffffffffffffffffffffffffffffffff163314620028ac576040517f08c379a000000000000000000000000000000000000000000000000000000000815260206004820181905260248201527f4f776e61626c653a2063616c6c6572206973206e6f7420746865206f776e657260448201526064016200084c565b73ffffffffffffffffffffffffffffffffffffffff811662002951576040517f08c379a000000000000000000000000000000000000000000000000000000000815260206004820152602660248201527f4f776e61626c653a206e6577206f776e657220697320746865207a65726f206160448201527f646472657373000000000000000000000000000000000000000000000000000060648201526084016200084c565b6200266181620032dc565b60335473ffffffffffffffffffffffffffffffffffffffff163314620029df576040517f08c379a000000000000000000000000000000000000000000000000000000000815260206004820181905260248201527f4f776e61626c653a2063616c6c6572206973206e6f7420746865206f776e657260448201526064016200084c565b607555565b600054610100900460ff1662002a7d576040517f08c379a000000000000000000000000000000000000000000000000000000000815260206004820152602b60248201527f496e697469616c697a61626c653a20636f6e7472616374206973206e6f74206960448201527f6e697469616c697a696e6700000000000000000000000000000000000000000060648201526084016200084c565b6200159c62003981565b60405173ffffffffffffffffffffffffffffffffffffffff808516602483015283166044820152606481018290526200176b9085907f23b872dd00000000000000000000000000000000000000000000000000000000906084015b604080517fffffffffffffffffffffffffffffffffffffffffffffffffffffffffffffffe08184030181529190526020810180517bffffffffffffffffffffffffffffffffffffffffffffffffffffffff167fffffffff000000000000000000000000000000000000000000000000000000009093169290921790915262003a25565b73ffffffffffffffffffffffffffffffffffffffff8116600090815260726020908152604080832081516060810183528154815260018201549381019390935260020154908201819052606f541080159062002bc45750604081015115155b9392505050565b606654604080517fbd5da9ac000000000000000000000000000000000000000000000000000000008152905160009273ffffffffffffffffffffffffffffffffffffffff16918391839163bd5da9ac916004808301926020929190829003018186803b15801562002c3b57600080fd5b505afa15801562002c50573d6000803e3d6000fd5b505050506040513d601f19601f8201168201806040525081019062002c7691906200400a565b905060008273ffffffffffffffffffffffffffffffffffffffff1663be26ed7f6040518163ffffffff1660e01b815260040160206040518083038186803b15801562002cc157600080fd5b505afa15801562002cd6573d6000803e3d6000fd5b505050506040513d601f19601f8201168201806040525081019062002cfc91906200400a565b905060008373ffffffffffffffffffffffffffffffffffffffff1663857909456040518163ffffffff1660e01b815260040160206040518083038186803b15801562002d4757600080fd5b505afa15801562002d5c573d6000803e3d6000fd5b505050506040513d601f19601f8201168201806040525081019062002d8291906200400a565b9050600062002d92848462004053565b9050806074544262002da5919062004053565b1015801562002db5575060795482115b801562002dc457506000607754115b9550505050505090565b6065546066546040517fbb582d8000000000000000000000000000000000000000000000000000000000815230600482015273ffffffffffffffffffffffffffffffffffffffff9283169290911690600090839063bb582d80906024016040805180830381600087803b15801562002e4557600080fd5b505af115801562002e5a573d6000803e3d6000fd5b505050506040513d601f19601f8201168201806040525081019062002e80919062004127565b905060008273ffffffffffffffffffffffffffffffffffffffff1663857909456040518163ffffffff1660e01b815260040160206040518083038186803b15801562002ecb57600080fd5b505afa15801562002ee0573d6000803e3d6000fd5b505050506040513d601f19601f8201168201806040525081019062002f0691906200400a565b90506000826020015111801562002f1e575081518110155b156200176b5760208201516040517f2e1a7d4d000000000000000000000000000000000000000000000000000000008152600481019190915273ffffffffffffffffffffffffffffffffffffffff851690632e1a7d4d90602401600060405180830381600087803b15801562002f9357600080fd5b505af115801562002fa8573d6000803e3d6000fd5b5050505081602001516077600082825462002fc491906200406e565b909155505060208201516078805460009062002fe290849062004053565b909155505050505050565b6065546040517f9ee679e80000000000000000000000000000000000000000000000000000000081526004810183905273ffffffffffffffffffffffffffffffffffffffff909116908190639ee679e8906024016200148d565b6065546040517fb6b55f250000000000000000000000000000000000000000000000000000000081526004810183905273ffffffffffffffffffffffffffffffffffffffff90911690819063b6b55f25906024016200148d565b73ffffffffffffffffffffffffffffffffffffffff8181166000908152607360209081526040808320815160608101835281548152600182015493810193909352600201548282015260665460655491517fbb582d80000000000000000000000000000000000000000000000000000000008152306004820152939492939083169291909116908490829063bb582d80906024016040805180830381600087803b1580156200314f57600080fd5b505af115801562003164573d6000803e3d6000fd5b505050506040513d601f19601f820116820180604052508101906200318a919062004127565b905060008373ffffffffffffffffffffffffffffffffffffffff1663857909456040518163ffffffff1660e01b815260040160206040518083038186803b158015620031d557600080fd5b505afa158015620031ea573d6000803e3d6000fd5b505050506040513d601f19601f820116820180604052508101906200321091906200400a565b90508460400151606e60010154101580156200322f5750604085015115155b80156200323c5750845115155b8015620032795750815181108015906200326a57508451607854602084015162003267919062004053565b10155b80620032795750845160785410155b979650505050505050565b60405173ffffffffffffffffffffffffffffffffffffffff831660248201526044810182905262001a659084907fa9059cbb000000000000000000000000000000000000000000000000000000009060640162002ae2565b6033805473ffffffffffffffffffffffffffffffffffffffff8381167fffffffffffffffffffffffff0000000000000000000000000000000000000000831681179093556040519116919082907f8be0079c531659141344cd1fd0a4f28419497f9722a3daafe3b4186f6b6457e090600090a35050565b73ffffffffffffffffffffffffffffffffffffffff8181166000818152607260209081526040808320815160608101835281548152600182015493810193909352600201548282015260695490517f70a082310000000000000000000000000000000000000000000000000000000081526004810194909452909391929116906370a082319060240160206040518083038186803b158015620033f557600080fd5b505afa1580156200340a573d6000803e3d6000fd5b505050506040513d601f19601f820116820180604052508101906200343091906200400a565b60695460208401516040517f7965d56d00000000000000000000000000000000000000000000000000000000815292935060009273ffffffffffffffffffffffffffffffffffffffff90921691637965d56d91620034949160040190815260200190565b60206040518083038186803b158015620034ad57600080fd5b505afa158015620034c2573d6000803e3d6000fd5b505050506040513d601f19601f82011682018060405250810190620034e891906200400a565b9050620034f6818362004053565b85111562003561576040517f08c379a000000000000000000000000000000000000000000000000000000000815260206004820152601460248201527f496e73756666696369656e742042616c616e636500000000000000000000000060448201526064016200084c565b8481156200388a578186106200363b57606c546040517fc3a2a66500000000000000000000000000000000000000000000000000000000815230600482015260248101849052918390039173ffffffffffffffffffffffffffffffffffffffff9091169063c3a2a66590604401600060405180830381600087803b158015620035e957600080fd5b505af1158015620035fe573d6000803e3d6000fd5b50505073ffffffffffffffffffffffffffffffffffffffff861660009081526072602052604081208181556001810182905560020155506200388a565b50606c546040517fc3a2a6650000000000000000000000000000000000000000000000000000000081523060048201526024810187905260009173ffffffffffffffffffffffffffffffffffffffff169063c3a2a66590604401600060405180830381600087803b158015620036b057600080fd5b505af1158015620036c5573d6000803e3d6000fd5b50506069546040517f1bd39674000000000000000000000000000000000000000000000000000000008152600481018a90526000935073ffffffffffffffffffffffffffffffffffffffff9091169150631bd396749060240160206040518083038186803b1580156200373757600080fd5b505afa1580156200374c573d6000803e3d6000fd5b505050506040513d601f19601f820116820180604052508101906200377291906200400a565b85602001516200378391906200406e565b6069546040517f7965d56d0000000000000000000000000000000000000000000000000000000081526004810183905291925060009173ffffffffffffffffffffffffffffffffffffffff90911690637965d56d9060240160206040518083038186803b158015620037f457600080fd5b505afa15801562003809573d6000803e3d6000fd5b505050506040513d601f19601f820116820180604052508101906200382f91906200400a565b6040805160608101825291825260208083019485528882015183830190815273ffffffffffffffffffffffffffffffffffffffff8b166000908152607290925291902091518255925160018201559151600290920191909155505b8015620014bd57606954620014bd9073ffffffffffffffffffffffffffffffffffffffff1686308462002a87565b600080620038c562003b38565b6068546040517f70a08231000000000000000000000000000000000000000000000000000000008152306004820152919250829173ffffffffffffffffffffffffffffffffffffffff909116906370a082319060240160206040518083038186803b1580156200393457600080fd5b505afa15801562003949573d6000803e3d6000fd5b505050506040513d601f19601f820116820180604052508101906200396f91906200400a565b6200397b919062004053565b91505090565b600054610100900460ff1662003a1a576040517f08c379a000000000000000000000000000000000000000000000000000000000815260206004820152602b60248201527f496e697469616c697a61626c653a20636f6e7472616374206973206e6f74206960448201527f6e697469616c697a696e6700000000000000000000000000000000000000000060648201526084016200084c565b6200159c33620032dc565b600062003a89826040518060400160405280602081526020017f5361666545524332303a206c6f772d6c6576656c2063616c6c206661696c65648152508573ffffffffffffffffffffffffffffffffffffffff1662003be09092919063ffffffff16565b80519091501562001a65578080602001905181019062003aaa919062003fea565b62001a65576040517f08c379a000000000000000000000000000000000000000000000000000000000815260206004820152602a60248201527f5361666545524332303a204552433230206f7065726174696f6e20646964206e60448201527f6f7420737563636565640000000000000000000000000000000000000000000060648201526084016200084c565b6065546040517f70a0823100000000000000000000000000000000000000000000000000000000815230600482015260009173ffffffffffffffffffffffffffffffffffffffff169081906370a082319060240160206040518083038186803b15801562003ba557600080fd5b505afa15801562003bba573d6000803e3d6000fd5b505050506040513d601f19601f820116820180604052508101906200397b91906200400a565b606062003bf1848460008562003bf9565b949350505050565b60608247101562003c8d576040517f08c379a000000000000000000000000000000000000000000000000000000000815260206004820152602660248201527f416464726573733a20696e73756666696369656e742062616c616e636520666f60448201527f722063616c6c000000000000000000000000000000000000000000000000000060648201526084016200084c565b73ffffffffffffffffffffffffffffffffffffffff85163b62003d0d576040517f08c379a000000000000000000000000000000000000000000000000000000000815260206004820152601d60248201527f416464726573733a2063616c6c20746f206e6f6e2d636f6e747261637400000060448201526064016200084c565b6000808673ffffffffffffffffffffffffffffffffffffffff16858760405162003d389190620041ce565b60006040518083038185875af1925050503d806000811462003d77576040519150601f19603f3d011682016040523d82523d6000602084013e62003d7c565b606091505b5091509150620032798282866060831562003d9957508162002bc4565b82511562003daa5782518084602001fd5b816040517f08c379a00000000000000000000000000000000000000000000000000000000081526004016200084c9190620041ec565b61040d806200424083390190565b803573ffffffffffffffffffffffffffffffffffffffff8116811462003e1357600080fd5b919050565b6000806000806000806000806000806101408b8d03121562003e3957600080fd5b62003e448b62003dee565b995062003e5460208c0162003dee565b985062003e6460408c0162003dee565b975062003e7460608c0162003dee565b965062003e8460808c0162003dee565b955062003e9460a08c0162003dee565b945062003ea460c08c0162003dee565b935060e08b013592506101008b013591506101208b013590509295989b9194979a5092959850565b80151581146200266157600080fd5b60006020828403121562003eee57600080fd5b813562002bc48162003ecc565b60006020828403121562003f0e57600080fd5b62002bc48262003dee565b6000806040838503121562003f2d57600080fd5b82359150602083013562003f418162003ecc565b809150509250929050565b60008060008084860360e081121562003f6457600080fd5b608081121562003f7357600080fd5b50849350608085013560ff8116811462003f8c57600080fd5b939693955050505060a08201359160c0013590565b60006020828403121562003fb457600080fd5b5035919050565b6000806040838503121562003fcf57600080fd5b8235915062003fe16020840162003dee565b90509250929050565b60006020828403121562003ffd57600080fd5b815162002bc48162003ecc565b6000602082840312156200401d57600080fd5b5051919050565b7f4e487b7100000000000000000000000000000000000000000000000000000000600052601160045260246000fd5b6000821982111562004069576200406962004024565b500190565b60008282101562004083576200408362004024565b500390565b843581526020808601359082015260e0810173ffffffffffffffffffffffffffffffffffffffff620040bd6040880162003dee565b1660408301526060860135606083015260ff851660808301528360a08301528260c083015295945050505050565b60007fffffffffffffffffffffffffffffffffffffffffffffffffffffffffffffffff82141562004120576200412062004024565b5060010190565b6000604082840312156200413a57600080fd5b6040516040810181811067ffffffffffffffff8211171562004185577f4e487b7100000000000000000000000000000000000000000000000000000000600052604160045260246000fd5b604052825181526020928301519281019290925250919050565b60005b83811015620041bc578181015183820152602001620041a2565b838111156200176b5750506000910152565b60008251620041e28184602087016200419f565b9190910192915050565b60208152600082518060208401526200420d8160408501602087016200419f565b601f017fffffffffffffffffffffffffffffffffffffffffffffffffffffffffffffffe016919091016040019291505056fe60c060405234801561001057600080fd5b5060405161040d38038061040d83398101604081905261002f916100c4565b6001600160a01b0382161580159061004f57506001600160a01b03811615155b6100915760405162461bcd60e51b815260206004820152600f60248201526e496e76616c6964206164647265737360881b604482015260640160405180910390fd5b6001600160a01b039182166080521660a0526100f7565b80516001600160a01b03811681146100bf57600080fd5b919050565b600080604083850312156100d757600080fd5b6100e0836100a8565b91506100ee602084016100a8565b90509250929050565b60805160a0516102e661012760003960008181604b01526101c101526000818160b0015260ea01526102e66000f3fe608060405234801561001057600080fd5b50600436106100415760003560e01c806399248ea714610046578063c3a2a66514610096578063da19ddfb146100ab575b600080fd5b61006d7f000000000000000000000000000000000000000000000000000000000000000081565b60405173ffffffffffffffffffffffffffffffffffffffff909116815260200160405180910390f35b6100a96100a4366004610242565b6100d2565b005b61006d7f000000000000000000000000000000000000000000000000000000000000000081565b3373ffffffffffffffffffffffffffffffffffffffff7f00000000000000000000000000000000000000000000000000000000000000001614610175576040517f08c379a000000000000000000000000000000000000000000000000000000000815260206004820181905260248201527f4e6f742063616c6c65642066726f6d207374616b696e6720636f6e7472616374604482015260640160405180910390fd5b6040517fa9059cbb00000000000000000000000000000000000000000000000000000000815273ffffffffffffffffffffffffffffffffffffffff8381166004830152602482018390527f0000000000000000000000000000000000000000000000000000000000000000169063a9059cbb90604401602060405180830381600087803b15801561020557600080fd5b505af1158015610219573d6000803e3d6000fd5b505050506040513d601f19601f8201168201806040525081019061023d9190610287565b505050565b6000806040838503121561025557600080fd5b823573ffffffffffffffffffffffffffffffffffffffff8116811461027957600080fd5b946020939093013593505050565b60006020828403121561029957600080fd5b815180151581146102a957600080fd5b939250505056fea26469706673582212207ea98e6d63ce6cffc4ed61eb75ea1bff472395deeb4c0f869e4fe40dfbee0e6c64736f6c63430008090033a26469706673582212209926fd2ff3687adc6630eff7c252d144c36af773cd51b41bef1fbe3769fa653964736f6c63430008090033",
  "linkReferences": {},
  "deployedLinkReferences": {}
}