{
  "_format": "hh-sol-artifact-1",
  "contractName": "LiquidityReserveStorage",
  "sourceName": "src/contracts/LiquidityReserveStorage.sol",
  "abi": [
    {
      "inputs": [],
      "name": "BASIS_POINTS",
      "outputs": [
        {
          "internalType": "uint256",
          "name": "",
          "type": "uint256"
        }
      ],
      "stateMutability": "view",
      "type": "function"
    },
    {
      "inputs": [],
      "name": "MINIMUM_LIQUIDITY",
      "outputs": [
        {
          "internalType": "uint256",
          "name": "",
          "type": "uint256"
        }
      ],
      "stateMutability": "view",
      "type": "function"
    },
    {
      "inputs": [],
      "name": "fee",
      "outputs": [
        {
          "internalType": "uint256",
          "name": "",
          "type": "uint256"
        }
      ],
      "stateMutability": "view",
      "type": "function"
    },
    {
      "inputs": [],
      "name": "isReserveEnabled",
      "outputs": [
        {
          "internalType": "bool",
          "name": "",
          "type": "bool"
        }
      ],
      "stateMutability": "view",
      "type": "function"
    },
    {
      "inputs": [],
      "name": "rewardToken",
      "outputs": [
        {
          "internalType": "address",
          "name": "",
          "type": "address"
        }
      ],
      "stateMutability": "view",
      "type": "function"
    },
    {
      "inputs": [],
      "name": "stakingContract",
      "outputs": [
        {
          "internalType": "address",
          "name": "",
          "type": "address"
        }
      ],
      "stateMutability": "view",
      "type": "function"
    },
    {
      "inputs": [],
      "name": "stakingToken",
      "outputs": [
        {
          "internalType": "address",
          "name": "",
          "type": "address"
        }
      ],
      "stateMutability": "view",
      "type": "function"
    }
  ],
  "bytecode": "0x608060405234801561001057600080fd5b5061018d806100206000396000f3fe608060405234801561001057600080fd5b506004361061007d5760003560e01c8063ddca3f431161005b578063ddca3f4314610105578063e1f1c4a71461010e578063ee99205c14610117578063f7c618c11461013757600080fd5b80632dd2f33c1461008257806372f702f3146100a4578063ba9a7a56146100e9575b600080fd5b60045461008f9060ff1681565b60405190151581526020015b60405180910390f35b6000546100c49073ffffffffffffffffffffffffffffffffffffffff1681565b60405173ffffffffffffffffffffffffffffffffffffffff909116815260200161009b565b6100f766038d7ea4c6800081565b60405190815260200161009b565b6100f760035481565b6100f761271081565b6002546100c49073ffffffffffffffffffffffffffffffffffffffff1681565b6001546100c49073ffffffffffffffffffffffffffffffffffffffff168156fea26469706673582212207cec07a51bdeaf2726731b81768b8bf19b7994cee67d62d49830f8672484b24e64736f6c63430008090033",
  "linkReferences": {},
  "deployedLinkReferences": {}
}