{
  "_format": "hh-sol-artifact-1",
  "contractName": "LiquidityReserve",
  "sourceName": "src/contracts/LiquidityReserve.sol",
  "abi": [
    {
      "anonymous": false,
      "inputs": [
        {
          "indexed": true,
          "internalType": "address",
          "name": "owner",
          "type": "address"
        },
        {
          "indexed": true,
          "internalType": "address",
          "name": "spender",
          "type": "address"
        },
        {
          "indexed": false,
          "internalType": "uint256",
          "name": "value",
          "type": "uint256"
        }
      ],
      "name": "Approval",
      "type": "event"
    },
    {
      "anonymous": false,
      "inputs": [
        {
          "indexed": false,
          "internalType": "uint256",
          "name": "fee",
          "type": "uint256"
        }
      ],
      "name": "FeeChanged",
      "type": "event"
    },
    {
      "anonymous": false,
      "inputs": [
        {
          "indexed": true,
          "internalType": "address",
          "name": "previousOwner",
          "type": "address"
        },
        {
          "indexed": true,
          "internalType": "address",
          "name": "newOwner",
          "type": "address"
        }
      ],
      "name": "OwnershipTransferred",
      "type": "event"
    },
    {
      "anonymous": false,
      "inputs": [
        {
          "indexed": true,
          "internalType": "address",
          "name": "from",
          "type": "address"
        },
        {
          "indexed": true,
          "internalType": "address",
          "name": "to",
          "type": "address"
        },
        {
          "indexed": false,
          "internalType": "uint256",
          "name": "value",
          "type": "uint256"
        }
      ],
      "name": "Transfer",
      "type": "event"
    },
    {
      "inputs": [],
      "name": "BASIS_POINTS",
      "outputs": [
        {
          "internalType": "uint256",
          "name": "",
          "type": "uint256"
        }
      ],
      "stateMutability": "view",
      "type": "function"
    },
    {
      "inputs": [],
      "name": "MINIMUM_LIQUIDITY",
      "outputs": [
        {
          "internalType": "uint256",
          "name": "",
          "type": "uint256"
        }
      ],
      "stateMutability": "view",
      "type": "function"
    },
    {
      "inputs": [
        {
          "internalType": "uint256",
          "name": "_amount",
          "type": "uint256"
        }
      ],
      "name": "addLiquidity",
      "outputs": [],
      "stateMutability": "nonpayable",
      "type": "function"
    },
    {
      "inputs": [
        {
          "internalType": "address",
          "name": "owner",
          "type": "address"
        },
        {
          "internalType": "address",
          "name": "spender",
          "type": "address"
        }
      ],
      "name": "allowance",
      "outputs": [
        {
          "internalType": "uint256",
          "name": "",
          "type": "uint256"
        }
      ],
      "stateMutability": "view",
      "type": "function"
    },
    {
      "inputs": [
        {
          "internalType": "address",
          "name": "spender",
          "type": "address"
        },
        {
          "internalType": "uint256",
          "name": "amount",
          "type": "uint256"
        }
      ],
      "name": "approve",
      "outputs": [
        {
          "internalType": "bool",
          "name": "",
          "type": "bool"
        }
      ],
      "stateMutability": "nonpayable",
      "type": "function"
    },
    {
      "inputs": [
        {
          "internalType": "address",
          "name": "account",
          "type": "address"
        }
      ],
      "name": "balanceOf",
      "outputs": [
        {
          "internalType": "uint256",
          "name": "",
          "type": "uint256"
        }
      ],
      "stateMutability": "view",
      "type": "function"
    },
    {
      "inputs": [],
      "name": "decimals",
      "outputs": [
        {
          "internalType": "uint8",
          "name": "",
          "type": "uint8"
        }
      ],
      "stateMutability": "view",
      "type": "function"
    },
    {
      "inputs": [
        {
          "internalType": "address",
          "name": "spender",
          "type": "address"
        },
        {
          "internalType": "uint256",
          "name": "subtractedValue",
          "type": "uint256"
        }
      ],
      "name": "decreaseAllowance",
      "outputs": [
        {
          "internalType": "bool",
          "name": "",
          "type": "bool"
        }
      ],
      "stateMutability": "nonpayable",
      "type": "function"
    },
    {
      "inputs": [],
      "name": "fee",
      "outputs": [
        {
          "internalType": "uint256",
          "name": "",
          "type": "uint256"
        }
      ],
      "stateMutability": "view",
      "type": "function"
    },
    {
      "inputs": [
        {
          "internalType": "address",
          "name": "spender",
          "type": "address"
        },
        {
          "internalType": "uint256",
          "name": "addedValue",
          "type": "uint256"
        }
      ],
      "name": "increaseAllowance",
      "outputs": [
        {
          "internalType": "bool",
          "name": "",
          "type": "bool"
        }
      ],
      "stateMutability": "nonpayable",
      "type": "function"
    },
    {
      "inputs": [
        {
          "internalType": "string",
          "name": "_tokenName",
          "type": "string"
        },
        {
          "internalType": "string",
          "name": "_tokenSymbol",
          "type": "string"
        },
        {
          "internalType": "address",
          "name": "_stakingToken",
          "type": "address"
        },
        {
          "internalType": "address",
          "name": "_stakingContract",
          "type": "address"
        },
        {
          "internalType": "address",
          "name": "_rewardToken",
          "type": "address"
        }
      ],
      "name": "initialize",
      "outputs": [],
      "stateMutability": "nonpayable",
      "type": "function"
    },
    {
      "inputs": [
        {
          "internalType": "uint256",
          "name": "_amount",
          "type": "uint256"
        },
        {
          "internalType": "address",
          "name": "_recipient",
          "type": "address"
        }
      ],
      "name": "instantUnstake",
      "outputs": [],
      "stateMutability": "nonpayable",
      "type": "function"
    },
    {
      "inputs": [],
      "name": "name",
      "outputs": [
        {
          "internalType": "string",
          "name": "",
          "type": "string"
        }
      ],
      "stateMutability": "view",
      "type": "function"
    },
    {
      "inputs": [],
      "name": "owner",
      "outputs": [
        {
          "internalType": "address",
          "name": "",
          "type": "address"
        }
      ],
      "stateMutability": "view",
      "type": "function"
    },
    {
      "inputs": [
        {
          "internalType": "uint256",
          "name": "_amount",
          "type": "uint256"
        }
      ],
      "name": "removeLiquidity",
      "outputs": [],
      "stateMutability": "nonpayable",
      "type": "function"
    },
    {
      "inputs": [],
      "name": "renounceOwnership",
      "outputs": [],
      "stateMutability": "nonpayable",
      "type": "function"
    },
    {
      "inputs": [],
      "name": "rewardToken",
      "outputs": [
        {
          "internalType": "address",
          "name": "",
          "type": "address"
        }
      ],
      "stateMutability": "view",
      "type": "function"
    },
    {
      "inputs": [
        {
          "internalType": "uint256",
          "name": "_fee",
          "type": "uint256"
        }
      ],
      "name": "setFee",
      "outputs": [],
      "stateMutability": "nonpayable",
      "type": "function"
    },
    {
      "inputs": [],
      "name": "stakingContract",
      "outputs": [
        {
          "internalType": "address",
          "name": "",
          "type": "address"
        }
      ],
      "stateMutability": "view",
      "type": "function"
    },
    {
      "inputs": [],
      "name": "stakingToken",
      "outputs": [
        {
          "internalType": "address",
          "name": "",
          "type": "address"
        }
      ],
      "stateMutability": "view",
      "type": "function"
    },
    {
      "inputs": [],
      "name": "symbol",
      "outputs": [
        {
          "internalType": "string",
          "name": "",
          "type": "string"
        }
      ],
      "stateMutability": "view",
      "type": "function"
    },
    {
      "inputs": [],
      "name": "totalSupply",
      "outputs": [
        {
          "internalType": "uint256",
          "name": "",
          "type": "uint256"
        }
      ],
      "stateMutability": "view",
      "type": "function"
    },
    {
      "inputs": [
        {
          "internalType": "address",
          "name": "to",
          "type": "address"
        },
        {
          "internalType": "uint256",
          "name": "amount",
          "type": "uint256"
        }
      ],
      "name": "transfer",
      "outputs": [
        {
          "internalType": "bool",
          "name": "",
          "type": "bool"
        }
      ],
      "stateMutability": "nonpayable",
      "type": "function"
    },
    {
      "inputs": [
        {
          "internalType": "address",
          "name": "from",
          "type": "address"
        },
        {
          "internalType": "address",
          "name": "to",
          "type": "address"
        },
        {
          "internalType": "uint256",
          "name": "amount",
          "type": "uint256"
        }
      ],
      "name": "transferFrom",
      "outputs": [
        {
          "internalType": "bool",
          "name": "",
          "type": "bool"
        }
      ],
      "stateMutability": "nonpayable",
      "type": "function"
    },
    {
      "inputs": [
        {
          "internalType": "address",
          "name": "newOwner",
          "type": "address"
        }
      ],
      "name": "transferOwnership",
      "outputs": [],
      "stateMutability": "nonpayable",
      "type": "function"
    },
    {
      "inputs": [],
      "name": "unstakeAllRewardTokens",
      "outputs": [],
      "stateMutability": "nonpayable",
      "type": "function"
    }
  ],
  "bytecode": "0x608060405234801561001057600080fd5b50612bd7806100206000396000f3fe608060405234801561001057600080fd5b50600436106101ae5760003560e01c80639c8f9f23116100ee578063dd62ed3e11610097578063ed45647811610071578063ed456478146103d1578063ee99205c146103d9578063f2fde38b146103f9578063f7c618c11461040c57600080fd5b8063dd62ed3e14610379578063ddca3f43146103bf578063e1f1c4a7146103c857600080fd5b8063ba9a7a56116100c8578063ba9a7a5614610345578063bbb6a98314610353578063db0ed6a01461036657600080fd5b80639c8f9f231461030c578063a457c2d71461031f578063a9059cbb1461033257600080fd5b806351c6590a1161015b578063715018a611610135578063715018a61461029957806372f702f3146102a15780638da5cb5b146102e657806395d89b411461030457600080fd5b806351c6590a1461023b57806369fe0e2d1461025057806370a082311461026357600080fd5b806323b872dd1161018c57806323b872dd14610206578063313ce56714610219578063395093511461022857600080fd5b806306fdde03146101b3578063095ea7b3146101d157806318160ddd146101f4575b600080fd5b6101bb61042c565b6040516101c891906126ea565b60405180910390f35b6101e46101df366004612764565b6104be565b60405190151581526020016101c8565b6039545b6040519081526020016101c8565b6101e461021436600461278e565b6104d6565b604051601281526020016101c8565b6101e4610236366004612764565b6104fc565b61024e6102493660046127ca565b610548565b005b61024e61025e3660046127ca565b6107b3565b6101f86102713660046127e3565b73ffffffffffffffffffffffffffffffffffffffff1660009081526037602052604090205490565b61024e6108e0565b6000546102c19073ffffffffffffffffffffffffffffffffffffffff1681565b60405173ffffffffffffffffffffffffffffffffffffffff90911681526020016101c8565b60695473ffffffffffffffffffffffffffffffffffffffff166102c1565b6101bb61096d565b61024e61031a3660046127ca565b61097c565b6101e461032d366004612764565b610bc3565b6101e4610340366004612764565b610c9f565b6101f866038d7ea4c6800081565b61024e6103613660046127fe565b610cad565b61024e610374366004612904565b610e31565b6101f861038736600461299a565b73ffffffffffffffffffffffffffffffffffffffff918216600090815260386020908152604080832093909416825291909152205490565b6101f860035481565b6101f861271081565b61024e6111e2565b6002546102c19073ffffffffffffffffffffffffffffffffffffffff1681565b61024e6104073660046127e3565b61131b565b6001546102c19073ffffffffffffffffffffffffffffffffffffffff1681565b6060603a805461043b906129c4565b80601f0160208091040260200160405190810160405280929190818152602001828054610467906129c4565b80156104b45780601f10610489576101008083540402835291602001916104b4565b820191906000526020600020905b81548152906001019060200180831161049757829003601f168201915b5050505050905090565b6000336104cc818585611448565b5060019392505050565b6000336104e48582856115fb565b6104ef8585856116d2565b60019150505b9392505050565b33600081815260386020908152604080832073ffffffffffffffffffffffffffffffffffffffff871684529091528120549091906104cc9082908690610543908790612a47565b611448565b600080546040517f70a0823100000000000000000000000000000000000000000000000000000000815230600482015273ffffffffffffffffffffffffffffffffffffffff909116906370a082319060240160206040518083038186803b1580156105b257600080fd5b505afa1580156105c6573d6000803e3d6000fd5b505050506040513d601f19601f820116820180604052508101906105ea9190612a5f565b6001546040517f70a0823100000000000000000000000000000000000000000000000000000000815230600482015291925060009173ffffffffffffffffffffffffffffffffffffffff909116906370a082319060240160206040518083038186803b15801561065957600080fd5b505afa15801561066d573d6000803e3d6000fd5b505050506040513d601f19601f820116820180604052508101906106919190612a5f565b9050600061069e60395490565b6002546040517f1b618cc000000000000000000000000000000000000000000000000000000000815230600482015291925060009173ffffffffffffffffffffffffffffffffffffffff90911690631b618cc09060240160606040518083038186803b15801561070d57600080fd5b505afa158015610721573d6000803e3d6000fd5b505050506040513d601f19601f820116820180604052508101906107459190612a78565b5190506000816107558587612a47565b61075f9190612a47565b905060008161076e8589612ad4565b6107789190612b11565b6000549091506107a09073ffffffffffffffffffffffffffffffffffffffff1633308a611985565b6107aa3382611a61565b50505050505050565b60695473ffffffffffffffffffffffffffffffffffffffff163314610839576040517f08c379a000000000000000000000000000000000000000000000000000000000815260206004820181905260248201527f4f776e61626c653a2063616c6c6572206973206e6f7420746865206f776e657260448201526064015b60405180910390fd5b6127108111156108a5576040517f08c379a000000000000000000000000000000000000000000000000000000000815260206004820152600c60248201527f4f7574206f662072616e676500000000000000000000000000000000000000006044820152606401610830565b60038190556040518181527f6bbc57480a46553fa4d156ce702beef5f3ad66303b0ed1a5d4cb44966c6584c39060200160405180910390a150565b60695473ffffffffffffffffffffffffffffffffffffffff163314610961576040517f08c379a000000000000000000000000000000000000000000000000000000000815260206004820181905260248201527f4f776e61626c653a2063616c6c6572206973206e6f7420746865206f776e65726044820152606401610830565b61096b6000611b81565b565b6060603b805461043b906129c4565b336000908152603760205260409020548111156109f5576040517f08c379a000000000000000000000000000000000000000000000000000000000815260206004820152601460248201527f4e6f7420656e6f756768206c7220746f6b656e730000000000000000000000006044820152606401610830565b6002546040517f516c49d900000000000000000000000000000000000000000000000000000000815230600482015273ffffffffffffffffffffffffffffffffffffffff9091169063516c49d990602401600060405180830381600087803b158015610a6057600080fd5b505af1158015610a74573d6000803e3d6000fd5b505050506000610a8382611bf8565b6000546040517f70a08231000000000000000000000000000000000000000000000000000000008152306004820152919250829173ffffffffffffffffffffffffffffffffffffffff909116906370a082319060240160206040518083038186803b158015610af157600080fd5b505afa158015610b05573d6000803e3d6000fd5b505050506040513d601f19601f82011682018060405250810190610b299190612a5f565b1015610b91576040517f08c379a000000000000000000000000000000000000000000000000000000000815260206004820152601060248201527f4e6f7420656e6f7567682066756e6473000000000000000000000000000000006044820152606401610830565b610b9b3383611e38565b600054610bbf9073ffffffffffffffffffffffffffffffffffffffff163383612025565b5050565b33600081815260386020908152604080832073ffffffffffffffffffffffffffffffffffffffff8716845290915281205490919083811015610c87576040517f08c379a000000000000000000000000000000000000000000000000000000000815260206004820152602560248201527f45524332303a2064656372656173656420616c6c6f77616e63652062656c6f7760448201527f207a65726f0000000000000000000000000000000000000000000000000000006064820152608401610830565b610c948286868403611448565b506001949350505050565b6000336104cc8185856116d2565b60025473ffffffffffffffffffffffffffffffffffffffff163314610d2e576040517f08c379a000000000000000000000000000000000000000000000000000000000815260206004820152601460248201527f4e6f74207374616b696e6720636f6e74726163740000000000000000000000006044820152606401610830565b6002546040517f516c49d900000000000000000000000000000000000000000000000000000000815230600482015273ffffffffffffffffffffffffffffffffffffffff9091169063516c49d990602401600060405180830381600087803b158015610d9957600080fd5b505af1158015610dad573d6000803e3d6000fd5b50505050600061271060035484610dc49190612ad4565b610dce9190612b11565b610dd89084612b4c565b600154909150610e009073ffffffffffffffffffffffffffffffffffffffff16333086611985565b600054610e249073ffffffffffffffffffffffffffffffffffffffff168383612025565b610e2c6111e2565b505050565b610e3b858561207b565b610e4361211c565b73ffffffffffffffffffffffffffffffffffffffff8316610ec0576040517f08c379a000000000000000000000000000000000000000000000000000000000815260206004820152600f60248201527f496e76616c6964206164647265737300000000000000000000000000000000006044820152606401610830565b600080547fffffffffffffffffffffffff00000000000000000000000000000000000000001673ffffffffffffffffffffffffffffffffffffffff851690811782556040517f70a082310000000000000000000000000000000000000000000000000000000081523360048201526370a082319060240160206040518083038186803b158015610f4f57600080fd5b505afa158015610f63573d6000803e3d6000fd5b505050506040513d601f19601f82011682018060405250810190610f879190612a5f565b905073ffffffffffffffffffffffffffffffffffffffff831615801590610fc3575073ffffffffffffffffffffffffffffffffffffffff821615155b611029576040517f08c379a000000000000000000000000000000000000000000000000000000000815260206004820152600f60248201527f496e76616c6964206164647265737300000000000000000000000000000000006044820152606401610830565b66038d7ea4c6800081101561109a576040517f08c379a000000000000000000000000000000000000000000000000000000000815260206004820152601960248201527f4e6f7420656e6f756768207374616b696e6720746f6b656e73000000000000006044820152606401610830565b6002805473ffffffffffffffffffffffffffffffffffffffff8086167fffffffffffffffffffffffff0000000000000000000000000000000000000000928316179092556001805485841692169190911790556000546111049116333066038d7ea4c68000611985565b6111153066038d7ea4c68000611a61565b6001546002546040517f095ea7b300000000000000000000000000000000000000000000000000000000815273ffffffffffffffffffffffffffffffffffffffff91821660048201527fffffffffffffffffffffffffffffffffffffffffffffffffffffffffffffffff602482015291169063095ea7b390604401602060405180830381600087803b1580156111aa57600080fd5b505af11580156111be573d6000803e3d6000fd5b505050506040513d601f19601f820116820180604052508101906107aa9190612b63565b6001546040517f70a0823100000000000000000000000000000000000000000000000000000000815230600482015260009173ffffffffffffffffffffffffffffffffffffffff16906370a082319060240160206040518083038186803b15801561124c57600080fd5b505afa158015611260573d6000803e3d6000fd5b505050506040513d601f19601f820116820180604052508101906112849190612a5f565b90508015611318576002546040517f9ebea88c000000000000000000000000000000000000000000000000000000008152600481018390526000602482015273ffffffffffffffffffffffffffffffffffffffff90911690639ebea88c90604401600060405180830381600087803b1580156112ff57600080fd5b505af1158015611313573d6000803e3d6000fd5b505050505b50565b60695473ffffffffffffffffffffffffffffffffffffffff16331461139c576040517f08c379a000000000000000000000000000000000000000000000000000000000815260206004820181905260248201527f4f776e61626c653a2063616c6c6572206973206e6f7420746865206f776e65726044820152606401610830565b73ffffffffffffffffffffffffffffffffffffffff811661143f576040517f08c379a000000000000000000000000000000000000000000000000000000000815260206004820152602660248201527f4f776e61626c653a206e6577206f776e657220697320746865207a65726f206160448201527f64647265737300000000000000000000000000000000000000000000000000006064820152608401610830565b61131881611b81565b73ffffffffffffffffffffffffffffffffffffffff83166114ea576040517f08c379a0000000000000000000000000000000000000000000000000000000008152602060048201526024808201527f45524332303a20617070726f76652066726f6d20746865207a65726f2061646460448201527f72657373000000000000000000000000000000000000000000000000000000006064820152608401610830565b73ffffffffffffffffffffffffffffffffffffffff821661158d576040517f08c379a000000000000000000000000000000000000000000000000000000000815260206004820152602260248201527f45524332303a20617070726f766520746f20746865207a65726f20616464726560448201527f73730000000000000000000000000000000000000000000000000000000000006064820152608401610830565b73ffffffffffffffffffffffffffffffffffffffff83811660008181526038602090815260408083209487168084529482529182902085905590518481527f8c5be1e5ebec7d5bd14f71427d1e84f3dd0314c0f7b2291e5b200ac8c7c3b925910160405180910390a3505050565b73ffffffffffffffffffffffffffffffffffffffff8381166000908152603860209081526040808320938616835292905220547fffffffffffffffffffffffffffffffffffffffffffffffffffffffffffffffff81146116cc57818110156116bf576040517f08c379a000000000000000000000000000000000000000000000000000000000815260206004820152601d60248201527f45524332303a20696e73756666696369656e7420616c6c6f77616e63650000006044820152606401610830565b6116cc8484848403611448565b50505050565b73ffffffffffffffffffffffffffffffffffffffff8316611775576040517f08c379a000000000000000000000000000000000000000000000000000000000815260206004820152602560248201527f45524332303a207472616e736665722066726f6d20746865207a65726f20616460448201527f64726573730000000000000000000000000000000000000000000000000000006064820152608401610830565b73ffffffffffffffffffffffffffffffffffffffff8216611818576040517f08c379a000000000000000000000000000000000000000000000000000000000815260206004820152602360248201527f45524332303a207472616e7366657220746f20746865207a65726f206164647260448201527f65737300000000000000000000000000000000000000000000000000000000006064820152608401610830565b73ffffffffffffffffffffffffffffffffffffffff8316600090815260376020526040902054818110156118ce576040517f08c379a000000000000000000000000000000000000000000000000000000000815260206004820152602660248201527f45524332303a207472616e7366657220616d6f756e742065786365656473206260448201527f616c616e636500000000000000000000000000000000000000000000000000006064820152608401610830565b73ffffffffffffffffffffffffffffffffffffffff808516600090815260376020526040808220858503905591851681529081208054849290611912908490612a47565b925050819055508273ffffffffffffffffffffffffffffffffffffffff168473ffffffffffffffffffffffffffffffffffffffff167fddf252ad1be2c89b69c2b068fc378daa952ba7f163c4a11628f55a4df523b3ef8460405161197891815260200190565b60405180910390a36116cc565b60405173ffffffffffffffffffffffffffffffffffffffff808516602483015283166044820152606481018290526116cc9085907f23b872dd00000000000000000000000000000000000000000000000000000000906084015b604080517fffffffffffffffffffffffffffffffffffffffffffffffffffffffffffffffe08184030181529190526020810180517bffffffffffffffffffffffffffffffffffffffffffffffffffffffff167fffffffff00000000000000000000000000000000000000000000000000000000909316929092179091526121bb565b73ffffffffffffffffffffffffffffffffffffffff8216611ade576040517f08c379a000000000000000000000000000000000000000000000000000000000815260206004820152601f60248201527f45524332303a206d696e7420746f20746865207a65726f2061646472657373006044820152606401610830565b8060396000828254611af09190612a47565b909155505073ffffffffffffffffffffffffffffffffffffffff821660009081526037602052604081208054839290611b2a908490612a47565b909155505060405181815273ffffffffffffffffffffffffffffffffffffffff8316906000907fddf252ad1be2c89b69c2b068fc378daa952ba7f163c4a11628f55a4df523b3ef9060200160405180910390a35050565b6069805473ffffffffffffffffffffffffffffffffffffffff8381167fffffffffffffffffffffffff0000000000000000000000000000000000000000831681179093556040519116919082907f8be0079c531659141344cd1fd0a4f28419497f9722a3daafe3b4186f6b6457e090600090a35050565b600080611c0460395490565b600080546040517f70a08231000000000000000000000000000000000000000000000000000000008152306004820152929350909173ffffffffffffffffffffffffffffffffffffffff909116906370a082319060240160206040518083038186803b158015611c7357600080fd5b505afa158015611c87573d6000803e3d6000fd5b505050506040513d601f19601f82011682018060405250810190611cab9190612a5f565b6001546040517f70a0823100000000000000000000000000000000000000000000000000000000815230600482015291925060009173ffffffffffffffffffffffffffffffffffffffff909116906370a082319060240160206040518083038186803b158015611d1a57600080fd5b505afa158015611d2e573d6000803e3d6000fd5b505050506040513d601f19601f82011682018060405250810190611d529190612a5f565b6002546040517f1b618cc000000000000000000000000000000000000000000000000000000000815230600482015291925060009173ffffffffffffffffffffffffffffffffffffffff90911690631b618cc09060240160606040518083038186803b158015611dc157600080fd5b505afa158015611dd5573d6000803e3d6000fd5b505050506040513d601f19601f82011682018060405250810190611df99190612a78565b519050600081611e098486612a47565b611e139190612a47565b9050600085611e22838a612ad4565b611e2c9190612b11565b98975050505050505050565b73ffffffffffffffffffffffffffffffffffffffff8216611edb576040517f08c379a000000000000000000000000000000000000000000000000000000000815260206004820152602160248201527f45524332303a206275726e2066726f6d20746865207a65726f2061646472657360448201527f73000000000000000000000000000000000000000000000000000000000000006064820152608401610830565b73ffffffffffffffffffffffffffffffffffffffff821660009081526037602052604090205481811015611f91576040517f08c379a000000000000000000000000000000000000000000000000000000000815260206004820152602260248201527f45524332303a206275726e20616d6f756e7420657863656564732062616c616e60448201527f63650000000000000000000000000000000000000000000000000000000000006064820152608401610830565b73ffffffffffffffffffffffffffffffffffffffff83166000908152603760205260408120838303905560398054849290611fcd908490612b4c565b909155505060405182815260009073ffffffffffffffffffffffffffffffffffffffff8516907fddf252ad1be2c89b69c2b068fc378daa952ba7f163c4a11628f55a4df523b3ef9060200160405180910390a3505050565b60405173ffffffffffffffffffffffffffffffffffffffff8316602482015260448101829052610e2c9084907fa9059cbb00000000000000000000000000000000000000000000000000000000906064016119df565b600454610100900460ff16612112576040517f08c379a000000000000000000000000000000000000000000000000000000000815260206004820152602b60248201527f496e697469616c697a61626c653a20636f6e7472616374206973206e6f74206960448201527f6e697469616c697a696e670000000000000000000000000000000000000000006064820152608401610830565b610bbf82826122c7565b600454610100900460ff166121b3576040517f08c379a000000000000000000000000000000000000000000000000000000000815260206004820152602b60248201527f496e697469616c697a61626c653a20636f6e7472616374206973206e6f74206960448201527f6e697469616c697a696e670000000000000000000000000000000000000000006064820152608401610830565b61096b612385565b600061221d826040518060400160405280602081526020017f5361666545524332303a206c6f772d6c6576656c2063616c6c206661696c65648152508573ffffffffffffffffffffffffffffffffffffffff166124259092919063ffffffff16565b805190915015610e2c578080602001905181019061223b9190612b63565b610e2c576040517f08c379a000000000000000000000000000000000000000000000000000000000815260206004820152602a60248201527f5361666545524332303a204552433230206f7065726174696f6e20646964206e60448201527f6f742073756363656564000000000000000000000000000000000000000000006064820152608401610830565b600454610100900460ff1661235e576040517f08c379a000000000000000000000000000000000000000000000000000000000815260206004820152602b60248201527f496e697469616c697a61626c653a20636f6e7472616374206973206e6f74206960448201527f6e697469616c697a696e670000000000000000000000000000000000000000006064820152608401610830565b815161237190603a906020850190612625565b508051610e2c90603b906020840190612625565b600454610100900460ff1661241c576040517f08c379a000000000000000000000000000000000000000000000000000000000815260206004820152602b60248201527f496e697469616c697a61626c653a20636f6e7472616374206973206e6f74206960448201527f6e697469616c697a696e670000000000000000000000000000000000000000006064820152608401610830565b61096b33611b81565b6060612434848460008561243c565b949350505050565b6060824710156124ce576040517f08c379a000000000000000000000000000000000000000000000000000000000815260206004820152602660248201527f416464726573733a20696e73756666696369656e742062616c616e636520666f60448201527f722063616c6c00000000000000000000000000000000000000000000000000006064820152608401610830565b73ffffffffffffffffffffffffffffffffffffffff85163b61254c576040517f08c379a000000000000000000000000000000000000000000000000000000000815260206004820152601d60248201527f416464726573733a2063616c6c20746f206e6f6e2d636f6e74726163740000006044820152606401610830565b6000808673ffffffffffffffffffffffffffffffffffffffff1685876040516125759190612b85565b60006040518083038185875af1925050503d80600081146125b2576040519150601f19603f3d011682016040523d82523d6000602084013e6125b7565b606091505b50915091506125c78282866125d2565b979650505050505050565b606083156125e15750816104f5565b8251156125f15782518084602001fd5b816040517f08c379a000000000000000000000000000000000000000000000000000000000815260040161083091906126ea565b828054612631906129c4565b90600052602060002090601f0160209004810192826126535760008555612699565b82601f1061266c57805160ff1916838001178555612699565b82800160010185558215612699579182015b8281111561269957825182559160200191906001019061267e565b506126a59291506126a9565b5090565b5b808211156126a557600081556001016126aa565b60005b838110156126d95781810151838201526020016126c1565b838111156116cc5750506000910152565b60208152600082518060208401526127098160408501602087016126be565b601f017fffffffffffffffffffffffffffffffffffffffffffffffffffffffffffffffe0169190910160400192915050565b803573ffffffffffffffffffffffffffffffffffffffff8116811461275f57600080fd5b919050565b6000806040838503121561277757600080fd5b6127808361273b565b946020939093013593505050565b6000806000606084860312156127a357600080fd5b6127ac8461273b565b92506127ba6020850161273b565b9150604084013590509250925092565b6000602082840312156127dc57600080fd5b5035919050565b6000602082840312156127f557600080fd5b6104f58261273b565b6000806040838503121561281157600080fd5b823591506128216020840161273b565b90509250929050565b7f4e487b7100000000000000000000000000000000000000000000000000000000600052604160045260246000fd5b600082601f83011261286a57600080fd5b813567ffffffffffffffff808211156128855761288561282a565b604051601f83017fffffffffffffffffffffffffffffffffffffffffffffffffffffffffffffffe0908116603f011681019082821181831017156128cb576128cb61282a565b816040528381528660208588010111156128e457600080fd5b836020870160208301376000602085830101528094505050505092915050565b600080600080600060a0868803121561291c57600080fd5b853567ffffffffffffffff8082111561293457600080fd5b61294089838a01612859565b9650602088013591508082111561295657600080fd5b5061296388828901612859565b9450506129726040870161273b565b92506129806060870161273b565b915061298e6080870161273b565b90509295509295909350565b600080604083850312156129ad57600080fd5b6129b68361273b565b91506128216020840161273b565b600181811c908216806129d857607f821691505b60208210811415612a12577f4e487b7100000000000000000000000000000000000000000000000000000000600052602260045260246000fd5b50919050565b7f4e487b7100000000000000000000000000000000000000000000000000000000600052601160045260246000fd5b60008219821115612a5a57612a5a612a18565b500190565b600060208284031215612a7157600080fd5b5051919050565b600060608284031215612a8a57600080fd5b6040516060810181811067ffffffffffffffff82111715612aad57612aad61282a565b80604052508251815260208301516020820152604083015160408201528091505092915050565b6000817fffffffffffffffffffffffffffffffffffffffffffffffffffffffffffffffff0483118215151615612b0c57612b0c612a18565b500290565b600082612b47577f4e487b7100000000000000000000000000000000000000000000000000000000600052601260045260246000fd5b500490565b600082821015612b5e57612b5e612a18565b500390565b600060208284031215612b7557600080fd5b815180151581146104f557600080fd5b60008251612b978184602087016126be565b919091019291505056fea2646970667358221220c593c09ffa0e7418c0c959d05585222339ef9818d3b0a92ef9edd69cb747973b64736f6c63430008090033",
  "linkReferences": {},
  "deployedLinkReferences": {}
}