{
  "_format": "hh-sol-artifact-1",
  "contractName": "LiquidityReserve",
  "sourceName": "src/contracts/LiquidityReserve.sol",
  "abi": [
    {
      "anonymous": false,
      "inputs": [
        {
          "indexed": true,
          "internalType": "address",
          "name": "owner",
          "type": "address"
        },
        {
          "indexed": true,
          "internalType": "address",
          "name": "spender",
          "type": "address"
        },
        {
          "indexed": false,
          "internalType": "uint256",
          "name": "value",
          "type": "uint256"
        }
      ],
      "name": "Approval",
      "type": "event"
    },
    {
      "anonymous": false,
      "inputs": [
        {
          "indexed": false,
          "internalType": "uint256",
          "name": "fee",
          "type": "uint256"
        }
      ],
      "name": "FeeChanged",
      "type": "event"
    },
    {
      "anonymous": false,
      "inputs": [
        {
          "indexed": true,
          "internalType": "address",
          "name": "previousOwner",
          "type": "address"
        },
        {
          "indexed": true,
          "internalType": "address",
          "name": "newOwner",
          "type": "address"
        }
      ],
      "name": "OwnershipTransferred",
      "type": "event"
    },
    {
      "anonymous": false,
      "inputs": [
        {
          "indexed": true,
          "internalType": "address",
          "name": "from",
          "type": "address"
        },
        {
          "indexed": true,
          "internalType": "address",
          "name": "to",
          "type": "address"
        },
        {
          "indexed": false,
          "internalType": "uint256",
          "name": "value",
          "type": "uint256"
        }
      ],
      "name": "Transfer",
      "type": "event"
    },
    {
      "inputs": [],
      "name": "BASIS_POINTS",
      "outputs": [
        {
          "internalType": "uint256",
          "name": "",
          "type": "uint256"
        }
      ],
      "stateMutability": "view",
      "type": "function"
    },
    {
      "inputs": [],
      "name": "MINIMUM_LIQUIDITY",
      "outputs": [
        {
          "internalType": "uint256",
          "name": "",
          "type": "uint256"
        }
      ],
      "stateMutability": "view",
      "type": "function"
    },
    {
      "inputs": [
        {
          "internalType": "uint256",
          "name": "_amount",
          "type": "uint256"
        }
      ],
      "name": "addLiquidity",
      "outputs": [],
      "stateMutability": "nonpayable",
      "type": "function"
    },
    {
      "inputs": [
        {
          "internalType": "address",
          "name": "owner",
          "type": "address"
        },
        {
          "internalType": "address",
          "name": "spender",
          "type": "address"
        }
      ],
      "name": "allowance",
      "outputs": [
        {
          "internalType": "uint256",
          "name": "",
          "type": "uint256"
        }
      ],
      "stateMutability": "view",
      "type": "function"
    },
    {
      "inputs": [
        {
          "internalType": "address",
          "name": "spender",
          "type": "address"
        },
        {
          "internalType": "uint256",
          "name": "amount",
          "type": "uint256"
        }
      ],
      "name": "approve",
      "outputs": [
        {
          "internalType": "bool",
          "name": "",
          "type": "bool"
        }
      ],
      "stateMutability": "nonpayable",
      "type": "function"
    },
    {
      "inputs": [
        {
          "internalType": "address",
          "name": "account",
          "type": "address"
        }
      ],
      "name": "balanceOf",
      "outputs": [
        {
          "internalType": "uint256",
          "name": "",
          "type": "uint256"
        }
      ],
      "stateMutability": "view",
      "type": "function"
    },
    {
      "inputs": [],
      "name": "decimals",
      "outputs": [
        {
          "internalType": "uint8",
          "name": "",
          "type": "uint8"
        }
      ],
      "stateMutability": "view",
      "type": "function"
    },
    {
      "inputs": [
        {
          "internalType": "address",
          "name": "spender",
          "type": "address"
        },
        {
          "internalType": "uint256",
          "name": "subtractedValue",
          "type": "uint256"
        }
      ],
      "name": "decreaseAllowance",
      "outputs": [
        {
          "internalType": "bool",
          "name": "",
          "type": "bool"
        }
      ],
      "stateMutability": "nonpayable",
      "type": "function"
    },
    {
      "inputs": [
        {
          "internalType": "address",
          "name": "_stakingContract",
          "type": "address"
        }
      ],
      "name": "enableLiquidityReserve",
      "outputs": [],
      "stateMutability": "nonpayable",
      "type": "function"
    },
    {
      "inputs": [],
      "name": "fee",
      "outputs": [
        {
          "internalType": "uint256",
          "name": "",
          "type": "uint256"
        }
      ],
      "stateMutability": "view",
      "type": "function"
    },
    {
      "inputs": [
        {
          "internalType": "address",
          "name": "spender",
          "type": "address"
        },
        {
          "internalType": "uint256",
          "name": "addedValue",
          "type": "uint256"
        }
      ],
      "name": "increaseAllowance",
      "outputs": [
        {
          "internalType": "bool",
          "name": "",
          "type": "bool"
        }
      ],
      "stateMutability": "nonpayable",
      "type": "function"
    },
    {
      "inputs": [
        {
          "internalType": "string",
          "name": "_tokenName",
          "type": "string"
        },
        {
          "internalType": "string",
          "name": "_tokenSymbol",
          "type": "string"
        },
        {
          "internalType": "address",
          "name": "_stakingToken",
          "type": "address"
        },
        {
          "internalType": "address",
          "name": "_rewardToken",
          "type": "address"
        }
      ],
      "name": "initialize",
      "outputs": [],
      "stateMutability": "nonpayable",
      "type": "function"
    },
    {
      "inputs": [
        {
          "internalType": "uint256",
          "name": "_amount",
          "type": "uint256"
        },
        {
          "internalType": "address",
          "name": "_recipient",
          "type": "address"
        }
      ],
      "name": "instantUnstake",
      "outputs": [],
      "stateMutability": "nonpayable",
      "type": "function"
    },
    {
      "inputs": [],
      "name": "isReserveEnabled",
      "outputs": [
        {
          "internalType": "bool",
          "name": "",
          "type": "bool"
        }
      ],
      "stateMutability": "view",
      "type": "function"
    },
    {
      "inputs": [],
      "name": "name",
      "outputs": [
        {
          "internalType": "string",
          "name": "",
          "type": "string"
        }
      ],
      "stateMutability": "view",
      "type": "function"
    },
    {
      "inputs": [],
      "name": "owner",
      "outputs": [
        {
          "internalType": "address",
          "name": "",
          "type": "address"
        }
      ],
      "stateMutability": "view",
      "type": "function"
    },
    {
      "inputs": [
        {
          "internalType": "uint256",
          "name": "_amount",
          "type": "uint256"
        }
      ],
      "name": "removeLiquidity",
      "outputs": [],
      "stateMutability": "nonpayable",
      "type": "function"
    },
    {
      "inputs": [],
      "name": "renounceOwnership",
      "outputs": [],
      "stateMutability": "nonpayable",
      "type": "function"
    },
    {
      "inputs": [],
      "name": "rewardToken",
      "outputs": [
        {
          "internalType": "address",
          "name": "",
          "type": "address"
        }
      ],
      "stateMutability": "view",
      "type": "function"
    },
    {
      "inputs": [
        {
          "internalType": "uint256",
          "name": "_fee",
          "type": "uint256"
        }
      ],
      "name": "setFee",
      "outputs": [],
      "stateMutability": "nonpayable",
      "type": "function"
    },
    {
      "inputs": [],
      "name": "stakingContract",
      "outputs": [
        {
          "internalType": "address",
          "name": "",
          "type": "address"
        }
      ],
      "stateMutability": "view",
      "type": "function"
    },
    {
      "inputs": [],
      "name": "stakingToken",
      "outputs": [
        {
          "internalType": "address",
          "name": "",
          "type": "address"
        }
      ],
      "stateMutability": "view",
      "type": "function"
    },
    {
      "inputs": [],
      "name": "symbol",
      "outputs": [
        {
          "internalType": "string",
          "name": "",
          "type": "string"
        }
      ],
      "stateMutability": "view",
      "type": "function"
    },
    {
      "inputs": [],
      "name": "totalSupply",
      "outputs": [
        {
          "internalType": "uint256",
          "name": "",
          "type": "uint256"
        }
      ],
      "stateMutability": "view",
      "type": "function"
    },
    {
      "inputs": [
        {
          "internalType": "address",
          "name": "to",
          "type": "address"
        },
        {
          "internalType": "uint256",
          "name": "amount",
          "type": "uint256"
        }
      ],
      "name": "transfer",
      "outputs": [
        {
          "internalType": "bool",
          "name": "",
          "type": "bool"
        }
      ],
      "stateMutability": "nonpayable",
      "type": "function"
    },
    {
      "inputs": [
        {
          "internalType": "address",
          "name": "from",
          "type": "address"
        },
        {
          "internalType": "address",
          "name": "to",
          "type": "address"
        },
        {
          "internalType": "uint256",
          "name": "amount",
          "type": "uint256"
        }
      ],
      "name": "transferFrom",
      "outputs": [
        {
          "internalType": "bool",
          "name": "",
          "type": "bool"
        }
      ],
      "stateMutability": "nonpayable",
      "type": "function"
    },
    {
      "inputs": [
        {
          "internalType": "address",
          "name": "newOwner",
          "type": "address"
        }
      ],
      "name": "transferOwnership",
      "outputs": [],
      "stateMutability": "nonpayable",
      "type": "function"
    },
    {
      "inputs": [],
      "name": "unstakeAllRewardTokens",
      "outputs": [],
      "stateMutability": "nonpayable",
      "type": "function"
    }
  ],
  "bytecode": "0x608060405234801561001057600080fd5b50613057806100206000396000f3fe608060405234801561001057600080fd5b50600436106101c45760003560e01c80638f15b414116100f9578063dd62ed3e11610097578063ed45647811610071578063ed45647814610407578063ee99205c1461040f578063f2fde38b1461042f578063f7c618c11461044257600080fd5b8063dd62ed3e146103af578063ddca3f43146103f5578063e1f1c4a7146103fe57600080fd5b8063a457c2d7116100d3578063a457c2d714610368578063a9059cbb1461037b578063ba9a7a561461038e578063bbb6a9831461039c57600080fd5b80638f15b4141461033a57806395d89b411461034d5780639c8f9f231461035557600080fd5b80634246d1ff1161016657806370a082311161014057806370a0823114610299578063715018a6146102cf57806372f702f3146102d75780638da5cb5b1461031c57600080fd5b80634246d1ff1461025e57806351c6590a1461027357806369fe0e2d1461028657600080fd5b806323b872dd116101a257806323b872dd1461021c5780632dd2f33c1461022f578063313ce5671461023c578063395093511461024b57600080fd5b806306fdde03146101c9578063095ea7b3146101e757806318160ddd1461020a575b600080fd5b6101d1610462565b6040516101de9190612b7b565b60405180910390f35b6101fa6101f5366004612bf5565b6104f4565b60405190151581526020016101de565b6039545b6040519081526020016101de565b6101fa61022a366004612c1f565b61050c565b6004546101fa9060ff1681565b604051601281526020016101de565b6101fa610259366004612bf5565b610532565b61027161026c366004612c5b565b61057e565b005b610271610281366004612c76565b61096d565b610271610294366004612c76565b610c44565b61020e6102a7366004612c5b565b73ffffffffffffffffffffffffffffffffffffffff1660009081526037602052604090205490565b610271610d6c565b6000546102f79073ffffffffffffffffffffffffffffffffffffffff1681565b60405173ffffffffffffffffffffffffffffffffffffffff90911681526020016101de565b60695473ffffffffffffffffffffffffffffffffffffffff166102f7565b610271610348366004612d69565b610df9565b6101d1611028565b610271610363366004612c76565b611037565b6101fa610376366004612bf5565b61127e565b6101fa610389366004612bf5565b61135a565b61020e66038d7ea4c6800081565b6102716103aa366004612dee565b611368565b61020e6103bd366004612e1a565b73ffffffffffffffffffffffffffffffffffffffff918216600090815260386020908152604080832093909416825291909152205490565b61020e60035481565b61020e61271081565b610271611558565b6002546102f79073ffffffffffffffffffffffffffffffffffffffff1681565b61027161043d366004612c5b565b6117a8565b6001546102f79073ffffffffffffffffffffffffffffffffffffffff1681565b6060603a805461047190612e44565b80601f016020809104026020016040519081016040528092919081815260200182805461049d90612e44565b80156104ea5780601f106104bf576101008083540402835291602001916104ea565b820191906000526020600020905b8154815290600101906020018083116104cd57829003601f168201915b5050505050905090565b6000336105028185856118d5565b5060019392505050565b60003361051a858285611a88565b610525858585611b5f565b60019150505b9392505050565b33600081815260386020908152604080832073ffffffffffffffffffffffffffffffffffffffff871684529091528120549091906105029082908690610579908790612ec7565b6118d5565b60695473ffffffffffffffffffffffffffffffffffffffff163314610604576040517f08c379a000000000000000000000000000000000000000000000000000000000815260206004820181905260248201527f4f776e61626c653a2063616c6c6572206973206e6f7420746865206f776e657260448201526064015b60405180910390fd5b60045460ff1615610671576040517f08c379a000000000000000000000000000000000000000000000000000000000815260206004820152600f60248201527f416c726561647920656e61626c6564000000000000000000000000000000000060448201526064016105fb565b73ffffffffffffffffffffffffffffffffffffffff81166106ee576040517f08c379a000000000000000000000000000000000000000000000000000000000815260206004820152600f60248201527f496e76616c69642061646472657373000000000000000000000000000000000060448201526064016105fb565b600080546040517f70a0823100000000000000000000000000000000000000000000000000000000815233600482015273ffffffffffffffffffffffffffffffffffffffff909116906370a082319060240160206040518083038186803b15801561075857600080fd5b505afa15801561076c573d6000803e3d6000fd5b505050506040513d601f19601f820116820180604052508101906107909190612edf565b905066038d7ea4c68000811015610803576040517f08c379a000000000000000000000000000000000000000000000000000000000815260206004820152601960248201527f4e6f7420656e6f756768207374616b696e6720746f6b656e730000000000000060448201526064016105fb565b600280547fffffffffffffffffffffffff00000000000000000000000000000000000000001673ffffffffffffffffffffffffffffffffffffffff8481169190911790915560005461085f9116333066038d7ea4c68000611e12565b6108703066038d7ea4c68000611eee565b6001546002546040517f095ea7b300000000000000000000000000000000000000000000000000000000815273ffffffffffffffffffffffffffffffffffffffff91821660048201527fffffffffffffffffffffffffffffffffffffffffffffffffffffffffffffffff602482015291169063095ea7b390604401602060405180830381600087803b15801561090557600080fd5b505af1158015610919573d6000803e3d6000fd5b505050506040513d601f19601f8201168201806040525081019061093d9190612ef8565b5050600480547fffffffffffffffffffffffffffffffffffffffffffffffffffffffffffffff0016600117905550565b60045460ff166109d9576040517f08c379a000000000000000000000000000000000000000000000000000000000815260206004820152600f60248201527f4e6f7420656e61626c656420796574000000000000000000000000000000000060448201526064016105fb565b600080546040517f70a0823100000000000000000000000000000000000000000000000000000000815230600482015273ffffffffffffffffffffffffffffffffffffffff909116906370a082319060240160206040518083038186803b158015610a4357600080fd5b505afa158015610a57573d6000803e3d6000fd5b505050506040513d601f19601f82011682018060405250810190610a7b9190612edf565b6001546040517f70a0823100000000000000000000000000000000000000000000000000000000815230600482015291925060009173ffffffffffffffffffffffffffffffffffffffff909116906370a082319060240160206040518083038186803b158015610aea57600080fd5b505afa158015610afe573d6000803e3d6000fd5b505050506040513d601f19601f82011682018060405250810190610b229190612edf565b90506000610b2f60395490565b6002546040517f1b618cc000000000000000000000000000000000000000000000000000000000815230600482015291925060009173ffffffffffffffffffffffffffffffffffffffff90911690631b618cc09060240160606040518083038186803b158015610b9e57600080fd5b505afa158015610bb2573d6000803e3d6000fd5b505050506040513d601f19601f82011682018060405250810190610bd69190612f1a565b519050600081610be68587612ec7565b610bf09190612ec7565b9050600081610bff8589612f76565b610c099190612fb3565b600054909150610c319073ffffffffffffffffffffffffffffffffffffffff1633308a611e12565b610c3b3382611eee565b50505050505050565b60695473ffffffffffffffffffffffffffffffffffffffff163314610cc5576040517f08c379a000000000000000000000000000000000000000000000000000000000815260206004820181905260248201527f4f776e61626c653a2063616c6c6572206973206e6f7420746865206f776e657260448201526064016105fb565b612710811115610d31576040517f08c379a000000000000000000000000000000000000000000000000000000000815260206004820152600c60248201527f4f7574206f662072616e6765000000000000000000000000000000000000000060448201526064016105fb565b60038190556040518181527f6bbc57480a46553fa4d156ce702beef5f3ad66303b0ed1a5d4cb44966c6584c39060200160405180910390a150565b60695473ffffffffffffffffffffffffffffffffffffffff163314610ded576040517f08c379a000000000000000000000000000000000000000000000000000000000815260206004820181905260248201527f4f776e61626c653a2063616c6c6572206973206e6f7420746865206f776e657260448201526064016105fb565b610df7600061200e565b565b60045462010000900460ff16610e1a57600454610100900460ff1615610e1e565b303b155b610eaa576040517f08c379a000000000000000000000000000000000000000000000000000000000815260206004820152602e60248201527f496e697469616c697a61626c653a20636f6e747261637420697320616c72656160448201527f647920696e697469616c697a656400000000000000000000000000000000000060648201526084016105fb565b60045462010000900460ff16158015610eeb57600480547fffffffffffffffffffffffffffffffffffffffffffffffffffffffffff0000ff16620101001790555b610ef58585612085565b610efd612127565b73ffffffffffffffffffffffffffffffffffffffff831615801590610f37575073ffffffffffffffffffffffffffffffffffffffff821615155b610f9d576040517f08c379a000000000000000000000000000000000000000000000000000000000815260206004820152600f60248201527f496e76616c69642061646472657373000000000000000000000000000000000060448201526064016105fb565b6000805473ffffffffffffffffffffffffffffffffffffffff8086167fffffffffffffffffffffffff0000000000000000000000000000000000000000928316179092556001805492851692909116919091179055801561102157600480547fffffffffffffffffffffffffffffffffffffffffffffffffffffffffff00ffff1690555b5050505050565b6060603b805461047190612e44565b336000908152603760205260409020548111156110b0576040517f08c379a000000000000000000000000000000000000000000000000000000000815260206004820152601460248201527f4e6f7420656e6f756768206c7220746f6b656e7300000000000000000000000060448201526064016105fb565b6002546040517f516c49d900000000000000000000000000000000000000000000000000000000815230600482015273ffffffffffffffffffffffffffffffffffffffff9091169063516c49d990602401600060405180830381600087803b15801561111b57600080fd5b505af115801561112f573d6000803e3d6000fd5b50505050600061113e826121c7565b6000546040517f70a08231000000000000000000000000000000000000000000000000000000008152306004820152919250829173ffffffffffffffffffffffffffffffffffffffff909116906370a082319060240160206040518083038186803b1580156111ac57600080fd5b505afa1580156111c0573d6000803e3d6000fd5b505050506040513d601f19601f820116820180604052508101906111e49190612edf565b101561124c576040517f08c379a000000000000000000000000000000000000000000000000000000000815260206004820152601060248201527f4e6f7420656e6f7567682066756e64730000000000000000000000000000000060448201526064016105fb565b6112563383612407565b60005461127a9073ffffffffffffffffffffffffffffffffffffffff1633836125f4565b5050565b33600081815260386020908152604080832073ffffffffffffffffffffffffffffffffffffffff8716845290915281205490919083811015611342576040517f08c379a000000000000000000000000000000000000000000000000000000000815260206004820152602560248201527f45524332303a2064656372656173656420616c6c6f77616e63652062656c6f7760448201527f207a65726f00000000000000000000000000000000000000000000000000000060648201526084016105fb565b61134f82868684036118d5565b506001949350505050565b600033610502818585611b5f565b60025473ffffffffffffffffffffffffffffffffffffffff1633146113e9576040517f08c379a000000000000000000000000000000000000000000000000000000000815260206004820152601460248201527f4e6f74207374616b696e6720636f6e747261637400000000000000000000000060448201526064016105fb565b60045460ff16611455576040517f08c379a000000000000000000000000000000000000000000000000000000000815260206004820152600f60248201527f4e6f7420656e61626c656420796574000000000000000000000000000000000060448201526064016105fb565b6002546040517f516c49d900000000000000000000000000000000000000000000000000000000815230600482015273ffffffffffffffffffffffffffffffffffffffff9091169063516c49d990602401600060405180830381600087803b1580156114c057600080fd5b505af11580156114d4573d6000803e3d6000fd5b505050506000612710600354846114eb9190612f76565b6114f59190612fb3565b6114ff9084612fee565b6001549091506115279073ffffffffffffffffffffffffffffffffffffffff16333086611e12565b60005461154b9073ffffffffffffffffffffffffffffffffffffffff1683836125f4565b611553611558565b505050565b60045460ff166115c4576040517f08c379a000000000000000000000000000000000000000000000000000000000815260206004820152600f60248201527f4e6f7420656e61626c656420796574000000000000000000000000000000000060448201526064016105fb565b6002546040517f1b618cc000000000000000000000000000000000000000000000000000000000815230600482015260009173ffffffffffffffffffffffffffffffffffffffff1690631b618cc09060240160606040518083038186803b15801561162e57600080fd5b505afa158015611642573d6000803e3d6000fd5b505050506040513d601f19601f820116820180604052508101906116669190612f1a565b519050806117a5576001546040517f70a0823100000000000000000000000000000000000000000000000000000000815230600482015260009173ffffffffffffffffffffffffffffffffffffffff16906370a082319060240160206040518083038186803b1580156116d857600080fd5b505afa1580156116ec573d6000803e3d6000fd5b505050506040513d601f19601f820116820180604052508101906117109190612edf565b9050801561127a576002546040517f9ebea88c000000000000000000000000000000000000000000000000000000008152600481018390526000602482015273ffffffffffffffffffffffffffffffffffffffff90911690639ebea88c90604401600060405180830381600087803b15801561178b57600080fd5b505af115801561179f573d6000803e3d6000fd5b50505050505b50565b60695473ffffffffffffffffffffffffffffffffffffffff163314611829576040517f08c379a000000000000000000000000000000000000000000000000000000000815260206004820181905260248201527f4f776e61626c653a2063616c6c6572206973206e6f7420746865206f776e657260448201526064016105fb565b73ffffffffffffffffffffffffffffffffffffffff81166118cc576040517f08c379a000000000000000000000000000000000000000000000000000000000815260206004820152602660248201527f4f776e61626c653a206e6577206f776e657220697320746865207a65726f206160448201527f646472657373000000000000000000000000000000000000000000000000000060648201526084016105fb565b6117a58161200e565b73ffffffffffffffffffffffffffffffffffffffff8316611977576040517f08c379a0000000000000000000000000000000000000000000000000000000008152602060048201526024808201527f45524332303a20617070726f76652066726f6d20746865207a65726f2061646460448201527f726573730000000000000000000000000000000000000000000000000000000060648201526084016105fb565b73ffffffffffffffffffffffffffffffffffffffff8216611a1a576040517f08c379a000000000000000000000000000000000000000000000000000000000815260206004820152602260248201527f45524332303a20617070726f766520746f20746865207a65726f20616464726560448201527f737300000000000000000000000000000000000000000000000000000000000060648201526084016105fb565b73ffffffffffffffffffffffffffffffffffffffff83811660008181526038602090815260408083209487168084529482529182902085905590518481527f8c5be1e5ebec7d5bd14f71427d1e84f3dd0314c0f7b2291e5b200ac8c7c3b925910160405180910390a3505050565b73ffffffffffffffffffffffffffffffffffffffff8381166000908152603860209081526040808320938616835292905220547fffffffffffffffffffffffffffffffffffffffffffffffffffffffffffffffff8114611b595781811015611b4c576040517f08c379a000000000000000000000000000000000000000000000000000000000815260206004820152601d60248201527f45524332303a20696e73756666696369656e7420616c6c6f77616e636500000060448201526064016105fb565b611b5984848484036118d5565b50505050565b73ffffffffffffffffffffffffffffffffffffffff8316611c02576040517f08c379a000000000000000000000000000000000000000000000000000000000815260206004820152602560248201527f45524332303a207472616e736665722066726f6d20746865207a65726f20616460448201527f647265737300000000000000000000000000000000000000000000000000000060648201526084016105fb565b73ffffffffffffffffffffffffffffffffffffffff8216611ca5576040517f08c379a000000000000000000000000000000000000000000000000000000000815260206004820152602360248201527f45524332303a207472616e7366657220746f20746865207a65726f206164647260448201527f657373000000000000000000000000000000000000000000000000000000000060648201526084016105fb565b73ffffffffffffffffffffffffffffffffffffffff831660009081526037602052604090205481811015611d5b576040517f08c379a000000000000000000000000000000000000000000000000000000000815260206004820152602660248201527f45524332303a207472616e7366657220616d6f756e742065786365656473206260448201527f616c616e6365000000000000000000000000000000000000000000000000000060648201526084016105fb565b73ffffffffffffffffffffffffffffffffffffffff808516600090815260376020526040808220858503905591851681529081208054849290611d9f908490612ec7565b925050819055508273ffffffffffffffffffffffffffffffffffffffff168473ffffffffffffffffffffffffffffffffffffffff167fddf252ad1be2c89b69c2b068fc378daa952ba7f163c4a11628f55a4df523b3ef84604051611e0591815260200190565b60405180910390a3611b59565b60405173ffffffffffffffffffffffffffffffffffffffff80851660248301528316604482015260648101829052611b599085907f23b872dd00000000000000000000000000000000000000000000000000000000906084015b604080517fffffffffffffffffffffffffffffffffffffffffffffffffffffffffffffffe08184030181529190526020810180517bffffffffffffffffffffffffffffffffffffffffffffffffffffffff167fffffffff000000000000000000000000000000000000000000000000000000009093169290921790915261264a565b73ffffffffffffffffffffffffffffffffffffffff8216611f6b576040517f08c379a000000000000000000000000000000000000000000000000000000000815260206004820152601f60248201527f45524332303a206d696e7420746f20746865207a65726f20616464726573730060448201526064016105fb565b8060396000828254611f7d9190612ec7565b909155505073ffffffffffffffffffffffffffffffffffffffff821660009081526037602052604081208054839290611fb7908490612ec7565b909155505060405181815273ffffffffffffffffffffffffffffffffffffffff8316906000907fddf252ad1be2c89b69c2b068fc378daa952ba7f163c4a11628f55a4df523b3ef9060200160405180910390a35050565b6069805473ffffffffffffffffffffffffffffffffffffffff8381167fffffffffffffffffffffffff0000000000000000000000000000000000000000831681179093556040519116919082907f8be0079c531659141344cd1fd0a4f28419497f9722a3daafe3b4186f6b6457e090600090a35050565b60045462010000900460ff1661211d576040517f08c379a000000000000000000000000000000000000000000000000000000000815260206004820152602b60248201527f496e697469616c697a61626c653a20636f6e7472616374206973206e6f74206960448201527f6e697469616c697a696e6700000000000000000000000000000000000000000060648201526084016105fb565b61127a8282612756565b60045462010000900460ff166121bf576040517f08c379a000000000000000000000000000000000000000000000000000000000815260206004820152602b60248201527f496e697469616c697a61626c653a20636f6e7472616374206973206e6f74206960448201527f6e697469616c697a696e6700000000000000000000000000000000000000000060648201526084016105fb565b610df7612815565b6000806121d360395490565b600080546040517f70a08231000000000000000000000000000000000000000000000000000000008152306004820152929350909173ffffffffffffffffffffffffffffffffffffffff909116906370a082319060240160206040518083038186803b15801561224257600080fd5b505afa158015612256573d6000803e3d6000fd5b505050506040513d601f19601f8201168201806040525081019061227a9190612edf565b6001546040517f70a0823100000000000000000000000000000000000000000000000000000000815230600482015291925060009173ffffffffffffffffffffffffffffffffffffffff909116906370a082319060240160206040518083038186803b1580156122e957600080fd5b505afa1580156122fd573d6000803e3d6000fd5b505050506040513d601f19601f820116820180604052508101906123219190612edf565b6002546040517f1b618cc000000000000000000000000000000000000000000000000000000000815230600482015291925060009173ffffffffffffffffffffffffffffffffffffffff90911690631b618cc09060240160606040518083038186803b15801561239057600080fd5b505afa1580156123a4573d6000803e3d6000fd5b505050506040513d601f19601f820116820180604052508101906123c89190612f1a565b5190506000816123d88486612ec7565b6123e29190612ec7565b90506000856123f1838a612f76565b6123fb9190612fb3565b98975050505050505050565b73ffffffffffffffffffffffffffffffffffffffff82166124aa576040517f08c379a000000000000000000000000000000000000000000000000000000000815260206004820152602160248201527f45524332303a206275726e2066726f6d20746865207a65726f2061646472657360448201527f730000000000000000000000000000000000000000000000000000000000000060648201526084016105fb565b73ffffffffffffffffffffffffffffffffffffffff821660009081526037602052604090205481811015612560576040517f08c379a000000000000000000000000000000000000000000000000000000000815260206004820152602260248201527f45524332303a206275726e20616d6f756e7420657863656564732062616c616e60448201527f636500000000000000000000000000000000000000000000000000000000000060648201526084016105fb565b73ffffffffffffffffffffffffffffffffffffffff8316600090815260376020526040812083830390556039805484929061259c908490612fee565b909155505060405182815260009073ffffffffffffffffffffffffffffffffffffffff8516907fddf252ad1be2c89b69c2b068fc378daa952ba7f163c4a11628f55a4df523b3ef9060200160405180910390a3505050565b60405173ffffffffffffffffffffffffffffffffffffffff83166024820152604481018290526115539084907fa9059cbb0000000000000000000000000000000000000000000000000000000090606401611e6c565b60006126ac826040518060400160405280602081526020017f5361666545524332303a206c6f772d6c6576656c2063616c6c206661696c65648152508573ffffffffffffffffffffffffffffffffffffffff166128b69092919063ffffffff16565b80519091501561155357808060200190518101906126ca9190612ef8565b611553576040517f08c379a000000000000000000000000000000000000000000000000000000000815260206004820152602a60248201527f5361666545524332303a204552433230206f7065726174696f6e20646964206e60448201527f6f7420737563636565640000000000000000000000000000000000000000000060648201526084016105fb565b60045462010000900460ff166127ee576040517f08c379a000000000000000000000000000000000000000000000000000000000815260206004820152602b60248201527f496e697469616c697a61626c653a20636f6e7472616374206973206e6f74206960448201527f6e697469616c697a696e6700000000000000000000000000000000000000000060648201526084016105fb565b815161280190603a906020850190612ab6565b50805161155390603b906020840190612ab6565b60045462010000900460ff166128ad576040517f08c379a000000000000000000000000000000000000000000000000000000000815260206004820152602b60248201527f496e697469616c697a61626c653a20636f6e7472616374206973206e6f74206960448201527f6e697469616c697a696e6700000000000000000000000000000000000000000060648201526084016105fb565b610df73361200e565b60606128c584846000856128cd565b949350505050565b60608247101561295f576040517f08c379a000000000000000000000000000000000000000000000000000000000815260206004820152602660248201527f416464726573733a20696e73756666696369656e742062616c616e636520666f60448201527f722063616c6c000000000000000000000000000000000000000000000000000060648201526084016105fb565b73ffffffffffffffffffffffffffffffffffffffff85163b6129dd576040517f08c379a000000000000000000000000000000000000000000000000000000000815260206004820152601d60248201527f416464726573733a2063616c6c20746f206e6f6e2d636f6e747261637400000060448201526064016105fb565b6000808673ffffffffffffffffffffffffffffffffffffffff168587604051612a069190613005565b60006040518083038185875af1925050503d8060008114612a43576040519150601f19603f3d011682016040523d82523d6000602084013e612a48565b606091505b5091509150612a58828286612a63565b979650505050505050565b60608315612a7257508161052b565b825115612a825782518084602001fd5b816040517f08c379a00000000000000000000000000000000000000000000000000000000081526004016105fb9190612b7b565b828054612ac290612e44565b90600052602060002090601f016020900481019282612ae45760008555612b2a565b82601f10612afd57805160ff1916838001178555612b2a565b82800160010185558215612b2a579182015b82811115612b2a578251825591602001919060010190612b0f565b50612b36929150612b3a565b5090565b5b80821115612b365760008155600101612b3b565b60005b83811015612b6a578181015183820152602001612b52565b83811115611b595750506000910152565b6020815260008251806020840152612b9a816040850160208701612b4f565b601f017fffffffffffffffffffffffffffffffffffffffffffffffffffffffffffffffe0169190910160400192915050565b803573ffffffffffffffffffffffffffffffffffffffff81168114612bf057600080fd5b919050565b60008060408385031215612c0857600080fd5b612c1183612bcc565b946020939093013593505050565b600080600060608486031215612c3457600080fd5b612c3d84612bcc565b9250612c4b60208501612bcc565b9150604084013590509250925092565b600060208284031215612c6d57600080fd5b61052b82612bcc565b600060208284031215612c8857600080fd5b5035919050565b7f4e487b7100000000000000000000000000000000000000000000000000000000600052604160045260246000fd5b600082601f830112612ccf57600080fd5b813567ffffffffffffffff80821115612cea57612cea612c8f565b604051601f83017fffffffffffffffffffffffffffffffffffffffffffffffffffffffffffffffe0908116603f01168101908282118183101715612d3057612d30612c8f565b81604052838152866020858801011115612d4957600080fd5b836020870160208301376000602085830101528094505050505092915050565b60008060008060808587031215612d7f57600080fd5b843567ffffffffffffffff80821115612d9757600080fd5b612da388838901612cbe565b95506020870135915080821115612db957600080fd5b50612dc687828801612cbe565b935050612dd560408601612bcc565b9150612de360608601612bcc565b905092959194509250565b60008060408385031215612e0157600080fd5b82359150612e1160208401612bcc565b90509250929050565b60008060408385031215612e2d57600080fd5b612e3683612bcc565b9150612e1160208401612bcc565b600181811c90821680612e5857607f821691505b60208210811415612e92577f4e487b7100000000000000000000000000000000000000000000000000000000600052602260045260246000fd5b50919050565b7f4e487b7100000000000000000000000000000000000000000000000000000000600052601160045260246000fd5b60008219821115612eda57612eda612e98565b500190565b600060208284031215612ef157600080fd5b5051919050565b600060208284031215612f0a57600080fd5b8151801515811461052b57600080fd5b600060608284031215612f2c57600080fd5b6040516060810181811067ffffffffffffffff82111715612f4f57612f4f612c8f565b80604052508251815260208301516020820152604083015160408201528091505092915050565b6000817fffffffffffffffffffffffffffffffffffffffffffffffffffffffffffffffff0483118215151615612fae57612fae612e98565b500290565b600082612fe9577f4e487b7100000000000000000000000000000000000000000000000000000000600052601260045260246000fd5b500490565b60008282101561300057613000612e98565b500390565b60008251613017818460208701612b4f565b919091019291505056fea2646970667358221220e4c097e9efbf5b5c86d56b288fb99bbea3e11c8b32a89a3efdd1f76a4afe4f5d64736f6c63430008090033",
  "linkReferences": {},
  "deployedLinkReferences": {}
}