{
  "_format": "hh-sol-artifact-1",
  "contractName": "StakingV2Test",
  "sourceName": "src/contracts/test/StakingUpgradeTest.sol",
  "abi": [
    {
      "anonymous": false,
      "inputs": [
        {
          "indexed": true,
          "internalType": "address",
          "name": "previousOwner",
          "type": "address"
        },
        {
          "indexed": true,
          "internalType": "address",
          "name": "newOwner",
          "type": "address"
        }
      ],
      "name": "OwnershipTransferred",
      "type": "event"
    },
    {
      "inputs": [],
      "name": "COOL_DOWN_CONTRACT",
      "outputs": [
        {
          "internalType": "address",
          "name": "",
          "type": "address"
        }
      ],
      "stateMutability": "view",
      "type": "function"
    },
    {
      "inputs": [],
      "name": "LIQUIDITY_RESERVE",
      "outputs": [
        {
          "internalType": "address",
          "name": "",
          "type": "address"
        }
      ],
      "stateMutability": "view",
      "type": "function"
    },
    {
      "inputs": [],
      "name": "REWARD_TOKEN",
      "outputs": [
        {
          "internalType": "address",
          "name": "",
          "type": "address"
        }
      ],
      "stateMutability": "view",
      "type": "function"
    },
    {
      "inputs": [],
      "name": "STAKING_TOKEN",
      "outputs": [
        {
          "internalType": "address",
          "name": "",
          "type": "address"
        }
      ],
      "stateMutability": "view",
      "type": "function"
    },
    {
      "inputs": [],
      "name": "TOKE_MANAGER",
      "outputs": [
        {
          "internalType": "address",
          "name": "",
          "type": "address"
        }
      ],
      "stateMutability": "view",
      "type": "function"
    },
    {
      "inputs": [],
      "name": "TOKE_POOL",
      "outputs": [
        {
          "internalType": "address",
          "name": "",
          "type": "address"
        }
      ],
      "stateMutability": "view",
      "type": "function"
    },
    {
      "inputs": [],
      "name": "TOKE_REWARD",
      "outputs": [
        {
          "internalType": "address",
          "name": "",
          "type": "address"
        }
      ],
      "stateMutability": "view",
      "type": "function"
    },
    {
      "inputs": [],
      "name": "TOKE_TOKEN",
      "outputs": [
        {
          "internalType": "address",
          "name": "",
          "type": "address"
        }
      ],
      "stateMutability": "view",
      "type": "function"
    },
    {
      "inputs": [],
      "name": "WARM_UP_CONTRACT",
      "outputs": [
        {
          "internalType": "address",
          "name": "",
          "type": "address"
        }
      ],
      "stateMutability": "view",
      "type": "function"
    },
    {
      "inputs": [
        {
          "internalType": "uint256",
          "name": "_amount",
          "type": "uint256"
        },
        {
          "internalType": "bool",
          "name": "_trigger",
          "type": "bool"
        }
      ],
      "name": "addRewardsForStakers",
      "outputs": [],
      "stateMutability": "nonpayable",
      "type": "function"
    },
    {
      "inputs": [
        {
          "internalType": "address",
          "name": "_recipient",
          "type": "address"
        }
      ],
      "name": "claim",
      "outputs": [],
      "stateMutability": "nonpayable",
      "type": "function"
    },
    {
      "inputs": [
        {
          "components": [
            {
              "internalType": "uint256",
              "name": "chainId",
              "type": "uint256"
            },
            {
              "internalType": "uint256",
              "name": "cycle",
              "type": "uint256"
            },
            {
              "internalType": "address",
              "name": "wallet",
              "type": "address"
            },
            {
              "internalType": "uint256",
              "name": "amount",
              "type": "uint256"
            }
          ],
          "internalType": "struct Recipient",
          "name": "_recipient",
          "type": "tuple"
        },
        {
          "internalType": "uint8",
          "name": "_v",
          "type": "uint8"
        },
        {
          "internalType": "bytes32",
          "name": "_r",
          "type": "bytes32"
        },
        {
          "internalType": "bytes32",
          "name": "_s",
          "type": "bytes32"
        }
      ],
      "name": "claimFromTokemak",
      "outputs": [],
      "stateMutability": "nonpayable",
      "type": "function"
    },
    {
      "inputs": [
        {
          "internalType": "address",
          "name": "_recipient",
          "type": "address"
        }
      ],
      "name": "claimWithdraw",
      "outputs": [],
      "stateMutability": "nonpayable",
      "type": "function"
    },
    {
      "inputs": [
        {
          "internalType": "address",
          "name": "",
          "type": "address"
        }
      ],
      "name": "coolDownInfo",
      "outputs": [
        {
          "internalType": "uint256",
          "name": "amount",
          "type": "uint256"
        },
        {
          "internalType": "uint256",
          "name": "gons",
          "type": "uint256"
        },
        {
          "internalType": "uint256",
          "name": "expiry",
          "type": "uint256"
        }
      ],
      "stateMutability": "view",
      "type": "function"
    },
    {
      "inputs": [],
      "name": "coolDownPeriod",
      "outputs": [
        {
          "internalType": "uint256",
          "name": "",
          "type": "uint256"
        }
      ],
      "stateMutability": "view",
      "type": "function"
    },
    {
      "inputs": [],
      "name": "epoch",
      "outputs": [
        {
          "internalType": "uint256",
          "name": "length",
          "type": "uint256"
        },
        {
          "internalType": "uint256",
          "name": "number",
          "type": "uint256"
        },
        {
          "internalType": "uint256",
          "name": "endBlock",
          "type": "uint256"
        },
        {
          "internalType": "uint256",
          "name": "distribute",
          "type": "uint256"
        }
      ],
      "stateMutability": "view",
      "type": "function"
    },
    {
      "inputs": [
        {
          "internalType": "address",
          "name": "_stakingToken",
          "type": "address"
        },
        {
          "internalType": "address",
          "name": "_rewardToken",
          "type": "address"
        },
        {
          "internalType": "address",
          "name": "_tokeToken",
          "type": "address"
        },
        {
          "internalType": "address",
          "name": "_tokePool",
          "type": "address"
        },
        {
          "internalType": "address",
          "name": "_tokeManager",
          "type": "address"
        },
        {
          "internalType": "address",
          "name": "_tokeReward",
          "type": "address"
        },
        {
          "internalType": "address",
          "name": "_liquidityReserve",
          "type": "address"
        },
        {
          "internalType": "uint256",
          "name": "_epochLength",
          "type": "uint256"
        },
        {
          "internalType": "uint256",
          "name": "_firstEpochNumber",
          "type": "uint256"
        },
        {
          "internalType": "uint256",
          "name": "_firstEpochBlock",
          "type": "uint256"
        },
        {
          "internalType": "uint256",
          "name": "_timeLeftToRequestWithdrawal",
          "type": "uint256"
        }
      ],
      "name": "initialize",
      "outputs": [],
      "stateMutability": "nonpayable",
      "type": "function"
    },
    {
      "inputs": [
        {
          "internalType": "bool",
          "name": "_trigger",
          "type": "bool"
        }
      ],
      "name": "instantUnstake",
      "outputs": [],
      "stateMutability": "nonpayable",
      "type": "function"
    },
    {
      "inputs": [],
      "name": "lastTokeCycleIndex",
      "outputs": [
        {
          "internalType": "uint256",
          "name": "",
          "type": "uint256"
        }
      ],
      "stateMutability": "view",
      "type": "function"
    },
    {
      "inputs": [],
      "name": "newFunction",
      "outputs": [
        {
          "internalType": "uint256",
          "name": "",
          "type": "uint256"
        }
      ],
      "stateMutability": "pure",
      "type": "function"
    },
    {
      "inputs": [],
      "name": "owner",
      "outputs": [
        {
          "internalType": "address",
          "name": "",
          "type": "address"
        }
      ],
      "stateMutability": "view",
      "type": "function"
    },
    {
      "inputs": [],
      "name": "pauseInstantUnstaking",
      "outputs": [
        {
          "internalType": "bool",
          "name": "",
          "type": "bool"
        }
      ],
      "stateMutability": "view",
      "type": "function"
    },
    {
      "inputs": [],
      "name": "pauseStaking",
      "outputs": [
        {
          "internalType": "bool",
          "name": "",
          "type": "bool"
        }
      ],
      "stateMutability": "view",
      "type": "function"
    },
    {
      "inputs": [],
      "name": "pauseUnstaking",
      "outputs": [
        {
          "internalType": "bool",
          "name": "",
          "type": "bool"
        }
      ],
      "stateMutability": "view",
      "type": "function"
    },
    {
      "inputs": [],
      "name": "rebase",
      "outputs": [],
      "stateMutability": "nonpayable",
      "type": "function"
    },
    {
      "inputs": [],
      "name": "renounceOwnership",
      "outputs": [],
      "stateMutability": "nonpayable",
      "type": "function"
    },
    {
      "inputs": [],
      "name": "requestWithdrawalAmount",
      "outputs": [
        {
          "internalType": "uint256",
          "name": "",
          "type": "uint256"
        }
      ],
      "stateMutability": "view",
      "type": "function"
    },
    {
      "inputs": [],
      "name": "sendWithdrawalRequests",
      "outputs": [],
      "stateMutability": "nonpayable",
      "type": "function"
    },
    {
      "inputs": [
        {
          "internalType": "uint256",
          "name": "_vestingPeriod",
          "type": "uint256"
        }
      ],
      "name": "setCoolDownPeriod",
      "outputs": [],
      "stateMutability": "nonpayable",
      "type": "function"
    },
    {
      "inputs": [
        {
          "internalType": "uint256",
          "name": "length",
          "type": "uint256"
        }
      ],
      "name": "setEpochLength",
      "outputs": [],
      "stateMutability": "nonpayable",
      "type": "function"
    },
    {
      "inputs": [
        {
          "internalType": "uint256",
          "name": "_timestamp",
          "type": "uint256"
        }
      ],
      "name": "setTimeLeftToRequestWithdrawal",
      "outputs": [],
      "stateMutability": "nonpayable",
      "type": "function"
    },
    {
      "inputs": [
        {
          "internalType": "uint256",
          "name": "_vestingPeriod",
          "type": "uint256"
        }
      ],
      "name": "setWarmUpPeriod",
      "outputs": [],
      "stateMutability": "nonpayable",
      "type": "function"
    },
    {
      "inputs": [
        {
          "internalType": "bool",
          "name": "_shouldPause",
          "type": "bool"
        }
      ],
      "name": "shouldPauseStaking",
      "outputs": [],
      "stateMutability": "nonpayable",
      "type": "function"
    },
    {
      "inputs": [
        {
          "internalType": "bool",
          "name": "_shouldPause",
          "type": "bool"
        }
      ],
      "name": "shouldPauseUnstaking",
      "outputs": [],
      "stateMutability": "nonpayable",
      "type": "function"
    },
    {
      "inputs": [
        {
          "internalType": "uint256",
          "name": "_amount",
          "type": "uint256"
        },
        {
          "internalType": "address",
          "name": "_recipient",
          "type": "address"
        }
      ],
      "name": "stake",
      "outputs": [],
      "stateMutability": "nonpayable",
      "type": "function"
    },
    {
      "inputs": [
        {
          "internalType": "uint256",
          "name": "_amount",
          "type": "uint256"
        }
      ],
      "name": "stake",
      "outputs": [],
      "stateMutability": "nonpayable",
      "type": "function"
    },
    {
      "inputs": [],
      "name": "timeLeftToRequestWithdrawal",
      "outputs": [
        {
          "internalType": "uint256",
          "name": "",
          "type": "uint256"
        }
      ],
      "stateMutability": "view",
      "type": "function"
    },
    {
      "inputs": [
        {
          "internalType": "address",
          "name": "newOwner",
          "type": "address"
        }
      ],
      "name": "transferOwnership",
      "outputs": [],
      "stateMutability": "nonpayable",
      "type": "function"
    },
    {
      "inputs": [
        {
          "internalType": "address",
          "name": "_claimAddress",
          "type": "address"
        }
      ],
      "name": "transferToke",
      "outputs": [],
      "stateMutability": "nonpayable",
      "type": "function"
    },
    {
      "inputs": [
        {
          "internalType": "uint256",
          "name": "_amount",
          "type": "uint256"
        },
        {
          "internalType": "bool",
          "name": "_trigger",
          "type": "bool"
        }
      ],
      "name": "unstake",
      "outputs": [],
      "stateMutability": "nonpayable",
      "type": "function"
    },
    {
      "inputs": [],
      "name": "unstakeAllFromTokemak",
      "outputs": [],
      "stateMutability": "nonpayable",
      "type": "function"
    },
    {
      "inputs": [
        {
          "internalType": "address",
          "name": "",
          "type": "address"
        }
      ],
      "name": "warmUpInfo",
      "outputs": [
        {
          "internalType": "uint256",
          "name": "amount",
          "type": "uint256"
        },
        {
          "internalType": "uint256",
          "name": "gons",
          "type": "uint256"
        },
        {
          "internalType": "uint256",
          "name": "expiry",
          "type": "uint256"
        }
      ],
      "stateMutability": "view",
      "type": "function"
    },
    {
      "inputs": [],
      "name": "warmUpPeriod",
      "outputs": [
        {
          "internalType": "uint256",
          "name": "",
          "type": "uint256"
        }
      ],
      "stateMutability": "view",
      "type": "function"
    },
    {
      "inputs": [],
      "name": "withdrawalAmount",
      "outputs": [
        {
          "internalType": "uint256",
          "name": "",
          "type": "uint256"
        }
      ],
      "stateMutability": "view",
      "type": "function"
    }
  ],
  "bytecode": "0x608060405234801561001057600080fd5b506146d8806100206000396000f3fe60806040523480156200001157600080fd5b5060043610620003315760003560e01c8063736f616b11620001b1578063af14052c11620000f5578063e2a8179d11620000a3578063f2fde38b116200007a578063f2fde38b1462000799578063f999c50614620007b0578063f9a571a214620007d657600080fd5b8063e2a8179d146200074d578063e6e268f4146200076e578063ed295509146200077857600080fd5b8063b736ca8211620000d8578063b736ca82146200070b578063b8e4b2441462000722578063c9d4f350146200074357600080fd5b8063af14052c14620006e0578063b09881cc14620006ea57600080fd5b80638da5cb5b116200015f57806399248ea7116200013657806399248ea714620006915780639ebea88c14620006b2578063a694fc3a14620006c957600080fd5b80638da5cb5b1462000630578063900cf0cf146200064f5780639776cb78146200068757600080fd5b80637fa91eba11620001945780637fa91eba14620005dd578063820c6f5b14620005f4578063823a46a1146200062657600080fd5b8063736f616b14620005af5780637acb775714620005c657600080fd5b806330f1ebb91162000279578063516c49d911620002275780635b3112fc11620001fe5780635b3112fc146200058457806368d8f514146200059b578063715018a614620005a557600080fd5b8063516c49d9146200053f57806354d4be5a146200055657806354eea796146200056d57600080fd5b80633897e22b116200025c5780633897e22b14620004fa5780634baa0cd214620005115780634bbce08b146200052857600080fd5b806330f1ebb914620004e657806337df07ee14620004f057600080fd5b80631b28d63e11620002e35780631e83409a11620002ba5780631e83409a146200048657806326d8b9ae146200049d57806328ebcda114620004c557600080fd5b80631b28d63e14620003f55780631b618cc014620004005780631c4e6ab7146200044e57600080fd5b80630a8dd5e611620003185780630a8dd5e614620003a25780631078167914620003bb578063156c46bf14620003dc57600080fd5b80630479d6441462000336578063050c486c1462000381575b600080fd5b606854620003579073ffffffffffffffffffffffffffffffffffffffff1681565b60405173ffffffffffffffffffffffffffffffffffffffff90911681526020015b60405180910390f35b606a54620003579073ffffffffffffffffffffffffffffffffffffffff1681565b620003b9620003b336600462003e48565b620007ed565b005b606554620003579073ffffffffffffffffffffffffffffffffffffffff1681565b620003e660745481565b60405190815260200162000378565b63075bcd15620003e6565b620004326200041136600462003e92565b60736020526000908152604090208054600182015460029092015490919083565b6040805193845260208401929092529082015260600162000378565b606d5462000475907501000000000000000000000000000000000000000000900460ff1681565b604051901515815260200162000378565b620003b96200049736600462003e92565b62000d25565b606d546200047590760100000000000000000000000000000000000000000000900460ff1681565b606b54620003579073ffffffffffffffffffffffffffffffffffffffff1681565b620003e660765481565b620003b962000eea565b620003b96200050b36600462003e48565b62000fc2565b620003b96200052236600462003eb0565b62001090565b620003b96200053936600462003ee3565b62001195565b620003b96200055036600462003e92565b620012a0565b620003b96200056736600462003e92565b6200148e565b620003b96200057e36600462003f38565b6200165f565b620003b96200059536600462003f38565b620016e7565b620003b96200176f565b620003b9620018ba565b620003b9620005c036600462003f38565b62001949565b620003b9620005d736600462003f52565b620019d1565b620003b9620005ee36600462003e48565b62001d77565b620004326200060536600462003e92565b60726020526000908152604090208054600182015460029092015490919083565b620003e660775481565b60335473ffffffffffffffffffffffffffffffffffffffff1662000357565b606e54606f54607054607154620006669392919084565b60408051948552602085019390935291830152606082015260800162000378565b620003e660755481565b606954620003579073ffffffffffffffffffffffffffffffffffffffff1681565b620003b9620006c336600462003eb0565b62001e44565b620003b9620006da36600462003f38565b62002079565b620003b962002088565b606754620003579073ffffffffffffffffffffffffffffffffffffffff1681565b620003b96200071c36600462003f81565b6200224d565b606d54620003579073ffffffffffffffffffffffffffffffffffffffff1681565b620003e660795481565b606654620003579073ffffffffffffffffffffffffffffffffffffffff1681565b620003e660785481565b606c54620003579073ffffffffffffffffffffffffffffffffffffffff1681565b620003b9620007aa36600462003e92565b62002874565b606d54620004759074010000000000000000000000000000000000000000900460ff1681565b620003b9620007e736600462003f38565b620029a7565b606d547501000000000000000000000000000000000000000000900460ff161562000879576040517f08c379a000000000000000000000000000000000000000000000000000000000815260206004820152601360248201527f556e7374616b696e67206973207061757365640000000000000000000000000060448201526064015b60405180910390fd5b80156200088a576200088a62002088565b336000818152607260209081526040808320815160608101835281548152600182015493810193909352600201548282015260695490517f70a082310000000000000000000000000000000000000000000000000000000081526004810194909452909273ffffffffffffffffffffffffffffffffffffffff909116906370a082319060240160206040518083038186803b1580156200092957600080fd5b505afa1580156200093e573d6000803e3d6000fd5b505050506040513d601f19601f8201168201806040525081019062000964919062004040565b60695460208401516040517f7965d56d00000000000000000000000000000000000000000000000000000000815292935060009273ffffffffffffffffffffffffffffffffffffffff90921691637965d56d91620009c89160040190815260200190565b60206040518083038186803b158015620009e157600080fd5b505afa158015620009f6573d6000803e3d6000fd5b505050506040513d601f19601f8201168201806040525081019062000a1c919062004040565b9050600062000a2c838362004089565b606854606b546040517f70a0823100000000000000000000000000000000000000000000000000000000815273ffffffffffffffffffffffffffffffffffffffff91821660048201529293506000929116906370a082319060240160206040518083038186803b15801562000aa057600080fd5b505afa15801562000ab5573d6000803e3d6000fd5b505050506040513d601f19601f8201168201806040525081019062000adb919062004040565b90508162000b46576040517f08c379a000000000000000000000000000000000000000000000000000000000815260206004820152601760248201527f4d75737420686176652072657761726420746f6b656e73000000000000000000604482015260640162000870565b8181101562000bb2576040517f08c379a000000000000000000000000000000000000000000000000000000000815260206004820152601b60248201527f4e6f7420656e6f7567682066756e647320696e20726573657276650000000000604482015260640162000870565b821562000c6357606c546040517fc3a2a6650000000000000000000000000000000000000000000000000000000081523060048201526024810185905273ffffffffffffffffffffffffffffffffffffffff9091169063c3a2a66590604401600060405180830381600087803b15801562000c2c57600080fd5b505af115801562000c41573d6000803e3d6000fd5b5050336000908152607260205260408120818155600181018290556002015550505b831562000c915760695462000c919073ffffffffffffffffffffffffffffffffffffffff1633308762002a2f565b606b546040517fbbb6a9830000000000000000000000000000000000000000000000000000000081526004810184905233602482015273ffffffffffffffffffffffffffffffffffffffff9091169063bbb6a98390604401600060405180830381600087803b15801562000d0457600080fd5b505af115801562000d19573d6000803e3d6000fd5b50505050505050505050565b73ffffffffffffffffffffffffffffffffffffffff8116600090815260726020908152604091829020825160608101845281548152600182015492810192909252600201549181019190915262000d7c8262002b0d565b1562000ee65773ffffffffffffffffffffffffffffffffffffffff82811660009081526072602090815260408083208381556001810184905560020192909255606c546069549185015192517f7965d56d000000000000000000000000000000000000000000000000000000008152600481019390935283169263c3a2a66592869290911690637965d56d9060240160206040518083038186803b15801562000e2457600080fd5b505afa15801562000e39573d6000803e3d6000fd5b505050506040513d601f19601f8201168201806040525081019062000e5f919062004040565b6040517fffffffff0000000000000000000000000000000000000000000000000000000060e085901b16815273ffffffffffffffffffffffffffffffffffffffff909216600483015260248201526044015b600060405180830381600087803b15801562000ecc57600080fd5b505af115801562000ee1573d6000803e3d6000fd5b505050505b5050565b62000ef462002b73565b1562000fc05762000f0462002d76565b60665460775473ffffffffffffffffffffffffffffffffffffffff909116901562000f365762000f3660775462002f95565b60008173ffffffffffffffffffffffffffffffffffffffff1663857909456040518163ffffffff1660e01b815260040160206040518083038186803b15801562000f7f57600080fd5b505afa15801562000f94573d6000803e3d6000fd5b505050506040513d601f19601f8201168201806040525081019062000fba919062004040565b60795550505b565b60335473ffffffffffffffffffffffffffffffffffffffff16331462001045576040517f08c379a000000000000000000000000000000000000000000000000000000000815260206004820181905260248201527f4f776e61626c653a2063616c6c6572206973206e6f7420746865206f776e6572604482015260640162000870565b606d80549115157501000000000000000000000000000000000000000000027fffffffffffffffffffff00ffffffffffffffffffffffffffffffffffffffffff909216919091179055565b606854620010b79073ffffffffffffffffffffffffffffffffffffffff1633308562002a2f565b6068546040517f70a0823100000000000000000000000000000000000000000000000000000000815230600482015260009173ffffffffffffffffffffffffffffffffffffffff16906370a082319060240160206040518083038186803b1580156200112257600080fd5b505afa15801562001137573d6000803e3d6000fd5b505050506040513d601f19601f820116820180604052508101906200115d919062004040565b9050600060785482620011719190620040a4565b90506200117e8162002fef565b82156200118f576200118f62002088565b50505050565b600084606001351162001205576040517f08c379a000000000000000000000000000000000000000000000000000000000815260206004820152601760248201527f4d75737420656e7465722076616c696420616d6f756e74000000000000000000604482015260640162000870565b6067546040517fe1fc869100000000000000000000000000000000000000000000000000000000815273ffffffffffffffffffffffffffffffffffffffff90911690819063e1fc86919062001265908890889088908890600401620040be565b600060405180830381600087803b1580156200128057600080fd5b505af115801562001295573d6000803e3d6000fd5b505050505050505050565b73ffffffffffffffffffffffffffffffffffffffff818116600090815260736020908152604080832081516060810183528154815260018201549381018490526002909101548183015260695491517f7965d56d0000000000000000000000000000000000000000000000000000000081526004810193909352931690637965d56d9060240160206040518083038186803b1580156200133f57600080fd5b505afa15801562001354573d6000803e3d6000fd5b505050506040513d601f19601f820116820180604052508101906200137a919062004040565b9050620013878362003049565b1562001489576200139762002d76565b73ffffffffffffffffffffffffffffffffffffffff808416600090815260736020526040812081815560018101829055600201558251606854620013df92169085906200322c565b606d546040517fc3a2a6650000000000000000000000000000000000000000000000000000000081523060048201526024810183905273ffffffffffffffffffffffffffffffffffffffff9091169063c3a2a66590604401600060405180830381600087803b1580156200145257600080fd5b505af115801562001467573d6000803e3d6000fd5b50505050816000015160786000828254620014839190620040a4565b90915550505b505050565b60335473ffffffffffffffffffffffffffffffffffffffff16331462001511576040517f08c379a000000000000000000000000000000000000000000000000000000000815260206004820181905260248201527f4f776e61626c653a2063616c6c6572206973206e6f7420746865206f776e6572604482015260640162000870565b73ffffffffffffffffffffffffffffffffffffffff811662001590576040517f08c379a000000000000000000000000000000000000000000000000000000000815260206004820152600f60248201527f496e76616c696420616464726573730000000000000000000000000000000000604482015260640162000870565b606a546040517f70a0823100000000000000000000000000000000000000000000000000000000815230600482015260009173ffffffffffffffffffffffffffffffffffffffff16906370a082319060240160206040518083038186803b158015620015fb57600080fd5b505afa15801562001610573d6000803e3d6000fd5b505050506040513d601f19601f8201168201806040525081019062001636919062004040565b606a5490915062000ee69073ffffffffffffffffffffffffffffffffffffffff1683836200322c565b60335473ffffffffffffffffffffffffffffffffffffffff163314620016e2576040517f08c379a000000000000000000000000000000000000000000000000000000000815260206004820181905260248201527f4f776e61626c653a2063616c6c6572206973206e6f7420746865206f776e6572604482015260640162000870565b606e55565b60335473ffffffffffffffffffffffffffffffffffffffff1633146200176a576040517f08c379a000000000000000000000000000000000000000000000000000000000815260206004820181905260248201527f4f776e61626c653a2063616c6c6572206973206e6f7420746865206f776e6572604482015260640162000870565b607455565b60335473ffffffffffffffffffffffffffffffffffffffff163314620017f2576040517f08c379a000000000000000000000000000000000000000000000000000000000815260206004820181905260248201527f4f776e61626c653a2063616c6c6572206973206e6f7420746865206f776e6572604482015260640162000870565b6065546040517f70a0823100000000000000000000000000000000000000000000000000000000815230600482015273ffffffffffffffffffffffffffffffffffffffff9091169060009082906370a082319060240160206040518083038186803b1580156200186157600080fd5b505afa15801562001876573d6000803e3d6000fd5b505050506040513d601f19601f820116820180604052508101906200189c919062004040565b9050620018aa600162001d77565b607781905562000ee68162002f95565b60335473ffffffffffffffffffffffffffffffffffffffff1633146200193d576040517f08c379a000000000000000000000000000000000000000000000000000000000815260206004820181905260248201527f4f776e61626c653a2063616c6c6572206973206e6f7420746865206f776e6572604482015260640162000870565b62000fc0600062003284565b60335473ffffffffffffffffffffffffffffffffffffffff163314620019cc576040517f08c379a000000000000000000000000000000000000000000000000000000000815260206004820181905260248201527f4f776e61626c653a2063616c6c6572206973206e6f7420746865206f776e6572604482015260640162000870565b607655565b606d5474010000000000000000000000000000000000000000900460ff161562001a58576040517f08c379a000000000000000000000000000000000000000000000000000000000815260206004820152601160248201527f5374616b696e6720697320706175736564000000000000000000000000000000604482015260640162000870565b6000821162001ac4576040517f08c379a000000000000000000000000000000000000000000000000000000000815260206004820152601660248201527f4d75737420686176652076616c696420616d6f756e7400000000000000000000604482015260640162000870565b606954604080517f9358928b000000000000000000000000000000000000000000000000000000008152905160009273ffffffffffffffffffffffffffffffffffffffff1691639358928b916004808301926020929190829003018186803b15801562001b3057600080fd5b505afa15801562001b45573d6000803e3d6000fd5b505050506040513d601f19601f8201168201806040525081019062001b6b919062004040565b9050801562001b7e5762001b7e62002088565b60685462001ba59073ffffffffffffffffffffffffffffffffffffffff1633308662002a2f565b73ffffffffffffffffffffffffffffffffffffffff8216600090815260726020526040902062001bd58362002b0d565b1562001be65762001be68362000d25565b62001bf18462002fef565b60755462001c255760695462001c1f9073ffffffffffffffffffffffffffffffffffffffff1684866200322c565b6200118f565b604051806060016040528085836000015462001c42919062004089565b81526069546040517f1bd396740000000000000000000000000000000000000000000000000000000081526004810188905260209092019173ffffffffffffffffffffffffffffffffffffffff90911690631bd396749060240160206040518083038186803b15801562001cb557600080fd5b505afa15801562001cca573d6000803e3d6000fd5b505050506040513d601f19601f8201168201806040525081019062001cf0919062004040565b836001015462001d01919062004089565b8152602001607554606e6001015462001d1b919062004089565b905273ffffffffffffffffffffffffffffffffffffffff80851660009081526072602090815260409182902084518155908401516001820155920151600290920191909155606c546069546200118f929081169116866200322c565b60335473ffffffffffffffffffffffffffffffffffffffff16331462001dfa576040517f08c379a000000000000000000000000000000000000000000000000000000000815260206004820181905260248201527f4f776e61626c653a2063616c6c6572206973206e6f7420746865206f776e6572604482015260640162000870565b606d805491151574010000000000000000000000000000000000000000027fffffffffffffffffffffff00ffffffffffffffffffffffffffffffffffffffff909216919091179055565b606d547501000000000000000000000000000000000000000000900460ff161562001ecc576040517f08c379a000000000000000000000000000000000000000000000000000000000815260206004820152601360248201527f556e7374616b696e672069732070617573656400000000000000000000000000604482015260640162000870565b801562001edd5762001edd62002088565b62001ee98233620032fb565b3360008181526073602052604090209062001f0490620012a0565b604051806060016040528084836000015462001f21919062004089565b81526069546040517f1bd396740000000000000000000000000000000000000000000000000000000081526004810187905260209092019173ffffffffffffffffffffffffffffffffffffffff90911690631bd396749060240160206040518083038186803b15801562001f9457600080fd5b505afa15801562001fa9573d6000803e3d6000fd5b505050506040513d601f19601f8201168201806040525081019062001fcf919062004040565b836001015462001fe0919062004089565b8152602001607654606e6001015462001ffa919062004089565b9052336000908152607360209081526040808320845181559184015160018301559290920151600290920191909155607780548592906200203d90849062004089565b909155506200204d905062000eea565b606d54606954620014899173ffffffffffffffffffffffffffffffffffffffff9182169116856200322c565b620020858133620019d1565b50565b607054431062000fc057606954607154606f546040517f058ecdb40000000000000000000000000000000000000000000000000000000081526004810192909252602482015273ffffffffffffffffffffffffffffffffffffffff9091169063058ecdb490604401602060405180830381600087803b1580156200210b57600080fd5b505af115801562002120573d6000803e3d6000fd5b505050506040513d601f19601f8201168201806040525081019062002146919062004040565b50606e5460705462002159919062004089565b607055606f80549060006200216e8362004121565b919050555060006200217f62003860565b90506000606960009054906101000a900473ffffffffffffffffffffffffffffffffffffffff1673ffffffffffffffffffffffffffffffffffffffff16639358928b6040518163ffffffff1660e01b815260040160206040518083038186803b158015620021ec57600080fd5b505afa15801562002201573d6000803e3d6000fd5b505050506040513d601f19601f8201168201806040525081019062002227919062004040565b90508082116200223a5760006071555050565b620022468183620040a4565b6071555050565b600054610100900460ff166200226a5760005460ff16156200226e565b303b155b620022fc576040517f08c379a000000000000000000000000000000000000000000000000000000000815260206004820152602e60248201527f496e697469616c697a61626c653a20636f6e747261637420697320616c72656160448201527f647920696e697469616c697a6564000000000000000000000000000000000000606482015260840162000870565b600054610100900460ff161580156200233c57600080547fffffffffffffffffffffffffffffffffffffffffffffffffffffffffffff0000166101011790555b6200234662003929565b73ffffffffffffffffffffffffffffffffffffffff8c161580159062002381575073ffffffffffffffffffffffffffffffffffffffff8b1615155b8015620023a3575073ffffffffffffffffffffffffffffffffffffffff8a1615155b8015620023c5575073ffffffffffffffffffffffffffffffffffffffff891615155b8015620023e7575073ffffffffffffffffffffffffffffffffffffffff881615155b801562002409575073ffffffffffffffffffffffffffffffffffffffff871615155b80156200242b575073ffffffffffffffffffffffffffffffffffffffff861615155b62002493576040517f08c379a000000000000000000000000000000000000000000000000000000000815260206004820152600f60248201527f496e76616c696420616464726573730000000000000000000000000000000000604482015260640162000870565b606880547fffffffffffffffffffffffff000000000000000000000000000000000000000090811673ffffffffffffffffffffffffffffffffffffffff8f8116919091179092556069805482168e8416908117909155606a805483168e85161790556065805483168d85161790556066805483168c85161790556067805483168b8516179055606b805490921692891692909217905560748390556040516000913091620025419062003e2b565b73ffffffffffffffffffffffffffffffffffffffff928316815291166020820152604001604051809103906000f08015801562002582573d6000803e3d6000fd5b50606c80547fffffffffffffffffffffffff00000000000000000000000000000000000000001673ffffffffffffffffffffffffffffffffffffffff8381169190911790915560695460405192935060009230929190911690620025e69062003e2b565b73ffffffffffffffffffffffffffffffffffffffff928316815291166020820152604001604051809103906000f08015801562002627573d6000803e3d6000fd5b50606d80547fffffffffffffffffffffffff00000000000000000000000000000000000000001673ffffffffffffffffffffffffffffffffffffffff838116919091179091556068546065546040517f095ea7b300000000000000000000000000000000000000000000000000000000815290831660048201527fffffffffffffffffffffffffffffffffffffffffffffffffffffffffffffffff6024820152929350169063095ea7b390604401602060405180830381600087803b158015620026f057600080fd5b505af115801562002705573d6000803e3d6000fd5b505050506040513d601f19601f820116820180604052508101906200272b91906200415d565b50606954606b546040517f095ea7b300000000000000000000000000000000000000000000000000000000815273ffffffffffffffffffffffffffffffffffffffff91821660048201527fffffffffffffffffffffffffffffffffffffffffffffffffffffffffffffffff602482015291169063095ea7b390604401602060405180830381600087803b158015620027c257600080fd5b505af1158015620027d7573d6000803e3d6000fd5b505050506040513d601f19601f82011682018060405250810190620027fd91906200415d565b5050604080516080810182528781526020810187905290810185905260006060909101819052606e879055606f86905560708590556071555080156200286657600080547fffffffffffffffffffffffffffffffffffffffffffffffffffffffffffff00ff1690555b505050505050505050505050565b60335473ffffffffffffffffffffffffffffffffffffffff163314620028f7576040517f08c379a000000000000000000000000000000000000000000000000000000000815260206004820181905260248201527f4f776e61626c653a2063616c6c6572206973206e6f7420746865206f776e6572604482015260640162000870565b73ffffffffffffffffffffffffffffffffffffffff81166200299c576040517f08c379a000000000000000000000000000000000000000000000000000000000815260206004820152602660248201527f4f776e61626c653a206e6577206f776e657220697320746865207a65726f206160448201527f6464726573730000000000000000000000000000000000000000000000000000606482015260840162000870565b620020858162003284565b60335473ffffffffffffffffffffffffffffffffffffffff16331462002a2a576040517f08c379a000000000000000000000000000000000000000000000000000000000815260206004820181905260248201527f4f776e61626c653a2063616c6c6572206973206e6f7420746865206f776e6572604482015260640162000870565b607555565b60405173ffffffffffffffffffffffffffffffffffffffff808516602483015283166044820152606481018290526200118f9085907f23b872dd00000000000000000000000000000000000000000000000000000000906084015b604080517fffffffffffffffffffffffffffffffffffffffffffffffffffffffffffffffe08184030181529190526020810180517bffffffffffffffffffffffffffffffffffffffffffffffffffffffff167fffffffff0000000000000000000000000000000000000000000000000000000090931692909217909152620039cc565b73ffffffffffffffffffffffffffffffffffffffff8116600090815260726020908152604080832081516060810183528154815260018201549381019390935260020154908201819052606f541080159062002b6c5750604081015115155b9392505050565b606654604080517fbd5da9ac000000000000000000000000000000000000000000000000000000008152905160009273ffffffffffffffffffffffffffffffffffffffff16918391839163bd5da9ac916004808301926020929190829003018186803b15801562002be357600080fd5b505afa15801562002bf8573d6000803e3d6000fd5b505050506040513d601f19601f8201168201806040525081019062002c1e919062004040565b905060008273ffffffffffffffffffffffffffffffffffffffff1663be26ed7f6040518163ffffffff1660e01b815260040160206040518083038186803b15801562002c6957600080fd5b505afa15801562002c7e573d6000803e3d6000fd5b505050506040513d601f19601f8201168201806040525081019062002ca4919062004040565b905060008373ffffffffffffffffffffffffffffffffffffffff1663857909456040518163ffffffff1660e01b815260040160206040518083038186803b15801562002cef57600080fd5b505afa15801562002d04573d6000803e3d6000fd5b505050506040513d601f19601f8201168201806040525081019062002d2a919062004040565b9050600062002d3a848462004089565b9050806074544262002d4d919062004089565b1015801562002d5d575060795482115b801562002d6c57506000607754115b9550505050505090565b6065546066546040517fbb582d8000000000000000000000000000000000000000000000000000000000815230600482015273ffffffffffffffffffffffffffffffffffffffff9283169290911690600090839063bb582d80906024016040805180830381600087803b15801562002ded57600080fd5b505af115801562002e02573d6000803e3d6000fd5b505050506040513d601f19601f8201168201806040525081019062002e2891906200417d565b905060008273ffffffffffffffffffffffffffffffffffffffff1663857909456040518163ffffffff1660e01b815260040160206040518083038186803b15801562002e7357600080fd5b505afa15801562002e88573d6000803e3d6000fd5b505050506040513d601f19601f8201168201806040525081019062002eae919062004040565b90506000826020015111801562002ec6575081518110155b156200118f5760208201516040517f2e1a7d4d000000000000000000000000000000000000000000000000000000008152600481019190915273ffffffffffffffffffffffffffffffffffffffff851690632e1a7d4d90602401600060405180830381600087803b15801562002f3b57600080fd5b505af115801562002f50573d6000803e3d6000fd5b5050505081602001516077600082825462002f6c9190620040a4565b909155505060208201516078805460009062002f8a90849062004089565b909155505050505050565b6065546040517f9ee679e80000000000000000000000000000000000000000000000000000000081526004810183905273ffffffffffffffffffffffffffffffffffffffff909116908190639ee679e89060240162000eb1565b6065546040517fb6b55f250000000000000000000000000000000000000000000000000000000081526004810183905273ffffffffffffffffffffffffffffffffffffffff90911690819063b6b55f259060240162000eb1565b73ffffffffffffffffffffffffffffffffffffffff8181166000908152607360209081526040808320815160608101835281548152600182015493810193909352600201548282015260665460655491517fbb582d80000000000000000000000000000000000000000000000000000000008152306004820152939492939083169291909116908490829063bb582d80906024016040805180830381600087803b158015620030f757600080fd5b505af11580156200310c573d6000803e3d6000fd5b505050506040513d601f19601f820116820180604052508101906200313291906200417d565b905060008373ffffffffffffffffffffffffffffffffffffffff1663857909456040518163ffffffff1660e01b815260040160206040518083038186803b1580156200317d57600080fd5b505afa15801562003192573d6000803e3d6000fd5b505050506040513d601f19601f82011682018060405250810190620031b8919062004040565b90508460400151606e6001015410158015620031d75750604085015115155b8015620031e45750845115155b801562003221575081518110801590620032125750845160785460208401516200320f919062004089565b10155b80620032215750845160785410155b979650505050505050565b60405173ffffffffffffffffffffffffffffffffffffffff8316602482015260448101829052620014899084907fa9059cbb000000000000000000000000000000000000000000000000000000009060640162002a8a565b6033805473ffffffffffffffffffffffffffffffffffffffff8381167fffffffffffffffffffffffff0000000000000000000000000000000000000000831681179093556040519116919082907f8be0079c531659141344cd1fd0a4f28419497f9722a3daafe3b4186f6b6457e090600090a35050565b73ffffffffffffffffffffffffffffffffffffffff8181166000818152607260209081526040808320815160608101835281548152600182015493810193909352600201548282015260695490517f70a082310000000000000000000000000000000000000000000000000000000081526004810194909452909391929116906370a082319060240160206040518083038186803b1580156200339d57600080fd5b505afa158015620033b2573d6000803e3d6000fd5b505050506040513d601f19601f82011682018060405250810190620033d8919062004040565b60695460208401516040517f7965d56d00000000000000000000000000000000000000000000000000000000815292935060009273ffffffffffffffffffffffffffffffffffffffff90921691637965d56d916200343c9160040190815260200190565b60206040518083038186803b1580156200345557600080fd5b505afa1580156200346a573d6000803e3d6000fd5b505050506040513d601f19601f8201168201806040525081019062003490919062004040565b90506200349e818362004089565b85111562003509576040517f08c379a000000000000000000000000000000000000000000000000000000000815260206004820152601460248201527f496e73756666696369656e742042616c616e6365000000000000000000000000604482015260640162000870565b8481156200383257818610620035e357606c546040517fc3a2a66500000000000000000000000000000000000000000000000000000000815230600482015260248101849052918390039173ffffffffffffffffffffffffffffffffffffffff9091169063c3a2a66590604401600060405180830381600087803b1580156200359157600080fd5b505af1158015620035a6573d6000803e3d6000fd5b50505073ffffffffffffffffffffffffffffffffffffffff8616600090815260726020526040812081815560018101829055600201555062003832565b50606c546040517fc3a2a6650000000000000000000000000000000000000000000000000000000081523060048201526024810187905260009173ffffffffffffffffffffffffffffffffffffffff169063c3a2a66590604401600060405180830381600087803b1580156200365857600080fd5b505af11580156200366d573d6000803e3d6000fd5b50506069546040517f1bd39674000000000000000000000000000000000000000000000000000000008152600481018a90526000935073ffffffffffffffffffffffffffffffffffffffff9091169150631bd396749060240160206040518083038186803b158015620036df57600080fd5b505afa158015620036f4573d6000803e3d6000fd5b505050506040513d601f19601f820116820180604052508101906200371a919062004040565b85602001516200372b9190620040a4565b6069546040517f7965d56d0000000000000000000000000000000000000000000000000000000081526004810183905291925060009173ffffffffffffffffffffffffffffffffffffffff90911690637965d56d9060240160206040518083038186803b1580156200379c57600080fd5b505afa158015620037b1573d6000803e3d6000fd5b505050506040513d601f19601f82011682018060405250810190620037d7919062004040565b6040805160608101825291825260208083019485528882015183830190815273ffffffffffffffffffffffffffffffffffffffff8b166000908152607290925291902091518255925160018201559151600290920191909155505b801562000ee15760695462000ee19073ffffffffffffffffffffffffffffffffffffffff1686308462002a2f565b6000806200386d62003adf565b6068546040517f70a08231000000000000000000000000000000000000000000000000000000008152306004820152919250829173ffffffffffffffffffffffffffffffffffffffff909116906370a082319060240160206040518083038186803b158015620038dc57600080fd5b505afa158015620038f1573d6000803e3d6000fd5b505050506040513d601f19601f8201168201806040525081019062003917919062004040565b62003923919062004089565b91505090565b600054610100900460ff16620039c2576040517f08c379a000000000000000000000000000000000000000000000000000000000815260206004820152602b60248201527f496e697469616c697a61626c653a20636f6e7472616374206973206e6f74206960448201527f6e697469616c697a696e67000000000000000000000000000000000000000000606482015260840162000870565b62000fc062003b87565b600062003a30826040518060400160405280602081526020017f5361666545524332303a206c6f772d6c6576656c2063616c6c206661696c65648152508573ffffffffffffffffffffffffffffffffffffffff1662003c2b9092919063ffffffff16565b80519091501562001489578080602001905181019062003a5191906200415d565b62001489576040517f08c379a000000000000000000000000000000000000000000000000000000000815260206004820152602a60248201527f5361666545524332303a204552433230206f7065726174696f6e20646964206e60448201527f6f74207375636365656400000000000000000000000000000000000000000000606482015260840162000870565b6065546040517f70a0823100000000000000000000000000000000000000000000000000000000815230600482015260009173ffffffffffffffffffffffffffffffffffffffff169081906370a082319060240160206040518083038186803b15801562003b4c57600080fd5b505afa15801562003b61573d6000803e3d6000fd5b505050506040513d601f19601f8201168201806040525081019062003923919062004040565b600054610100900460ff1662003c20576040517f08c379a000000000000000000000000000000000000000000000000000000000815260206004820152602b60248201527f496e697469616c697a61626c653a20636f6e7472616374206973206e6f74206960448201527f6e697469616c697a696e67000000000000000000000000000000000000000000606482015260840162000870565b62000fc03362003284565b606062003c3c848460008562003c44565b949350505050565b60608247101562003cd8576040517f08c379a000000000000000000000000000000000000000000000000000000000815260206004820152602660248201527f416464726573733a20696e73756666696369656e742062616c616e636520666f60448201527f722063616c6c0000000000000000000000000000000000000000000000000000606482015260840162000870565b73ffffffffffffffffffffffffffffffffffffffff85163b62003d58576040517f08c379a000000000000000000000000000000000000000000000000000000000815260206004820152601d60248201527f416464726573733a2063616c6c20746f206e6f6e2d636f6e7472616374000000604482015260640162000870565b6000808673ffffffffffffffffffffffffffffffffffffffff16858760405162003d83919062004224565b60006040518083038185875af1925050503d806000811462003dc2576040519150601f19603f3d011682016040523d82523d6000602084013e62003dc7565b606091505b5091509150620032218282866060831562003de457508162002b6c565b82511562003df55782518084602001fd5b816040517f08c379a000000000000000000000000000000000000000000000000000000000815260040162000870919062004242565b61040d806200429683390190565b80151581146200208557600080fd5b60006020828403121562003e5b57600080fd5b813562002b6c8162003e39565b803573ffffffffffffffffffffffffffffffffffffffff8116811462003e8d57600080fd5b919050565b60006020828403121562003ea557600080fd5b62002b6c8262003e68565b6000806040838503121562003ec457600080fd5b82359150602083013562003ed88162003e39565b809150509250929050565b60008060008084860360e081121562003efb57600080fd5b608081121562003f0a57600080fd5b50849350608085013560ff8116811462003f2357600080fd5b939693955050505060a08201359160c0013590565b60006020828403121562003f4b57600080fd5b5035919050565b6000806040838503121562003f6657600080fd5b8235915062003f786020840162003e68565b90509250929050565b60008060008060008060008060008060006101608c8e03121562003fa457600080fd5b62003faf8c62003e68565b9a5062003fbf60208d0162003e68565b995062003fcf60408d0162003e68565b985062003fdf60608d0162003e68565b975062003fef60808d0162003e68565b965062003fff60a08d0162003e68565b95506200400f60c08d0162003e68565b945060e08c013593506101008c013592506101208c013591506101408c013590509295989b509295989b9093969950565b6000602082840312156200405357600080fd5b5051919050565b7f4e487b7100000000000000000000000000000000000000000000000000000000600052601160045260246000fd5b600082198211156200409f576200409f6200405a565b500190565b600082821015620040b957620040b96200405a565b500390565b843581526020808601359082015260e0810173ffffffffffffffffffffffffffffffffffffffff620040f36040880162003e68565b1660408301526060860135606083015260ff851660808301528360a08301528260c083015295945050505050565b60007fffffffffffffffffffffffffffffffffffffffffffffffffffffffffffffffff8214156200415657620041566200405a565b5060010190565b6000602082840312156200417057600080fd5b815162002b6c8162003e39565b6000604082840312156200419057600080fd5b6040516040810181811067ffffffffffffffff82111715620041db577f4e487b7100000000000000000000000000000000000000000000000000000000600052604160045260246000fd5b604052825181526020928301519281019290925250919050565b60005b8381101562004212578181015183820152602001620041f8565b838111156200118f5750506000910152565b6000825162004238818460208701620041f5565b9190910192915050565b602081526000825180602084015262004263816040850160208701620041f5565b601f017fffffffffffffffffffffffffffffffffffffffffffffffffffffffffffffffe016919091016040019291505056fe60c060405234801561001057600080fd5b5060405161040d38038061040d83398101604081905261002f916100c4565b6001600160a01b0382161580159061004f57506001600160a01b03811615155b6100915760405162461bcd60e51b815260206004820152600f60248201526e496e76616c6964206164647265737360881b604482015260640160405180910390fd5b6001600160a01b039182166080521660a0526100f7565b80516001600160a01b03811681146100bf57600080fd5b919050565b600080604083850312156100d757600080fd5b6100e0836100a8565b91506100ee602084016100a8565b90509250929050565b60805160a0516102e661012760003960008181604b01526101c101526000818160b0015260ea01526102e66000f3fe608060405234801561001057600080fd5b50600436106100415760003560e01c806399248ea714610046578063c3a2a66514610096578063da19ddfb146100ab575b600080fd5b61006d7f000000000000000000000000000000000000000000000000000000000000000081565b60405173ffffffffffffffffffffffffffffffffffffffff909116815260200160405180910390f35b6100a96100a4366004610242565b6100d2565b005b61006d7f000000000000000000000000000000000000000000000000000000000000000081565b3373ffffffffffffffffffffffffffffffffffffffff7f00000000000000000000000000000000000000000000000000000000000000001614610175576040517f08c379a000000000000000000000000000000000000000000000000000000000815260206004820181905260248201527f4e6f742063616c6c65642066726f6d207374616b696e6720636f6e7472616374604482015260640160405180910390fd5b6040517fa9059cbb00000000000000000000000000000000000000000000000000000000815273ffffffffffffffffffffffffffffffffffffffff8381166004830152602482018390527f0000000000000000000000000000000000000000000000000000000000000000169063a9059cbb90604401602060405180830381600087803b15801561020557600080fd5b505af1158015610219573d6000803e3d6000fd5b505050506040513d601f19601f8201168201806040525081019061023d9190610287565b505050565b6000806040838503121561025557600080fd5b823573ffffffffffffffffffffffffffffffffffffffff8116811461027957600080fd5b946020939093013593505050565b60006020828403121561029957600080fd5b815180151581146102a957600080fd5b939250505056fea26469706673582212207ea98e6d63ce6cffc4ed61eb75ea1bff472395deeb4c0f869e4fe40dfbee0e6c64736f6c63430008090033a2646970667358221220833ca70cf8d1dae094ead7db6411076142a2f9787ca919cc2b3b237ba9ebf4f864736f6c63430008090033",
  "linkReferences": {},
  "deployedLinkReferences": {}
}