{
  "_format": "hh-sol-artifact-1",
  "contractName": "StakingV2Test",
  "sourceName": "src/contracts/test/StakingUpgradeTest.sol",
  "abi": [
    {
      "anonymous": false,
      "inputs": [
        {
          "indexed": true,
          "internalType": "uint256",
          "name": "blockNumber",
          "type": "uint256"
        },
        {
          "indexed": false,
          "internalType": "address",
          "name": "affilateAddress",
          "type": "address"
        }
      ],
      "name": "LogSetAffiliateAddress",
      "type": "event"
    },
    {
      "anonymous": false,
      "inputs": [
        {
          "indexed": true,
          "internalType": "uint256",
          "name": "blockNumber",
          "type": "uint256"
        },
        {
          "indexed": false,
          "internalType": "uint256",
          "name": "fee",
          "type": "uint256"
        }
      ],
      "name": "LogSetAffiliateFee",
      "type": "event"
    },
    {
      "anonymous": false,
      "inputs": [
        {
          "indexed": true,
          "internalType": "uint256",
          "name": "blockNumber",
          "type": "uint256"
        },
        {
          "indexed": false,
          "internalType": "uint256",
          "name": "period",
          "type": "uint256"
        }
      ],
      "name": "LogSetCoolDownPeriod",
      "type": "event"
    },
    {
      "anonymous": false,
      "inputs": [
        {
          "indexed": true,
          "internalType": "address",
          "name": "curvePool",
          "type": "address"
        },
        {
          "indexed": false,
          "internalType": "int128",
          "name": "to",
          "type": "int128"
        },
        {
          "indexed": false,
          "internalType": "int128",
          "name": "from",
          "type": "int128"
        }
      ],
      "name": "LogSetCurvePool",
      "type": "event"
    },
    {
      "anonymous": false,
      "inputs": [
        {
          "indexed": true,
          "internalType": "uint256",
          "name": "blockNumber",
          "type": "uint256"
        },
        {
          "indexed": false,
          "internalType": "uint256",
          "name": "duration",
          "type": "uint256"
        }
      ],
      "name": "LogSetEpochDuration",
      "type": "event"
    },
    {
      "anonymous": false,
      "inputs": [
        {
          "indexed": true,
          "internalType": "uint256",
          "name": "blockNumber",
          "type": "uint256"
        },
        {
          "indexed": false,
          "internalType": "bool",
          "name": "shouldPause",
          "type": "bool"
        }
      ],
      "name": "LogSetPauseInstantUnstaking",
      "type": "event"
    },
    {
      "anonymous": false,
      "inputs": [
        {
          "indexed": true,
          "internalType": "uint256",
          "name": "blockNumber",
          "type": "uint256"
        },
        {
          "indexed": false,
          "internalType": "bool",
          "name": "shouldPause",
          "type": "bool"
        }
      ],
      "name": "LogSetPauseStaking",
      "type": "event"
    },
    {
      "anonymous": false,
      "inputs": [
        {
          "indexed": true,
          "internalType": "uint256",
          "name": "blockNumber",
          "type": "uint256"
        },
        {
          "indexed": false,
          "internalType": "bool",
          "name": "shouldPause",
          "type": "bool"
        }
      ],
      "name": "LogSetPauseUnstaking",
      "type": "event"
    },
    {
      "anonymous": false,
      "inputs": [
        {
          "indexed": true,
          "internalType": "uint256",
          "name": "blockNumber",
          "type": "uint256"
        },
        {
          "indexed": false,
          "internalType": "uint256",
          "name": "period",
          "type": "uint256"
        }
      ],
      "name": "LogSetWarmUpPeriod",
      "type": "event"
    },
    {
      "anonymous": false,
      "inputs": [
        {
          "indexed": true,
          "internalType": "address",
          "name": "previousOwner",
          "type": "address"
        },
        {
          "indexed": true,
          "internalType": "address",
          "name": "newOwner",
          "type": "address"
        }
      ],
      "name": "OwnershipTransferred",
      "type": "event"
    },
    {
      "inputs": [],
      "name": "BASIS_POINTS",
      "outputs": [
        {
          "internalType": "uint256",
          "name": "",
          "type": "uint256"
        }
      ],
      "stateMutability": "view",
      "type": "function"
    },
    {
      "inputs": [],
      "name": "COW_RELAYER",
      "outputs": [
        {
          "internalType": "address",
          "name": "",
          "type": "address"
        }
      ],
      "stateMutability": "view",
      "type": "function"
    },
    {
      "inputs": [],
      "name": "COW_SETTLEMENT",
      "outputs": [
        {
          "internalType": "address",
          "name": "",
          "type": "address"
        }
      ],
      "stateMutability": "view",
      "type": "function"
    },
    {
      "inputs": [],
      "name": "CURVE_POOL",
      "outputs": [
        {
          "internalType": "address",
          "name": "",
          "type": "address"
        }
      ],
      "stateMutability": "view",
      "type": "function"
    },
    {
      "inputs": [],
      "name": "FEE_ADDRESS",
      "outputs": [
        {
          "internalType": "address",
          "name": "",
          "type": "address"
        }
      ],
      "stateMutability": "view",
      "type": "function"
    },
    {
      "inputs": [],
      "name": "LIQUIDITY_RESERVE",
      "outputs": [
        {
          "internalType": "address",
          "name": "",
          "type": "address"
        }
      ],
      "stateMutability": "view",
      "type": "function"
    },
    {
      "inputs": [],
      "name": "STAKING_TOKEN",
      "outputs": [
        {
          "internalType": "address",
          "name": "",
          "type": "address"
        }
      ],
      "stateMutability": "view",
      "type": "function"
    },
    {
      "inputs": [],
      "name": "TOKE_MANAGER",
      "outputs": [
        {
          "internalType": "address",
          "name": "",
          "type": "address"
        }
      ],
      "stateMutability": "view",
      "type": "function"
    },
    {
      "inputs": [],
      "name": "TOKE_POOL",
      "outputs": [
        {
          "internalType": "address",
          "name": "",
          "type": "address"
        }
      ],
      "stateMutability": "view",
      "type": "function"
    },
    {
      "inputs": [],
      "name": "TOKE_REWARD",
      "outputs": [
        {
          "internalType": "address",
          "name": "",
          "type": "address"
        }
      ],
      "stateMutability": "view",
      "type": "function"
    },
    {
      "inputs": [],
      "name": "TOKE_TOKEN",
      "outputs": [
        {
          "internalType": "address",
          "name": "",
          "type": "address"
        }
      ],
      "stateMutability": "view",
      "type": "function"
    },
    {
      "inputs": [],
      "name": "YIELDY_TOKEN",
      "outputs": [
        {
          "internalType": "address",
          "name": "",
          "type": "address"
        }
      ],
      "stateMutability": "view",
      "type": "function"
    },
    {
      "inputs": [
        {
          "internalType": "uint256",
          "name": "_amount",
          "type": "uint256"
        },
        {
          "internalType": "bool",
          "name": "_trigger",
          "type": "bool"
        }
      ],
      "name": "addRewardsForStakers",
      "outputs": [],
      "stateMutability": "nonpayable",
      "type": "function"
    },
    {
      "inputs": [],
      "name": "affiliateFee",
      "outputs": [
        {
          "internalType": "uint256",
          "name": "",
          "type": "uint256"
        }
      ],
      "stateMutability": "view",
      "type": "function"
    },
    {
      "inputs": [],
      "name": "canBatchTransactions",
      "outputs": [
        {
          "internalType": "bool",
          "name": "",
          "type": "bool"
        }
      ],
      "stateMutability": "view",
      "type": "function"
    },
    {
      "inputs": [
        {
          "internalType": "address",
          "name": "_recipient",
          "type": "address"
        }
      ],
      "name": "claim",
      "outputs": [],
      "stateMutability": "nonpayable",
      "type": "function"
    },
    {
      "inputs": [
        {
          "components": [
            {
              "internalType": "uint256",
              "name": "chainId",
              "type": "uint256"
            },
            {
              "internalType": "uint256",
              "name": "cycle",
              "type": "uint256"
            },
            {
              "internalType": "address",
              "name": "wallet",
              "type": "address"
            },
            {
              "internalType": "uint256",
              "name": "amount",
              "type": "uint256"
            }
          ],
          "internalType": "struct Recipient",
          "name": "_recipient",
          "type": "tuple"
        },
        {
          "internalType": "uint8",
          "name": "_v",
          "type": "uint8"
        },
        {
          "internalType": "bytes32",
          "name": "_r",
          "type": "bytes32"
        },
        {
          "internalType": "bytes32",
          "name": "_s",
          "type": "bytes32"
        }
      ],
      "name": "claimFromTokemak",
      "outputs": [],
      "stateMutability": "nonpayable",
      "type": "function"
    },
    {
      "inputs": [
        {
          "internalType": "address",
          "name": "_recipient",
          "type": "address"
        }
      ],
      "name": "claimWithdraw",
      "outputs": [],
      "stateMutability": "nonpayable",
      "type": "function"
    },
    {
      "inputs": [
        {
          "internalType": "address",
          "name": "",
          "type": "address"
        }
      ],
      "name": "coolDownInfo",
      "outputs": [
        {
          "internalType": "uint256",
          "name": "amount",
          "type": "uint256"
        },
        {
          "internalType": "uint256",
          "name": "credits",
          "type": "uint256"
        },
        {
          "internalType": "uint256",
          "name": "expiry",
          "type": "uint256"
        }
      ],
      "stateMutability": "view",
      "type": "function"
    },
    {
      "inputs": [],
      "name": "coolDownPeriod",
      "outputs": [
        {
          "internalType": "uint256",
          "name": "",
          "type": "uint256"
        }
      ],
      "stateMutability": "view",
      "type": "function"
    },
    {
      "inputs": [],
      "name": "curvePoolFrom",
      "outputs": [
        {
          "internalType": "int128",
          "name": "",
          "type": "int128"
        }
      ],
      "stateMutability": "view",
      "type": "function"
    },
    {
      "inputs": [],
      "name": "curvePoolTo",
      "outputs": [
        {
          "internalType": "int128",
          "name": "",
          "type": "int128"
        }
      ],
      "stateMutability": "view",
      "type": "function"
    },
    {
      "inputs": [],
      "name": "epoch",
      "outputs": [
        {
          "internalType": "uint256",
          "name": "duration",
          "type": "uint256"
        },
        {
          "internalType": "uint256",
          "name": "number",
          "type": "uint256"
        },
        {
          "internalType": "uint256",
          "name": "timestamp",
          "type": "uint256"
        },
        {
          "internalType": "uint256",
          "name": "endTime",
          "type": "uint256"
        },
        {
          "internalType": "uint256",
          "name": "distribute",
          "type": "uint256"
        }
      ],
      "stateMutability": "view",
      "type": "function"
    },
    {
      "inputs": [
        {
          "internalType": "uint256",
          "name": "_amount",
          "type": "uint256"
        }
      ],
      "name": "estimateInstantCurve",
      "outputs": [
        {
          "internalType": "uint256",
          "name": "",
          "type": "uint256"
        }
      ],
      "stateMutability": "view",
      "type": "function"
    },
    {
      "inputs": [
        {
          "internalType": "address",
          "name": "_stakingToken",
          "type": "address"
        },
        {
          "internalType": "address",
          "name": "_rewardToken",
          "type": "address"
        },
        {
          "internalType": "address",
          "name": "_tokeToken",
          "type": "address"
        },
        {
          "internalType": "address",
          "name": "_tokePool",
          "type": "address"
        },
        {
          "internalType": "address",
          "name": "_tokeManager",
          "type": "address"
        },
        {
          "internalType": "address",
          "name": "_tokeReward",
          "type": "address"
        },
        {
          "internalType": "address",
          "name": "_liquidityReserve",
          "type": "address"
        },
        {
          "internalType": "address",
          "name": "_feeAddress",
          "type": "address"
        },
        {
          "internalType": "address",
          "name": "_curvePool",
          "type": "address"
        },
        {
          "internalType": "uint256",
          "name": "_epochDuration",
          "type": "uint256"
        },
        {
          "internalType": "uint256",
          "name": "_firstEpochEndTime",
          "type": "uint256"
        }
      ],
      "name": "initialize",
      "outputs": [],
      "stateMutability": "nonpayable",
      "type": "function"
    },
    {
      "inputs": [
        {
          "internalType": "uint256",
          "name": "_amount",
          "type": "uint256"
        },
        {
          "internalType": "uint256",
          "name": "_minAmount",
          "type": "uint256"
        }
      ],
      "name": "instantUnstakeCurve",
      "outputs": [
        {
          "internalType": "uint256",
          "name": "",
          "type": "uint256"
        }
      ],
      "stateMutability": "nonpayable",
      "type": "function"
    },
    {
      "inputs": [
        {
          "internalType": "uint256",
          "name": "_amount",
          "type": "uint256"
        }
      ],
      "name": "instantUnstakeReserve",
      "outputs": [],
      "stateMutability": "nonpayable",
      "type": "function"
    },
    {
      "inputs": [],
      "name": "isInstantUnstakingPaused",
      "outputs": [
        {
          "internalType": "bool",
          "name": "",
          "type": "bool"
        }
      ],
      "stateMutability": "view",
      "type": "function"
    },
    {
      "inputs": [],
      "name": "isStakingPaused",
      "outputs": [
        {
          "internalType": "bool",
          "name": "",
          "type": "bool"
        }
      ],
      "stateMutability": "view",
      "type": "function"
    },
    {
      "inputs": [],
      "name": "isUnstakingPaused",
      "outputs": [
        {
          "internalType": "bool",
          "name": "",
          "type": "bool"
        }
      ],
      "stateMutability": "view",
      "type": "function"
    },
    {
      "inputs": [],
      "name": "lastTokeCycleIndex",
      "outputs": [
        {
          "internalType": "uint256",
          "name": "",
          "type": "uint256"
        }
      ],
      "stateMutability": "view",
      "type": "function"
    },
    {
      "inputs": [],
      "name": "newFunction",
      "outputs": [
        {
          "internalType": "uint256",
          "name": "",
          "type": "uint256"
        }
      ],
      "stateMutability": "pure",
      "type": "function"
    },
    {
      "inputs": [],
      "name": "owner",
      "outputs": [
        {
          "internalType": "address",
          "name": "",
          "type": "address"
        }
      ],
      "stateMutability": "view",
      "type": "function"
    },
    {
      "inputs": [
        {
          "internalType": "bytes",
          "name": "orderUid",
          "type": "bytes"
        }
      ],
      "name": "preSign",
      "outputs": [],
      "stateMutability": "nonpayable",
      "type": "function"
    },
    {
      "inputs": [],
      "name": "rebase",
      "outputs": [],
      "stateMutability": "nonpayable",
      "type": "function"
    },
    {
      "inputs": [],
      "name": "renounceOwnership",
      "outputs": [],
      "stateMutability": "nonpayable",
      "type": "function"
    },
    {
      "inputs": [],
      "name": "requestWithdrawalAmount",
      "outputs": [
        {
          "internalType": "uint256",
          "name": "",
          "type": "uint256"
        }
      ],
      "stateMutability": "view",
      "type": "function"
    },
    {
      "inputs": [
        {
          "internalType": "uint256",
          "name": "_amount",
          "type": "uint256"
        }
      ],
      "name": "sendAffiliateFee",
      "outputs": [],
      "stateMutability": "nonpayable",
      "type": "function"
    },
    {
      "inputs": [],
      "name": "sendWithdrawalRequests",
      "outputs": [],
      "stateMutability": "nonpayable",
      "type": "function"
    },
    {
      "inputs": [
        {
          "internalType": "address",
          "name": "_affiliateAddress",
          "type": "address"
        }
      ],
      "name": "setAffiliateAddress",
      "outputs": [],
      "stateMutability": "nonpayable",
      "type": "function"
    },
    {
      "inputs": [
        {
          "internalType": "uint256",
          "name": "_affiliateFee",
          "type": "uint256"
        }
      ],
      "name": "setAffiliateFee",
      "outputs": [],
      "stateMutability": "nonpayable",
      "type": "function"
    },
    {
      "inputs": [
        {
          "internalType": "uint256",
          "name": "_vestingPeriod",
          "type": "uint256"
        }
      ],
      "name": "setCoolDownPeriod",
      "outputs": [],
      "stateMutability": "nonpayable",
      "type": "function"
    },
    {
      "inputs": [
        {
          "internalType": "address",
          "name": "_curvePool",
          "type": "address"
        }
      ],
      "name": "setCurvePool",
      "outputs": [],
      "stateMutability": "nonpayable",
      "type": "function"
    },
    {
      "inputs": [
        {
          "internalType": "uint256",
          "name": "duration",
          "type": "uint256"
        }
      ],
      "name": "setEpochDuration",
      "outputs": [],
      "stateMutability": "nonpayable",
      "type": "function"
    },
    {
      "inputs": [
        {
          "internalType": "uint256",
          "name": "_timestamp",
          "type": "uint256"
        }
      ],
      "name": "setTimeLeftToRequestWithdrawal",
      "outputs": [],
      "stateMutability": "nonpayable",
      "type": "function"
    },
    {
      "inputs": [
        {
          "internalType": "uint256",
          "name": "_vestingPeriod",
          "type": "uint256"
        }
      ],
      "name": "setWarmUpPeriod",
      "outputs": [],
      "stateMutability": "nonpayable",
      "type": "function"
    },
    {
      "inputs": [
        {
          "internalType": "bool",
          "name": "_shouldPause",
          "type": "bool"
        }
      ],
      "name": "shouldPauseInstantUnstaking",
      "outputs": [],
      "stateMutability": "nonpayable",
      "type": "function"
    },
    {
      "inputs": [
        {
          "internalType": "bool",
          "name": "_shouldPause",
          "type": "bool"
        }
      ],
      "name": "shouldPauseStaking",
      "outputs": [],
      "stateMutability": "nonpayable",
      "type": "function"
    },
    {
      "inputs": [
        {
          "internalType": "bool",
          "name": "_shouldPause",
          "type": "bool"
        }
      ],
      "name": "shouldPauseUnstaking",
      "outputs": [],
      "stateMutability": "nonpayable",
      "type": "function"
    },
    {
      "inputs": [
        {
          "internalType": "uint256",
          "name": "_amount",
          "type": "uint256"
        },
        {
          "internalType": "address",
          "name": "_recipient",
          "type": "address"
        }
      ],
      "name": "stake",
      "outputs": [],
      "stateMutability": "nonpayable",
      "type": "function"
    },
    {
      "inputs": [
        {
          "internalType": "uint256",
          "name": "_amount",
          "type": "uint256"
        }
      ],
      "name": "stake",
      "outputs": [],
      "stateMutability": "nonpayable",
      "type": "function"
    },
    {
      "inputs": [],
      "name": "timeLeftToRequestWithdrawal",
      "outputs": [
        {
          "internalType": "uint256",
          "name": "",
          "type": "uint256"
        }
      ],
      "stateMutability": "view",
      "type": "function"
    },
    {
      "inputs": [
        {
          "internalType": "address",
          "name": "newOwner",
          "type": "address"
        }
      ],
      "name": "transferOwnership",
      "outputs": [],
      "stateMutability": "nonpayable",
      "type": "function"
    },
    {
      "inputs": [
        {
          "internalType": "address",
          "name": "_claimAddress",
          "type": "address"
        }
      ],
      "name": "transferToke",
      "outputs": [],
      "stateMutability": "nonpayable",
      "type": "function"
    },
    {
      "inputs": [
        {
          "internalType": "uint256",
          "name": "_amount",
          "type": "uint256"
        },
        {
          "internalType": "bool",
          "name": "_trigger",
          "type": "bool"
        }
      ],
      "name": "unstake",
      "outputs": [],
      "stateMutability": "nonpayable",
      "type": "function"
    },
    {
      "inputs": [],
      "name": "unstakeAllFromTokemak",
      "outputs": [],
      "stateMutability": "nonpayable",
      "type": "function"
    },
    {
      "inputs": [
        {
          "internalType": "address",
          "name": "",
          "type": "address"
        }
      ],
      "name": "warmUpInfo",
      "outputs": [
        {
          "internalType": "uint256",
          "name": "amount",
          "type": "uint256"
        },
        {
          "internalType": "uint256",
          "name": "credits",
          "type": "uint256"
        },
        {
          "internalType": "uint256",
          "name": "expiry",
          "type": "uint256"
        }
      ],
      "stateMutability": "view",
      "type": "function"
    },
    {
      "inputs": [],
      "name": "warmUpPeriod",
      "outputs": [
        {
          "internalType": "uint256",
          "name": "",
          "type": "uint256"
        }
      ],
      "stateMutability": "view",
      "type": "function"
    },
    {
      "inputs": [],
      "name": "withdrawalAmount",
      "outputs": [
        {
          "internalType": "uint256",
          "name": "",
          "type": "uint256"
        }
      ],
      "stateMutability": "view",
      "type": "function"
    }
  ],
  "bytecode": "0x608060405234801561001057600080fd5b50615096806100206000396000f3fe608060405234801561001057600080fd5b50600436106103995760003560e01c806374320225116101e9578063b09881cc1161010f578063e2a8179d116100ad578063f3bff5921161007c578063f3bff592146108c3578063f8aeccbd146108d0578063f9a571a2146108f0578063fd5dcab81461090357600080fd5b8063e2a8179d14610867578063e6e268f414610887578063eb1edd6114610890578063f2fde38b146108b057600080fd5b8063ca57bae2116100e9578063ca57bae214610830578063d233a74714610843578063e0e8c02114610856578063e1f1c4a71461085e57600080fd5b8063b09881cc146107fe578063ba818f8d1461081e578063c9d4f3501461082757600080fd5b806386a8b4b5116101875780639ad39908116101565780639ad39908146107bd5780639ebea88c146107d0578063a694fc3a146107e3578063af14052c146107f657600080fd5b806386a8b4b5146107345780638da5cb5b14610754578063900cf0cf146107725780639776cb78146107b457600080fd5b80637fa91eba116101c35780637fa91eba146106d657806380fc16c8146106e9578063820c6f5b146106fc578063823a46a11461072b57600080fd5b8063743202251461067c5780637a0ecaeb1461069c5780637acb7757146106c357600080fd5b806330f1ebb9116102ce5780634bbce08b1161026c5780635b3112fc1161023b5780635b3112fc1461064657806368d8f51414610659578063715018a614610661578063736f616b1461066957600080fd5b80634bbce08b146105fa578063516c49d91461060d57806353fe23281461062057806354d4be5a1461063357600080fd5b80633897e22b116102a85780633897e22b146105ae5780633b606454146105c15780633f69d130146105d45780634baa0cd2146105e757600080fd5b806330f1ebb91461056957806333e3544a1461057257806337df07ee146105a657600080fd5b80631e83409a1161033b57806325126a2c1161031557806325126a2c14610503578063266db6aa1461052357806328ebcda11461053657806330024dfe1461055657600080fd5b80631e83409a146104a85780631ea7ca89146104bb578063212f5cef146104f057600080fd5b8063156c46bf11610377578063156c46bf146104285780631b28d63e1461043f5780631b618cc0146104495780631d78ed811461049357600080fd5b80630479d6441461039e578063050c486c146103e85780631078167914610408575b600080fd5b6068546103be9073ffffffffffffffffffffffffffffffffffffffff1681565b60405173ffffffffffffffffffffffffffffffffffffffff90911681526020015b60405180910390f35b606a546103be9073ffffffffffffffffffffffffffffffffffffffff1681565b6065546103be9073ffffffffffffffffffffffffffffffffffffffff1681565b61043160775481565b6040519081526020016103df565b63075bcd15610431565b610478610457366004614ac3565b60766020526000908152604090208054600182015460029092015490919083565b604080519384526020840192909252908201526060016103df565b6104a66104a1366004614ae0565b610929565b005b6104a66104b6366004614ac3565b610bfe565b606f546104e09074010000000000000000000000000000000000000000900460ff1681565b60405190151581526020016103df565b6104a66104fe366004614ac3565b610df3565b6069546103be9073ffffffffffffffffffffffffffffffffffffffff1681565b610431610531366004614af9565b610ebf565b606b546103be9073ffffffffffffffffffffffffffffffffffffffff1681565b6104a6610564366004614ae0565b611182565b61043160795481565b607e54610593907001000000000000000000000000000000009004600f0b81565b604051600f9190910b81526020016103df565b6104a6611241565b6104a66105bc366004614b29565b61130d565b6104a66105cf366004614b46565b61140a565b6104a66105e2366004614b29565b611bc4565b6104a66105f5366004614c18565b611cc2565b6104a6610608366004614c48565b611dba565b6104a661061b366004614ac3565b611ecc565b6104a661062e366004614ac3565b6120c1565b6104a6610641366004614ac3565b6121b7565b6104a6610654366004614ae0565b61237e565b6104a6612404565b6104a6612545565b6104a6610677366004614ae0565b6125d0565b606e546103be9073ffffffffffffffffffffffffffffffffffffffff1681565b606f546104e090760100000000000000000000000000000000000000000000900460ff1681565b6104a66106d1366004614c9a565b612688565b6104a66106e4366004614b29565b612ada565b6104a66106f7366004614ae0565b612bd6565b61047861070a366004614ac3565b60756020526000908152604090208054600182015460029092015490919083565b610431607a5481565b606d546103be9073ffffffffffffffffffffffffffffffffffffffff1681565b60335473ffffffffffffffffffffffffffffffffffffffff166103be565b60705460715460725460735460745461078c949392919085565b604080519586526020860194909452928401919091526060830152608082015260a0016103df565b61043160785481565b6104316107cb366004614ae0565b612c8e565b6104a66107de366004614c18565b612d61565b6104a66107f1366004614ae0565b612f53565b6104a6612f5d565b6067546103be9073ffffffffffffffffffffffffffffffffffffffff1681565b610431607d5481565b610431607c5481565b6104a661083e366004614cbf565b6130f4565b6104a6610851366004614ae0565b6131d0565b6104e06131d9565b61043161271081565b6066546103be9073ffffffffffffffffffffffffffffffffffffffff1681565b610431607b5481565b606c546103be9073ffffffffffffffffffffffffffffffffffffffff1681565b6104a66108be366004614ac3565b6133ca565b607e5461059390600f0b81565b606f546103be9073ffffffffffffffffffffffffffffffffffffffff1681565b6104a66108fe366004614ae0565b6134f7565b606f546104e0907501000000000000000000000000000000000000000000900460ff1681565b60008111610998576040517f08c379a000000000000000000000000000000000000000000000000000000000815260206004820152600e60248201527f496e76616c696420616d6f756e7400000000000000000000000000000000000060448201526064015b60405180910390fd5b606f547501000000000000000000000000000000000000000000900460ff161580156109e15750606f54760100000000000000000000000000000000000000000000900460ff16155b610a47576040517f08c379a000000000000000000000000000000000000000000000000000000000815260206004820152601360248201527f556e7374616b696e672069732070617573656400000000000000000000000000604482015260640161098f565b610a4f612f5d565b610a5981336135af565b606854606b546040517f70a0823100000000000000000000000000000000000000000000000000000000815273ffffffffffffffffffffffffffffffffffffffff918216600482015260009291909116906370a082319060240160206040518083038186803b158015610acb57600080fd5b505afa158015610adf573d6000803e3d6000fd5b505050506040513d601f19601f82011682018060405250810190610b039190614d31565b905081811015610b6f576040517f08c379a000000000000000000000000000000000000000000000000000000000815260206004820152601b60248201527f4e6f7420656e6f7567682066756e647320696e20726573657276650000000000604482015260640161098f565b606b546040517fbbb6a9830000000000000000000000000000000000000000000000000000000081526004810184905233602482015273ffffffffffffffffffffffffffffffffffffffff9091169063bbb6a983906044015b600060405180830381600087803b158015610be257600080fd5b505af1158015610bf6573d6000803e3d6000fd5b505050505050565b73ffffffffffffffffffffffffffffffffffffffff81166000908152607560209081526040918290208251606081018452815481526001820154928101929092526002015491810191909152610c53826139de565b15610def5773ffffffffffffffffffffffffffffffffffffffff821660009081526075602090815260408220828155600181018390556002019190915581015115610def5760695460208201516040517f92386fb5000000000000000000000000000000000000000000000000000000008152600481019190915273ffffffffffffffffffffffffffffffffffffffff9091169063a9059cbb90849083906392386fb59060240160206040518083038186803b158015610d1257600080fd5b505afa158015610d26573d6000803e3d6000fd5b505050506040513d601f19601f82011682018060405250810190610d4a9190614d31565b6040517fffffffff0000000000000000000000000000000000000000000000000000000060e085901b16815273ffffffffffffffffffffffffffffffffffffffff90921660048301526024820152604401602060405180830381600087803b158015610db557600080fd5b505af1158015610dc9573d6000803e3d6000fd5b505050506040513d601f19601f82011682018060405250810190610ded9190614d4a565b505b5050565b60335473ffffffffffffffffffffffffffffffffffffffff163314610e74576040517f08c379a000000000000000000000000000000000000000000000000000000000815260206004820181905260248201527f4f776e61626c653a2063616c6c6572206973206e6f7420746865206f776e6572604482015260640161098f565b606d80547fffffffffffffffffffffffff00000000000000000000000000000000000000001673ffffffffffffffffffffffffffffffffffffffff8316179055610ebc613a40565b50565b6000808311610f2a576040517f08c379a000000000000000000000000000000000000000000000000000000000815260206004820152600e60248201527f496e76616c696420616d6f756e74000000000000000000000000000000000000604482015260640161098f565b606d5473ffffffffffffffffffffffffffffffffffffffff1615801590610f795750607e54600f0b60011480610f795750607e547001000000000000000000000000000000009004600f0b6001145b610fdf576040517f08c379a000000000000000000000000000000000000000000000000000000000815260206004820152601260248201527f496e76616c696420437572766520506f6f6c0000000000000000000000000000604482015260640161098f565b606f547501000000000000000000000000000000000000000000900460ff161580156110285750606f54760100000000000000000000000000000000000000000000900460ff16155b61108e576040517f08c379a000000000000000000000000000000000000000000000000000000000815260206004820152601360248201527f556e7374616b696e672069732070617573656400000000000000000000000000604482015260640161098f565b611096612f5d565b6110a083336135af565b606d54607e546040517fddc1f59d000000000000000000000000000000000000000000000000000000008152600f82810b600483015270010000000000000000000000000000000090920490910b6024820152604481018590526064810184905233608482015273ffffffffffffffffffffffffffffffffffffffff9091169063ddc1f59d9060a401602060405180830381600087803b15801561114357600080fd5b505af1158015611157573d6000803e3d6000fd5b505050506040513d601f19601f8201168201806040525081019061117b9190614d31565b9392505050565b60335473ffffffffffffffffffffffffffffffffffffffff163314611203576040517f08c379a000000000000000000000000000000000000000000000000000000000815260206004820181905260248201527f4f776e61626c653a2063616c6c6572206973206e6f7420746865206f776e6572604482015260640161098f565b607081905560405181815243907fae75be1f12d8228aa4758ec68e22289c11eeefacda519562b752e6094974fd8f906020015b60405180910390a250565b6112496131d9565b1561130b57611256613d5e565b606654607a5473ffffffffffffffffffffffffffffffffffffffff909116901561128557611285607a54613f6d565b60008173ffffffffffffffffffffffffffffffffffffffff1663857909456040518163ffffffff1660e01b815260040160206040518083038186803b1580156112cd57600080fd5b505afa1580156112e1573d6000803e3d6000fd5b505050506040513d601f19601f820116820180604052508101906113059190614d31565b607c5550505b565b60335473ffffffffffffffffffffffffffffffffffffffff16331461138e576040517f08c379a000000000000000000000000000000000000000000000000000000000815260206004820181905260248201527f4f776e61626c653a2063616c6c6572206973206e6f7420746865206f776e6572604482015260640161098f565b606f80548215157501000000000000000000000000000000000000000000027fffffffffffffffffffff00ffffffffffffffffffffffffffffffffffffffffff90911617905560405143907fb10ce310bab2ca2b94bb817ad34e180c7f2fefeb2ad9ce04aef298ea93de4f5b9061123690841515815260200190565b600054610100900460ff166114255760005460ff1615611429565b303b155b6114b5576040517f08c379a000000000000000000000000000000000000000000000000000000000815260206004820152602e60248201527f496e697469616c697a61626c653a20636f6e747261637420697320616c72656160448201527f647920696e697469616c697a6564000000000000000000000000000000000000606482015260840161098f565b600054610100900460ff161580156114f457600080547fffffffffffffffffffffffffffffffffffffffffffffffffffffffffffff0000166101011790555b6114fc6140b4565b73ffffffffffffffffffffffffffffffffffffffff8c1615801590611536575073ffffffffffffffffffffffffffffffffffffffff8b1615155b8015611557575073ffffffffffffffffffffffffffffffffffffffff8a1615155b8015611578575073ffffffffffffffffffffffffffffffffffffffff891615155b8015611599575073ffffffffffffffffffffffffffffffffffffffff881615155b80156115ba575073ffffffffffffffffffffffffffffffffffffffff871615155b80156115db575073ffffffffffffffffffffffffffffffffffffffff861615155b611641576040517f08c379a000000000000000000000000000000000000000000000000000000000815260206004820152600f60248201527f496e76616c696420616464726573730000000000000000000000000000000000604482015260640161098f565b606880547fffffffffffffffffffffffff000000000000000000000000000000000000000090811673ffffffffffffffffffffffffffffffffffffffff8f8116919091179092556069805482168e8416179055606a805482168d84161790556065805482168c84161790556066805482168b84161790556067805482168a8416179055606b80548216898416179055606c80548216888416179055606d805482169287169283179055606e8054739008d19f58aabd9ed0d60971565aa8510560ab41908316179055606f805473c92e8bdf79f0507f65a392b0ab4667716bfe0110921691909117905561a8c06077551561180b57606554606d546040517f095ea7b300000000000000000000000000000000000000000000000000000000815273ffffffffffffffffffffffffffffffffffffffff91821660048201527fffffffffffffffffffffffffffffffffffffffffffffffffffffffffffffffff602482015291169063095ea7b390604401602060405180830381600087803b1580156117ca57600080fd5b505af11580156117de573d6000803e3d6000fd5b505050506040513d601f19601f820116820180604052508101906118029190614d4a565b5061180b613a40565b6068546065546040517f095ea7b300000000000000000000000000000000000000000000000000000000815273ffffffffffffffffffffffffffffffffffffffff91821660048201527fffffffffffffffffffffffffffffffffffffffffffffffffffffffffffffffff602482015291169063095ea7b390604401602060405180830381600087803b1580156118a057600080fd5b505af11580156118b4573d6000803e3d6000fd5b505050506040513d601f19601f820116820180604052508101906118d89190614d4a565b50606954606b546040517f095ea7b300000000000000000000000000000000000000000000000000000000815273ffffffffffffffffffffffffffffffffffffffff91821660048201527fffffffffffffffffffffffffffffffffffffffffffffffffffffffffffffffff602482015291169063095ea7b390604401602060405180830381600087803b15801561196e57600080fd5b505af1158015611982573d6000803e3d6000fd5b505050506040513d601f19601f820116820180604052508101906119a69190614d4a565b50606954606b546040517f095ea7b300000000000000000000000000000000000000000000000000000000815273ffffffffffffffffffffffffffffffffffffffff91821660048201527fffffffffffffffffffffffffffffffffffffffffffffffffffffffffffffffff602482015291169063095ea7b390604401602060405180830381600087803b158015611a3c57600080fd5b505af1158015611a50573d6000803e3d6000fd5b505050506040513d601f19601f82011682018060405250810190611a749190614d4a565b50606a54606f546040517f095ea7b300000000000000000000000000000000000000000000000000000000815273ffffffffffffffffffffffffffffffffffffffff91821660048201527fffffffffffffffffffffffffffffffffffffffffffffffffffffffffffffffff602482015291169063095ea7b390604401602060405180830381600087803b158015611b0a57600080fd5b505af1158015611b1e573d6000803e3d6000fd5b505050506040513d601f19601f82011682018060405250810190611b429190614d4a565b506040805160a081018252848152600160208201819052429282018390526060820185905260006080909201829052607086905560715560729190915560738390556074558015611bb657600080547fffffffffffffffffffffffffffffffffffffffffffffffffffffffffffff00ff1690555b505050505050505050505050565b60335473ffffffffffffffffffffffffffffffffffffffff163314611c45576040517f08c379a000000000000000000000000000000000000000000000000000000000815260206004820181905260248201527f4f776e61626c653a2063616c6c6572206973206e6f7420746865206f776e6572604482015260640161098f565b606f8054821515760100000000000000000000000000000000000000000000027fffffffffffffffffff00ffffffffffffffffffffffffffffffffffffffffffff90911617905560405143907f50b6b2724155fca2923d974f5d873ee0f0c9a1b420003eb054ab3f52d2fe0b4e9061123690841515815260200190565b606854611ce79073ffffffffffffffffffffffffffffffffffffffff16333085614153565b6068546040517f70a0823100000000000000000000000000000000000000000000000000000000815230600482015260009173ffffffffffffffffffffffffffffffffffffffff16906370a082319060240160206040518083038186803b158015611d5157600080fd5b505afa158015611d65573d6000803e3d6000fd5b505050506040513d601f19601f82011682018060405250810190611d899190614d31565b90506000607b5482611d9b9190614d96565b9050611da68161422f565b8215611db457611db4612f5d565b50505050565b6000846060013511611e28576040517f08c379a000000000000000000000000000000000000000000000000000000000815260206004820152601760248201527f4d75737420656e7465722076616c696420616d6f756e74000000000000000000604482015260640161098f565b6067546040517fe1fc869100000000000000000000000000000000000000000000000000000000815273ffffffffffffffffffffffffffffffffffffffff90911690819063e1fc869190611e86908890889088908890600401614dad565b600060405180830381600087803b158015611ea057600080fd5b505af1158015611eb4573d6000803e3d6000fd5b50505050611ec58560600135614288565b5050505050565b73ffffffffffffffffffffffffffffffffffffffff818116600090815260766020908152604080832081516060810183528154815260018201549381018490526002909101548183015260695491517f92386fb500000000000000000000000000000000000000000000000000000000815260048101939093529316906392386fb59060240160206040518083038186803b158015611f6a57600080fd5b505afa158015611f7e573d6000803e3d6000fd5b505050506040513d601f19601f82011682018060405250810190611fa29190614d31565b9050611fad836142ff565b15610ded57611fba613d5e565b73ffffffffffffffffffffffffffffffffffffffff83166000908152607660205260408120818155600181018290556002018190558251607b805491929091612004908490614d96565b909155505081516068546120329173ffffffffffffffffffffffffffffffffffffffff9091169085906144d3565b6069546040517f9dc29fac0000000000000000000000000000000000000000000000000000000081523060048201526024810183905273ffffffffffffffffffffffffffffffffffffffff90911690639dc29fac90604401600060405180830381600087803b1580156120a457600080fd5b505af11580156120b8573d6000803e3d6000fd5b50505050505050565b60335473ffffffffffffffffffffffffffffffffffffffff163314612142576040517f08c379a000000000000000000000000000000000000000000000000000000000815260206004820181905260248201527f4f776e61626c653a2063616c6c6572206973206e6f7420746865206f776e6572604482015260640161098f565b606c80547fffffffffffffffffffffffff00000000000000000000000000000000000000001673ffffffffffffffffffffffffffffffffffffffff831690811790915560405190815243907f2c1ada70981f6fddd8947ab85f99a6228532dde71841ad77d7b4dfc74b9b04f790602001611236565b60335473ffffffffffffffffffffffffffffffffffffffff163314612238576040517f08c379a000000000000000000000000000000000000000000000000000000000815260206004820181905260248201527f4f776e61626c653a2063616c6c6572206973206e6f7420746865206f776e6572604482015260640161098f565b73ffffffffffffffffffffffffffffffffffffffff81166122b5576040517f08c379a000000000000000000000000000000000000000000000000000000000815260206004820152600f60248201527f496e76616c696420616464726573730000000000000000000000000000000000604482015260640161098f565b606a546040517f70a0823100000000000000000000000000000000000000000000000000000000815230600482015260009173ffffffffffffffffffffffffffffffffffffffff16906370a082319060240160206040518083038186803b15801561231f57600080fd5b505afa158015612333573d6000803e3d6000fd5b505050506040513d601f19601f820116820180604052508101906123579190614d31565b606a54909150610def9073ffffffffffffffffffffffffffffffffffffffff1683836144d3565b60335473ffffffffffffffffffffffffffffffffffffffff1633146123ff576040517f08c379a000000000000000000000000000000000000000000000000000000000815260206004820181905260248201527f4f776e61626c653a2063616c6c6572206973206e6f7420746865206f776e6572604482015260640161098f565b607755565b60335473ffffffffffffffffffffffffffffffffffffffff163314612485576040517f08c379a000000000000000000000000000000000000000000000000000000000815260206004820181905260248201527f4f776e61626c653a2063616c6c6572206973206e6f7420746865206f776e6572604482015260640161098f565b6065546040517f70a0823100000000000000000000000000000000000000000000000000000000815230600482015273ffffffffffffffffffffffffffffffffffffffff9091169060009082906370a082319060240160206040518083038186803b1580156124f357600080fd5b505afa158015612507573d6000803e3d6000fd5b505050506040513d601f19601f8201168201806040525081019061252b9190614d31565b90506125376001612ada565b607a819055610def81613f6d565b60335473ffffffffffffffffffffffffffffffffffffffff1633146125c6576040517f08c379a000000000000000000000000000000000000000000000000000000000815260206004820181905260248201527f4f776e61626c653a2063616c6c6572206973206e6f7420746865206f776e6572604482015260640161098f565b61130b6000614529565b60335473ffffffffffffffffffffffffffffffffffffffff163314612651576040517f08c379a000000000000000000000000000000000000000000000000000000000815260206004820181905260248201527f4f776e61626c653a2063616c6c6572206973206e6f7420746865206f776e6572604482015260640161098f565b607981905560405181815243907f5c7e8dffa0ac359bd82a2f2cfc3d0ac8f671ae530f22e691d6fb99af06aaba2490602001611236565b606f5474010000000000000000000000000000000000000000900460ff161561270d576040517f08c379a000000000000000000000000000000000000000000000000000000000815260206004820152601160248201527f5374616b696e6720697320706175736564000000000000000000000000000000604482015260640161098f565b60008211612777576040517f08c379a000000000000000000000000000000000000000000000000000000000815260206004820152601660248201527f4d75737420686176652076616c696420616d6f756e7400000000000000000000604482015260640161098f565b606954604080517f18160ddd000000000000000000000000000000000000000000000000000000008152905160009273ffffffffffffffffffffffffffffffffffffffff16916318160ddd916004808301926020929190829003018186803b1580156127e257600080fd5b505afa1580156127f6573d6000803e3d6000fd5b505050506040513d601f19601f8201168201806040525081019061281a9190614d31565b9050801561282a5761282a612f5d565b60685461284f9073ffffffffffffffffffffffffffffffffffffffff16333086614153565b73ffffffffffffffffffffffffffffffffffffffff8216600090815260756020526040902061287d836139de565b1561288b5761288b83610bfe565b6128948461422f565b60785461292c576069546040517f40c10f1900000000000000000000000000000000000000000000000000000000815273ffffffffffffffffffffffffffffffffffffffff858116600483015260248201879052909116906340c10f1990604401600060405180830381600087803b15801561290f57600080fd5b505af1158015612923573d6000803e3d6000fd5b50505050612ad2565b60405180606001604052808583600001546129479190614e12565b81526069546040517f20eed4290000000000000000000000000000000000000000000000000000000081526004810188905260209092019173ffffffffffffffffffffffffffffffffffffffff909116906320eed4299060240160206040518083038186803b1580156129b957600080fd5b505afa1580156129cd573d6000803e3d6000fd5b505050506040513d601f19601f820116820180604052508101906129f19190614d31565b8360010154612a009190614e12565b8152602001607854607060010154612a189190614e12565b905273ffffffffffffffffffffffffffffffffffffffff848116600090815260756020908152604091829020845181559084015160018201559281015160029093019290925560695491517f40c10f19000000000000000000000000000000000000000000000000000000008152306004820152602481018790529116906340c10f1990604401600060405180830381600087803b158015612ab957600080fd5b505af1158015612acd573d6000803e3d6000fd5b505050505b611db4611241565b60335473ffffffffffffffffffffffffffffffffffffffff163314612b5b576040517f08c379a000000000000000000000000000000000000000000000000000000000815260206004820181905260248201527f4f776e61626c653a2063616c6c6572206973206e6f7420746865206f776e6572604482015260640161098f565b606f805482151574010000000000000000000000000000000000000000027fffffffffffffffffffffff00ffffffffffffffffffffffffffffffffffffffff90911617905560405143907f86a34bd7f66bd3b2e87f46767dbd4958cc483e1fa3be1485fcf9d75c068eb1ca9061123690841515815260200190565b60335473ffffffffffffffffffffffffffffffffffffffff163314612c57576040517f08c379a000000000000000000000000000000000000000000000000000000000815260206004820181905260248201527f4f776e61626c653a2063616c6c6572206973206e6f7420746865206f776e6572604482015260640161098f565b607d81905560405181815243907f93cde8a616d6082d00b343f8fe4f55ef08dc0f8aec52cc4dfaf3192abe1287c390602001611236565b606d54607e546040517f5e0d443f000000000000000000000000000000000000000000000000000000008152600f82810b600483015270010000000000000000000000000000000090920490910b60248201526044810183905260009173ffffffffffffffffffffffffffffffffffffffff1690635e0d443f9060640160206040518083038186803b158015612d2357600080fd5b505afa158015612d37573d6000803e3d6000fd5b505050506040513d601f19601f82011682018060405250810190612d5b9190614d31565b92915050565b606f547501000000000000000000000000000000000000000000900460ff1615612de7576040517f08c379a000000000000000000000000000000000000000000000000000000000815260206004820152601360248201527f556e7374616b696e672069732070617573656400000000000000000000000000604482015260640161098f565b8015612df557612df5612f5d565b612dff82336135af565b33600081815260766020526040902090612e1890611ecc565b6040518060600160405280848360000154612e339190614e12565b81526069546040517f20eed4290000000000000000000000000000000000000000000000000000000081526004810187905260209092019173ffffffffffffffffffffffffffffffffffffffff909116906320eed4299060240160206040518083038186803b158015612ea557600080fd5b505afa158015612eb9573d6000803e3d6000fd5b505050506040513d601f19601f82011682018060405250810190612edd9190614d31565b8360010154612eec9190614e12565b8152602001607954607060010154612f049190614e12565b9052336000908152607660209081526040808320845181559184015160018301559290920151600290920191909155607a8054859290612f45908490614e12565b90915550610ded9050611241565b610ebc8133612688565b607354421061130b576069546074546071546040517f058ecdb40000000000000000000000000000000000000000000000000000000081526004810192909252602482015273ffffffffffffffffffffffffffffffffffffffff9091169063058ecdb490604401600060405180830381600087803b158015612fde57600080fd5b505af1158015612ff2573d6000803e3d6000fd5b50506070546073546130079350909150614e12565b607355426072556071805490600061301e83614e2a565b9190505550600061302d6145a0565b90506000606960009054906101000a900473ffffffffffffffffffffffffffffffffffffffff1673ffffffffffffffffffffffffffffffffffffffff166318160ddd6040518163ffffffff1660e01b815260040160206040518083038186803b15801561309957600080fd5b505afa1580156130ad573d6000803e3d6000fd5b505050506040513d601f19601f820116820180604052508101906130d19190614d31565b90508082116130e35760006074555050565b6130ed8183614d96565b6074555050565b60335473ffffffffffffffffffffffffffffffffffffffff163314613175576040517f08c379a000000000000000000000000000000000000000000000000000000000815260206004820181905260248201527f4f776e61626c653a2063616c6c6572206973206e6f7420746865206f776e6572604482015260640161098f565b606e546040517fec6cb13f00000000000000000000000000000000000000000000000000000000815273ffffffffffffffffffffffffffffffffffffffff9091169063ec6cb13f90610bc89085908590600190600401614e63565b610ebc81614288565b606654604080517fbd5da9ac000000000000000000000000000000000000000000000000000000008152905160009273ffffffffffffffffffffffffffffffffffffffff16918391839163bd5da9ac916004808301926020929190829003018186803b15801561324857600080fd5b505afa15801561325c573d6000803e3d6000fd5b505050506040513d601f19601f820116820180604052508101906132809190614d31565b905060008273ffffffffffffffffffffffffffffffffffffffff1663be26ed7f6040518163ffffffff1660e01b815260040160206040518083038186803b1580156132ca57600080fd5b505afa1580156132de573d6000803e3d6000fd5b505050506040513d601f19601f820116820180604052508101906133029190614d31565b905060008373ffffffffffffffffffffffffffffffffffffffff1663857909456040518163ffffffff1660e01b815260040160206040518083038186803b15801561334c57600080fd5b505afa158015613360573d6000803e3d6000fd5b505050506040513d601f19601f820116820180604052508101906133849190614d31565b905060006133928484614e12565b905080607754426133a39190614e12565b101580156133b25750607c5482115b80156133c057506000607a54115b9550505050505090565b60335473ffffffffffffffffffffffffffffffffffffffff16331461344b576040517f08c379a000000000000000000000000000000000000000000000000000000000815260206004820181905260248201527f4f776e61626c653a2063616c6c6572206973206e6f7420746865206f776e6572604482015260640161098f565b73ffffffffffffffffffffffffffffffffffffffff81166134ee576040517f08c379a000000000000000000000000000000000000000000000000000000000815260206004820152602660248201527f4f776e61626c653a206e6577206f776e657220697320746865207a65726f206160448201527f6464726573730000000000000000000000000000000000000000000000000000606482015260840161098f565b610ebc81614529565b60335473ffffffffffffffffffffffffffffffffffffffff163314613578576040517f08c379a000000000000000000000000000000000000000000000000000000000815260206004820181905260248201527f4f776e61626c653a2063616c6c6572206973206e6f7420746865206f776e6572604482015260640161098f565b607881905560405181815243907fd8f10b001d80d0f1a24960632b7678bf460573321ed31239086fb92a90221a3e90602001611236565b73ffffffffffffffffffffffffffffffffffffffff8181166000818152607560209081526040808320815160608101835281548152600182015493810193909352600201548282015260695490517f70a082310000000000000000000000000000000000000000000000000000000081526004810194909452909391929116906370a082319060240160206040518083038186803b15801561365057600080fd5b505afa158015613664573d6000803e3d6000fd5b505050506040513d601f19601f820116820180604052508101906136889190614d31565b60695460208401516040517f92386fb500000000000000000000000000000000000000000000000000000000815292935060009273ffffffffffffffffffffffffffffffffffffffff909216916392386fb5916136eb9160040190815260200190565b60206040518083038186803b15801561370357600080fd5b505afa158015613717573d6000803e3d6000fd5b505050506040513d601f19601f8201168201806040525081019061373b9190614d31565b90506137478183614e12565b8511156137b0576040517f08c379a000000000000000000000000000000000000000000000000000000000815260206004820152601460248201527f496e73756666696369656e742042616c616e6365000000000000000000000000604482015260640161098f565b8481156139b3578186106137f95773ffffffffffffffffffffffffffffffffffffffff8516600090815260756020526040812081815560018101829055600201558190036139b3565b506069546040517f20eed42900000000000000000000000000000000000000000000000000000000815260048101879052600091829173ffffffffffffffffffffffffffffffffffffffff909116906320eed4299060240160206040518083038186803b15801561386957600080fd5b505afa15801561387d573d6000803e3d6000fd5b505050506040513d601f19601f820116820180604052508101906138a19190614d31565b85602001516138b09190614d96565b6069546040517f92386fb50000000000000000000000000000000000000000000000000000000081526004810183905291925060009173ffffffffffffffffffffffffffffffffffffffff909116906392386fb59060240160206040518083038186803b15801561392057600080fd5b505afa158015613934573d6000803e3d6000fd5b505050506040513d601f19601f820116820180604052508101906139589190614d31565b6040805160608101825291825260208083019485528882015183830190815273ffffffffffffffffffffffffffffffffffffffff8b166000908152607590925291902091518255925160018201559151600290920191909155505b8015610bf657606954610bf69073ffffffffffffffffffffffffffffffffffffffff16863084614153565b73ffffffffffffffffffffffffffffffffffffffff81166000908152607560209081526040808320815160608101835281548152600182015493810193909352600201549082018190526071541080159061117b575060400151151592915050565b606d5473ffffffffffffffffffffffffffffffffffffffff161561130b57606d546040517fc66106570000000000000000000000000000000000000000000000000000000081526000600482018190529173ffffffffffffffffffffffffffffffffffffffff169063c66106579060240160206040518083038186803b158015613ac957600080fd5b505afa158015613add573d6000803e3d6000fd5b505050506040513d601f19601f82011682018060405250810190613b019190614ebc565b606d546040517fc66106570000000000000000000000000000000000000000000000000000000081526001600482015291925060009173ffffffffffffffffffffffffffffffffffffffff9091169063c66106579060240160206040518083038186803b158015613b7157600080fd5b505afa158015613b85573d6000803e3d6000fd5b505050506040513d601f19601f82011682018060405250810190613ba99190614ebc565b606554909150600090819073ffffffffffffffffffffffffffffffffffffffff8581169116148015613bf5575060685473ffffffffffffffffffffffffffffffffffffffff8481169116145b15613c0257506001613c50565b60655473ffffffffffffffffffffffffffffffffffffffff8481169116148015613c46575060685473ffffffffffffffffffffffffffffffffffffffff8581169116145b15613c5057600191505b81600f0b60011480613c65575080600f0b6001145b613ccb576040517f08c379a000000000000000000000000000000000000000000000000000000000815260206004820152601260248201527f496e76616c696420437572766520506f6f6c0000000000000000000000000000604482015260640161098f565b6fffffffffffffffffffffffffffffffff828116700100000000000000000000000000000000918316820217607e819055606d5460408051938304600f90810b85529290920b602084015273ffffffffffffffffffffffffffffffffffffffff16917f828513d9eccf264077e51323c8dd0fa90720141ef138beef5f967e4a7bf25cb8910160405180910390a250505050565b6065546066546040517fbb582d8000000000000000000000000000000000000000000000000000000000815230600482015273ffffffffffffffffffffffffffffffffffffffff9283169290911690600090839063bb582d80906024016040805180830381600087803b158015613dd457600080fd5b505af1158015613de8573d6000803e3d6000fd5b505050506040513d601f19601f82011682018060405250810190613e0c9190614ed9565b905060008273ffffffffffffffffffffffffffffffffffffffff1663857909456040518163ffffffff1660e01b815260040160206040518083038186803b158015613e5657600080fd5b505afa158015613e6a573d6000803e3d6000fd5b505050506040513d601f19601f82011682018060405250810190613e8e9190614d31565b905060008260200151118015613ea5575081518110155b15611db45760208201516040517f2e1a7d4d000000000000000000000000000000000000000000000000000000008152600481019190915273ffffffffffffffffffffffffffffffffffffffff851690632e1a7d4d90602401600060405180830381600087803b158015613f1857600080fd5b505af1158015613f2c573d6000803e3d6000fd5b505050508160200151607a6000828254613f469190614d96565b90915550506020820151607b8054600090613f62908490614e12565b909155505050505050565b6065546040517f70a0823100000000000000000000000000000000000000000000000000000000815230600482015273ffffffffffffffffffffffffffffffffffffffff9091169060009082906370a082319060240160206040518083038186803b158015613fdb57600080fd5b505afa158015613fef573d6000803e3d6000fd5b505050506040513d601f19601f820116820180604052508101906140139190614d31565b905060008382106140245783614026565b815b90508015611db4576040517f9ee679e80000000000000000000000000000000000000000000000000000000081526004810185905273ffffffffffffffffffffffffffffffffffffffff841690639ee679e890602401600060405180830381600087803b15801561409657600080fd5b505af11580156140aa573d6000803e3d6000fd5b5050505050505050565b600054610100900460ff1661414b576040517f08c379a000000000000000000000000000000000000000000000000000000000815260206004820152602b60248201527f496e697469616c697a61626c653a20636f6e7472616374206973206e6f74206960448201527f6e697469616c697a696e67000000000000000000000000000000000000000000606482015260840161098f565b61130b614661565b60405173ffffffffffffffffffffffffffffffffffffffff80851660248301528316604482015260648101829052611db49085907f23b872dd00000000000000000000000000000000000000000000000000000000906084015b604080517fffffffffffffffffffffffffffffffffffffffffffffffffffffffffffffffe08184030181529190526020810180517bffffffffffffffffffffffffffffffffffffffffffffffffffffffff167fffffffff0000000000000000000000000000000000000000000000000000000090931692909217909152614701565b6065546040517fb6b55f250000000000000000000000000000000000000000000000000000000081526004810183905273ffffffffffffffffffffffffffffffffffffffff90911690819063b6b55f2590602401610bc8565b607d54158015906142b05750606c5473ffffffffffffffffffffffffffffffffffffffff1615155b15610ebc576000612710607d54836142c89190614f4f565b6142d29190614f8c565b606c54606a54919250610def9173ffffffffffffffffffffffffffffffffffffffff9081169116836144d3565b73ffffffffffffffffffffffffffffffffffffffff8181166000908152607660209081526040808320815160608101835281548152600182015493810193909352600201548282015260665460655491517fbb582d80000000000000000000000000000000000000000000000000000000008152306004820152939492939083169291909116908490829063bb582d80906024016040805180830381600087803b1580156143ac57600080fd5b505af11580156143c0573d6000803e3d6000fd5b505050506040513d601f19601f820116820180604052508101906143e49190614ed9565b905060008373ffffffffffffffffffffffffffffffffffffffff1663857909456040518163ffffffff1660e01b815260040160206040518083038186803b15801561442e57600080fd5b505afa158015614442573d6000803e3d6000fd5b505050506040513d601f19601f820116820180604052508101906144669190614d31565b90508460400151607060010154101580156144845750604085015115155b80156144905750845115155b80156144c85750815181108015906144ba57508451607b5460208401516144b79190614e12565b10155b806144c857508451607b5410155b979650505050505050565b60405173ffffffffffffffffffffffffffffffffffffffff8316602482015260448101829052610ded9084907fa9059cbb00000000000000000000000000000000000000000000000000000000906064016141ad565b6033805473ffffffffffffffffffffffffffffffffffffffff8381167fffffffffffffffffffffffff0000000000000000000000000000000000000000831681179093556040519116919082907f8be0079c531659141344cd1fd0a4f28419497f9722a3daafe3b4186f6b6457e090600090a35050565b6000806145ab61480d565b6068546040517f70a08231000000000000000000000000000000000000000000000000000000008152306004820152919250829173ffffffffffffffffffffffffffffffffffffffff909116906370a082319060240160206040518083038186803b15801561461957600080fd5b505afa15801561462d573d6000803e3d6000fd5b505050506040513d601f19601f820116820180604052508101906146519190614d31565b61465b9190614e12565b91505090565b600054610100900460ff166146f8576040517f08c379a000000000000000000000000000000000000000000000000000000000815260206004820152602b60248201527f496e697469616c697a61626c653a20636f6e7472616374206973206e6f74206960448201527f6e697469616c697a696e67000000000000000000000000000000000000000000606482015260840161098f565b61130b33614529565b6000614763826040518060400160405280602081526020017f5361666545524332303a206c6f772d6c6576656c2063616c6c206661696c65648152508573ffffffffffffffffffffffffffffffffffffffff166148b19092919063ffffffff16565b805190915015610ded57808060200190518101906147819190614d4a565b610ded576040517f08c379a000000000000000000000000000000000000000000000000000000000815260206004820152602a60248201527f5361666545524332303a204552433230206f7065726174696f6e20646964206e60448201527f6f74207375636365656400000000000000000000000000000000000000000000606482015260840161098f565b6065546040517f70a0823100000000000000000000000000000000000000000000000000000000815230600482015260009173ffffffffffffffffffffffffffffffffffffffff169081906370a082319060240160206040518083038186803b15801561487957600080fd5b505afa15801561488d573d6000803e3d6000fd5b505050506040513d601f19601f8201168201806040525081019061465b9190614d31565b60606148c084846000856148c8565b949350505050565b60608247101561495a576040517f08c379a000000000000000000000000000000000000000000000000000000000815260206004820152602660248201527f416464726573733a20696e73756666696369656e742062616c616e636520666f60448201527f722063616c6c0000000000000000000000000000000000000000000000000000606482015260840161098f565b73ffffffffffffffffffffffffffffffffffffffff85163b6149d8576040517f08c379a000000000000000000000000000000000000000000000000000000000815260206004820152601d60248201527f416464726573733a2063616c6c20746f206e6f6e2d636f6e7472616374000000604482015260640161098f565b6000808673ffffffffffffffffffffffffffffffffffffffff168587604051614a019190614ff3565b60006040518083038185875af1925050503d8060008114614a3e576040519150601f19603f3d011682016040523d82523d6000602084013e614a43565b606091505b50915091506144c882828660608315614a5d57508161117b565b825115614a6d5782518084602001fd5b816040517f08c379a000000000000000000000000000000000000000000000000000000000815260040161098f919061500f565b73ffffffffffffffffffffffffffffffffffffffff81168114610ebc57600080fd5b600060208284031215614ad557600080fd5b813561117b81614aa1565b600060208284031215614af257600080fd5b5035919050565b60008060408385031215614b0c57600080fd5b50508035926020909101359150565b8015158114610ebc57600080fd5b600060208284031215614b3b57600080fd5b813561117b81614b1b565b60008060008060008060008060008060006101608c8e031215614b6857600080fd5b8b35614b7381614aa1565b9a5060208c0135614b8381614aa1565b995060408c0135614b9381614aa1565b985060608c0135614ba381614aa1565b975060808c0135614bb381614aa1565b965060a08c0135614bc381614aa1565b955060c08c0135614bd381614aa1565b945060e08c0135614be381614aa1565b93506101008c0135614bf481614aa1565b809350506101208c013591506101408c013590509295989b509295989b9093969950565b60008060408385031215614c2b57600080fd5b823591506020830135614c3d81614b1b565b809150509250929050565b60008060008084860360e0811215614c5f57600080fd5b6080811215614c6d57600080fd5b50849350608085013560ff81168114614c8557600080fd5b939693955050505060a08201359160c0013590565b60008060408385031215614cad57600080fd5b823591506020830135614c3d81614aa1565b60008060208385031215614cd257600080fd5b823567ffffffffffffffff80821115614cea57600080fd5b818501915085601f830112614cfe57600080fd5b813581811115614d0d57600080fd5b866020828501011115614d1f57600080fd5b60209290920196919550909350505050565b600060208284031215614d4357600080fd5b5051919050565b600060208284031215614d5c57600080fd5b815161117b81614b1b565b7f4e487b7100000000000000000000000000000000000000000000000000000000600052601160045260246000fd5b600082821015614da857614da8614d67565b500390565b843581526020808601359082015260e081016040860135614dcd81614aa1565b73ffffffffffffffffffffffffffffffffffffffff81166040840152506060860135606083015260ff851660808301528360a08301528260c083015295945050505050565b60008219821115614e2557614e25614d67565b500190565b60007fffffffffffffffffffffffffffffffffffffffffffffffffffffffffffffffff821415614e5c57614e5c614d67565b5060010190565b6040815282604082015282846060830137600060608483010152600060607fffffffffffffffffffffffffffffffffffffffffffffffffffffffffffffffe0601f86011683010190508215156020830152949350505050565b600060208284031215614ece57600080fd5b815161117b81614aa1565b600060408284031215614eeb57600080fd5b6040516040810181811067ffffffffffffffff82111715614f35577f4e487b7100000000000000000000000000000000000000000000000000000000600052604160045260246000fd5b604052825181526020928301519281019290925250919050565b6000817fffffffffffffffffffffffffffffffffffffffffffffffffffffffffffffffff0483118215151615614f8757614f87614d67565b500290565b600082614fc2577f4e487b7100000000000000000000000000000000000000000000000000000000600052601260045260246000fd5b500490565b60005b83811015614fe2578181015183820152602001614fca565b83811115611db45750506000910152565b60008251615005818460208701614fc7565b9190910192915050565b602081526000825180602084015261502e816040850160208701614fc7565b601f017fffffffffffffffffffffffffffffffffffffffffffffffffffffffffffffffe016919091016040019291505056fea26469706673582212207afb88b986170a2087ff1937270274251201286634bc2b9014a90c6931a69fd564736f6c63430008090033",
  "linkReferences": {},
  "deployedLinkReferences": {}
}