{
  "_format": "hh-sol-artifact-1",
  "contractName": "StakingV2Test",
  "sourceName": "src/contracts/test/StakingUpgradeTest.sol",
  "abi": [
    {
      "anonymous": false,
      "inputs": [
        {
          "indexed": true,
          "internalType": "address",
          "name": "previousOwner",
          "type": "address"
        },
        {
          "indexed": true,
          "internalType": "address",
          "name": "newOwner",
          "type": "address"
        }
      ],
      "name": "OwnershipTransferred",
      "type": "event"
    },
    {
      "inputs": [],
      "name": "COOL_DOWN_CONTRACT",
      "outputs": [
        {
          "internalType": "address",
          "name": "",
          "type": "address"
        }
      ],
      "stateMutability": "view",
      "type": "function"
    },
    {
      "inputs": [],
      "name": "LIQUIDITY_RESERVE",
      "outputs": [
        {
          "internalType": "address",
          "name": "",
          "type": "address"
        }
      ],
      "stateMutability": "view",
      "type": "function"
    },
    {
      "inputs": [],
      "name": "REWARD_TOKEN",
      "outputs": [
        {
          "internalType": "address",
          "name": "",
          "type": "address"
        }
      ],
      "stateMutability": "view",
      "type": "function"
    },
    {
      "inputs": [],
      "name": "STAKING_TOKEN",
      "outputs": [
        {
          "internalType": "address",
          "name": "",
          "type": "address"
        }
      ],
      "stateMutability": "view",
      "type": "function"
    },
    {
      "inputs": [],
      "name": "TOKE_MANAGER",
      "outputs": [
        {
          "internalType": "address",
          "name": "",
          "type": "address"
        }
      ],
      "stateMutability": "view",
      "type": "function"
    },
    {
      "inputs": [],
      "name": "TOKE_POOL",
      "outputs": [
        {
          "internalType": "address",
          "name": "",
          "type": "address"
        }
      ],
      "stateMutability": "view",
      "type": "function"
    },
    {
      "inputs": [],
      "name": "TOKE_REWARD",
      "outputs": [
        {
          "internalType": "address",
          "name": "",
          "type": "address"
        }
      ],
      "stateMutability": "view",
      "type": "function"
    },
    {
      "inputs": [],
      "name": "TOKE_TOKEN",
      "outputs": [
        {
          "internalType": "address",
          "name": "",
          "type": "address"
        }
      ],
      "stateMutability": "view",
      "type": "function"
    },
    {
      "inputs": [],
      "name": "WARM_UP_CONTRACT",
      "outputs": [
        {
          "internalType": "address",
          "name": "",
          "type": "address"
        }
      ],
      "stateMutability": "view",
      "type": "function"
    },
    {
      "inputs": [
        {
          "internalType": "uint256",
          "name": "_amount",
          "type": "uint256"
        },
        {
          "internalType": "bool",
          "name": "_trigger",
          "type": "bool"
        }
      ],
      "name": "addRewardsForStakers",
      "outputs": [],
      "stateMutability": "nonpayable",
      "type": "function"
    },
    {
      "inputs": [
        {
          "internalType": "address",
          "name": "_recipient",
          "type": "address"
        }
      ],
      "name": "claim",
      "outputs": [],
      "stateMutability": "nonpayable",
      "type": "function"
    },
    {
      "inputs": [
        {
          "components": [
            {
              "internalType": "uint256",
              "name": "chainId",
              "type": "uint256"
            },
            {
              "internalType": "uint256",
              "name": "cycle",
              "type": "uint256"
            },
            {
              "internalType": "address",
              "name": "wallet",
              "type": "address"
            },
            {
              "internalType": "uint256",
              "name": "amount",
              "type": "uint256"
            }
          ],
          "internalType": "struct Recipient",
          "name": "_recipient",
          "type": "tuple"
        },
        {
          "internalType": "uint8",
          "name": "_v",
          "type": "uint8"
        },
        {
          "internalType": "bytes32",
          "name": "_r",
          "type": "bytes32"
        },
        {
          "internalType": "bytes32",
          "name": "_s",
          "type": "bytes32"
        }
      ],
      "name": "claimFromTokemak",
      "outputs": [],
      "stateMutability": "nonpayable",
      "type": "function"
    },
    {
      "inputs": [
        {
          "internalType": "address",
          "name": "_recipient",
          "type": "address"
        }
      ],
      "name": "claimWithdraw",
      "outputs": [],
      "stateMutability": "nonpayable",
      "type": "function"
    },
    {
      "inputs": [
        {
          "internalType": "address",
          "name": "",
          "type": "address"
        }
      ],
      "name": "coolDownInfo",
      "outputs": [
        {
          "internalType": "uint256",
          "name": "amount",
          "type": "uint256"
        },
        {
          "internalType": "uint256",
          "name": "gons",
          "type": "uint256"
        },
        {
          "internalType": "uint256",
          "name": "expiry",
          "type": "uint256"
        }
      ],
      "stateMutability": "view",
      "type": "function"
    },
    {
      "inputs": [],
      "name": "coolDownPeriod",
      "outputs": [
        {
          "internalType": "uint256",
          "name": "",
          "type": "uint256"
        }
      ],
      "stateMutability": "view",
      "type": "function"
    },
    {
      "inputs": [],
      "name": "epoch",
      "outputs": [
        {
          "internalType": "uint256",
          "name": "length",
          "type": "uint256"
        },
        {
          "internalType": "uint256",
          "name": "number",
          "type": "uint256"
        },
        {
          "internalType": "uint256",
          "name": "endBlock",
          "type": "uint256"
        },
        {
          "internalType": "uint256",
          "name": "distribute",
          "type": "uint256"
        }
      ],
      "stateMutability": "view",
      "type": "function"
    },
    {
      "inputs": [
        {
          "internalType": "address",
          "name": "_stakingToken",
          "type": "address"
        },
        {
          "internalType": "address",
          "name": "_rewardToken",
          "type": "address"
        },
        {
          "internalType": "address",
          "name": "_tokeToken",
          "type": "address"
        },
        {
          "internalType": "address",
          "name": "_tokePool",
          "type": "address"
        },
        {
          "internalType": "address",
          "name": "_tokeManager",
          "type": "address"
        },
        {
          "internalType": "address",
          "name": "_tokeReward",
          "type": "address"
        },
        {
          "internalType": "address",
          "name": "_liquidityReserve",
          "type": "address"
        },
        {
          "internalType": "uint256",
          "name": "_epochLength",
          "type": "uint256"
        },
        {
          "internalType": "uint256",
          "name": "_firstEpochNumber",
          "type": "uint256"
        },
        {
          "internalType": "uint256",
          "name": "_firstEpochBlock",
          "type": "uint256"
        },
        {
          "internalType": "uint256",
          "name": "_timeLeftToRequestWithdrawal",
          "type": "uint256"
        }
      ],
      "name": "initialize",
      "outputs": [],
      "stateMutability": "nonpayable",
      "type": "function"
    },
    {
      "inputs": [
        {
          "internalType": "bool",
          "name": "_trigger",
          "type": "bool"
        }
      ],
      "name": "instantUnstake",
      "outputs": [],
      "stateMutability": "nonpayable",
      "type": "function"
    },
    {
      "inputs": [],
      "name": "lastTokeCycleIndex",
      "outputs": [
        {
          "internalType": "uint256",
          "name": "",
          "type": "uint256"
        }
      ],
      "stateMutability": "view",
      "type": "function"
    },
    {
      "inputs": [],
      "name": "newFunction",
      "outputs": [
        {
          "internalType": "uint256",
          "name": "",
          "type": "uint256"
        }
      ],
      "stateMutability": "pure",
      "type": "function"
    },
    {
      "inputs": [],
      "name": "owner",
      "outputs": [
        {
          "internalType": "address",
          "name": "",
          "type": "address"
        }
      ],
      "stateMutability": "view",
      "type": "function"
    },
    {
      "inputs": [],
      "name": "pauseStaking",
      "outputs": [
        {
          "internalType": "bool",
          "name": "",
          "type": "bool"
        }
      ],
      "stateMutability": "view",
      "type": "function"
    },
    {
      "inputs": [],
      "name": "pauseUnstaking",
      "outputs": [
        {
          "internalType": "bool",
          "name": "",
          "type": "bool"
        }
      ],
      "stateMutability": "view",
      "type": "function"
    },
    {
      "inputs": [],
      "name": "rebase",
      "outputs": [],
      "stateMutability": "nonpayable",
      "type": "function"
    },
    {
      "inputs": [],
      "name": "renounceOwnership",
      "outputs": [],
      "stateMutability": "nonpayable",
      "type": "function"
    },
    {
      "inputs": [],
      "name": "requestWithdrawalAmount",
      "outputs": [
        {
          "internalType": "uint256",
          "name": "",
          "type": "uint256"
        }
      ],
      "stateMutability": "view",
      "type": "function"
    },
    {
      "inputs": [],
      "name": "sendWithdrawalRequests",
      "outputs": [],
      "stateMutability": "nonpayable",
      "type": "function"
    },
    {
      "inputs": [
        {
          "internalType": "uint256",
          "name": "_vestingPeriod",
          "type": "uint256"
        }
      ],
      "name": "setCoolDownPeriod",
      "outputs": [],
      "stateMutability": "nonpayable",
      "type": "function"
    },
    {
      "inputs": [
        {
          "internalType": "uint256",
          "name": "length",
          "type": "uint256"
        }
      ],
      "name": "setEpochLength",
      "outputs": [],
      "stateMutability": "nonpayable",
      "type": "function"
    },
    {
      "inputs": [
        {
          "internalType": "uint256",
          "name": "_timestamp",
          "type": "uint256"
        }
      ],
      "name": "setTimeLeftToRequestWithdrawal",
      "outputs": [],
      "stateMutability": "nonpayable",
      "type": "function"
    },
    {
      "inputs": [
        {
          "internalType": "uint256",
          "name": "_vestingPeriod",
          "type": "uint256"
        }
      ],
      "name": "setWarmUpPeriod",
      "outputs": [],
      "stateMutability": "nonpayable",
      "type": "function"
    },
    {
      "inputs": [
        {
          "internalType": "bool",
          "name": "_shouldPause",
          "type": "bool"
        }
      ],
      "name": "shouldPauseStaking",
      "outputs": [],
      "stateMutability": "nonpayable",
      "type": "function"
    },
    {
      "inputs": [
        {
          "internalType": "bool",
          "name": "_shouldPause",
          "type": "bool"
        }
      ],
      "name": "shouldPauseUnstaking",
      "outputs": [],
      "stateMutability": "nonpayable",
      "type": "function"
    },
    {
      "inputs": [
        {
          "internalType": "uint256",
          "name": "_amount",
          "type": "uint256"
        },
        {
          "internalType": "address",
          "name": "_recipient",
          "type": "address"
        }
      ],
      "name": "stake",
      "outputs": [],
      "stateMutability": "nonpayable",
      "type": "function"
    },
    {
      "inputs": [
        {
          "internalType": "uint256",
          "name": "_amount",
          "type": "uint256"
        }
      ],
      "name": "stake",
      "outputs": [],
      "stateMutability": "nonpayable",
      "type": "function"
    },
    {
      "inputs": [],
      "name": "timeLeftToRequestWithdrawal",
      "outputs": [
        {
          "internalType": "uint256",
          "name": "",
          "type": "uint256"
        }
      ],
      "stateMutability": "view",
      "type": "function"
    },
    {
      "inputs": [
        {
          "internalType": "address",
          "name": "newOwner",
          "type": "address"
        }
      ],
      "name": "transferOwnership",
      "outputs": [],
      "stateMutability": "nonpayable",
      "type": "function"
    },
    {
      "inputs": [
        {
          "internalType": "address",
          "name": "_claimAddress",
          "type": "address"
        }
      ],
      "name": "transferToke",
      "outputs": [],
      "stateMutability": "nonpayable",
      "type": "function"
    },
    {
      "inputs": [
        {
          "internalType": "uint256",
          "name": "_amount",
          "type": "uint256"
        },
        {
          "internalType": "bool",
          "name": "_trigger",
          "type": "bool"
        }
      ],
      "name": "unstake",
      "outputs": [],
      "stateMutability": "nonpayable",
      "type": "function"
    },
    {
      "inputs": [],
      "name": "unstakeAllFromTokemak",
      "outputs": [],
      "stateMutability": "nonpayable",
      "type": "function"
    },
    {
      "inputs": [
        {
          "internalType": "address",
          "name": "",
          "type": "address"
        }
      ],
      "name": "warmUpInfo",
      "outputs": [
        {
          "internalType": "uint256",
          "name": "amount",
          "type": "uint256"
        },
        {
          "internalType": "uint256",
          "name": "gons",
          "type": "uint256"
        },
        {
          "internalType": "uint256",
          "name": "expiry",
          "type": "uint256"
        }
      ],
      "stateMutability": "view",
      "type": "function"
    },
    {
      "inputs": [],
      "name": "warmUpPeriod",
      "outputs": [
        {
          "internalType": "uint256",
          "name": "",
          "type": "uint256"
        }
      ],
      "stateMutability": "view",
      "type": "function"
    },
    {
      "inputs": [],
      "name": "withdrawalAmount",
      "outputs": [
        {
          "internalType": "uint256",
          "name": "",
          "type": "uint256"
        }
      ],
      "stateMutability": "view",
      "type": "function"
    }
  ],
  "bytecode": "0x608060405234801561001057600080fd5b506146a4806100206000396000f3fe60806040523480156200001157600080fd5b5060043610620003255760003560e01c8063736f616b11620001b1578063af14052c11620000f5578063e2a8179d11620000a3578063f2fde38b116200007a578063f2fde38b1462000765578063f999c506146200077c578063f9a571a214620007a257600080fd5b8063e2a8179d1462000719578063e6e268f4146200073a578063ed295509146200074457600080fd5b8063b736ca8211620000d8578063b736ca8214620006d7578063b8e4b24414620006ee578063c9d4f350146200070f57600080fd5b8063af14052c14620006ac578063b09881cc14620006b657600080fd5b80638da5cb5b116200015f57806399248ea7116200013657806399248ea7146200065d5780639ebea88c146200067e578063a694fc3a146200069557600080fd5b80638da5cb5b14620005fc578063900cf0cf146200061b5780639776cb78146200065357600080fd5b80637fa91eba11620001945780637fa91eba14620005a9578063820c6f5b14620005c0578063823a46a114620005f257600080fd5b8063736f616b146200057b5780637acb7757146200059257600080fd5b806330f1ebb91162000279578063516c49d911620002275780635b3112fc11620001fe5780635b3112fc146200055057806368d8f5141462000567578063715018a6146200057157600080fd5b8063516c49d9146200050b57806354d4be5a146200052257806354eea796146200053957600080fd5b80633897e22b116200025c5780633897e22b14620004c65780634baa0cd214620004dd5780634bbce08b14620004f457600080fd5b806330f1ebb914620004b257806337df07ee14620004bc57600080fd5b80631b28d63e11620002d75780631c4e6ab711620002ba5780631c4e6ab714620004425780631e83409a146200047a57806328ebcda1146200049157600080fd5b80631b28d63e14620003e95780631b618cc014620003f457600080fd5b80630a8dd5e6116200030c5780630a8dd5e614620003965780631078167914620003af578063156c46bf14620003d057600080fd5b80630479d644146200032a578063050c486c1462000375575b600080fd5b6068546200034b9073ffffffffffffffffffffffffffffffffffffffff1681565b60405173ffffffffffffffffffffffffffffffffffffffff90911681526020015b60405180910390f35b606a546200034b9073ffffffffffffffffffffffffffffffffffffffff1681565b620003ad620003a736600462003e14565b620007b9565b005b6065546200034b9073ffffffffffffffffffffffffffffffffffffffff1681565b620003da60745481565b6040519081526020016200036c565b63075bcd15620003da565b620004266200040536600462003e5e565b60736020526000908152604090208054600182015460029092015490919083565b604080519384526020840192909252908201526060016200036c565b606d5462000469907501000000000000000000000000000000000000000000900460ff1681565b60405190151581526020016200036c565b620003ad6200048b36600462003e5e565b62000cf1565b606b546200034b9073ffffffffffffffffffffffffffffffffffffffff1681565b620003da60765481565b620003ad62000eb6565b620003ad620004d736600462003e14565b62000f8e565b620003ad620004ee36600462003e7c565b6200105c565b620003ad6200050536600462003eaf565b62001161565b620003ad6200051c36600462003e5e565b6200126c565b620003ad6200053336600462003e5e565b6200145a565b620003ad6200054a36600462003f04565b6200162b565b620003ad6200056136600462003f04565b620016b3565b620003ad6200173b565b620003ad62001886565b620003ad6200058c36600462003f04565b62001915565b620003ad620005a336600462003f1e565b6200199d565b620003ad620005ba36600462003e14565b62001d43565b62000426620005d136600462003e5e565b60726020526000908152604090208054600182015460029092015490919083565b620003da60775481565b60335473ffffffffffffffffffffffffffffffffffffffff166200034b565b606e54606f54607054607154620006329392919084565b6040805194855260208501939093529183015260608201526080016200036c565b620003da60755481565b6069546200034b9073ffffffffffffffffffffffffffffffffffffffff1681565b620003ad6200068f36600462003e7c565b62001e10565b620003ad620006a636600462003f04565b62002045565b620003ad62002054565b6067546200034b9073ffffffffffffffffffffffffffffffffffffffff1681565b620003ad620006e836600462003f4d565b62002219565b606d546200034b9073ffffffffffffffffffffffffffffffffffffffff1681565b620003da60795481565b6066546200034b9073ffffffffffffffffffffffffffffffffffffffff1681565b620003da60785481565b606c546200034b9073ffffffffffffffffffffffffffffffffffffffff1681565b620003ad6200077636600462003e5e565b62002840565b606d54620004699074010000000000000000000000000000000000000000900460ff1681565b620003ad620007b336600462003f04565b62002973565b606d547501000000000000000000000000000000000000000000900460ff161562000845576040517f08c379a000000000000000000000000000000000000000000000000000000000815260206004820152601360248201527f556e7374616b696e67206973207061757365640000000000000000000000000060448201526064015b60405180910390fd5b801562000856576200085662002054565b336000818152607260209081526040808320815160608101835281548152600182015493810193909352600201548282015260695490517f70a082310000000000000000000000000000000000000000000000000000000081526004810194909452909273ffffffffffffffffffffffffffffffffffffffff909116906370a082319060240160206040518083038186803b158015620008f557600080fd5b505afa1580156200090a573d6000803e3d6000fd5b505050506040513d601f19601f820116820180604052508101906200093091906200400c565b60695460208401516040517f7965d56d00000000000000000000000000000000000000000000000000000000815292935060009273ffffffffffffffffffffffffffffffffffffffff90921691637965d56d91620009949160040190815260200190565b60206040518083038186803b158015620009ad57600080fd5b505afa158015620009c2573d6000803e3d6000fd5b505050506040513d601f19601f82011682018060405250810190620009e891906200400c565b90506000620009f8838362004055565b606854606b546040517f70a0823100000000000000000000000000000000000000000000000000000000815273ffffffffffffffffffffffffffffffffffffffff91821660048201529293506000929116906370a082319060240160206040518083038186803b15801562000a6c57600080fd5b505afa15801562000a81573d6000803e3d6000fd5b505050506040513d601f19601f8201168201806040525081019062000aa791906200400c565b90508162000b12576040517f08c379a000000000000000000000000000000000000000000000000000000000815260206004820152601760248201527f4d75737420686176652072657761726420746f6b656e7300000000000000000060448201526064016200083c565b8181101562000b7e576040517f08c379a000000000000000000000000000000000000000000000000000000000815260206004820152601b60248201527f4e6f7420656e6f7567682066756e647320696e2072657365727665000000000060448201526064016200083c565b821562000c2f57606c546040517fc3a2a6650000000000000000000000000000000000000000000000000000000081523060048201526024810185905273ffffffffffffffffffffffffffffffffffffffff9091169063c3a2a66590604401600060405180830381600087803b15801562000bf857600080fd5b505af115801562000c0d573d6000803e3d6000fd5b5050336000908152607260205260408120818155600181018290556002015550505b831562000c5d5760695462000c5d9073ffffffffffffffffffffffffffffffffffffffff16333087620029fb565b606b546040517fbbb6a9830000000000000000000000000000000000000000000000000000000081526004810184905233602482015273ffffffffffffffffffffffffffffffffffffffff9091169063bbb6a98390604401600060405180830381600087803b15801562000cd057600080fd5b505af115801562000ce5573d6000803e3d6000fd5b50505050505050505050565b73ffffffffffffffffffffffffffffffffffffffff8116600090815260726020908152604091829020825160608101845281548152600182015492810192909252600201549181019190915262000d488262002ad9565b1562000eb25773ffffffffffffffffffffffffffffffffffffffff82811660009081526072602090815260408083208381556001810184905560020192909255606c546069549185015192517f7965d56d000000000000000000000000000000000000000000000000000000008152600481019390935283169263c3a2a66592869290911690637965d56d9060240160206040518083038186803b15801562000df057600080fd5b505afa15801562000e05573d6000803e3d6000fd5b505050506040513d601f19601f8201168201806040525081019062000e2b91906200400c565b6040517fffffffff0000000000000000000000000000000000000000000000000000000060e085901b16815273ffffffffffffffffffffffffffffffffffffffff909216600483015260248201526044015b600060405180830381600087803b15801562000e9857600080fd5b505af115801562000ead573d6000803e3d6000fd5b505050505b5050565b62000ec062002b3f565b1562000f8c5762000ed062002d42565b60665460775473ffffffffffffffffffffffffffffffffffffffff909116901562000f025762000f0260775462002f61565b60008173ffffffffffffffffffffffffffffffffffffffff1663857909456040518163ffffffff1660e01b815260040160206040518083038186803b15801562000f4b57600080fd5b505afa15801562000f60573d6000803e3d6000fd5b505050506040513d601f19601f8201168201806040525081019062000f8691906200400c565b60795550505b565b60335473ffffffffffffffffffffffffffffffffffffffff16331462001011576040517f08c379a000000000000000000000000000000000000000000000000000000000815260206004820181905260248201527f4f776e61626c653a2063616c6c6572206973206e6f7420746865206f776e657260448201526064016200083c565b606d80549115157501000000000000000000000000000000000000000000027fffffffffffffffffffff00ffffffffffffffffffffffffffffffffffffffffff909216919091179055565b606854620010839073ffffffffffffffffffffffffffffffffffffffff16333085620029fb565b6068546040517f70a0823100000000000000000000000000000000000000000000000000000000815230600482015260009173ffffffffffffffffffffffffffffffffffffffff16906370a082319060240160206040518083038186803b158015620010ee57600080fd5b505afa15801562001103573d6000803e3d6000fd5b505050506040513d601f19601f820116820180604052508101906200112991906200400c565b90506000607854826200113d919062004070565b90506200114a8162002fbb565b82156200115b576200115b62002054565b50505050565b6000846060013511620011d1576040517f08c379a000000000000000000000000000000000000000000000000000000000815260206004820152601760248201527f4d75737420656e7465722076616c696420616d6f756e7400000000000000000060448201526064016200083c565b6067546040517fe1fc869100000000000000000000000000000000000000000000000000000000815273ffffffffffffffffffffffffffffffffffffffff90911690819063e1fc869190620012319088908890889088906004016200408a565b600060405180830381600087803b1580156200124c57600080fd5b505af115801562001261573d6000803e3d6000fd5b505050505050505050565b73ffffffffffffffffffffffffffffffffffffffff818116600090815260736020908152604080832081516060810183528154815260018201549381018490526002909101548183015260695491517f7965d56d0000000000000000000000000000000000000000000000000000000081526004810193909352931690637965d56d9060240160206040518083038186803b1580156200130b57600080fd5b505afa15801562001320573d6000803e3d6000fd5b505050506040513d601f19601f820116820180604052508101906200134691906200400c565b9050620013538362003015565b1562001455576200136362002d42565b73ffffffffffffffffffffffffffffffffffffffff808416600090815260736020526040812081815560018101829055600201558251606854620013ab9216908590620031f8565b606d546040517fc3a2a6650000000000000000000000000000000000000000000000000000000081523060048201526024810183905273ffffffffffffffffffffffffffffffffffffffff9091169063c3a2a66590604401600060405180830381600087803b1580156200141e57600080fd5b505af115801562001433573d6000803e3d6000fd5b505050508160000151607860008282546200144f919062004070565b90915550505b505050565b60335473ffffffffffffffffffffffffffffffffffffffff163314620014dd576040517f08c379a000000000000000000000000000000000000000000000000000000000815260206004820181905260248201527f4f776e61626c653a2063616c6c6572206973206e6f7420746865206f776e657260448201526064016200083c565b73ffffffffffffffffffffffffffffffffffffffff81166200155c576040517f08c379a000000000000000000000000000000000000000000000000000000000815260206004820152600f60248201527f496e76616c69642061646472657373000000000000000000000000000000000060448201526064016200083c565b606a546040517f70a0823100000000000000000000000000000000000000000000000000000000815230600482015260009173ffffffffffffffffffffffffffffffffffffffff16906370a082319060240160206040518083038186803b158015620015c757600080fd5b505afa158015620015dc573d6000803e3d6000fd5b505050506040513d601f19601f820116820180604052508101906200160291906200400c565b606a5490915062000eb29073ffffffffffffffffffffffffffffffffffffffff168383620031f8565b60335473ffffffffffffffffffffffffffffffffffffffff163314620016ae576040517f08c379a000000000000000000000000000000000000000000000000000000000815260206004820181905260248201527f4f776e61626c653a2063616c6c6572206973206e6f7420746865206f776e657260448201526064016200083c565b606e55565b60335473ffffffffffffffffffffffffffffffffffffffff16331462001736576040517f08c379a000000000000000000000000000000000000000000000000000000000815260206004820181905260248201527f4f776e61626c653a2063616c6c6572206973206e6f7420746865206f776e657260448201526064016200083c565b607455565b60335473ffffffffffffffffffffffffffffffffffffffff163314620017be576040517f08c379a000000000000000000000000000000000000000000000000000000000815260206004820181905260248201527f4f776e61626c653a2063616c6c6572206973206e6f7420746865206f776e657260448201526064016200083c565b6065546040517f70a0823100000000000000000000000000000000000000000000000000000000815230600482015273ffffffffffffffffffffffffffffffffffffffff9091169060009082906370a082319060240160206040518083038186803b1580156200182d57600080fd5b505afa15801562001842573d6000803e3d6000fd5b505050506040513d601f19601f820116820180604052508101906200186891906200400c565b905062001876600162001d43565b607781905562000eb28162002f61565b60335473ffffffffffffffffffffffffffffffffffffffff16331462001909576040517f08c379a000000000000000000000000000000000000000000000000000000000815260206004820181905260248201527f4f776e61626c653a2063616c6c6572206973206e6f7420746865206f776e657260448201526064016200083c565b62000f8c600062003250565b60335473ffffffffffffffffffffffffffffffffffffffff16331462001998576040517f08c379a000000000000000000000000000000000000000000000000000000000815260206004820181905260248201527f4f776e61626c653a2063616c6c6572206973206e6f7420746865206f776e657260448201526064016200083c565b607655565b606d5474010000000000000000000000000000000000000000900460ff161562001a24576040517f08c379a000000000000000000000000000000000000000000000000000000000815260206004820152601160248201527f5374616b696e672069732070617573656400000000000000000000000000000060448201526064016200083c565b6000821162001a90576040517f08c379a000000000000000000000000000000000000000000000000000000000815260206004820152601660248201527f4d75737420686176652076616c696420616d6f756e740000000000000000000060448201526064016200083c565b606954604080517f9358928b000000000000000000000000000000000000000000000000000000008152905160009273ffffffffffffffffffffffffffffffffffffffff1691639358928b916004808301926020929190829003018186803b15801562001afc57600080fd5b505afa15801562001b11573d6000803e3d6000fd5b505050506040513d601f19601f8201168201806040525081019062001b3791906200400c565b9050801562001b4a5762001b4a62002054565b60685462001b719073ffffffffffffffffffffffffffffffffffffffff16333086620029fb565b73ffffffffffffffffffffffffffffffffffffffff8216600090815260726020526040902062001ba18362002ad9565b1562001bb25762001bb28362000cf1565b62001bbd8462002fbb565b60755462001bf15760695462001beb9073ffffffffffffffffffffffffffffffffffffffff168486620031f8565b6200115b565b604051806060016040528085836000015462001c0e919062004055565b81526069546040517f1bd396740000000000000000000000000000000000000000000000000000000081526004810188905260209092019173ffffffffffffffffffffffffffffffffffffffff90911690631bd396749060240160206040518083038186803b15801562001c8157600080fd5b505afa15801562001c96573d6000803e3d6000fd5b505050506040513d601f19601f8201168201806040525081019062001cbc91906200400c565b836001015462001ccd919062004055565b8152602001607554606e6001015462001ce7919062004055565b905273ffffffffffffffffffffffffffffffffffffffff80851660009081526072602090815260409182902084518155908401516001820155920151600290920191909155606c546069546200115b92908116911686620031f8565b60335473ffffffffffffffffffffffffffffffffffffffff16331462001dc6576040517f08c379a000000000000000000000000000000000000000000000000000000000815260206004820181905260248201527f4f776e61626c653a2063616c6c6572206973206e6f7420746865206f776e657260448201526064016200083c565b606d805491151574010000000000000000000000000000000000000000027fffffffffffffffffffffff00ffffffffffffffffffffffffffffffffffffffff909216919091179055565b606d547501000000000000000000000000000000000000000000900460ff161562001e98576040517f08c379a000000000000000000000000000000000000000000000000000000000815260206004820152601360248201527f556e7374616b696e67206973207061757365640000000000000000000000000060448201526064016200083c565b801562001ea95762001ea962002054565b62001eb58233620032c7565b3360008181526073602052604090209062001ed0906200126c565b604051806060016040528084836000015462001eed919062004055565b81526069546040517f1bd396740000000000000000000000000000000000000000000000000000000081526004810187905260209092019173ffffffffffffffffffffffffffffffffffffffff90911690631bd396749060240160206040518083038186803b15801562001f6057600080fd5b505afa15801562001f75573d6000803e3d6000fd5b505050506040513d601f19601f8201168201806040525081019062001f9b91906200400c565b836001015462001fac919062004055565b8152602001607654606e6001015462001fc6919062004055565b9052336000908152607360209081526040808320845181559184015160018301559290920151600290920191909155607780548592906200200990849062004055565b9091555062002019905062000eb6565b606d54606954620014559173ffffffffffffffffffffffffffffffffffffffff918216911685620031f8565b6200205181336200199d565b50565b607054431062000f8c57606954607154606f546040517f058ecdb40000000000000000000000000000000000000000000000000000000081526004810192909252602482015273ffffffffffffffffffffffffffffffffffffffff9091169063058ecdb490604401602060405180830381600087803b158015620020d757600080fd5b505af1158015620020ec573d6000803e3d6000fd5b505050506040513d601f19601f820116820180604052508101906200211291906200400c565b50606e5460705462002125919062004055565b607055606f80549060006200213a83620040ed565b919050555060006200214b6200382c565b90506000606960009054906101000a900473ffffffffffffffffffffffffffffffffffffffff1673ffffffffffffffffffffffffffffffffffffffff16639358928b6040518163ffffffff1660e01b815260040160206040518083038186803b158015620021b857600080fd5b505afa158015620021cd573d6000803e3d6000fd5b505050506040513d601f19601f82011682018060405250810190620021f391906200400c565b9050808211620022065760006071555050565b62002212818362004070565b6071555050565b600054610100900460ff16620022365760005460ff16156200223a565b303b155b620022c8576040517f08c379a000000000000000000000000000000000000000000000000000000000815260206004820152602e60248201527f496e697469616c697a61626c653a20636f6e747261637420697320616c72656160448201527f647920696e697469616c697a656400000000000000000000000000000000000060648201526084016200083c565b600054610100900460ff161580156200230857600080547fffffffffffffffffffffffffffffffffffffffffffffffffffffffffffff0000166101011790555b62002312620038f5565b73ffffffffffffffffffffffffffffffffffffffff8c16158015906200234d575073ffffffffffffffffffffffffffffffffffffffff8b1615155b80156200236f575073ffffffffffffffffffffffffffffffffffffffff8a1615155b801562002391575073ffffffffffffffffffffffffffffffffffffffff891615155b8015620023b3575073ffffffffffffffffffffffffffffffffffffffff881615155b8015620023d5575073ffffffffffffffffffffffffffffffffffffffff871615155b8015620023f7575073ffffffffffffffffffffffffffffffffffffffff861615155b6200245f576040517f08c379a000000000000000000000000000000000000000000000000000000000815260206004820152600f60248201527f496e76616c69642061646472657373000000000000000000000000000000000060448201526064016200083c565b606880547fffffffffffffffffffffffff000000000000000000000000000000000000000090811673ffffffffffffffffffffffffffffffffffffffff8f8116919091179092556069805482168e8416908117909155606a805483168e85161790556065805483168d85161790556066805483168c85161790556067805483168b8516179055606b8054909216928916929092179055607483905560405160009130916200250d9062003df7565b73ffffffffffffffffffffffffffffffffffffffff928316815291166020820152604001604051809103906000f0801580156200254e573d6000803e3d6000fd5b50606c80547fffffffffffffffffffffffff00000000000000000000000000000000000000001673ffffffffffffffffffffffffffffffffffffffff8381169190911790915560695460405192935060009230929190911690620025b29062003df7565b73ffffffffffffffffffffffffffffffffffffffff928316815291166020820152604001604051809103906000f080158015620025f3573d6000803e3d6000fd5b50606d80547fffffffffffffffffffffffff00000000000000000000000000000000000000001673ffffffffffffffffffffffffffffffffffffffff838116919091179091556068546065546040517f095ea7b300000000000000000000000000000000000000000000000000000000815290831660048201527fffffffffffffffffffffffffffffffffffffffffffffffffffffffffffffffff6024820152929350169063095ea7b390604401602060405180830381600087803b158015620026bc57600080fd5b505af1158015620026d1573d6000803e3d6000fd5b505050506040513d601f19601f82011682018060405250810190620026f7919062004129565b50606954606b546040517f095ea7b300000000000000000000000000000000000000000000000000000000815273ffffffffffffffffffffffffffffffffffffffff91821660048201527fffffffffffffffffffffffffffffffffffffffffffffffffffffffffffffffff602482015291169063095ea7b390604401602060405180830381600087803b1580156200278e57600080fd5b505af1158015620027a3573d6000803e3d6000fd5b505050506040513d601f19601f82011682018060405250810190620027c9919062004129565b5050604080516080810182528781526020810187905290810185905260006060909101819052606e879055606f86905560708590556071555080156200283257600080547fffffffffffffffffffffffffffffffffffffffffffffffffffffffffffff00ff1690555b505050505050505050505050565b60335473ffffffffffffffffffffffffffffffffffffffff163314620028c3576040517f08c379a000000000000000000000000000000000000000000000000000000000815260206004820181905260248201527f4f776e61626c653a2063616c6c6572206973206e6f7420746865206f776e657260448201526064016200083c565b73ffffffffffffffffffffffffffffffffffffffff811662002968576040517f08c379a000000000000000000000000000000000000000000000000000000000815260206004820152602660248201527f4f776e61626c653a206e6577206f776e657220697320746865207a65726f206160448201527f646472657373000000000000000000000000000000000000000000000000000060648201526084016200083c565b620020518162003250565b60335473ffffffffffffffffffffffffffffffffffffffff163314620029f6576040517f08c379a000000000000000000000000000000000000000000000000000000000815260206004820181905260248201527f4f776e61626c653a2063616c6c6572206973206e6f7420746865206f776e657260448201526064016200083c565b607555565b60405173ffffffffffffffffffffffffffffffffffffffff808516602483015283166044820152606481018290526200115b9085907f23b872dd00000000000000000000000000000000000000000000000000000000906084015b604080517fffffffffffffffffffffffffffffffffffffffffffffffffffffffffffffffe08184030181529190526020810180517bffffffffffffffffffffffffffffffffffffffffffffffffffffffff167fffffffff000000000000000000000000000000000000000000000000000000009093169290921790915262003998565b73ffffffffffffffffffffffffffffffffffffffff8116600090815260726020908152604080832081516060810183528154815260018201549381019390935260020154908201819052606f541080159062002b385750604081015115155b9392505050565b606654604080517fbd5da9ac000000000000000000000000000000000000000000000000000000008152905160009273ffffffffffffffffffffffffffffffffffffffff16918391839163bd5da9ac916004808301926020929190829003018186803b15801562002baf57600080fd5b505afa15801562002bc4573d6000803e3d6000fd5b505050506040513d601f19601f8201168201806040525081019062002bea91906200400c565b905060008273ffffffffffffffffffffffffffffffffffffffff1663be26ed7f6040518163ffffffff1660e01b815260040160206040518083038186803b15801562002c3557600080fd5b505afa15801562002c4a573d6000803e3d6000fd5b505050506040513d601f19601f8201168201806040525081019062002c7091906200400c565b905060008373ffffffffffffffffffffffffffffffffffffffff1663857909456040518163ffffffff1660e01b815260040160206040518083038186803b15801562002cbb57600080fd5b505afa15801562002cd0573d6000803e3d6000fd5b505050506040513d601f19601f8201168201806040525081019062002cf691906200400c565b9050600062002d06848462004055565b9050806074544262002d19919062004055565b1015801562002d29575060795482115b801562002d3857506000607754115b9550505050505090565b6065546066546040517fbb582d8000000000000000000000000000000000000000000000000000000000815230600482015273ffffffffffffffffffffffffffffffffffffffff9283169290911690600090839063bb582d80906024016040805180830381600087803b15801562002db957600080fd5b505af115801562002dce573d6000803e3d6000fd5b505050506040513d601f19601f8201168201806040525081019062002df4919062004149565b905060008273ffffffffffffffffffffffffffffffffffffffff1663857909456040518163ffffffff1660e01b815260040160206040518083038186803b15801562002e3f57600080fd5b505afa15801562002e54573d6000803e3d6000fd5b505050506040513d601f19601f8201168201806040525081019062002e7a91906200400c565b90506000826020015111801562002e92575081518110155b156200115b5760208201516040517f2e1a7d4d000000000000000000000000000000000000000000000000000000008152600481019190915273ffffffffffffffffffffffffffffffffffffffff851690632e1a7d4d90602401600060405180830381600087803b15801562002f0757600080fd5b505af115801562002f1c573d6000803e3d6000fd5b5050505081602001516077600082825462002f38919062004070565b909155505060208201516078805460009062002f5690849062004055565b909155505050505050565b6065546040517f9ee679e80000000000000000000000000000000000000000000000000000000081526004810183905273ffffffffffffffffffffffffffffffffffffffff909116908190639ee679e89060240162000e7d565b6065546040517fb6b55f250000000000000000000000000000000000000000000000000000000081526004810183905273ffffffffffffffffffffffffffffffffffffffff90911690819063b6b55f259060240162000e7d565b73ffffffffffffffffffffffffffffffffffffffff8181166000908152607360209081526040808320815160608101835281548152600182015493810193909352600201548282015260665460655491517fbb582d80000000000000000000000000000000000000000000000000000000008152306004820152939492939083169291909116908490829063bb582d80906024016040805180830381600087803b158015620030c357600080fd5b505af1158015620030d8573d6000803e3d6000fd5b505050506040513d601f19601f82011682018060405250810190620030fe919062004149565b905060008373ffffffffffffffffffffffffffffffffffffffff1663857909456040518163ffffffff1660e01b815260040160206040518083038186803b1580156200314957600080fd5b505afa1580156200315e573d6000803e3d6000fd5b505050506040513d601f19601f820116820180604052508101906200318491906200400c565b90508460400151606e6001015410158015620031a35750604085015115155b8015620031b05750845115155b8015620031ed575081518110801590620031de575084516078546020840151620031db919062004055565b10155b80620031ed5750845160785410155b979650505050505050565b60405173ffffffffffffffffffffffffffffffffffffffff8316602482015260448101829052620014559084907fa9059cbb000000000000000000000000000000000000000000000000000000009060640162002a56565b6033805473ffffffffffffffffffffffffffffffffffffffff8381167fffffffffffffffffffffffff0000000000000000000000000000000000000000831681179093556040519116919082907f8be0079c531659141344cd1fd0a4f28419497f9722a3daafe3b4186f6b6457e090600090a35050565b73ffffffffffffffffffffffffffffffffffffffff8181166000818152607260209081526040808320815160608101835281548152600182015493810193909352600201548282015260695490517f70a082310000000000000000000000000000000000000000000000000000000081526004810194909452909391929116906370a082319060240160206040518083038186803b1580156200336957600080fd5b505afa1580156200337e573d6000803e3d6000fd5b505050506040513d601f19601f82011682018060405250810190620033a491906200400c565b60695460208401516040517f7965d56d00000000000000000000000000000000000000000000000000000000815292935060009273ffffffffffffffffffffffffffffffffffffffff90921691637965d56d91620034089160040190815260200190565b60206040518083038186803b1580156200342157600080fd5b505afa15801562003436573d6000803e3d6000fd5b505050506040513d601f19601f820116820180604052508101906200345c91906200400c565b90506200346a818362004055565b851115620034d5576040517f08c379a000000000000000000000000000000000000000000000000000000000815260206004820152601460248201527f496e73756666696369656e742042616c616e636500000000000000000000000060448201526064016200083c565b848115620037fe57818610620035af57606c546040517fc3a2a66500000000000000000000000000000000000000000000000000000000815230600482015260248101849052918390039173ffffffffffffffffffffffffffffffffffffffff9091169063c3a2a66590604401600060405180830381600087803b1580156200355d57600080fd5b505af115801562003572573d6000803e3d6000fd5b50505073ffffffffffffffffffffffffffffffffffffffff86166000908152607260205260408120818155600181018290556002015550620037fe565b50606c546040517fc3a2a6650000000000000000000000000000000000000000000000000000000081523060048201526024810187905260009173ffffffffffffffffffffffffffffffffffffffff169063c3a2a66590604401600060405180830381600087803b1580156200362457600080fd5b505af115801562003639573d6000803e3d6000fd5b50506069546040517f1bd39674000000000000000000000000000000000000000000000000000000008152600481018a90526000935073ffffffffffffffffffffffffffffffffffffffff9091169150631bd396749060240160206040518083038186803b158015620036ab57600080fd5b505afa158015620036c0573d6000803e3d6000fd5b505050506040513d601f19601f82011682018060405250810190620036e691906200400c565b8560200151620036f7919062004070565b6069546040517f7965d56d0000000000000000000000000000000000000000000000000000000081526004810183905291925060009173ffffffffffffffffffffffffffffffffffffffff90911690637965d56d9060240160206040518083038186803b1580156200376857600080fd5b505afa1580156200377d573d6000803e3d6000fd5b505050506040513d601f19601f82011682018060405250810190620037a391906200400c565b6040805160608101825291825260208083019485528882015183830190815273ffffffffffffffffffffffffffffffffffffffff8b166000908152607290925291902091518255925160018201559151600290920191909155505b801562000ead5760695462000ead9073ffffffffffffffffffffffffffffffffffffffff16863084620029fb565b6000806200383962003aab565b6068546040517f70a08231000000000000000000000000000000000000000000000000000000008152306004820152919250829173ffffffffffffffffffffffffffffffffffffffff909116906370a082319060240160206040518083038186803b158015620038a857600080fd5b505afa158015620038bd573d6000803e3d6000fd5b505050506040513d601f19601f82011682018060405250810190620038e391906200400c565b620038ef919062004055565b91505090565b600054610100900460ff166200398e576040517f08c379a000000000000000000000000000000000000000000000000000000000815260206004820152602b60248201527f496e697469616c697a61626c653a20636f6e7472616374206973206e6f74206960448201527f6e697469616c697a696e6700000000000000000000000000000000000000000060648201526084016200083c565b62000f8c62003b53565b6000620039fc826040518060400160405280602081526020017f5361666545524332303a206c6f772d6c6576656c2063616c6c206661696c65648152508573ffffffffffffffffffffffffffffffffffffffff1662003bf79092919063ffffffff16565b80519091501562001455578080602001905181019062003a1d919062004129565b62001455576040517f08c379a000000000000000000000000000000000000000000000000000000000815260206004820152602a60248201527f5361666545524332303a204552433230206f7065726174696f6e20646964206e60448201527f6f7420737563636565640000000000000000000000000000000000000000000060648201526084016200083c565b6065546040517f70a0823100000000000000000000000000000000000000000000000000000000815230600482015260009173ffffffffffffffffffffffffffffffffffffffff169081906370a082319060240160206040518083038186803b15801562003b1857600080fd5b505afa15801562003b2d573d6000803e3d6000fd5b505050506040513d601f19601f82011682018060405250810190620038ef91906200400c565b600054610100900460ff1662003bec576040517f08c379a000000000000000000000000000000000000000000000000000000000815260206004820152602b60248201527f496e697469616c697a61626c653a20636f6e7472616374206973206e6f74206960448201527f6e697469616c697a696e6700000000000000000000000000000000000000000060648201526084016200083c565b62000f8c3362003250565b606062003c08848460008562003c10565b949350505050565b60608247101562003ca4576040517f08c379a000000000000000000000000000000000000000000000000000000000815260206004820152602660248201527f416464726573733a20696e73756666696369656e742062616c616e636520666f60448201527f722063616c6c000000000000000000000000000000000000000000000000000060648201526084016200083c565b73ffffffffffffffffffffffffffffffffffffffff85163b62003d24576040517f08c379a000000000000000000000000000000000000000000000000000000000815260206004820152601d60248201527f416464726573733a2063616c6c20746f206e6f6e2d636f6e747261637400000060448201526064016200083c565b6000808673ffffffffffffffffffffffffffffffffffffffff16858760405162003d4f9190620041f0565b60006040518083038185875af1925050503d806000811462003d8e576040519150601f19603f3d011682016040523d82523d6000602084013e62003d93565b606091505b5091509150620031ed8282866060831562003db057508162002b38565b82511562003dc15782518084602001fd5b816040517f08c379a00000000000000000000000000000000000000000000000000000000081526004016200083c91906200420e565b61040d806200426283390190565b80151581146200205157600080fd5b60006020828403121562003e2757600080fd5b813562002b388162003e05565b803573ffffffffffffffffffffffffffffffffffffffff8116811462003e5957600080fd5b919050565b60006020828403121562003e7157600080fd5b62002b388262003e34565b6000806040838503121562003e9057600080fd5b82359150602083013562003ea48162003e05565b809150509250929050565b60008060008084860360e081121562003ec757600080fd5b608081121562003ed657600080fd5b50849350608085013560ff8116811462003eef57600080fd5b939693955050505060a08201359160c0013590565b60006020828403121562003f1757600080fd5b5035919050565b6000806040838503121562003f3257600080fd5b8235915062003f446020840162003e34565b90509250929050565b60008060008060008060008060008060006101608c8e03121562003f7057600080fd5b62003f7b8c62003e34565b9a5062003f8b60208d0162003e34565b995062003f9b60408d0162003e34565b985062003fab60608d0162003e34565b975062003fbb60808d0162003e34565b965062003fcb60a08d0162003e34565b955062003fdb60c08d0162003e34565b945060e08c013593506101008c013592506101208c013591506101408c013590509295989b509295989b9093969950565b6000602082840312156200401f57600080fd5b5051919050565b7f4e487b7100000000000000000000000000000000000000000000000000000000600052601160045260246000fd5b600082198211156200406b576200406b62004026565b500190565b60008282101562004085576200408562004026565b500390565b843581526020808601359082015260e0810173ffffffffffffffffffffffffffffffffffffffff620040bf6040880162003e34565b1660408301526060860135606083015260ff851660808301528360a08301528260c083015295945050505050565b60007fffffffffffffffffffffffffffffffffffffffffffffffffffffffffffffffff82141562004122576200412262004026565b5060010190565b6000602082840312156200413c57600080fd5b815162002b388162003e05565b6000604082840312156200415c57600080fd5b6040516040810181811067ffffffffffffffff82111715620041a7577f4e487b7100000000000000000000000000000000000000000000000000000000600052604160045260246000fd5b604052825181526020928301519281019290925250919050565b60005b83811015620041de578181015183820152602001620041c4565b838111156200115b5750506000910152565b6000825162004204818460208701620041c1565b9190910192915050565b60208152600082518060208401526200422f816040850160208701620041c1565b601f017fffffffffffffffffffffffffffffffffffffffffffffffffffffffffffffffe016919091016040019291505056fe60c060405234801561001057600080fd5b5060405161040d38038061040d83398101604081905261002f916100c4565b6001600160a01b0382161580159061004f57506001600160a01b03811615155b6100915760405162461bcd60e51b815260206004820152600f60248201526e496e76616c6964206164647265737360881b604482015260640160405180910390fd5b6001600160a01b039182166080521660a0526100f7565b80516001600160a01b03811681146100bf57600080fd5b919050565b600080604083850312156100d757600080fd5b6100e0836100a8565b91506100ee602084016100a8565b90509250929050565b60805160a0516102e661012760003960008181604b01526101c101526000818160b0015260ea01526102e66000f3fe608060405234801561001057600080fd5b50600436106100415760003560e01c806399248ea714610046578063c3a2a66514610096578063da19ddfb146100ab575b600080fd5b61006d7f000000000000000000000000000000000000000000000000000000000000000081565b60405173ffffffffffffffffffffffffffffffffffffffff909116815260200160405180910390f35b6100a96100a4366004610242565b6100d2565b005b61006d7f000000000000000000000000000000000000000000000000000000000000000081565b3373ffffffffffffffffffffffffffffffffffffffff7f00000000000000000000000000000000000000000000000000000000000000001614610175576040517f08c379a000000000000000000000000000000000000000000000000000000000815260206004820181905260248201527f4e6f742063616c6c65642066726f6d207374616b696e6720636f6e7472616374604482015260640160405180910390fd5b6040517fa9059cbb00000000000000000000000000000000000000000000000000000000815273ffffffffffffffffffffffffffffffffffffffff8381166004830152602482018390527f0000000000000000000000000000000000000000000000000000000000000000169063a9059cbb90604401602060405180830381600087803b15801561020557600080fd5b505af1158015610219573d6000803e3d6000fd5b505050506040513d601f19601f8201168201806040525081019061023d9190610287565b505050565b6000806040838503121561025557600080fd5b823573ffffffffffffffffffffffffffffffffffffffff8116811461027957600080fd5b946020939093013593505050565b60006020828403121561029957600080fd5b815180151581146102a957600080fd5b939250505056fea26469706673582212207ea98e6d63ce6cffc4ed61eb75ea1bff472395deeb4c0f869e4fe40dfbee0e6c64736f6c63430008090033a2646970667358221220714280ea8a6477ccdf1f364d1bfe770771ae143afc4d01d08250a18094f2d59364736f6c63430008090033",
  "linkReferences": {},
  "deployedLinkReferences": {}
}