{
  "_format": "hh-sol-artifact-1",
  "contractName": "LiquidityReserveV2Test",
  "sourceName": "src/contracts/test/LiquidityReserveUpgradeTest.sol",
  "abi": [
    {
      "anonymous": false,
      "inputs": [
        {
          "indexed": true,
          "internalType": "address",
          "name": "owner",
          "type": "address"
        },
        {
          "indexed": true,
          "internalType": "address",
          "name": "spender",
          "type": "address"
        },
        {
          "indexed": false,
          "internalType": "uint256",
          "name": "value",
          "type": "uint256"
        }
      ],
      "name": "Approval",
      "type": "event"
    },
    {
      "anonymous": false,
      "inputs": [
        {
          "indexed": false,
          "internalType": "uint256",
          "name": "fee",
          "type": "uint256"
        }
      ],
      "name": "FeeChanged",
      "type": "event"
    },
    {
      "anonymous": false,
      "inputs": [
        {
          "indexed": true,
          "internalType": "address",
          "name": "previousOwner",
          "type": "address"
        },
        {
          "indexed": true,
          "internalType": "address",
          "name": "newOwner",
          "type": "address"
        }
      ],
      "name": "OwnershipTransferred",
      "type": "event"
    },
    {
      "anonymous": false,
      "inputs": [
        {
          "indexed": true,
          "internalType": "address",
          "name": "from",
          "type": "address"
        },
        {
          "indexed": true,
          "internalType": "address",
          "name": "to",
          "type": "address"
        },
        {
          "indexed": false,
          "internalType": "uint256",
          "name": "value",
          "type": "uint256"
        }
      ],
      "name": "Transfer",
      "type": "event"
    },
    {
      "inputs": [],
      "name": "BASIS_POINTS",
      "outputs": [
        {
          "internalType": "uint256",
          "name": "",
          "type": "uint256"
        }
      ],
      "stateMutability": "view",
      "type": "function"
    },
    {
      "inputs": [],
      "name": "MINIMUM_LIQUIDITY",
      "outputs": [
        {
          "internalType": "uint256",
          "name": "",
          "type": "uint256"
        }
      ],
      "stateMutability": "view",
      "type": "function"
    },
    {
      "inputs": [
        {
          "internalType": "uint256",
          "name": "_amount",
          "type": "uint256"
        }
      ],
      "name": "addLiquidity",
      "outputs": [],
      "stateMutability": "nonpayable",
      "type": "function"
    },
    {
      "inputs": [
        {
          "internalType": "address",
          "name": "owner",
          "type": "address"
        },
        {
          "internalType": "address",
          "name": "spender",
          "type": "address"
        }
      ],
      "name": "allowance",
      "outputs": [
        {
          "internalType": "uint256",
          "name": "",
          "type": "uint256"
        }
      ],
      "stateMutability": "view",
      "type": "function"
    },
    {
      "inputs": [
        {
          "internalType": "address",
          "name": "spender",
          "type": "address"
        },
        {
          "internalType": "uint256",
          "name": "amount",
          "type": "uint256"
        }
      ],
      "name": "approve",
      "outputs": [
        {
          "internalType": "bool",
          "name": "",
          "type": "bool"
        }
      ],
      "stateMutability": "nonpayable",
      "type": "function"
    },
    {
      "inputs": [
        {
          "internalType": "address",
          "name": "account",
          "type": "address"
        }
      ],
      "name": "balanceOf",
      "outputs": [
        {
          "internalType": "uint256",
          "name": "",
          "type": "uint256"
        }
      ],
      "stateMutability": "view",
      "type": "function"
    },
    {
      "inputs": [],
      "name": "decimals",
      "outputs": [
        {
          "internalType": "uint8",
          "name": "",
          "type": "uint8"
        }
      ],
      "stateMutability": "view",
      "type": "function"
    },
    {
      "inputs": [
        {
          "internalType": "address",
          "name": "spender",
          "type": "address"
        },
        {
          "internalType": "uint256",
          "name": "subtractedValue",
          "type": "uint256"
        }
      ],
      "name": "decreaseAllowance",
      "outputs": [
        {
          "internalType": "bool",
          "name": "",
          "type": "bool"
        }
      ],
      "stateMutability": "nonpayable",
      "type": "function"
    },
    {
      "inputs": [
        {
          "internalType": "address",
          "name": "_stakingContract",
          "type": "address"
        }
      ],
      "name": "enableLiquidityReserve",
      "outputs": [],
      "stateMutability": "nonpayable",
      "type": "function"
    },
    {
      "inputs": [],
      "name": "fee",
      "outputs": [
        {
          "internalType": "uint256",
          "name": "",
          "type": "uint256"
        }
      ],
      "stateMutability": "view",
      "type": "function"
    },
    {
      "inputs": [
        {
          "internalType": "address",
          "name": "spender",
          "type": "address"
        },
        {
          "internalType": "uint256",
          "name": "addedValue",
          "type": "uint256"
        }
      ],
      "name": "increaseAllowance",
      "outputs": [
        {
          "internalType": "bool",
          "name": "",
          "type": "bool"
        }
      ],
      "stateMutability": "nonpayable",
      "type": "function"
    },
    {
      "inputs": [
        {
          "internalType": "string",
          "name": "_tokenName",
          "type": "string"
        },
        {
          "internalType": "string",
          "name": "_tokenSymbol",
          "type": "string"
        },
        {
          "internalType": "address",
          "name": "_stakingToken",
          "type": "address"
        },
        {
          "internalType": "address",
          "name": "_rewardToken",
          "type": "address"
        }
      ],
      "name": "initialize",
      "outputs": [],
      "stateMutability": "nonpayable",
      "type": "function"
    },
    {
      "inputs": [
        {
          "internalType": "uint256",
          "name": "_amount",
          "type": "uint256"
        },
        {
          "internalType": "address",
          "name": "_recipient",
          "type": "address"
        }
      ],
      "name": "instantUnstake",
      "outputs": [],
      "stateMutability": "nonpayable",
      "type": "function"
    },
    {
      "inputs": [],
      "name": "isReserveEnabled",
      "outputs": [
        {
          "internalType": "bool",
          "name": "",
          "type": "bool"
        }
      ],
      "stateMutability": "view",
      "type": "function"
    },
    {
      "inputs": [],
      "name": "name",
      "outputs": [
        {
          "internalType": "string",
          "name": "",
          "type": "string"
        }
      ],
      "stateMutability": "view",
      "type": "function"
    },
    {
      "inputs": [],
      "name": "newFunction",
      "outputs": [
        {
          "internalType": "uint256",
          "name": "",
          "type": "uint256"
        }
      ],
      "stateMutability": "pure",
      "type": "function"
    },
    {
      "inputs": [],
      "name": "owner",
      "outputs": [
        {
          "internalType": "address",
          "name": "",
          "type": "address"
        }
      ],
      "stateMutability": "view",
      "type": "function"
    },
    {
      "inputs": [
        {
          "internalType": "uint256",
          "name": "_amount",
          "type": "uint256"
        }
      ],
      "name": "removeLiquidity",
      "outputs": [],
      "stateMutability": "nonpayable",
      "type": "function"
    },
    {
      "inputs": [],
      "name": "renounceOwnership",
      "outputs": [],
      "stateMutability": "nonpayable",
      "type": "function"
    },
    {
      "inputs": [],
      "name": "rewardToken",
      "outputs": [
        {
          "internalType": "address",
          "name": "",
          "type": "address"
        }
      ],
      "stateMutability": "view",
      "type": "function"
    },
    {
      "inputs": [
        {
          "internalType": "uint256",
          "name": "_fee",
          "type": "uint256"
        }
      ],
      "name": "setFee",
      "outputs": [],
      "stateMutability": "nonpayable",
      "type": "function"
    },
    {
      "inputs": [],
      "name": "stakingContract",
      "outputs": [
        {
          "internalType": "address",
          "name": "",
          "type": "address"
        }
      ],
      "stateMutability": "view",
      "type": "function"
    },
    {
      "inputs": [],
      "name": "stakingToken",
      "outputs": [
        {
          "internalType": "address",
          "name": "",
          "type": "address"
        }
      ],
      "stateMutability": "view",
      "type": "function"
    },
    {
      "inputs": [],
      "name": "symbol",
      "outputs": [
        {
          "internalType": "string",
          "name": "",
          "type": "string"
        }
      ],
      "stateMutability": "view",
      "type": "function"
    },
    {
      "inputs": [],
      "name": "totalSupply",
      "outputs": [
        {
          "internalType": "uint256",
          "name": "",
          "type": "uint256"
        }
      ],
      "stateMutability": "view",
      "type": "function"
    },
    {
      "inputs": [
        {
          "internalType": "address",
          "name": "to",
          "type": "address"
        },
        {
          "internalType": "uint256",
          "name": "amount",
          "type": "uint256"
        }
      ],
      "name": "transfer",
      "outputs": [
        {
          "internalType": "bool",
          "name": "",
          "type": "bool"
        }
      ],
      "stateMutability": "nonpayable",
      "type": "function"
    },
    {
      "inputs": [
        {
          "internalType": "address",
          "name": "from",
          "type": "address"
        },
        {
          "internalType": "address",
          "name": "to",
          "type": "address"
        },
        {
          "internalType": "uint256",
          "name": "amount",
          "type": "uint256"
        }
      ],
      "name": "transferFrom",
      "outputs": [
        {
          "internalType": "bool",
          "name": "",
          "type": "bool"
        }
      ],
      "stateMutability": "nonpayable",
      "type": "function"
    },
    {
      "inputs": [
        {
          "internalType": "address",
          "name": "newOwner",
          "type": "address"
        }
      ],
      "name": "transferOwnership",
      "outputs": [],
      "stateMutability": "nonpayable",
      "type": "function"
    },
    {
      "inputs": [],
      "name": "unstakeAllRewardTokens",
      "outputs": [],
      "stateMutability": "nonpayable",
      "type": "function"
    }
  ],
  "bytecode": "0x608060405234801561001057600080fd5b50612fbc806100206000396000f3fe608060405234801561001057600080fd5b50600436106101cf5760003560e01c80638da5cb5b11610104578063bbb6a983116100a2578063ed45647811610071578063ed4564781461041c578063ee99205c14610424578063f2fde38b14610444578063f7c618c11461045757600080fd5b8063bbb6a983146103b1578063dd62ed3e146103c4578063ddca3f431461040a578063e1f1c4a71461041357600080fd5b80639c8f9f23116100de5780639c8f9f231461036a578063a457c2d71461037d578063a9059cbb14610390578063ba9a7a56146103a357600080fd5b80638da5cb5b146103315780638f15b4141461034f57806395d89b411461036257600080fd5b8063395093511161017157806369fe0e2d1161014b57806369fe0e2d1461029b57806370a08231146102ae578063715018a6146102e457806372f702f3146102ec57600080fd5b806339509351146102605780634246d1ff1461027357806351c6590a1461028857600080fd5b80631b28d63e116101ad5780631b28d63e1461022757806323b872dd146102315780632dd2f33c14610244578063313ce5671461025157600080fd5b806306fdde03146101d4578063095ea7b3146101f257806318160ddd14610215575b600080fd5b6101dc610477565b6040516101e99190612ae0565b60405180910390f35b610205610200366004612b5a565b610509565b60405190151581526020016101e9565b6039545b6040519081526020016101e9565b633ade68b1610219565b61020561023f366004612b84565b610521565b6004546102059060ff1681565b604051601281526020016101e9565b61020561026e366004612b5a565b610547565b610286610281366004612bc0565b610593565b005b610286610296366004612bdb565b610982565b6102866102a9366004612bdb565b610c59565b6102196102bc366004612bc0565b73ffffffffffffffffffffffffffffffffffffffff1660009081526037602052604090205490565b610286610d81565b60005461030c9073ffffffffffffffffffffffffffffffffffffffff1681565b60405173ffffffffffffffffffffffffffffffffffffffff90911681526020016101e9565b60695473ffffffffffffffffffffffffffffffffffffffff1661030c565b61028661035d366004612cce565b610e0e565b6101dc61103d565b610286610378366004612bdb565b61104c565b61020561038b366004612b5a565b611293565b61020561039e366004612b5a565b61136f565b61021966038d7ea4c6800081565b6102866103bf366004612d53565b61137d565b6102196103d2366004612d7f565b73ffffffffffffffffffffffffffffffffffffffff918216600090815260386020908152604080832093909416825291909152205490565b61021960035481565b61021961271081565b61028661156d565b60025461030c9073ffffffffffffffffffffffffffffffffffffffff1681565b610286610452366004612bc0565b61170d565b60015461030c9073ffffffffffffffffffffffffffffffffffffffff1681565b6060603a805461048690612da9565b80601f01602080910402602001604051908101604052809291908181526020018280546104b290612da9565b80156104ff5780601f106104d4576101008083540402835291602001916104ff565b820191906000526020600020905b8154815290600101906020018083116104e257829003601f168201915b5050505050905090565b60003361051781858561183a565b5060019392505050565b60003361052f8582856119ed565b61053a858585611ac4565b60019150505b9392505050565b33600081815260386020908152604080832073ffffffffffffffffffffffffffffffffffffffff87168452909152812054909190610517908290869061058e908790612e2c565b61183a565b60695473ffffffffffffffffffffffffffffffffffffffff163314610619576040517f08c379a000000000000000000000000000000000000000000000000000000000815260206004820181905260248201527f4f776e61626c653a2063616c6c6572206973206e6f7420746865206f776e657260448201526064015b60405180910390fd5b60045460ff1615610686576040517f08c379a000000000000000000000000000000000000000000000000000000000815260206004820152600f60248201527f416c726561647920656e61626c656400000000000000000000000000000000006044820152606401610610565b73ffffffffffffffffffffffffffffffffffffffff8116610703576040517f08c379a000000000000000000000000000000000000000000000000000000000815260206004820152600f60248201527f496e76616c6964206164647265737300000000000000000000000000000000006044820152606401610610565b600080546040517f70a0823100000000000000000000000000000000000000000000000000000000815233600482015273ffffffffffffffffffffffffffffffffffffffff909116906370a082319060240160206040518083038186803b15801561076d57600080fd5b505afa158015610781573d6000803e3d6000fd5b505050506040513d601f19601f820116820180604052508101906107a59190612e44565b905066038d7ea4c68000811015610818576040517f08c379a000000000000000000000000000000000000000000000000000000000815260206004820152601960248201527f4e6f7420656e6f756768207374616b696e6720746f6b656e73000000000000006044820152606401610610565b600280547fffffffffffffffffffffffff00000000000000000000000000000000000000001673ffffffffffffffffffffffffffffffffffffffff848116919091179091556000546108749116333066038d7ea4c68000611d77565b6108853066038d7ea4c68000611e53565b6001546002546040517f095ea7b300000000000000000000000000000000000000000000000000000000815273ffffffffffffffffffffffffffffffffffffffff91821660048201527fffffffffffffffffffffffffffffffffffffffffffffffffffffffffffffffff602482015291169063095ea7b390604401602060405180830381600087803b15801561091a57600080fd5b505af115801561092e573d6000803e3d6000fd5b505050506040513d601f19601f820116820180604052508101906109529190612e5d565b5050600480547fffffffffffffffffffffffffffffffffffffffffffffffffffffffffffffff0016600117905550565b60045460ff166109ee576040517f08c379a000000000000000000000000000000000000000000000000000000000815260206004820152600f60248201527f4e6f7420656e61626c65642079657400000000000000000000000000000000006044820152606401610610565b600080546040517f70a0823100000000000000000000000000000000000000000000000000000000815230600482015273ffffffffffffffffffffffffffffffffffffffff909116906370a082319060240160206040518083038186803b158015610a5857600080fd5b505afa158015610a6c573d6000803e3d6000fd5b505050506040513d601f19601f82011682018060405250810190610a909190612e44565b6001546040517f70a0823100000000000000000000000000000000000000000000000000000000815230600482015291925060009173ffffffffffffffffffffffffffffffffffffffff909116906370a082319060240160206040518083038186803b158015610aff57600080fd5b505afa158015610b13573d6000803e3d6000fd5b505050506040513d601f19601f82011682018060405250810190610b379190612e44565b90506000610b4460395490565b6002546040517f1b618cc000000000000000000000000000000000000000000000000000000000815230600482015291925060009173ffffffffffffffffffffffffffffffffffffffff90911690631b618cc09060240160606040518083038186803b158015610bb357600080fd5b505afa158015610bc7573d6000803e3d6000fd5b505050506040513d601f19601f82011682018060405250810190610beb9190612e7f565b519050600081610bfb8587612e2c565b610c059190612e2c565b9050600081610c148589612edb565b610c1e9190612f18565b600054909150610c469073ffffffffffffffffffffffffffffffffffffffff1633308a611d77565b610c503382611e53565b50505050505050565b60695473ffffffffffffffffffffffffffffffffffffffff163314610cda576040517f08c379a000000000000000000000000000000000000000000000000000000000815260206004820181905260248201527f4f776e61626c653a2063616c6c6572206973206e6f7420746865206f776e65726044820152606401610610565b612710811115610d46576040517f08c379a000000000000000000000000000000000000000000000000000000000815260206004820152600c60248201527f4f7574206f662072616e676500000000000000000000000000000000000000006044820152606401610610565b60038190556040518181527f6bbc57480a46553fa4d156ce702beef5f3ad66303b0ed1a5d4cb44966c6584c39060200160405180910390a150565b60695473ffffffffffffffffffffffffffffffffffffffff163314610e02576040517f08c379a000000000000000000000000000000000000000000000000000000000815260206004820181905260248201527f4f776e61626c653a2063616c6c6572206973206e6f7420746865206f776e65726044820152606401610610565b610e0c6000611f73565b565b60045462010000900460ff16610e2f57600454610100900460ff1615610e33565b303b155b610ebf576040517f08c379a000000000000000000000000000000000000000000000000000000000815260206004820152602e60248201527f496e697469616c697a61626c653a20636f6e747261637420697320616c72656160448201527f647920696e697469616c697a65640000000000000000000000000000000000006064820152608401610610565b60045462010000900460ff16158015610f0057600480547fffffffffffffffffffffffffffffffffffffffffffffffffffffffffff0000ff16620101001790555b610f0a8585611fea565b610f1261208c565b73ffffffffffffffffffffffffffffffffffffffff831615801590610f4c575073ffffffffffffffffffffffffffffffffffffffff821615155b610fb2576040517f08c379a000000000000000000000000000000000000000000000000000000000815260206004820152600f60248201527f496e76616c6964206164647265737300000000000000000000000000000000006044820152606401610610565b6000805473ffffffffffffffffffffffffffffffffffffffff8086167fffffffffffffffffffffffff0000000000000000000000000000000000000000928316179092556001805492851692909116919091179055801561103657600480547fffffffffffffffffffffffffffffffffffffffffffffffffffffffffff00ffff1690555b5050505050565b6060603b805461048690612da9565b336000908152603760205260409020548111156110c5576040517f08c379a000000000000000000000000000000000000000000000000000000000815260206004820152601460248201527f4e6f7420656e6f756768206c7220746f6b656e730000000000000000000000006044820152606401610610565b6002546040517f516c49d900000000000000000000000000000000000000000000000000000000815230600482015273ffffffffffffffffffffffffffffffffffffffff9091169063516c49d990602401600060405180830381600087803b15801561113057600080fd5b505af1158015611144573d6000803e3d6000fd5b5050505060006111538261212c565b6000546040517f70a08231000000000000000000000000000000000000000000000000000000008152306004820152919250829173ffffffffffffffffffffffffffffffffffffffff909116906370a082319060240160206040518083038186803b1580156111c157600080fd5b505afa1580156111d5573d6000803e3d6000fd5b505050506040513d601f19601f820116820180604052508101906111f99190612e44565b1015611261576040517f08c379a000000000000000000000000000000000000000000000000000000000815260206004820152601060248201527f4e6f7420656e6f7567682066756e6473000000000000000000000000000000006044820152606401610610565b61126b338361236c565b60005461128f9073ffffffffffffffffffffffffffffffffffffffff163383612559565b5050565b33600081815260386020908152604080832073ffffffffffffffffffffffffffffffffffffffff8716845290915281205490919083811015611357576040517f08c379a000000000000000000000000000000000000000000000000000000000815260206004820152602560248201527f45524332303a2064656372656173656420616c6c6f77616e63652062656c6f7760448201527f207a65726f0000000000000000000000000000000000000000000000000000006064820152608401610610565b611364828686840361183a565b506001949350505050565b600033610517818585611ac4565b60025473ffffffffffffffffffffffffffffffffffffffff1633146113fe576040517f08c379a000000000000000000000000000000000000000000000000000000000815260206004820152601460248201527f4e6f74207374616b696e6720636f6e74726163740000000000000000000000006044820152606401610610565b60045460ff1661146a576040517f08c379a000000000000000000000000000000000000000000000000000000000815260206004820152600f60248201527f4e6f7420656e61626c65642079657400000000000000000000000000000000006044820152606401610610565b6002546040517f516c49d900000000000000000000000000000000000000000000000000000000815230600482015273ffffffffffffffffffffffffffffffffffffffff9091169063516c49d990602401600060405180830381600087803b1580156114d557600080fd5b505af11580156114e9573d6000803e3d6000fd5b505050506000612710600354846115009190612edb565b61150a9190612f18565b6115149084612f53565b60015490915061153c9073ffffffffffffffffffffffffffffffffffffffff16333086611d77565b6000546115609073ffffffffffffffffffffffffffffffffffffffff168383612559565b61156861156d565b505050565b60045460ff166115d9576040517f08c379a000000000000000000000000000000000000000000000000000000000815260206004820152600f60248201527f4e6f7420656e61626c65642079657400000000000000000000000000000000006044820152606401610610565b6001546040517f70a0823100000000000000000000000000000000000000000000000000000000815230600482015260009173ffffffffffffffffffffffffffffffffffffffff16906370a082319060240160206040518083038186803b15801561164357600080fd5b505afa158015611657573d6000803e3d6000fd5b505050506040513d601f19601f8201168201806040525081019061167b9190612e44565b9050801561170a576002546040517f9ebea88c000000000000000000000000000000000000000000000000000000008152600481018390526000602482015273ffffffffffffffffffffffffffffffffffffffff90911690639ebea88c90604401600060405180830381600087803b1580156116f657600080fd5b505af1158015611036573d6000803e3d6000fd5b50565b60695473ffffffffffffffffffffffffffffffffffffffff16331461178e576040517f08c379a000000000000000000000000000000000000000000000000000000000815260206004820181905260248201527f4f776e61626c653a2063616c6c6572206973206e6f7420746865206f776e65726044820152606401610610565b73ffffffffffffffffffffffffffffffffffffffff8116611831576040517f08c379a000000000000000000000000000000000000000000000000000000000815260206004820152602660248201527f4f776e61626c653a206e6577206f776e657220697320746865207a65726f206160448201527f64647265737300000000000000000000000000000000000000000000000000006064820152608401610610565b61170a81611f73565b73ffffffffffffffffffffffffffffffffffffffff83166118dc576040517f08c379a0000000000000000000000000000000000000000000000000000000008152602060048201526024808201527f45524332303a20617070726f76652066726f6d20746865207a65726f2061646460448201527f72657373000000000000000000000000000000000000000000000000000000006064820152608401610610565b73ffffffffffffffffffffffffffffffffffffffff821661197f576040517f08c379a000000000000000000000000000000000000000000000000000000000815260206004820152602260248201527f45524332303a20617070726f766520746f20746865207a65726f20616464726560448201527f73730000000000000000000000000000000000000000000000000000000000006064820152608401610610565b73ffffffffffffffffffffffffffffffffffffffff83811660008181526038602090815260408083209487168084529482529182902085905590518481527f8c5be1e5ebec7d5bd14f71427d1e84f3dd0314c0f7b2291e5b200ac8c7c3b925910160405180910390a3505050565b73ffffffffffffffffffffffffffffffffffffffff8381166000908152603860209081526040808320938616835292905220547fffffffffffffffffffffffffffffffffffffffffffffffffffffffffffffffff8114611abe5781811015611ab1576040517f08c379a000000000000000000000000000000000000000000000000000000000815260206004820152601d60248201527f45524332303a20696e73756666696369656e7420616c6c6f77616e63650000006044820152606401610610565b611abe848484840361183a565b50505050565b73ffffffffffffffffffffffffffffffffffffffff8316611b67576040517f08c379a000000000000000000000000000000000000000000000000000000000815260206004820152602560248201527f45524332303a207472616e736665722066726f6d20746865207a65726f20616460448201527f64726573730000000000000000000000000000000000000000000000000000006064820152608401610610565b73ffffffffffffffffffffffffffffffffffffffff8216611c0a576040517f08c379a000000000000000000000000000000000000000000000000000000000815260206004820152602360248201527f45524332303a207472616e7366657220746f20746865207a65726f206164647260448201527f65737300000000000000000000000000000000000000000000000000000000006064820152608401610610565b73ffffffffffffffffffffffffffffffffffffffff831660009081526037602052604090205481811015611cc0576040517f08c379a000000000000000000000000000000000000000000000000000000000815260206004820152602660248201527f45524332303a207472616e7366657220616d6f756e742065786365656473206260448201527f616c616e636500000000000000000000000000000000000000000000000000006064820152608401610610565b73ffffffffffffffffffffffffffffffffffffffff808516600090815260376020526040808220858503905591851681529081208054849290611d04908490612e2c565b925050819055508273ffffffffffffffffffffffffffffffffffffffff168473ffffffffffffffffffffffffffffffffffffffff167fddf252ad1be2c89b69c2b068fc378daa952ba7f163c4a11628f55a4df523b3ef84604051611d6a91815260200190565b60405180910390a3611abe565b60405173ffffffffffffffffffffffffffffffffffffffff80851660248301528316604482015260648101829052611abe9085907f23b872dd00000000000000000000000000000000000000000000000000000000906084015b604080517fffffffffffffffffffffffffffffffffffffffffffffffffffffffffffffffe08184030181529190526020810180517bffffffffffffffffffffffffffffffffffffffffffffffffffffffff167fffffffff00000000000000000000000000000000000000000000000000000000909316929092179091526125af565b73ffffffffffffffffffffffffffffffffffffffff8216611ed0576040517f08c379a000000000000000000000000000000000000000000000000000000000815260206004820152601f60248201527f45524332303a206d696e7420746f20746865207a65726f2061646472657373006044820152606401610610565b8060396000828254611ee29190612e2c565b909155505073ffffffffffffffffffffffffffffffffffffffff821660009081526037602052604081208054839290611f1c908490612e2c565b909155505060405181815273ffffffffffffffffffffffffffffffffffffffff8316906000907fddf252ad1be2c89b69c2b068fc378daa952ba7f163c4a11628f55a4df523b3ef9060200160405180910390a35050565b6069805473ffffffffffffffffffffffffffffffffffffffff8381167fffffffffffffffffffffffff0000000000000000000000000000000000000000831681179093556040519116919082907f8be0079c531659141344cd1fd0a4f28419497f9722a3daafe3b4186f6b6457e090600090a35050565b60045462010000900460ff16612082576040517f08c379a000000000000000000000000000000000000000000000000000000000815260206004820152602b60248201527f496e697469616c697a61626c653a20636f6e7472616374206973206e6f74206960448201527f6e697469616c697a696e670000000000000000000000000000000000000000006064820152608401610610565b61128f82826126bb565b60045462010000900460ff16612124576040517f08c379a000000000000000000000000000000000000000000000000000000000815260206004820152602b60248201527f496e697469616c697a61626c653a20636f6e7472616374206973206e6f74206960448201527f6e697469616c697a696e670000000000000000000000000000000000000000006064820152608401610610565b610e0c61277a565b60008061213860395490565b600080546040517f70a08231000000000000000000000000000000000000000000000000000000008152306004820152929350909173ffffffffffffffffffffffffffffffffffffffff909116906370a082319060240160206040518083038186803b1580156121a757600080fd5b505afa1580156121bb573d6000803e3d6000fd5b505050506040513d601f19601f820116820180604052508101906121df9190612e44565b6001546040517f70a0823100000000000000000000000000000000000000000000000000000000815230600482015291925060009173ffffffffffffffffffffffffffffffffffffffff909116906370a082319060240160206040518083038186803b15801561224e57600080fd5b505afa158015612262573d6000803e3d6000fd5b505050506040513d601f19601f820116820180604052508101906122869190612e44565b6002546040517f1b618cc000000000000000000000000000000000000000000000000000000000815230600482015291925060009173ffffffffffffffffffffffffffffffffffffffff90911690631b618cc09060240160606040518083038186803b1580156122f557600080fd5b505afa158015612309573d6000803e3d6000fd5b505050506040513d601f19601f8201168201806040525081019061232d9190612e7f565b51905060008161233d8486612e2c565b6123479190612e2c565b9050600085612356838a612edb565b6123609190612f18565b98975050505050505050565b73ffffffffffffffffffffffffffffffffffffffff821661240f576040517f08c379a000000000000000000000000000000000000000000000000000000000815260206004820152602160248201527f45524332303a206275726e2066726f6d20746865207a65726f2061646472657360448201527f73000000000000000000000000000000000000000000000000000000000000006064820152608401610610565b73ffffffffffffffffffffffffffffffffffffffff8216600090815260376020526040902054818110156124c5576040517f08c379a000000000000000000000000000000000000000000000000000000000815260206004820152602260248201527f45524332303a206275726e20616d6f756e7420657863656564732062616c616e60448201527f63650000000000000000000000000000000000000000000000000000000000006064820152608401610610565b73ffffffffffffffffffffffffffffffffffffffff83166000908152603760205260408120838303905560398054849290612501908490612f53565b909155505060405182815260009073ffffffffffffffffffffffffffffffffffffffff8516907fddf252ad1be2c89b69c2b068fc378daa952ba7f163c4a11628f55a4df523b3ef9060200160405180910390a3505050565b60405173ffffffffffffffffffffffffffffffffffffffff83166024820152604481018290526115689084907fa9059cbb0000000000000000000000000000000000000000000000000000000090606401611dd1565b6000612611826040518060400160405280602081526020017f5361666545524332303a206c6f772d6c6576656c2063616c6c206661696c65648152508573ffffffffffffffffffffffffffffffffffffffff1661281b9092919063ffffffff16565b805190915015611568578080602001905181019061262f9190612e5d565b611568576040517f08c379a000000000000000000000000000000000000000000000000000000000815260206004820152602a60248201527f5361666545524332303a204552433230206f7065726174696f6e20646964206e60448201527f6f742073756363656564000000000000000000000000000000000000000000006064820152608401610610565b60045462010000900460ff16612753576040517f08c379a000000000000000000000000000000000000000000000000000000000815260206004820152602b60248201527f496e697469616c697a61626c653a20636f6e7472616374206973206e6f74206960448201527f6e697469616c697a696e670000000000000000000000000000000000000000006064820152608401610610565b815161276690603a906020850190612a1b565b50805161156890603b906020840190612a1b565b60045462010000900460ff16612812576040517f08c379a000000000000000000000000000000000000000000000000000000000815260206004820152602b60248201527f496e697469616c697a61626c653a20636f6e7472616374206973206e6f74206960448201527f6e697469616c697a696e670000000000000000000000000000000000000000006064820152608401610610565b610e0c33611f73565b606061282a8484600085612832565b949350505050565b6060824710156128c4576040517f08c379a000000000000000000000000000000000000000000000000000000000815260206004820152602660248201527f416464726573733a20696e73756666696369656e742062616c616e636520666f60448201527f722063616c6c00000000000000000000000000000000000000000000000000006064820152608401610610565b73ffffffffffffffffffffffffffffffffffffffff85163b612942576040517f08c379a000000000000000000000000000000000000000000000000000000000815260206004820152601d60248201527f416464726573733a2063616c6c20746f206e6f6e2d636f6e74726163740000006044820152606401610610565b6000808673ffffffffffffffffffffffffffffffffffffffff16858760405161296b9190612f6a565b60006040518083038185875af1925050503d80600081146129a8576040519150601f19603f3d011682016040523d82523d6000602084013e6129ad565b606091505b50915091506129bd8282866129c8565b979650505050505050565b606083156129d7575081610540565b8251156129e75782518084602001fd5b816040517f08c379a00000000000000000000000000000000000000000000000000000000081526004016106109190612ae0565b828054612a2790612da9565b90600052602060002090601f016020900481019282612a495760008555612a8f565b82601f10612a6257805160ff1916838001178555612a8f565b82800160010185558215612a8f579182015b82811115612a8f578251825591602001919060010190612a74565b50612a9b929150612a9f565b5090565b5b80821115612a9b5760008155600101612aa0565b60005b83811015612acf578181015183820152602001612ab7565b83811115611abe5750506000910152565b6020815260008251806020840152612aff816040850160208701612ab4565b601f017fffffffffffffffffffffffffffffffffffffffffffffffffffffffffffffffe0169190910160400192915050565b803573ffffffffffffffffffffffffffffffffffffffff81168114612b5557600080fd5b919050565b60008060408385031215612b6d57600080fd5b612b7683612b31565b946020939093013593505050565b600080600060608486031215612b9957600080fd5b612ba284612b31565b9250612bb060208501612b31565b9150604084013590509250925092565b600060208284031215612bd257600080fd5b61054082612b31565b600060208284031215612bed57600080fd5b5035919050565b7f4e487b7100000000000000000000000000000000000000000000000000000000600052604160045260246000fd5b600082601f830112612c3457600080fd5b813567ffffffffffffffff80821115612c4f57612c4f612bf4565b604051601f83017fffffffffffffffffffffffffffffffffffffffffffffffffffffffffffffffe0908116603f01168101908282118183101715612c9557612c95612bf4565b81604052838152866020858801011115612cae57600080fd5b836020870160208301376000602085830101528094505050505092915050565b60008060008060808587031215612ce457600080fd5b843567ffffffffffffffff80821115612cfc57600080fd5b612d0888838901612c23565b95506020870135915080821115612d1e57600080fd5b50612d2b87828801612c23565b935050612d3a60408601612b31565b9150612d4860608601612b31565b905092959194509250565b60008060408385031215612d6657600080fd5b82359150612d7660208401612b31565b90509250929050565b60008060408385031215612d9257600080fd5b612d9b83612b31565b9150612d7660208401612b31565b600181811c90821680612dbd57607f821691505b60208210811415612df7577f4e487b7100000000000000000000000000000000000000000000000000000000600052602260045260246000fd5b50919050565b7f4e487b7100000000000000000000000000000000000000000000000000000000600052601160045260246000fd5b60008219821115612e3f57612e3f612dfd565b500190565b600060208284031215612e5657600080fd5b5051919050565b600060208284031215612e6f57600080fd5b8151801515811461054057600080fd5b600060608284031215612e9157600080fd5b6040516060810181811067ffffffffffffffff82111715612eb457612eb4612bf4565b80604052508251815260208301516020820152604083015160408201528091505092915050565b6000817fffffffffffffffffffffffffffffffffffffffffffffffffffffffffffffffff0483118215151615612f1357612f13612dfd565b500290565b600082612f4e577f4e487b7100000000000000000000000000000000000000000000000000000000600052601260045260246000fd5b500490565b600082821015612f6557612f65612dfd565b500390565b60008251612f7c818460208701612ab4565b919091019291505056fea26469706673582212202f079bfc19bffadf2fbb4553262b02c2a58596639f4eaf608786e11c0d47b5ef64736f6c63430008090033",
  "linkReferences": {},
  "deployedLinkReferences": {}
}